{
    "contractName": "OddsdexContract",
    "abi": [
        {
            "inputs": [
                {
                    "internalType": "address",
                    "name": "_root",
                    "type": "address"
                },
                {
                    "internalType": "address",
                    "name": "_broker",
                    "type": "address"
                }
            ],
            "stateMutability": "nonpayable",
            "type": "constructor"
        },
        {
            "anonymous": false,
            "inputs": [
                {
                    "components": [
                        {
                            "internalType": "bytes32",
                            "name": "id",
                            "type": "bytes32"
                        },
                        {
                            "internalType": "bytes32",
                            "name": "refFId",
                            "type": "bytes32"
                        },
                        {
                            "internalType": "bytes32",
                            "name": "refBId",
                            "type": "bytes32"
                        },
                        {
                            "internalType": "bytes32",
                            "name": "mtn",
                            "type": "bytes32"
                        },
                        {
                            "internalType": "address",
                            "name": "broker",
                            "type": "address"
                        },
                        {
                            "internalType": "uint256",
                            "name": "dealOdds",
                            "type": "uint256"
                        },
                        {
                            "internalType": "uint256",
                            "name": "dealPrice",
                            "type": "uint256"
                        },
                        {
                            "internalType": "uint256",
                            "name": "tailFOdds",
                            "type": "uint256"
                        },
                        {
                            "internalType": "uint256",
                            "name": "tailBOdds",
                            "type": "uint256"
                        },
                        {
                            "internalType": "uint256",
                            "name": "tailFCostOnBill",
                            "type": "uint256"
                        },
                        {
                            "internalType": "uint256",
                            "name": "tailBCostOnBill",
                            "type": "uint256"
                        },
                        {
                            "internalType": "uint256",
                            "name": "tailFRefundCosts",
                            "type": "uint256"
                        },
                        {
                            "internalType": "uint256",
                            "name": "tailBRefundCosts",
                            "type": "uint256"
                        },
                        {
                            "internalType": "uint256",
                            "name": "prize",
                            "type": "uint256"
                        },
                        {
                            "internalType": "enum CoinDirection",
                            "name": "winningDirection",
                            "type": "uint8"
                        }
                    ],
                    "indexed": false,
                    "internalType": "struct MatchmakingBill",
                    "name": "bill",
                    "type": "tuple"
                }
            ],
            "name": "OnMatchMakingEvent",
            "type": "event"
        },
        {
            "anonymous": false,
            "inputs": [
                {
                    "indexed": false,
                    "internalType": "uint32",
                    "name": "matchmakeTimes",
                    "type": "uint32"
                },
                {
                    "indexed": false,
                    "internalType": "enum CoinDirection",
                    "name": "winningDirection",
                    "type": "uint8"
                }
            ],
            "name": "OnMatchmakeReturn",
            "type": "event"
        },
        {
            "anonymous": false,
            "inputs": [
                {
                    "components": [
                        {
                            "internalType": "address",
                            "name": "broker",
                            "type": "address"
                        },
                        {
                            "internalType": "uint256",
                            "name": "amount",
                            "type": "uint256"
                        },
                        {
                            "internalType": "uint256",
                            "name": "balance",
                            "type": "uint256"
                        },
                        {
                            "internalType": "uint256",
                            "name": "gas",
                            "type": "uint256"
                        }
                    ],
                    "indexed": false,
                    "internalType": "struct RechargeBill",
                    "name": "bill",
                    "type": "tuple"
                }
            ],
            "name": "OnRechargeEvent",
            "type": "event"
        },
        {
            "anonymous": false,
            "inputs": [
                {
                    "components": [
                        {
                            "internalType": "bytes32",
                            "name": "id",
                            "type": "bytes32"
                        },
                        {
                            "internalType": "bytes32",
                            "name": "refId",
                            "type": "bytes32"
                        },
                        {
                            "internalType": "bytes32",
                            "name": "mtn",
                            "type": "bytes32"
                        },
                        {
                            "internalType": "address",
                            "name": "owner",
                            "type": "address"
                        },
                        {
                            "internalType": "uint256",
                            "name": "costs",
                            "type": "uint256"
                        }
                    ],
                    "indexed": false,
                    "internalType": "struct RefundBill",
                    "name": "bill",
                    "type": "tuple"
                }
            ],
            "name": "OnRefundBillEvent",
            "type": "event"
        },
        {
            "anonymous": false,
            "inputs": [
                {
                    "components": [
                        {
                            "internalType": "bytes32",
                            "name": "id",
                            "type": "bytes32"
                        },
                        {
                            "internalType": "bytes32",
                            "name": "refId",
                            "type": "bytes32"
                        },
                        {
                            "internalType": "bytes32",
                            "name": "mtn",
                            "type": "bytes32"
                        },
                        {
                            "internalType": "address",
                            "name": "owner",
                            "type": "address"
                        },
                        {
                            "internalType": "uint16",
                            "name": "kickbackRate",
                            "type": "uint16"
                        },
                        {
                            "internalType": "uint16",
                            "name": "brokerageRate",
                            "type": "uint16"
                        },
                        {
                            "internalType": "uint16",
                            "name": "taxRate",
                            "type": "uint16"
                        },
                        {
                            "internalType": "uint256",
                            "name": "prize",
                            "type": "uint256"
                        },
                        {
                            "internalType": "uint256",
                            "name": "bonus",
                            "type": "uint256"
                        },
                        {
                            "internalType": "uint256",
                            "name": "kickback",
                            "type": "uint256"
                        },
                        {
                            "internalType": "uint256",
                            "name": "brokerage",
                            "type": "uint256"
                        },
                        {
                            "internalType": "uint256",
                            "name": "tax",
                            "type": "uint256"
                        }
                    ],
                    "indexed": false,
                    "internalType": "struct SplitBill",
                    "name": "bill",
                    "type": "tuple"
                }
            ],
            "name": "OnSplitBillEvent",
            "type": "event"
        },
        {
            "anonymous": false,
            "inputs": [
                {
                    "components": [
                        {
                            "internalType": "bytes32",
                            "name": "id",
                            "type": "bytes32"
                        },
                        {
                            "internalType": "address",
                            "name": "owner",
                            "type": "address"
                        },
                        {
                            "internalType": "uint256",
                            "name": "odds",
                            "type": "uint256"
                        },
                        {
                            "internalType": "uint256",
                            "name": "costs",
                            "type": "uint256"
                        },
                        {
                            "internalType": "uint256",
                            "name": "buyPrice",
                            "type": "uint256"
                        },
                        {
                            "internalType": "uint256",
                            "name": "marketPrice",
                            "type": "uint256"
                        },
                        {
                            "internalType": "enum CoinDirection",
                            "name": "buyDirection",
                            "type": "uint8"
                        },
                        {
                            "internalType": "uint256",
                            "name": "gas",
                            "type": "uint256"
                        },
                        {
                            "internalType": "uint32",
                            "name": "luckyNumber",
                            "type": "uint32"
                        }
                    ],
                    "indexed": false,
                    "internalType": "struct StakeBill",
                    "name": "bill",
                    "type": "tuple"
                }
            ],
            "name": "OnStakeBillEvent",
            "type": "event"
        },
        {
            "stateMutability": "payable",
            "type": "fallback"
        },
        {
            "inputs": [
                {
                    "internalType": "enum CoinDirection",
                    "name": "winningDirection",
                    "type": "uint8"
                }
            ],
            "name": "canMatchmaking",
            "outputs": [
                {
                    "internalType": "bool",
                    "name": "matched",
                    "type": "bool"
                },
                {
                    "components": [
                        {
                            "internalType": "uint32",
                            "name": "bitIndexAtF",
                            "type": "uint32"
                        },
                        {
                            "components": [
                                {
                                    "internalType": "bytes32",
                                    "name": "id",
                                    "type": "bytes32"
                                },
                                {
                                    "internalType": "address",
                                    "name": "owner",
                                    "type": "address"
                                },
                                {
                                    "internalType": "uint256",
                                    "name": "odds",
                                    "type": "uint256"
                                },
                                {
                                    "internalType": "uint256",
                                    "name": "costs",
                                    "type": "uint256"
                                },
                                {
                                    "internalType": "uint256",
                                    "name": "buyPrice",
                                    "type": "uint256"
                                },
                                {
                                    "internalType": "uint256",
                                    "name": "marketPrice",
                                    "type": "uint256"
                                },
                                {
                                    "internalType": "enum CoinDirection",
                                    "name": "buyDirection",
                                    "type": "uint8"
                                },
                                {
                                    "internalType": "uint256",
                                    "name": "gas",
                                    "type": "uint256"
                                },
                                {
                                    "internalType": "uint32",
                                    "name": "luckyNumber",
                                    "type": "uint32"
                                }
                            ],
                            "internalType": "struct StakeBill",
                            "name": "tailF",
                            "type": "tuple"
                        },
                        {
                            "internalType": "uint32",
                            "name": "bitIndexAtB",
                            "type": "uint32"
                        },
                        {
                            "components": [
                                {
                                    "internalType": "bytes32",
                                    "name": "id",
                                    "type": "bytes32"
                                },
                                {
                                    "internalType": "address",
                                    "name": "owner",
                                    "type": "address"
                                },
                                {
                                    "internalType": "uint256",
                                    "name": "odds",
                                    "type": "uint256"
                                },
                                {
                                    "internalType": "uint256",
                                    "name": "costs",
                                    "type": "uint256"
                                },
                                {
                                    "internalType": "uint256",
                                    "name": "buyPrice",
                                    "type": "uint256"
                                },
                                {
                                    "internalType": "uint256",
                                    "name": "marketPrice",
                                    "type": "uint256"
                                },
                                {
                                    "internalType": "enum CoinDirection",
                                    "name": "buyDirection",
                                    "type": "uint8"
                                },
                                {
                                    "internalType": "uint256",
                                    "name": "gas",
                                    "type": "uint256"
                                },
                                {
                                    "internalType": "uint32",
                                    "name": "luckyNumber",
                                    "type": "uint32"
                                }
                            ],
                            "internalType": "struct StakeBill",
                            "name": "tailB",
                            "type": "tuple"
                        }
                    ],
                    "internalType": "struct MatchmakingResult",
                    "name": "result",
                    "type": "tuple"
                }
            ],
            "stateMutability": "view",
            "type": "function"
        },
        {
            "inputs": [],
            "name": "getBackQueueCount",
            "outputs": [
                {
                    "internalType": "uint256",
                    "name": "",
                    "type": "uint256"
                }
            ],
            "stateMutability": "view",
            "type": "function"
        },
        {
            "inputs": [],
            "name": "getBalance",
            "outputs": [
                {
                    "internalType": "uint256",
                    "name": "",
                    "type": "uint256"
                }
            ],
            "stateMutability": "view",
            "type": "function"
        },
        {
            "inputs": [],
            "name": "getBroker",
            "outputs": [
                {
                    "internalType": "address",
                    "name": "",
                    "type": "address"
                }
            ],
            "stateMutability": "view",
            "type": "function"
        },
        {
            "inputs": [],
            "name": "getBulletinBoard",
            "outputs": [
                {
                    "components": [
                        {
                            "internalType": "uint256",
                            "name": "oddunit",
                            "type": "uint256"
                        },
                        {
                            "internalType": "uint256",
                            "name": "price",
                            "type": "uint256"
                        },
                        {
                            "internalType": "uint256",
                            "name": "odds",
                            "type": "uint256"
                        },
                        {
                            "internalType": "uint256",
                            "name": "funds",
                            "type": "uint256"
                        },
                        {
                            "internalType": "uint16",
                            "name": "kickbackRate",
                            "type": "uint16"
                        },
                        {
                            "internalType": "uint16",
                            "name": "brokerageRate",
                            "type": "uint16"
                        },
                        {
                            "internalType": "uint16",
                            "name": "taxRate",
                            "type": "uint16"
                        }
                    ],
                    "internalType": "struct BulletinBoard",
                    "name": "",
                    "type": "tuple"
                }
            ],
            "stateMutability": "view",
            "type": "function"
        },
        {
            "inputs": [],
            "name": "getFirstBillOfBackQueue",
            "outputs": [
                {
                    "internalType": "uint32",
                    "name": "bitIndexAt",
                    "type": "uint32"
                },
                {
                    "components": [
                        {
                            "internalType": "bytes32",
                            "name": "id",
                            "type": "bytes32"
                        },
                        {
                            "internalType": "address",
                            "name": "owner",
                            "type": "address"
                        },
                        {
                            "internalType": "uint256",
                            "name": "odds",
                            "type": "uint256"
                        },
                        {
                            "internalType": "uint256",
                            "name": "costs",
                            "type": "uint256"
                        },
                        {
                            "internalType": "uint256",
                            "name": "buyPrice",
                            "type": "uint256"
                        },
                        {
                            "internalType": "uint256",
                            "name": "marketPrice",
                            "type": "uint256"
                        },
                        {
                            "internalType": "enum CoinDirection",
                            "name": "buyDirection",
                            "type": "uint8"
                        },
                        {
                            "internalType": "uint256",
                            "name": "gas",
                            "type": "uint256"
                        },
                        {
                            "internalType": "uint32",
                            "name": "luckyNumber",
                            "type": "uint32"
                        }
                    ],
                    "internalType": "struct StakeBill",
                    "name": "bill",
                    "type": "tuple"
                }
            ],
            "stateMutability": "view",
            "type": "function"
        },
        {
            "inputs": [],
            "name": "getFirstBillOfFrontQueue",
            "outputs": [
                {
                    "internalType": "uint32",
                    "name": "bitIndexAt",
                    "type": "uint32"
                },
                {
                    "components": [
                        {
                            "internalType": "bytes32",
                            "name": "id",
                            "type": "bytes32"
                        },
                        {
                            "internalType": "address",
                            "name": "owner",
                            "type": "address"
                        },
                        {
                            "internalType": "uint256",
                            "name": "odds",
                            "type": "uint256"
                        },
                        {
                            "internalType": "uint256",
                            "name": "costs",
                            "type": "uint256"
                        },
                        {
                            "internalType": "uint256",
                            "name": "buyPrice",
                            "type": "uint256"
                        },
                        {
                            "internalType": "uint256",
                            "name": "marketPrice",
                            "type": "uint256"
                        },
                        {
                            "internalType": "enum CoinDirection",
                            "name": "buyDirection",
                            "type": "uint8"
                        },
                        {
                            "internalType": "uint256",
                            "name": "gas",
                            "type": "uint256"
                        },
                        {
                            "internalType": "uint32",
                            "name": "luckyNumber",
                            "type": "uint32"
                        }
                    ],
                    "internalType": "struct StakeBill",
                    "name": "bill",
                    "type": "tuple"
                }
            ],
            "stateMutability": "view",
            "type": "function"
        },
        {
            "inputs": [],
            "name": "getFrontQueueCount",
            "outputs": [
                {
                    "internalType": "uint256",
                    "name": "",
                    "type": "uint256"
                }
            ],
            "stateMutability": "view",
            "type": "function"
        },
        {
            "inputs": [],
            "name": "getQueueCount",
            "outputs": [
                {
                    "internalType": "uint256",
                    "name": "",
                    "type": "uint256"
                }
            ],
            "stateMutability": "view",
            "type": "function"
        },
        {
            "inputs": [],
            "name": "getRoot",
            "outputs": [
                {
                    "internalType": "address",
                    "name": "",
                    "type": "address"
                }
            ],
            "stateMutability": "view",
            "type": "function"
        },
        {
            "inputs": [
                {
                    "internalType": "uint32",
                    "name": "index",
                    "type": "uint32"
                }
            ],
            "name": "getStakeBill",
            "outputs": [
                {
                    "internalType": "bool",
                    "name": "exists",
                    "type": "bool"
                },
                {
                    "components": [
                        {
                            "internalType": "bytes32",
                            "name": "id",
                            "type": "bytes32"
                        },
                        {
                            "internalType": "address",
                            "name": "owner",
                            "type": "address"
                        },
                        {
                            "internalType": "uint256",
                            "name": "odds",
                            "type": "uint256"
                        },
                        {
                            "internalType": "uint256",
                            "name": "costs",
                            "type": "uint256"
                        },
                        {
                            "internalType": "uint256",
                            "name": "buyPrice",
                            "type": "uint256"
                        },
                        {
                            "internalType": "uint256",
                            "name": "marketPrice",
                            "type": "uint256"
                        },
                        {
                            "internalType": "enum CoinDirection",
                            "name": "buyDirection",
                            "type": "uint8"
                        },
                        {
                            "internalType": "uint256",
                            "name": "gas",
                            "type": "uint256"
                        },
                        {
                            "internalType": "uint32",
                            "name": "luckyNumber",
                            "type": "uint32"
                        }
                    ],
                    "internalType": "struct StakeBill",
                    "name": "bill",
                    "type": "tuple"
                }
            ],
            "stateMutability": "view",
            "type": "function"
        },
        {
            "inputs": [],
            "name": "getTopFiveBillBackQueue",
            "outputs": [
                {
                    "internalType": "uint32",
                    "name": "length",
                    "type": "uint32"
                },
                {
                    "components": [
                        {
                            "internalType": "bytes32",
                            "name": "id",
                            "type": "bytes32"
                        },
                        {
                            "internalType": "address",
                            "name": "owner",
                            "type": "address"
                        },
                        {
                            "internalType": "uint256",
                            "name": "odds",
                            "type": "uint256"
                        },
                        {
                            "internalType": "uint256",
                            "name": "costs",
                            "type": "uint256"
                        },
                        {
                            "internalType": "uint256",
                            "name": "buyPrice",
                            "type": "uint256"
                        },
                        {
                            "internalType": "uint256",
                            "name": "marketPrice",
                            "type": "uint256"
                        },
                        {
                            "internalType": "enum CoinDirection",
                            "name": "buyDirection",
                            "type": "uint8"
                        },
                        {
                            "internalType": "uint256",
                            "name": "gas",
                            "type": "uint256"
                        },
                        {
                            "internalType": "uint32",
                            "name": "luckyNumber",
                            "type": "uint32"
                        }
                    ],
                    "internalType": "struct StakeBill[5]",
                    "name": "bills",
                    "type": "tuple[5]"
                }
            ],
            "stateMutability": "view",
            "type": "function"
        },
        {
            "inputs": [],
            "name": "getTopFiveBillFrontQueue",
            "outputs": [
                {
                    "internalType": "uint32",
                    "name": "length",
                    "type": "uint32"
                },
                {
                    "components": [
                        {
                            "internalType": "bytes32",
                            "name": "id",
                            "type": "bytes32"
                        },
                        {
                            "internalType": "address",
                            "name": "owner",
                            "type": "address"
                        },
                        {
                            "internalType": "uint256",
                            "name": "odds",
                            "type": "uint256"
                        },
                        {
                            "internalType": "uint256",
                            "name": "costs",
                            "type": "uint256"
                        },
                        {
                            "internalType": "uint256",
                            "name": "buyPrice",
                            "type": "uint256"
                        },
                        {
                            "internalType": "uint256",
                            "name": "marketPrice",
                            "type": "uint256"
                        },
                        {
                            "internalType": "enum CoinDirection",
                            "name": "buyDirection",
                            "type": "uint8"
                        },
                        {
                            "internalType": "uint256",
                            "name": "gas",
                            "type": "uint256"
                        },
                        {
                            "internalType": "uint32",
                            "name": "luckyNumber",
                            "type": "uint32"
                        }
                    ],
                    "internalType": "struct StakeBill[5]",
                    "name": "bills",
                    "type": "tuple[5]"
                }
            ],
            "stateMutability": "view",
            "type": "function"
        },
        {
            "inputs": [],
            "name": "getWeiPrice",
            "outputs": [
                {
                    "internalType": "uint256",
                    "name": "",
                    "type": "uint256"
                }
            ],
            "stateMutability": "view",
            "type": "function"
        },
        {
            "inputs": [],
            "name": "isRunning",
            "outputs": [
                {
                    "internalType": "bool",
                    "name": "",
                    "type": "bool"
                }
            ],
            "stateMutability": "view",
            "type": "function"
        },
        {
            "inputs": [],
            "name": "matchmake",
            "outputs": [],
            "stateMutability": "nonpayable",
            "type": "function"
        },
        {
            "inputs": [],
            "name": "recharge",
            "outputs": [],
            "stateMutability": "payable",
            "type": "function"
        },
        {
            "inputs": [],
            "name": "run",
            "outputs": [],
            "stateMutability": "nonpayable",
            "type": "function"
        },
        {
            "inputs": [
                {
                    "internalType": "uint256",
                    "name": "buyPrice",
                    "type": "uint256"
                },
                {
                    "internalType": "enum CoinDirection",
                    "name": "buyDirection",
                    "type": "uint8"
                },
                {
                    "internalType": "uint32",
                    "name": "luckyNumber",
                    "type": "uint32"
                }
            ],
            "name": "stake",
            "outputs": [],
            "stateMutability": "payable",
            "type": "function"
        },
        {
            "inputs": [],
            "name": "stop",
            "outputs": [],
            "stateMutability": "nonpayable",
            "type": "function"
        },
        {
            "stateMutability": "payable",
            "type": "receive"
        }
    ],
    "bytecode": "60806040523480156200001157600080fd5b506040516200378c3803806200378c833981016040819052620000349162000157565b600280546001600160a01b03199081163317909155600080546001600160a01b0385811661010002610100600160a81b0319909216919091178255600180549185169190931617909155606490655af3107a4000906014906046906200009b82866200018f565b6040805160e0810182528681526020810188905260009181018290526060810182905261ffff9586166080820181905294861660a082018190529290951660c090950185905260039590955560049590955550600583905560068390556007805463ffffffff1916909117620100009094029390931761ffff60201b191664010000000090910217909155805460ff1916600117905550620001c09050565b80516001600160a01b03811681146200015257600080fd5b919050565b600080604083850312156200016b57600080fd5b62000176836200013a565b915062000186602084016200013a565b90509250929050565b61ffff828116828216039080821115620001b957634e487b7160e01b600052601160045260246000fd5b5092915050565b6135bc80620001d06000396000f3fe6080604052600436106101235760003560e01c80636949c0b2116100a0578063c53f267011610064578063c53f26701461037d578063c865592614610392578063d1314ee0146103a7578063ecb891e1146103c5578063f2b6c1561461043c57610172565b80636949c0b2146102f157806371f81e9d146103065780638d1d5b3f1461031b57806393accf9714610330578063c04062261461035e57610172565b806325903933116100e7578063259039331461024c5780633471b3371461026f5780634cddae28146102845780635c3917d41461028c5780635ca1e165146102ba57610172565b806303cd5c59146101b557806307da68f5146101c857806312065fe0146101e4578063143025fd146102065780632014e5d11461022957610172565b366101725760405162461bcd60e51b8152602060048201526018602482015277139bc81bdd1a195c8818d85b1b1cc81cdd5c1c1bdc9d195960421b60448201526064015b60405180910390fd5b005b60405162461bcd60e51b8152602060048201526018602482015277139bc81bdd1a195c8818d85b1b1cc81cdd5c1c1bdc9d195960421b6044820152606401610167565b6101706101c3366004612bcf565b610451565b3480156101d457600080fd5b506101706000805460ff19169055565b3480156101f057600080fd5b50475b6040519081526020015b60405180910390f35b34801561021257600080fd5b5061021b6105e2565b6040516101fd929190612cb0565b34801561023557600080fd5b5060005460ff1660405190151581526020016101fd565b34801561025857600080fd5b506102616105fe565b6040516101fd929190612ccb565b34801561027b57600080fd5b506101f361061d565b610170610636565b34801561029857600080fd5b506102ac6102a7366004612d15565b610786565b6040516101fd929190612d30565b3480156102c657600080fd5b5060005461010090046001600160a01b03165b6040516001600160a01b0390911681526020016101fd565b3480156102fd57600080fd5b506101f361088f565b34801561031257600080fd5b506101f361089d565b34801561032757600080fd5b506101706108ab565b34801561033c57600080fd5b5061035061034b366004612d7e565b6109ad565b6040516101fd929190612d99565b34801561036a57600080fd5b506101706000805460ff19166001179055565b34801561038957600080fd5b506101f3610b80565b34801561039e57600080fd5b5061021b610b97565b3480156103b357600080fd5b506001546001600160a01b03166102d9565b3480156103d157600080fd5b506103da610bab565b6040516101fd9190600060e08201905082518252602083015160208301526040830151604083015260608301516060830152608083015161ffff80821660808501528060a08601511660a08501528060c08601511660c0850152505092915050565b34801561044857600080fd5b50610261610c4e565b60005460ff166104735760405162461bcd60e51b815260040161016790612db0565b600082600281111561048757610487612c0b565b036104d45760405162461bcd60e51b815260206004820152601b60248201527f427579696e6720646972656374696f6e20697320756e6b6e6f776e00000000006044820152606401610167565b6003546000906104ef906104e89086610c62565b3490610ced565b6005549091506104ff9082610d2f565b60055560065461050f9034610d2f565b600655604080514260208083019190915244828401528251808303840181526060830180855281519190920120610180830190935282815233608083015260a082018490523460c083015260e082018790526004546101008301526000916101200186600281111561058357610583612c0b565b81526020015a81526020018563ffffffff1681525090506105a381610d8e565b7f67ff9f7ebf0786f0383127a22a0f947768f85d4ad4c7a4fe559ade9bab63eeb9816040516105d29190612ddd565b60405180910390a1505050505050565b60006105ec612ad7565b6105f66002610eda565b915091509091565b6000610608612b23565b61061260026110e0565b919491935090915050565b600061062b600160006113aa565b63ffffffff16905090565b6001546001600160a01b031633146106905760405162461bcd60e51b815260206004820152601a60248201527f4f6e6c792062726f6b65722063616e2063616c6c20746869732e0000000000006044820152606401610167565b60005460ff166106b25760405162461bcd60e51b815260040161016790612db0565b600034116106fb5760405162461bcd60e51b815260206004820152601660248201527546656564696e672063616e6e6f74206265207a65726f60501b6044820152606401610167565b60006040518060800160405280336001600160a01b031681526020013481526020014781526020015a90526040805182516001600160a01b031681526020808401519082015282820151818301526060808401519082015290519192507ffd85f5d970e84cef5e784a586b095b39007ce8402837a87f1abd64bf1906f21a919081900360800190a150565b6000610790612b50565b60008061079d6001610eda565b915091508163ffffffff1663ffffffff036107bd57600093505050915091565b6000806107ca6002610eda565b915091508163ffffffff1663ffffffff036107ec576000955050505050915091565b600187600281111561080057610800612c0b565b036108375763ffffffff93841685529216604084015260208301819052606083018290526080918201519101511115939092509050565b600287600281111561084b5761084b612c0b565b036108825763ffffffff93841685529216604084015260208301819052606083018290526080908101519101511115939092509050565b6000955050505050915091565b600061062b600060016113aa565b600061062b600060026113aa565b6001546001600160a01b031633146109055760405162461bcd60e51b815260206004820152601a60248201527f4f6e6c792062726f6b65722063616e2063616c6c20746869732e0000000000006044820152606401610167565b60005460ff166109275760405162461bcd60e51b815260040161016790612db0565b600080610932611587565b9150505b60008061094283610786565b9150915081610952575050610970565b61095c83826119a3565b8361096681612e02565b9450505050610936565b7fb6068b8d005cf7e41803100218e6564afe38177de768c54039f9bae376e1ba8482826040516109a1929190612e25565b60405180910390a15050565b60006109b7612ad7565b6000805b60208163ffffffff161015610b6b5760006109088263ffffffff16602081106109e6576109e6612e3f565b602081049091015460ff601f9092166101000a900416905060005b60088160ff161015610b56576000610a1a826002612f39565b831660ff169050610a2c826002612f39565b8160ff1603610b43578763ffffffff168563ffffffff1603610b35576001600860ff8416610a5a8783612f48565b610a649190612f70565b63ffffffff166101008110610a7b57610a7b612e3f565b6040805161012081018252600992909202929092018054825260018101546001600160a01b03166020830152600280820154938301939093526003810154606083015260048101546080830152600581015460a083015260068101549092839160c084019160ff90911690811115610af557610af5612c0b565b6002811115610b0657610b06612c0b565b81526007820154602082015260089091015463ffffffff16604090910152919a91995090975050505050505050565b84610b3f81612e02565b9550505b5080610b4e81612f94565b915050610a01565b50508080610b6390612e02565b9150506109bb565b50610b74612ad7565b60009590945092505050565b600454600354600091610b9291612fb3565b905090565b6000610ba1612ad7565b6105f66001610eda565b610bf76040518060e0016040528060008152602001600081526020016000815260200160008152602001600061ffff168152602001600061ffff168152602001600061ffff1681525090565b506040805160e0810182526003548152600454602082015260055491810191909152600654606082015260075461ffff8082166080840152620100008204811660a08401526401000000009091041660c082015290565b6000610c58612b23565b61061260016110e0565b600082600003610c7457506000610ce7565b6000610c808385612fb3565b905082610c8d8583612fe0565b14610ce45760405162461bcd60e51b815260206004820152602160248201527f536166654d6174683a206d756c7469706c69636174696f6e206f766572666c6f6044820152607760f81b6064820152608401610167565b90505b92915050565b6000610ce483836040518060400160405280601a81526020017f536166654d6174683a206469766973696f6e206279207a65726f000000000000815250611ee5565b600080610d3c8385612ff4565b905083811015610ce45760405162461bcd60e51b815260206004820152601b60248201527f536166654d6174683a206164646974696f6e206f766572666c6f7700000000006044820152606401610167565b6000610d98611f1e565b90508063ffffffff1663ffffffff03610df35760405162461bcd60e51b815260206004820152601e60248201527f5374616b652042696c6c2041727261792073706163652069732066756c6c00006044820152606401610167565b8160088263ffffffff166101008110610e0e57610e0e612e3f565b600902016000820151816000015560208201518160010160006101000a8154816001600160a01b0302191690836001600160a01b0316021790555060408201518160020155606082015181600301556080820151816004015560a0820151816005015560c08201518160060160006101000a81548160ff02191690836002811115610e9b57610e9b612c0b565b021790555060e08201516007820155610100909101516008909101805463ffffffff191663ffffffff909216919091179055610ed681611ff6565b5050565b6000610ee4612ad7565b610eec612ad7565b63ffffffff925060005b60208163ffffffff1610156110d75760006109088263ffffffff1660208110610f2157610f21612e3f565b602081049091015460ff601f9092166101000a900416905060005b60088160ff1610156110c2576000610f55826002612f39565b831660ff169050610f67826002612f39565b8160ff16036110ae57600860ff8316610f808683612f48565b610f8a9190612f70565b63ffffffff166101008110610fa157610fa1612e3f565b6040805161012081018252600992909202929092018054825260018101546001600160a01b03166020830152600280820154938301939093526003810154606083015260048101546080830152600581015460a083015260068101549192909160c084019160ff9091169081111561101b5761101b612c0b565b600281111561102c5761102c612c0b565b81526007820154602082015260089091015463ffffffff16604090910152955087600281111561105e5761105e612c0b565b8660c00151600281111561107457611074612c0b565b1461107f57506110b0565b8460800151866080015111156110ae5785945060ff82166110a1856008612f48565b6110ab9190612f70565b96505b505b806110ba81612f94565b915050610f3c565b505080806110cf90612e02565b915050610ef6565b50919391925050565b60006110ea612b89565b6110f2612b23565b60005b60208163ffffffff16101561138e5760006109088263ffffffff166020811061112057611120612e3f565b602081049091015460ff601f9092166101000a900416905060005b60088160ff161015611379576000611154826002612f39565b831660ff169050611166826002612f39565b8160ff1603611365576000600860ff84166111818783612f48565b61118b9190612f70565b63ffffffff1661010081106111a2576111a2612e3f565b6040805161012081018252600992909202929092018054825260018101546001600160a01b03166020830152600280820154938301939093526003810154606083015260048101546080830152600581015460a083015260068101549192909160c084019160ff9091169081111561121c5761121c612c0b565b600281111561122d5761122d612c0b565b81526007820154602082015260089091015463ffffffff16604090910152905088600281111561125f5761125f612c0b565b8160c00151600281111561127557611275612c0b565b14611281575050611367565b855160809081015190820151101561129a575050611367565b600560006112a9600183613007565b90505b600019811315611361578781600581106112c8576112c8612e3f565b6020020151608001518360800151111561134f578091506112ea89898461209a565b828883600581106112fd576112fd612e3f565b602002015260ff8516611311886008612f48565b61131b9190612f70565b89836005811061132d5761132d612e3f565b63ffffffff90921660209290920201528961134781612e02565b9a5050611361565b806113598161301a565b9150506112ac565b5050505b505b8061137181612f94565b91505061113b565b5050808061138690612e02565b9150506110f5565b5060058363ffffffff1611156113a357600592505b9193909250565b600080805b60208163ffffffff16101561157f5760006109088263ffffffff16602081106113da576113da612e3f565b602081049091015460ff601f9092166101000a900416905060005b60088160ff16101561156a57600061140e826002612f39565b831660ff169050611420826002612f39565b8160ff1603611556576000600860ff841661143b8783612f48565b6114459190612f70565b63ffffffff16610100811061145c5761145c612e3f565b6040805161012081018252600992909202929092018054825260018101546001600160a01b03166020830152600280820154938301939093526003810154606083015260048101546080830152600581015460a083015260068101549192909160c084019160ff909116908111156114d6576114d6612c0b565b60028111156114e7576114e7612c0b565b81526007820154602082015260089091015463ffffffff1660409091015290508815801561153b575087600281111561152257611522612c0b565b8160c00151600281111561153857611538612c0b565b14155b15611547575050611558565b8561155181612e02565b965050505b505b8061156281612f94565b9150506113f5565b5050808061157790612e02565b9150506113af565b509392505050565b6040805161010081018252600080825260208201819052918101829052606081018290526080810182905260a0810182905260c0810182905260e08101919091526000600a4244336040516020016115ff93929190928352602083019190915260601b6001600160601b031916604082015260540190565b6040516020818303038152906040528051906020012060001c6116229190613037565b60ff16808352604051600a916116719142914491339190602001938452602084019290925260601b6001600160601b031916604083015260f81b6001600160f81b031916605482015260550190565b6040516020818303038152906040528051906020012060001c6116949190613037565b60ff81166020848101919091528351604080514281850152448183015233606090811b6001600160601b0319169082015260f892831b6001600160f81b031990811660748301529490921b9093166075820152825180820360560181526076909101909252815191012061170a90600a90613037565b60ff8116604084810191909152835160208086015183514281840152448186015233606090811b6001600160601b0319169082015260f893841b6001600160f81b0319908116607483015291841b821660758201529490921b9091166076840152815180840360570181526077909301909152815191012061178e90600a90613037565b60ff811660608481019190915283516020808601516040808801518151428186015244818401526001600160601b031933881b16968101969096526001600160f81b031960f895861b8116607488015292851b83166075870152841b821660768601529490921b9091166077830152825180830360580181526078909201909252805191012061182090600a90613037565b60ff16608083015260006118346001612137565b905060006118426002612137565b9050600a424433856040516020016118809493929190938452602084019290925260601b6001600160601b0319166040830152605482015260740190565b6040516020818303038152906040528051906020012060001c6118a39190613037565b60ff1660a0850152604051600a906118e8904290449033908690602001938452602084019290925260601b6001600160601b0319166040830152605482015260740190565b6040516020818303038152906040528051906020012060001c61190b9190613037565b60ff1660c08501819052845160208087015160408089015160608a015160808b015160a08c01519351600098600298611956984298449833989397919693959194909290910161304b565b6040516020818303038152906040528051906020012060001c6119799190613037565b60e08601819052905060018190036119975750929360019350915050565b50929360029350915050565b80516020820151604083015160608401516119bd84612310565b6119c682612310565b611a2960405180610160016040528060008152602001600081526020016000815260200160008152602001600081526020016000815260200160008019168152602001600081526020016000815260200160008152602001600080191681525090565b611a3b8460400151836040015161238d565b815260808083015190850151611a5d91600291611a5791610d2f565b90610ced565b602082015280516040850151611a72916123a4565b604080830191909152815190830151611a8a916123a4565b606082015260035460808501516040830151611ab19291611aab9190610c62565b90610c62565b608080830191909152600354908301516060830151611ad59291611aab9190610c62565b60a082015260035460208201518251611af39291611aab9190610c62565b60e08201526001876002811115611b0c57611b0c612c0b565b03611b8157611b438160800151611b3d600360000154611aab88608001518960400151610c6290919063ffffffff16565b906123a4565b61010082015260e081015160a082015160035460808501516040860151611b769493611b3d9390928492611aab91610c62565b610120820152611bff565b6002876002811115611b9557611b95612c0b565b03611bff57611bc68160a00151611b3d600360000154611aab86608001518760400151610c6290919063ffffffff16565b61012082015260e0810151608080830151600354918701516040880151611bf89493611b3d93928492611aab91610c62565b6101008201525b604081015115611c26576080810151606085015260408082015190850152611c2684610d8e565b606081015115611c4f5760a08101516060808401919091528101516040830152611c4f82610d8e565b6000611c7c826101200151611c768461010001518560e00151610d2f90919063ffffffff16565b90610d2f565b905080471015611c8b826123e6565b604051602001611c9b9190613100565b60405160208183030381529060405290611cc85760405162461bcd60e51b8152600401610167919061315e565b5060408051426020820152449181019190915260600160408051601f19818403018152919052805160209091012060c08301819052610100830151611d0e919087612479565b611d228260c0015183610120015185612479565b6001886002811115611d3657611d36612c0b565b03611d5357611d4e8260c001518360e001518761262c565b611d7f565b6002886002811115611d6757611d67612c0b565b03611d7f57611d4e8260c001518360e001518561262c565b6020820151600455815160058054600090611d9b908490613007565b909155505060408051426020820152449181019190915260600160405160208183030381529060405280519060200120826101400181815250506000604051806101e00160405280846101400151815260200187600001518152602001856000015181526020018460c001518152602001600160009054906101000a90046001600160a01b03166001600160a01b0316815260200184600001518152602001846020015181526020018460400151815260200184606001518152602001846080015181526020018460a001518152602001846101000151815260200184610120015181526020018460e0015181526020018a6002811115611e9e57611e9e612c0b565b81525090507f1ea5d61fc6547651d1da2473a4367de75ba86fa242234a737008287f52d7913c81604051611ed29190613191565b60405180910390a1505050505050505050565b60008183611f065760405162461bcd60e51b8152600401610167919061315e565b506000611f138486612fe0565b9150505b9392505050565b600063ffffffff81805b60208163ffffffff161015611fee5760006109088263ffffffff1660208110611f5357611f53612e3f565b602081049091015460ff601f9092166101000a900416905060005b60088160ff161015611fce576000611f87826002612f39565b8360ff1616905080600003611fbb5760ff8216611fa5856008612f48565b611faf9190612f70565b95506001945050611fce565b5080611fc681612f94565b915050611f6e565b508215611fdb5750611fee565b5080611fe681612e02565b915050611f28565b509092915050565b600061200360088361324a565b9050600061201260088461326d565b905060006109088363ffffffff166020811061203057612030612e3f565b602081049091015460ff601f9092166101000a9004169050612053826002613290565b60ff909116178061090863ffffffff85166020811061207457612074612e3f565b602091828204019190066101000a81548160ff021916908360ff16021790555050505050565b60015b818111612131578281600581106120b6576120b6612e3f565b6020020151836120c7600184613007565b600581106120d7576120d7612e3f565b60200201528381600581106120ee576120ee612e3f565b6020020151846120ff600184613007565b6005811061210f5761210f612e3f565b63ffffffff909216602092909202015280612129816132a2565b91505061209d565b50505050565b6000805b60208163ffffffff16101561230a5760006109088263ffffffff166020811061216657612166612e3f565b602081049091015460ff601f9092166101000a900416905060005b60088160ff1610156122f557600061219a826002612f39565b831660ff1690506121ac826002612f39565b8160ff16036122e1576000600860ff84166121c78783612f48565b6121d19190612f70565b63ffffffff1661010081106121e8576121e8612e3f565b6040805161012081018252600992909202929092018054825260018101546001600160a01b03166020830152600280820154938301939093526003810154606083015260048101546080830152600581015460a083015260068101549192909160c084019160ff9091169081111561226257612262612c0b565b600281111561227357612273612c0b565b81526007820154602082015260089091015463ffffffff1660409091015290508660028111156122a5576122a5612c0b565b8160c0015160028111156122bb576122bb612c0b565b146122c75750506122e3565b6101008101516122dd9063ffffffff1687612ff4565b9550505b505b806122ed81612f94565b915050612181565b5050808061230290612e02565b91505061213b565b50919050565b600061231d60088361324a565b9050600061232c60088461326d565b905060006109088363ffffffff166020811061234a5761234a612e3f565b602081049091015460ff601f9092166101000a900416905061236d826002613290565b191660ff168061090863ffffffff85166020811061207457612074612e3f565b60008183111561239d5781610ce4565b5090919050565b6000610ce483836040518060400160405280601e81526020017f536166654d6174683a207375627472616374696f6e206f766572666c6f7700008152506129ce565b606060006123f3836129ff565b600101905060008167ffffffffffffffff811115612413576124136132bb565b6040519080825280601f01601f19166020018201604052801561243d576020820181803683370190505b5090508181016020015b600019016f181899199a1a9b1b9c1cb0b131b232b360811b600a86061a8153600a850494508461244757509392505050565b8160000361248657505050565b602081810151604080516000808252938101918290529192916001600160a01b0384169186916124b5916132d1565b60006040518083038185875af1925050503d80600081146124f2576040519150601f19603f3d011682016040523d82523d6000602084013e6124f7565b606091505b5050905080612505856123e6565b836040516020016125179291906132ed565b604051602081830303815290604052906125445760405162461bcd60e51b8152600401610167919061315e565b5060004244604051602001612563929190918252602082015260400190565b60405160208183030381529060405280519060200120905060006040518060a0016040528083815260200186600001518152602001888152602001856001600160a01b031681526020018781525090507f18fb24206513f6983861e5acad39384526cb897f511f911740263279449125bc8160405161261b91908151815260208083015190820152604080830151908201526060808301516001600160a01b0316908201526080918201519181019190915260a00190565b60405180910390a150505050505050565b602081015160075460009061264d90606490611a5790879061ffff16610c62565b9050600061265b85836123a4565b60075490915060009061268090606490611a5790869062010000900461ffff16610c62565b9050600061268e84836123a4565b60408051600080825260208201928390529293506001600160a01b0388169186916126b8916132d1565b60006040518083038185875af1925050503d80600081146126f5576040519150601f19603f3d011682016040523d82523d6000602084013e6126fa565b606091505b5050905080612708856123e6565b8760405160200161271a929190613379565b604051602081830303815290604052906127475760405162461bcd60e51b8152600401610167919061315e565b506001546040805160008082526020820192839052926001600160a01b0316918691612772916132d1565b60006040518083038185875af1925050503d80600081146127af576040519150601f19603f3d011682016040523d82523d6000602084013e6127b4565b606091505b50509050806127c2866123e6565b6040516020016127d29190613403565b604051602081830303815290604052906127ff5760405162461bcd60e51b8152600401610167919061315e565b506000805460408051838152602081019091526101009091046001600160a01b031690859060405161283191906132d1565b60006040518083038185875af1925050503d806000811461286e576040519150601f19603f3d011682016040523d82523d6000602084013e612873565b606091505b5050905080612881876123e6565b604051602001612891919061346e565b604051602081830303815290604052906128be5760405162461bcd60e51b8152600401610167919061315e565b5060004244336040516020016128f493929190928352602083019190915260601b6001600160601b031916604082015260540190565b60408051601f198184030181528282528051602091820120610180840183528084528d51918401919091528282018f90526001600160a01b038c16606084015260075461ffff8082166080860152620100008204811660a08601526401000000009091041660c084015260e083018e905261010083018a905261012083018b90526101408301899052610160830188905290519092507f8c77d17dfdf762b972b90fefbcc2031d1494f3414de7f55a6b70d7c1b4c3a9d9906129b79083906134cb565b60405180910390a150505050505050505050505050565b600081848411156129f25760405162461bcd60e51b8152600401610167919061315e565b506000611f138486613007565b60008072184f03e93ff9f4daa797ed6e38ed64bf6a1f0160401b8310612a3e5772184f03e93ff9f4daa797ed6e38ed64bf6a1f0160401b830492506040015b6d04ee2d6d415b85acef81000000008310612a6a576d04ee2d6d415b85acef8100000000830492506020015b662386f26fc100008310612a8857662386f26fc10000830492506010015b6305f5e1008310612aa0576305f5e100830492506008015b6127108310612ab457612710830492506004015b60648310612ac6576064830492506002015b600a8310610ce75760010192915050565b6040805161012081018252600080825260208201819052918101829052606081018290526080810182905260a081018290529060c0820190815260006020820181905260409091015290565b6040518060a001604052806005905b612b3a612ad7565b815260200190600190039081612b325790505090565b6040518060800160405280600063ffffffff168152602001612b70612ad7565b815260006020820152604001612b84612ad7565b905290565b6040518060a001604052806005906020820280368337509192915050565b803560038110612bb657600080fd5b919050565b803563ffffffff81168114612bb657600080fd5b600080600060608486031215612be457600080fd5b83359250612bf460208501612ba7565b9150612c0260408501612bbb565b90509250925092565b634e487b7160e01b600052602160045260246000fd5b60038110612c3f57634e487b7160e01b600052602160045260246000fd5b9052565b8051825260018060a01b03602082015116602083015260408101516040830152606081015160608301526080810151608083015260a081015160a083015260c0810151612c9360c0840182612c21565b5060e081810151908301526101009081015163ffffffff16910152565b63ffffffff831681526101408101611f176020830184612c43565b63ffffffff831681526105c0810160208083018460005b6005811015612d0a57612cf6838351612c43565b610120929092019190830190600101612ce2565b505050509392505050565b600060208284031215612d2757600080fd5b610ce482612ba7565b60006102a082019050831515825263ffffffff8084511660208401526020840151612d5e6040850182612c43565b50604084015116610160830152606083015161157f610180840182612c43565b600060208284031215612d9057600080fd5b610ce482612bbb565b82151581526101408101611f176020830184612c43565b6020808252601390820152721bd9191cd9195e081a185cc81cdd1bdc1c1959606a1b604082015260600190565b6101208101610ce78284612c43565b634e487b7160e01b600052601160045260246000fd5b600063ffffffff808316818103612e1b57612e1b612dec565b6001019392505050565b63ffffffff8316815260408101611f176020830184612c21565b634e487b7160e01b600052603260045260246000fd5b600181815b80851115612e90578160001904821115612e7657612e76612dec565b80851615612e8357918102915b93841c9390800290612e5a565b509250929050565b600082612ea757506001610ce7565b81612eb457506000610ce7565b8160018114612eca5760028114612ed457612ef0565b6001915050610ce7565b60ff841115612ee557612ee5612dec565b50506001821b610ce7565b5060208310610133831016604e8410600b8410161715612f13575081810a610ce7565b612f1d8383612e55565b8060001904821115612f3157612f31612dec565b029392505050565b6000610ce460ff841683612e98565b63ffffffff818116838216028082169190828114612f6857612f68612dec565b505092915050565b63ffffffff818116838216019080821115612f8d57612f8d612dec565b5092915050565b600060ff821660ff8103612faa57612faa612dec565b60010192915050565b8082028115828204841417610ce757610ce7612dec565b634e487b7160e01b600052601260045260246000fd5b600082612fef57612fef612fca565b500490565b80820180821115610ce757610ce7612dec565b81810381811115610ce757610ce7612dec565b6000600160ff1b820161302f5761302f612dec565b506000190190565b60008261304657613046612fca565b500690565b8a8152602081018a90526001600160601b031960608a901b1660408201526001600160f81b031960f889811b8216605484015288811b8216605584015287811b8216605684015286811b8216605784015285811b8216605884015284901b16605982015260006130ca605a83018460f81b6001600160f81b0319169052565b50605b019a9950505050505050505050565b60005b838110156130f75781810151838201526020016130df565b50506000910152565b7f496e73756666696369656e7420636f6e74726163742062616c616e63652e206d81526f034b734b6bab6903130b630b731b29d160851b6020820152600082516131518160308501602087016130dc565b9190910160300192915050565b602081526000825180602084015261317d8160408501602087016130dc565b601f01601f19169190910160400192915050565b60006101e0820190508251825260208301516020830152604083015160408301526060830151606083015260808301516131d660808401826001600160a01b03169052565b5060a0838101519083015260c0808401519083015260e08084015190830152610100808401519083015261012080840151908301526101408084015190830152610160808401519083015261018080840151908301526101a080840151908301526101c080840151612f6882850182612c21565b600063ffffffff8084168061326157613261612fca565b92169190910492915050565b600063ffffffff8084168061328457613284612fca565b92169190910692915050565b6000610ce463ffffffff841683612e98565b6000600182016132b4576132b4612dec565b5060010190565b634e487b7160e01b600052604160045260246000fd5b600082516132e38184602087016130dc565b9190910192915050565b7f4554485f5452414e534645525f4641494c45443a20526566756e6420746f2070815274030b63cb2b917102932b33ab7321031b7b9ba399d1605d1b6020820152600083516133438160358501602088016130dc565b6901610383630bcb2b91d160b51b603593909101928301525060609190911b6001600160601b031916603f820152605301919050565b7f4554485f5452414e534645525f4641494c45443a2073706c6974207072697a658152720103a37903830b63cb2b917103137b73ab99d1606d1b6020820152600083516133cd8160338501602088016130dc565b6901610383630bcb2b91d160b51b603393909101928301525060609190911b6001600160601b031916603d820152605101919050565b7f4554485f5452414e534645525f4641494c45443a2073706c6974207072697a6581527f20746f2062726f6b65722e2062726f6b65726167653a200000000000000000006020820152600082516134618160378501602087016130dc565b9190910160370192915050565b7f4554485f5452414e534645525f4641494c45443a2073706c6974207072697a6581526e0103a37903937b7ba17103a30bc1d1608d1b6020820152600082516134be81602f8501602087016130dc565b91909101602f0192915050565b600061018082019050825182526020830151602083015260408301516040830152606083015161350660608401826001600160a01b03169052565b50608083015161351c608084018261ffff169052565b5060a083015161353260a084018261ffff169052565b5060c083015161354860c084018261ffff169052565b5060e083810151908301526101008084015190830152610120808401519083015261014080840151908301526101609283015192909101919091529056fea264697066735822122044dd88fdf47a622800b1ca5e38820db000458fed82b632e3e3da63c34af8e70364736f6c63430008130033",
    "sourcePath": "/Users/cj/games/game-oddsdex/contracts/OddsdexContract.sol",
    "compiler": {
        "name": "solc",
        "version": "0.8.19+commit.7dd6d404"
    },
    "functionHashes": {
        "canMatchmaking(uint8)": "5c3917d4",
        "getBackQueueCount()": "71f81e9d",
        "getBalance()": "12065fe0",
        "getBroker()": "d1314ee0",
        "getBulletinBoard()": "ecb891e1",
        "getFirstBillOfBackQueue()": "143025fd",
        "getFirstBillOfFrontQueue()": "c8655926",
        "getFrontQueueCount()": "6949c0b2",
        "getQueueCount()": "3471b337",
        "getRoot()": "5ca1e165",
        "getStakeBill(uint32)": "93accf97",
        "getTopFiveBillBackQueue()": "25903933",
        "getTopFiveBillFrontQueue()": "f2b6c156",
        "getWeiPrice()": "c53f2670",
        "isRunning()": "2014e5d1",
        "matchmake()": "8d1d5b3f",
        "recharge()": "4cddae28",
        "run()": "c0406226",
        "stake(uint256,uint8,uint32)": "03cd5c59",
        "stop()": "07da68f5"
    },
    "gasEstimates": {
        "creation": {
            "codeDepositCost": "2751200",
            "executionCost": "infinite",
            "totalCost": "infinite"
        },
        "external": {
            "": "342",
            "canMatchmaking(uint8)": "infinite",
            "getBackQueueCount()": "infinite",
            "getBalance()": "240",
            "getBroker()": "2397",
            "getBulletinBoard()": "11387",
            "getFirstBillOfBackQueue()": "infinite",
            "getFirstBillOfFrontQueue()": "infinite",
            "getFrontQueueCount()": "infinite",
            "getQueueCount()": "infinite",
            "getRoot()": "2442",
            "getStakeBill(uint32)": "infinite",
            "getTopFiveBillBackQueue()": "infinite",
            "getTopFiveBillFrontQueue()": "infinite",
            "getWeiPrice()": "4520",
            "isRunning()": "2404",
            "matchmake()": "infinite",
            "recharge()": "6531",
            "run()": "24467",
            "stake(uint256,uint8,uint32)": "infinite",
            "stop()": "24396"
        },
        "internal": {
            "_calculateWinningDirection()": "infinite",
            "_getFirstSpaceBit()": "infinite",
            "_lengthOfStakeBills(bool,enum CoinDirection)": "infinite",
            "_matchmakePairBill(enum CoinDirection,struct MatchmakingResult memory)": "infinite",
            "_min(uint256,uint256)": "68",
            "_moveFronts(uint32[5] memory,struct StakeBill memory[5] memory,uint256)": "infinite",
            "_refundCost(bytes32,uint256,struct StakeBill memory)": "infinite",
            "_removeStakeBill(uint32)": "infinite",
            "_setStakeBillAt(uint32)": "infinite",
            "_splitPrize(bytes32,uint256,struct StakeBill memory)": "infinite",
            "_topFirstOfStakeBill(enum CoinDirection)": "infinite",
            "_topFiveOfStakeBill(enum CoinDirection)": "infinite",
            "_totalLuckyNumber(enum CoinDirection)": "infinite",
            "storeStakeBill(struct StakeBill memory)": "infinite"
        }
    }
}