{
    "contractName": "OddsdexContract",
    "abi": [
        {
            "inputs": [
                {
                    "internalType": "address",
                    "name": "_root",
                    "type": "address"
                },
                {
                    "internalType": "address",
                    "name": "_broker",
                    "type": "address"
                }
            ],
            "stateMutability": "nonpayable",
            "type": "constructor"
        },
        {
            "anonymous": false,
            "inputs": [
                {
                    "components": [
                        {
                            "internalType": "bytes32",
                            "name": "id",
                            "type": "bytes32"
                        },
                        {
                            "internalType": "bytes32",
                            "name": "refFId",
                            "type": "bytes32"
                        },
                        {
                            "internalType": "bytes32",
                            "name": "refBId",
                            "type": "bytes32"
                        },
                        {
                            "internalType": "bytes32",
                            "name": "mtn",
                            "type": "bytes32"
                        },
                        {
                            "internalType": "address",
                            "name": "broker",
                            "type": "address"
                        },
                        {
                            "internalType": "uint256",
                            "name": "dealOdds",
                            "type": "uint256"
                        },
                        {
                            "internalType": "uint256",
                            "name": "dealPrice",
                            "type": "uint256"
                        },
                        {
                            "internalType": "uint256",
                            "name": "tailFOdds",
                            "type": "uint256"
                        },
                        {
                            "internalType": "uint256",
                            "name": "tailBOdds",
                            "type": "uint256"
                        },
                        {
                            "internalType": "uint256",
                            "name": "tailFCostOnBill",
                            "type": "uint256"
                        },
                        {
                            "internalType": "uint256",
                            "name": "tailBCostOnBill",
                            "type": "uint256"
                        },
                        {
                            "internalType": "uint256",
                            "name": "tailFRefundCosts",
                            "type": "uint256"
                        },
                        {
                            "internalType": "uint256",
                            "name": "tailBRefundCosts",
                            "type": "uint256"
                        },
                        {
                            "internalType": "uint256",
                            "name": "prize",
                            "type": "uint256"
                        },
                        {
                            "internalType": "enum CoinDirection",
                            "name": "winningDirection",
                            "type": "uint8"
                        }
                    ],
                    "indexed": false,
                    "internalType": "struct MatchmakingBill",
                    "name": "bill",
                    "type": "tuple"
                }
            ],
            "name": "OnMatchMakingEvent",
            "type": "event"
        },
        {
            "anonymous": false,
            "inputs": [
                {
                    "components": [
                        {
                            "internalType": "bytes32",
                            "name": "id",
                            "type": "bytes32"
                        },
                        {
                            "internalType": "bytes32",
                            "name": "refId",
                            "type": "bytes32"
                        },
                        {
                            "internalType": "bytes32",
                            "name": "mtn",
                            "type": "bytes32"
                        },
                        {
                            "internalType": "address",
                            "name": "owner",
                            "type": "address"
                        },
                        {
                            "internalType": "uint256",
                            "name": "costs",
                            "type": "uint256"
                        }
                    ],
                    "indexed": false,
                    "internalType": "struct RefundBill",
                    "name": "bill",
                    "type": "tuple"
                }
            ],
            "name": "OnRefundBillEvent",
            "type": "event"
        },
        {
            "anonymous": false,
            "inputs": [
                {
                    "components": [
                        {
                            "internalType": "bytes32",
                            "name": "id",
                            "type": "bytes32"
                        },
                        {
                            "internalType": "bytes32",
                            "name": "refId",
                            "type": "bytes32"
                        },
                        {
                            "internalType": "bytes32",
                            "name": "mtn",
                            "type": "bytes32"
                        },
                        {
                            "internalType": "address",
                            "name": "owner",
                            "type": "address"
                        },
                        {
                            "internalType": "uint16",
                            "name": "kickbackRate",
                            "type": "uint16"
                        },
                        {
                            "internalType": "uint16",
                            "name": "brokerageRate",
                            "type": "uint16"
                        },
                        {
                            "internalType": "uint16",
                            "name": "taxRate",
                            "type": "uint16"
                        },
                        {
                            "internalType": "uint256",
                            "name": "prize",
                            "type": "uint256"
                        },
                        {
                            "internalType": "uint256",
                            "name": "bonus",
                            "type": "uint256"
                        },
                        {
                            "internalType": "uint256",
                            "name": "kickback",
                            "type": "uint256"
                        },
                        {
                            "internalType": "uint256",
                            "name": "brokerage",
                            "type": "uint256"
                        },
                        {
                            "internalType": "uint256",
                            "name": "tax",
                            "type": "uint256"
                        }
                    ],
                    "indexed": false,
                    "internalType": "struct SplitBill",
                    "name": "bill",
                    "type": "tuple"
                }
            ],
            "name": "OnSplitBillEvent",
            "type": "event"
        },
        {
            "anonymous": false,
            "inputs": [
                {
                    "components": [
                        {
                            "internalType": "bytes32",
                            "name": "id",
                            "type": "bytes32"
                        },
                        {
                            "internalType": "address",
                            "name": "owner",
                            "type": "address"
                        },
                        {
                            "internalType": "uint256",
                            "name": "odds",
                            "type": "uint256"
                        },
                        {
                            "internalType": "uint256",
                            "name": "costs",
                            "type": "uint256"
                        },
                        {
                            "internalType": "uint256",
                            "name": "buyPrice",
                            "type": "uint256"
                        },
                        {
                            "internalType": "uint256",
                            "name": "marketPrice",
                            "type": "uint256"
                        },
                        {
                            "internalType": "enum CoinDirection",
                            "name": "buyDirection",
                            "type": "uint8"
                        },
                        {
                            "internalType": "uint256",
                            "name": "gas",
                            "type": "uint256"
                        },
                        {
                            "internalType": "uint32",
                            "name": "luckyNumber",
                            "type": "uint32"
                        }
                    ],
                    "indexed": false,
                    "internalType": "struct StakeBill",
                    "name": "bill",
                    "type": "tuple"
                }
            ],
            "name": "OnStakeBillEvent",
            "type": "event"
        },
        {
            "stateMutability": "payable",
            "type": "fallback"
        },
        {
            "inputs": [
                {
                    "internalType": "enum CoinDirection",
                    "name": "winningDirection",
                    "type": "uint8"
                }
            ],
            "name": "canMatchmaking",
            "outputs": [
                {
                    "internalType": "bool",
                    "name": "matched",
                    "type": "bool"
                }
            ],
            "stateMutability": "view",
            "type": "function"
        },
        {
            "inputs": [],
            "name": "getBackQueueCount",
            "outputs": [
                {
                    "internalType": "uint256",
                    "name": "",
                    "type": "uint256"
                }
            ],
            "stateMutability": "view",
            "type": "function"
        },
        {
            "inputs": [],
            "name": "getBroker",
            "outputs": [
                {
                    "internalType": "address",
                    "name": "",
                    "type": "address"
                }
            ],
            "stateMutability": "view",
            "type": "function"
        },
        {
            "inputs": [],
            "name": "getBulletinBoard",
            "outputs": [
                {
                    "components": [
                        {
                            "internalType": "uint256",
                            "name": "oddunit",
                            "type": "uint256"
                        },
                        {
                            "internalType": "uint256",
                            "name": "price",
                            "type": "uint256"
                        },
                        {
                            "internalType": "uint256",
                            "name": "odds",
                            "type": "uint256"
                        },
                        {
                            "internalType": "uint256",
                            "name": "funds",
                            "type": "uint256"
                        },
                        {
                            "internalType": "uint16",
                            "name": "kickbackRate",
                            "type": "uint16"
                        },
                        {
                            "internalType": "uint16",
                            "name": "brokerageRate",
                            "type": "uint16"
                        },
                        {
                            "internalType": "uint16",
                            "name": "taxRate",
                            "type": "uint16"
                        }
                    ],
                    "internalType": "struct BulletinBoard",
                    "name": "",
                    "type": "tuple"
                }
            ],
            "stateMutability": "view",
            "type": "function"
        },
        {
            "inputs": [],
            "name": "getFirstBillOfBackQueue",
            "outputs": [
                {
                    "internalType": "uint32",
                    "name": "bitIndexAt",
                    "type": "uint32"
                },
                {
                    "components": [
                        {
                            "internalType": "bytes32",
                            "name": "id",
                            "type": "bytes32"
                        },
                        {
                            "internalType": "address",
                            "name": "owner",
                            "type": "address"
                        },
                        {
                            "internalType": "uint256",
                            "name": "odds",
                            "type": "uint256"
                        },
                        {
                            "internalType": "uint256",
                            "name": "costs",
                            "type": "uint256"
                        },
                        {
                            "internalType": "uint256",
                            "name": "buyPrice",
                            "type": "uint256"
                        },
                        {
                            "internalType": "uint256",
                            "name": "marketPrice",
                            "type": "uint256"
                        },
                        {
                            "internalType": "enum CoinDirection",
                            "name": "buyDirection",
                            "type": "uint8"
                        },
                        {
                            "internalType": "uint256",
                            "name": "gas",
                            "type": "uint256"
                        },
                        {
                            "internalType": "uint32",
                            "name": "luckyNumber",
                            "type": "uint32"
                        }
                    ],
                    "internalType": "struct StakeBill",
                    "name": "bill",
                    "type": "tuple"
                }
            ],
            "stateMutability": "view",
            "type": "function"
        },
        {
            "inputs": [],
            "name": "getFirstBillOfFrontQueue",
            "outputs": [
                {
                    "internalType": "uint32",
                    "name": "bitIndexAt",
                    "type": "uint32"
                },
                {
                    "components": [
                        {
                            "internalType": "bytes32",
                            "name": "id",
                            "type": "bytes32"
                        },
                        {
                            "internalType": "address",
                            "name": "owner",
                            "type": "address"
                        },
                        {
                            "internalType": "uint256",
                            "name": "odds",
                            "type": "uint256"
                        },
                        {
                            "internalType": "uint256",
                            "name": "costs",
                            "type": "uint256"
                        },
                        {
                            "internalType": "uint256",
                            "name": "buyPrice",
                            "type": "uint256"
                        },
                        {
                            "internalType": "uint256",
                            "name": "marketPrice",
                            "type": "uint256"
                        },
                        {
                            "internalType": "enum CoinDirection",
                            "name": "buyDirection",
                            "type": "uint8"
                        },
                        {
                            "internalType": "uint256",
                            "name": "gas",
                            "type": "uint256"
                        },
                        {
                            "internalType": "uint32",
                            "name": "luckyNumber",
                            "type": "uint32"
                        }
                    ],
                    "internalType": "struct StakeBill",
                    "name": "bill",
                    "type": "tuple"
                }
            ],
            "stateMutability": "view",
            "type": "function"
        },
        {
            "inputs": [],
            "name": "getFrontQueueCount",
            "outputs": [
                {
                    "internalType": "uint256",
                    "name": "",
                    "type": "uint256"
                }
            ],
            "stateMutability": "view",
            "type": "function"
        },
        {
            "inputs": [],
            "name": "getQueueCount",
            "outputs": [
                {
                    "internalType": "uint256",
                    "name": "",
                    "type": "uint256"
                }
            ],
            "stateMutability": "view",
            "type": "function"
        },
        {
            "inputs": [],
            "name": "getRoot",
            "outputs": [
                {
                    "internalType": "address",
                    "name": "",
                    "type": "address"
                }
            ],
            "stateMutability": "view",
            "type": "function"
        },
        {
            "inputs": [
                {
                    "internalType": "uint32",
                    "name": "index",
                    "type": "uint32"
                }
            ],
            "name": "getStakeBill",
            "outputs": [
                {
                    "internalType": "bool",
                    "name": "exists",
                    "type": "bool"
                },
                {
                    "components": [
                        {
                            "internalType": "bytes32",
                            "name": "id",
                            "type": "bytes32"
                        },
                        {
                            "internalType": "address",
                            "name": "owner",
                            "type": "address"
                        },
                        {
                            "internalType": "uint256",
                            "name": "odds",
                            "type": "uint256"
                        },
                        {
                            "internalType": "uint256",
                            "name": "costs",
                            "type": "uint256"
                        },
                        {
                            "internalType": "uint256",
                            "name": "buyPrice",
                            "type": "uint256"
                        },
                        {
                            "internalType": "uint256",
                            "name": "marketPrice",
                            "type": "uint256"
                        },
                        {
                            "internalType": "enum CoinDirection",
                            "name": "buyDirection",
                            "type": "uint8"
                        },
                        {
                            "internalType": "uint256",
                            "name": "gas",
                            "type": "uint256"
                        },
                        {
                            "internalType": "uint32",
                            "name": "luckyNumber",
                            "type": "uint32"
                        }
                    ],
                    "internalType": "struct StakeBill",
                    "name": "bill",
                    "type": "tuple"
                }
            ],
            "stateMutability": "view",
            "type": "function"
        },
        {
            "inputs": [],
            "name": "getTopFiveBillBackQueue",
            "outputs": [
                {
                    "internalType": "uint32",
                    "name": "length",
                    "type": "uint32"
                },
                {
                    "components": [
                        {
                            "internalType": "bytes32",
                            "name": "id",
                            "type": "bytes32"
                        },
                        {
                            "internalType": "address",
                            "name": "owner",
                            "type": "address"
                        },
                        {
                            "internalType": "uint256",
                            "name": "odds",
                            "type": "uint256"
                        },
                        {
                            "internalType": "uint256",
                            "name": "costs",
                            "type": "uint256"
                        },
                        {
                            "internalType": "uint256",
                            "name": "buyPrice",
                            "type": "uint256"
                        },
                        {
                            "internalType": "uint256",
                            "name": "marketPrice",
                            "type": "uint256"
                        },
                        {
                            "internalType": "enum CoinDirection",
                            "name": "buyDirection",
                            "type": "uint8"
                        },
                        {
                            "internalType": "uint256",
                            "name": "gas",
                            "type": "uint256"
                        },
                        {
                            "internalType": "uint32",
                            "name": "luckyNumber",
                            "type": "uint32"
                        }
                    ],
                    "internalType": "struct StakeBill[5]",
                    "name": "bills",
                    "type": "tuple[5]"
                }
            ],
            "stateMutability": "view",
            "type": "function"
        },
        {
            "inputs": [],
            "name": "getTopFiveBillFrontQueue",
            "outputs": [
                {
                    "internalType": "uint32",
                    "name": "length",
                    "type": "uint32"
                },
                {
                    "components": [
                        {
                            "internalType": "bytes32",
                            "name": "id",
                            "type": "bytes32"
                        },
                        {
                            "internalType": "address",
                            "name": "owner",
                            "type": "address"
                        },
                        {
                            "internalType": "uint256",
                            "name": "odds",
                            "type": "uint256"
                        },
                        {
                            "internalType": "uint256",
                            "name": "costs",
                            "type": "uint256"
                        },
                        {
                            "internalType": "uint256",
                            "name": "buyPrice",
                            "type": "uint256"
                        },
                        {
                            "internalType": "uint256",
                            "name": "marketPrice",
                            "type": "uint256"
                        },
                        {
                            "internalType": "enum CoinDirection",
                            "name": "buyDirection",
                            "type": "uint8"
                        },
                        {
                            "internalType": "uint256",
                            "name": "gas",
                            "type": "uint256"
                        },
                        {
                            "internalType": "uint32",
                            "name": "luckyNumber",
                            "type": "uint32"
                        }
                    ],
                    "internalType": "struct StakeBill[5]",
                    "name": "bills",
                    "type": "tuple[5]"
                }
            ],
            "stateMutability": "view",
            "type": "function"
        },
        {
            "inputs": [],
            "name": "getWeiPrice",
            "outputs": [
                {
                    "internalType": "uint256",
                    "name": "",
                    "type": "uint256"
                }
            ],
            "stateMutability": "view",
            "type": "function"
        },
        {
            "inputs": [],
            "name": "isRunning",
            "outputs": [
                {
                    "internalType": "bool",
                    "name": "",
                    "type": "bool"
                }
            ],
            "stateMutability": "view",
            "type": "function"
        },
        {
            "inputs": [],
            "name": "matchmake",
            "outputs": [],
            "stateMutability": "nonpayable",
            "type": "function"
        },
        {
            "inputs": [],
            "name": "run",
            "outputs": [],
            "stateMutability": "nonpayable",
            "type": "function"
        },
        {
            "inputs": [
                {
                    "internalType": "uint256",
                    "name": "buyPrice",
                    "type": "uint256"
                },
                {
                    "internalType": "enum CoinDirection",
                    "name": "buyDirection",
                    "type": "uint8"
                },
                {
                    "internalType": "uint32",
                    "name": "luckyNumber",
                    "type": "uint32"
                }
            ],
            "name": "stake",
            "outputs": [],
            "stateMutability": "payable",
            "type": "function"
        },
        {
            "inputs": [],
            "name": "stop",
            "outputs": [],
            "stateMutability": "nonpayable",
            "type": "function"
        },
        {
            "stateMutability": "payable",
            "type": "receive"
        }
    ],
    "bytecode": "60806040523480156200001157600080fd5b506040516200302e3803806200302e833981016040819052620000349162000157565b600280546001600160a01b03199081163317909155600080546001600160a01b0385811661010002610100600160a81b0319909216919091178255600180549185169190931617909155606490655af3107a4000906014906046906200009b82866200018f565b6040805160e0810182528681526020810188905260009181018290526060810182905261ffff9586166080820181905294861660a082018190529290951660c090950185905260039590955560049590955550600583905560068390556007805463ffffffff1916909117620100009094029390931761ffff60201b191664010000000090910217909155805460ff1916600117905550620001c09050565b80516001600160a01b03811681146200015257600080fd5b919050565b600080604083850312156200016b57600080fd5b62000176836200013a565b915062000186602084016200013a565b90509250929050565b61ffff828116828216039080821115620001b957634e487b7160e01b600052601160045260246000fd5b5092915050565b612e5e80620001d06000396000f3fe60806040526004361061010d5760003560e01c806371f81e9d11610095578063c53f267011610064578063c53f267014610347578063c86559261461035c578063d1314ee014610371578063ecb891e11461038f578063f2b6c156146104065761015c565b806371f81e9d146102d05780638d1d5b3f146102e557806393accf97146102fa578063c0406226146103285761015c565b806325903933116100dc578063259039331461021e5780633471b337146102415780635c3917d4146102645780635ca1e165146102845780636949c0b2146102bb5761015c565b806303cd5c591461019f57806307da68f5146101b2578063143025fd146101ce5780632014e5d1146101fa5761015c565b3661015c5760405162461bcd60e51b8152602060048201526018602482015277139bc81bdd1a195c8818d85b1b1cc81cdd5c1c1bdc9d195960421b60448201526064015b60405180910390fd5b005b60405162461bcd60e51b8152602060048201526018602482015277139bc81bdd1a195c8818d85b1b1cc81cdd5c1c1bdc9d195960421b6044820152606401610151565b61015a6101ad3660046127e9565b61041b565b3480156101be57600080fd5b5061015a6000805460ff19169055565b3480156101da57600080fd5b506101e36105d2565b6040516101f19291906128ca565b60405180910390f35b34801561020657600080fd5b5060005460ff165b60405190151581526020016101f1565b34801561022a57600080fd5b506102336105ee565b6040516101f19291906128e5565b34801561024d57600080fd5b5061025661060d565b6040519081526020016101f1565b34801561027057600080fd5b5061020e61027f36600461292f565b610626565b34801561029057600080fd5b5060005461010090046001600160a01b03165b6040516001600160a01b0390911681526020016101f1565b3480156102c757600080fd5b506102566106ee565b3480156102dc57600080fd5b506102566106fc565b3480156102f157600080fd5b5061015a61070a565b34801561030657600080fd5b5061031a61031536600461294a565b6107d9565b6040516101f1929190612965565b34801561033457600080fd5b5061015a6000805460ff19166001179055565b34801561035357600080fd5b506102566109ac565b34801561036857600080fd5b506101e36109c3565b34801561037d57600080fd5b506001546001600160a01b03166102a3565b34801561039b57600080fd5b506103a46109d7565b6040516101f19190600060e08201905082518252602083015160208301526040830151604083015260608301516060830152608083015161ffff80821660808501528060a08601511660a08501528060c08601511660c0850152505092915050565b34801561041257600080fd5b50610233610a7a565b60005460ff166104635760405162461bcd60e51b81526020600482015260136024820152721bd9191cd9195e081a185cc81cdd1bdc1c1959606a1b6044820152606401610151565b600082600281111561047757610477612825565b036104c45760405162461bcd60e51b815260206004820152601b60248201527f427579696e6720646972656374696f6e20697320756e6b6e6f776e00000000006044820152606401610151565b6003546000906104df906104d89086610a8e565b3490610b19565b6005549091506104ef9082610b5b565b6005556006546104ff9034610b5b565b600655604080514260208083019190915244828401528251808303840181526060830180855281519190920120610180830190935282815233608083015260a082018490523460c083015260e082018790526004546101008301526000916101200186600281111561057357610573612825565b81526020015a81526020018563ffffffff16815250905061059381610bba565b7f67ff9f7ebf0786f0383127a22a0f947768f85d4ad4c7a4fe559ade9bab63eeb9816040516105c2919061297c565b60405180910390a1505050505050565b60006105dc61272a565b6105e66002610d06565b915091509091565b60006105f8612776565b6106026002610f0c565b919491935090915050565b600061061b600160006111d6565b63ffffffff16905090565b60008060006106356001610d06565b915091508163ffffffff1663ffffffff03610654575060009392505050565b6000806106616002610d06565b915091508163ffffffff1663ffffffff036106825750600095945050505050565b600186600281111561069657610696612825565b036106b257806080015183608001511115945050505050919050565b60028660028111156106c6576106c6612825565b036106e257826080015181608001511115945050505050919050565b50600095945050505050565b600061061b600060016111d6565b600061061b600060026111d6565b6001546001600160a01b031633146107645760405162461bcd60e51b815260206004820152601a60248201527f4f6e6c792062726f6b65722063616e2063616c6c20746869732e0000000000006044820152606401610151565b60005460ff166107ac5760405162461bcd60e51b81526020600482015260136024820152721bd9191cd9195e081a185cc81cdd1bdc1c1959606a1b6044820152606401610151565b60006107b66113b3565b9150505b6107c381610626565b156107d6576107d18161176c565b6107ba565b50565b60006107e361272a565b6000805b60208163ffffffff1610156109975760006109088263ffffffff16602081106108125761081261298b565b602081049091015460ff601f9092166101000a900416905060005b60088160ff161015610982576000610846826002612a9b565b831660ff169050610858826002612a9b565b8160ff160361096f578763ffffffff168563ffffffff1603610961576001600860ff84166108868783612aaa565b6108909190612ad2565b63ffffffff1661010081106108a7576108a761298b565b6040805161012081018252600992909202929092018054825260018101546001600160a01b03166020830152600280820154938301939093526003810154606083015260048101546080830152600581015460a083015260068101549092839160c084019160ff9091169081111561092157610921612825565b600281111561093257610932612825565b81526007820154602082015260089091015463ffffffff16604090910152919a91995090975050505050505050565b8461096b81612af6565b9550505b508061097a81612b19565b91505061082d565b5050808061098f90612af6565b9150506107e7565b506109a061272a565b60009590945092505050565b6004546003546000916109be91612b38565b905090565b60006109cd61272a565b6105e66001610d06565b610a236040518060e0016040528060008152602001600081526020016000815260200160008152602001600061ffff168152602001600061ffff168152602001600061ffff1681525090565b506040805160e0810182526003548152600454602082015260055491810191909152600654606082015260075461ffff8082166080840152620100008204811660a08401526401000000009091041660c082015290565b6000610a84612776565b6106026001610f0c565b600082600003610aa057506000610b13565b6000610aac8385612b38565b905082610ab98583612b65565b14610b105760405162461bcd60e51b815260206004820152602160248201527f536166654d6174683a206d756c7469706c69636174696f6e206f766572666c6f6044820152607760f81b6064820152608401610151565b90505b92915050565b6000610b1083836040518060400160405280601a81526020017f536166654d6174683a206469766973696f6e206279207a65726f000000000000815250611bc7565b600080610b688385612b79565b905083811015610b105760405162461bcd60e51b815260206004820152601b60248201527f536166654d6174683a206164646974696f6e206f766572666c6f7700000000006044820152606401610151565b6000610bc4611c00565b90508063ffffffff1663ffffffff03610c1f5760405162461bcd60e51b815260206004820152601e60248201527f5374616b652042696c6c2041727261792073706163652069732066756c6c00006044820152606401610151565b8160088263ffffffff166101008110610c3a57610c3a61298b565b600902016000820151816000015560208201518160010160006101000a8154816001600160a01b0302191690836001600160a01b0316021790555060408201518160020155606082015181600301556080820151816004015560a0820151816005015560c08201518160060160006101000a81548160ff02191690836002811115610cc757610cc7612825565b021790555060e08201516007820155610100909101516008909101805463ffffffff191663ffffffff909216919091179055610d0281611cd8565b5050565b6000610d1061272a565b610d1861272a565b63ffffffff925060005b60208163ffffffff161015610f035760006109088263ffffffff1660208110610d4d57610d4d61298b565b602081049091015460ff601f9092166101000a900416905060005b60088160ff161015610eee576000610d81826002612a9b565b831660ff169050610d93826002612a9b565b8160ff1603610eda57600860ff8316610dac8683612aaa565b610db69190612ad2565b63ffffffff166101008110610dcd57610dcd61298b565b6040805161012081018252600992909202929092018054825260018101546001600160a01b03166020830152600280820154938301939093526003810154606083015260048101546080830152600581015460a083015260068101549192909160c084019160ff90911690811115610e4757610e47612825565b6002811115610e5857610e58612825565b81526007820154602082015260089091015463ffffffff166040909101529550876002811115610e8a57610e8a612825565b8660c001516002811115610ea057610ea0612825565b14610eab5750610edc565b846080015186608001511115610eda5785945060ff8216610ecd856008612aaa565b610ed79190612ad2565b96505b505b80610ee681612b19565b915050610d68565b50508080610efb90612af6565b915050610d22565b50919391925050565b6000610f166127a3565b610f1e612776565b60005b60208163ffffffff1610156111ba5760006109088263ffffffff1660208110610f4c57610f4c61298b565b602081049091015460ff601f9092166101000a900416905060005b60088160ff1610156111a5576000610f80826002612a9b565b831660ff169050610f92826002612a9b565b8160ff1603611191576000600860ff8416610fad8783612aaa565b610fb79190612ad2565b63ffffffff166101008110610fce57610fce61298b565b6040805161012081018252600992909202929092018054825260018101546001600160a01b03166020830152600280820154938301939093526003810154606083015260048101546080830152600581015460a083015260068101549192909160c084019160ff9091169081111561104857611048612825565b600281111561105957611059612825565b81526007820154602082015260089091015463ffffffff16604090910152905088600281111561108b5761108b612825565b8160c0015160028111156110a1576110a1612825565b146110ad575050611193565b85516080908101519082015110156110c6575050611193565b600560006110d5600183612b8c565b90505b60001981131561118d578781600581106110f4576110f461298b565b6020020151608001518360800151111561117b57809150611116898984611d7c565b828883600581106111295761112961298b565b602002015260ff851661113d886008612aaa565b6111479190612ad2565b8983600581106111595761115961298b565b63ffffffff90921660209290920201528961117381612af6565b9a505061118d565b8061118581612b9f565b9150506110d8565b5050505b505b8061119d81612b19565b915050610f67565b505080806111b290612af6565b915050610f21565b5060058363ffffffff1611156111cf57600592505b9193909250565b600080805b60208163ffffffff1610156113ab5760006109088263ffffffff16602081106112065761120661298b565b602081049091015460ff601f9092166101000a900416905060005b60088160ff16101561139657600061123a826002612a9b565b831660ff16905061124c826002612a9b565b8160ff1603611382576000600860ff84166112678783612aaa565b6112719190612ad2565b63ffffffff1661010081106112885761128861298b565b6040805161012081018252600992909202929092018054825260018101546001600160a01b03166020830152600280820154938301939093526003810154606083015260048101546080830152600581015460a083015260068101549192909160c084019160ff9091169081111561130257611302612825565b600281111561131357611313612825565b81526007820154602082015260089091015463ffffffff16604090910152905088158015611367575087600281111561134e5761134e612825565b8160c00151600281111561136457611364612825565b14155b15611373575050611384565b8561137d81612af6565b965050505b505b8061138e81612b19565b915050611221565b505080806113a390612af6565b9150506111db565b509392505050565b6040805161010081018252600080825260208201819052918101829052606081018290526080810182905260a0810182905260c0810182905260e08101919091526000600a4244604051602001611414929190918252602082015260400190565b6040516020818303038152906040528051906020012060001c6114379190612bbc565b60ff16808352604051600a916114719142914491602001928352602083019190915260f81b6001600160f81b031916604082015260410190565b6040516020818303038152906040528051906020012060001c6114949190612bbc565b60ff8116602084810191909152835160408051428185015244818301526001600160f81b031960f893841b811660608301529490921b909316606182015282518082036042018152606290910190925281519101206114f590600a90612bbc565b60ff811660408481019190915283516020808601518351428184015244818601526001600160f81b031960f894851b8116606083015291841b821660618201529490921b9091166062840152815180840360430181526063909301909152815191012061156490600a90612bbc565b60ff811660608481019190915283516020808601516040808801518151428186015244818401526001600160f81b031960f896871b81169782019790975292851b86166061840152841b851660628301529490921b909216606382015282518082036044018152606490910190925281519101206115e490600a90612bbc565b60ff16608083015260006115f86001611e19565b905060006116066002611e19565b60408051426020820152449181019190915260608101849052909150600a906080016040516020818303038152906040528051906020012060001c61164b9190612bbc565b60ff1660a085015260408051426020820152449181019190915260608101829052600a906080016040516020818303038152906040528051906020012060001c6116959190612bbc565b60ff811660c086015284516020808701516040808901516060808b015160808c015160a08d0151855142818a015244818801526001600160f81b031960f89a8b1b81169582019590955296891b8416606188015293881b8316606287015290871b82166063860152861b8116606485015290851b811660658401529490931b9093166066840152815180840360470181526067909301909152815191012060009061174290600290612bbc565b60e08601819052905060018190036117605750929360019350915050565b50929360029350915050565b6000806117796001610d06565b915091508163ffffffff1663ffffffff0361179357505050565b6000806117a06002610d06565b915091508163ffffffff1663ffffffff036117bc575050505050565b6117c584611ff2565b6117ce82611ff2565b61183160405180610160016040528060008152602001600081526020016000815260200160008152602001600081526020016000815260200160008019168152602001600081526020016000815260200160008152602001600080191681525090565b6118438460400151836040015161206f565b8152608080830151908501516118659160029161185f91610b5b565b90610b19565b60208201528051604085015161187a91612086565b60408083019190915281519083015161189291612086565b6060820152600354608085015160408301516118b992916118b39190610a8e565b90610a8e565b6080808301919091526003549083015160608301516118dd92916118b39190610a8e565b60a082015260408101511561190957608081015160608501526040808201519085015261190984610bba565b6060810151156119325760a0810151606080840191909152810151604083015261193282610bba565b6003546020820151825161194b92916118b39190610a8e565b60e082015260808082015160035491860151604087015161197b936119759290916118b391610a8e565b90612086565b61010082015260a0810151600354608084015160408501516119a793926119759290916118b391610a8e565b61012082015260408051426020820152449181019190915260600160408051601f19818403018152919052805160209091012060c082018190526101008201516119f29190866120c8565b611a068160c00151826101200151846120c8565b6001866002811115611a1a57611a1a612825565b03611a3757611a328160c001518260e00151866122aa565b611a63565b6002866002811115611a4b57611a4b612825565b03611a6357611a328160c001518260e00151846122aa565b6020810151600455805160058054600090611a7f908490612b8c565b909155505060408051426020820152449181019190915260600160405160208183030381529060405280519060200120816101400181815250506000604051806101e00160405280836101400151815260200186600001518152602001846000015181526020018360c001518152602001600160009054906101000a90046001600160a01b03166001600160a01b0316815260200183600001518152602001836020015181526020018360400151815260200183606001518152602001836080015181526020018360a001518152602001836101000151815260200183610120015181526020018360e001518152602001886002811115611b8257611b82612825565b81525090507f1ea5d61fc6547651d1da2473a4367de75ba86fa242234a737008287f52d7913c81604051611bb69190612bd0565b60405180910390a150505050505050565b60008183611be85760405162461bcd60e51b81526004016101519190612cad565b506000611bf58486612b65565b9150505b9392505050565b600063ffffffff81805b60208163ffffffff161015611cd05760006109088263ffffffff1660208110611c3557611c3561298b565b602081049091015460ff601f9092166101000a900416905060005b60088160ff161015611cb0576000611c69826002612a9b565b8360ff1616905080600003611c9d5760ff8216611c87856008612aaa565b611c919190612ad2565b95506001945050611cb0565b5080611ca881612b19565b915050611c50565b508215611cbd5750611cd0565b5080611cc881612af6565b915050611c0a565b509092915050565b6000611ce5600883612ce0565b90506000611cf4600884612d03565b905060006109088363ffffffff1660208110611d1257611d1261298b565b602081049091015460ff601f9092166101000a9004169050611d35826002612d26565b60ff909116178061090863ffffffff851660208110611d5657611d5661298b565b602091828204019190066101000a81548160ff021916908360ff16021790555050505050565b60015b818111611e1357828160058110611d9857611d9861298b565b602002015183611da9600184612b8c565b60058110611db957611db961298b565b6020020152838160058110611dd057611dd061298b565b602002015184611de1600184612b8c565b60058110611df157611df161298b565b63ffffffff909216602092909202015280611e0b81612d38565b915050611d7f565b50505050565b6000805b60208163ffffffff161015611fec5760006109088263ffffffff1660208110611e4857611e4861298b565b602081049091015460ff601f9092166101000a900416905060005b60088160ff161015611fd7576000611e7c826002612a9b565b831660ff169050611e8e826002612a9b565b8160ff1603611fc3576000600860ff8416611ea98783612aaa565b611eb39190612ad2565b63ffffffff166101008110611eca57611eca61298b565b6040805161012081018252600992909202929092018054825260018101546001600160a01b03166020830152600280820154938301939093526003810154606083015260048101546080830152600581015460a083015260068101549192909160c084019160ff90911690811115611f4457611f44612825565b6002811115611f5557611f55612825565b81526007820154602082015260089091015463ffffffff166040909101529050866002811115611f8757611f87612825565b8160c001516002811115611f9d57611f9d612825565b14611fa9575050611fc5565b610100810151611fbf9063ffffffff1687612b79565b9550505b505b80611fcf81612b19565b915050611e63565b50508080611fe490612af6565b915050611e1d565b50919050565b6000611fff600883612ce0565b9050600061200e600884612d03565b905060006109088363ffffffff166020811061202c5761202c61298b565b602081049091015460ff601f9092166101000a900416905061204f826002612d26565b191660ff168061090863ffffffff851660208110611d5657611d5661298b565b60008183111561207f5781610b10565b5090919050565b6000610b1083836040518060400160405280601e81526020017f536166654d6174683a207375627472616374696f6e206f766572666c6f7700008152506126f9565b816000036120d557505050565b602081810151604080516000808252938101918290529192916001600160a01b03841691869161210491612d51565b60006040518083038185875af1925050503d8060008114612141576040519150601f19603f3d011682016040523d82523d6000602084013e612146565b606091505b5050905080846040516020016121a691907f4554485f5452414e534645525f4641494c45443a20526566756e6420746f2070815274030b63cb2b917102932b33ab7321031b7b9ba399d1605d1b6020820152603581019190915260550190565b604051602081830303815290604052906121d35760405162461bcd60e51b81526004016101519190612cad565b50600042446040516020016121f2929190918252602082015260400190565b60405160208183030381529060405280519060200120905060006040518060a0016040528083815260200186600001518152602001888152602001856001600160a01b031681526020018781525090507f18fb24206513f6983861e5acad39384526cb897f511f911740263279449125bc81604051611bb691908151815260208083015190820152604080830151908201526060808301516001600160a01b0316908201526080918201519181019190915260a00190565b60208101516007546000906122cb9060649061185f90879061ffff16610a8e565b905060006122d98583612086565b6007549091506000906122fe9060649061185f90869062010000900461ffff16610a8e565b9050600061230c8483612086565b60408051600080825260208201928390529293506001600160a01b03881691869161233691612d51565b60006040518083038185875af1925050503d8060008114612373576040519150601f19603f3d011682016040523d82523d6000602084013e612378565b606091505b5050905080846040516020016123d691907f4554485f5452414e534645525f4641494c45443a2073706c6974207072697a658152720103a37903830b63cb2b917103137b73ab99d1606d1b6020820152603381019190915260530190565b604051602081830303815290604052906124035760405162461bcd60e51b81526004016101519190612cad565b506001546040805160008082526020820192839052926001600160a01b031691869161242e91612d51565b60006040518083038185875af1925050503d806000811461246b576040519150601f19603f3d011682016040523d82523d6000602084013e612470565b606091505b5050905080856040516020016124d891907f4554485f5452414e534645525f4641494c45443a2073706c6974207072697a6581527f20746f2062726f6b65722e2062726f6b65726167653a200000000000000000006020820152603781019190915260570190565b604051602081830303815290604052906125055760405162461bcd60e51b81526004016101519190612cad565b506000805460408051838152602081019091526101009091046001600160a01b03169085906040516125379190612d51565b60006040518083038185875af1925050503d8060008114612574576040519150601f19603f3d011682016040523d82523d6000602084013e612579565b606091505b5050905080866040516020016125d391907f4554485f5452414e534645525f4641494c45443a2073706c6974207072697a6581526e0103a37903937b7ba17103a30bc1d1608d1b6020820152602f810191909152604f0190565b604051602081830303815290604052906126005760405162461bcd60e51b81526004016101519190612cad565b506000424460405160200161261f929190918252602082015260400190565b60408051601f198184030181528282528051602091820120610180840183528084528d51918401919091528282018f90526001600160a01b038c16606084015260075461ffff8082166080860152620100008204811660a08601526401000000009091041660c084015260e083018e905261010083018a905261012083018b90526101408301899052610160830188905290519092507f8c77d17dfdf762b972b90fefbcc2031d1494f3414de7f55a6b70d7c1b4c3a9d9906126e2908390612d6d565b60405180910390a150505050505050505050505050565b6000818484111561271d5760405162461bcd60e51b81526004016101519190612cad565b506000611bf58486612b8c565b6040805161012081018252600080825260208201819052918101829052606081018290526080810182905260a081018290529060c0820190815260006020820181905260409091015290565b6040518060a001604052806005905b61278d61272a565b8152602001906001900390816127855790505090565b6040518060a001604052806005906020820280368337509192915050565b8035600381106127d057600080fd5b919050565b803563ffffffff811681146127d057600080fd5b6000806000606084860312156127fe57600080fd5b8335925061280e602085016127c1565b915061281c604085016127d5565b90509250925092565b634e487b7160e01b600052602160045260246000fd5b6003811061285957634e487b7160e01b600052602160045260246000fd5b9052565b8051825260018060a01b03602082015116602083015260408101516040830152606081015160608301526080810151608083015260a081015160a083015260c08101516128ad60c084018261283b565b5060e081810151908301526101009081015163ffffffff16910152565b63ffffffff831681526101408101611bf9602083018461285d565b63ffffffff831681526105c0810160208083018460005b60058110156129245761291083835161285d565b6101209290920191908301906001016128fc565b505050509392505050565b60006020828403121561294157600080fd5b610b10826127c1565b60006020828403121561295c57600080fd5b610b10826127d5565b82151581526101408101611bf9602083018461285d565b6101208101610b13828461285d565b634e487b7160e01b600052603260045260246000fd5b634e487b7160e01b600052601160045260246000fd5b600181815b808511156129f25781600019048211156129d8576129d86129a1565b808516156129e557918102915b93841c93908002906129bc565b509250929050565b600082612a0957506001610b13565b81612a1657506000610b13565b8160018114612a2c5760028114612a3657612a52565b6001915050610b13565b60ff841115612a4757612a476129a1565b50506001821b610b13565b5060208310610133831016604e8410600b8410161715612a75575081810a610b13565b612a7f83836129b7565b8060001904821115612a9357612a936129a1565b029392505050565b6000610b1060ff8416836129fa565b63ffffffff818116838216028082169190828114612aca57612aca6129a1565b505092915050565b63ffffffff818116838216019080821115612aef57612aef6129a1565b5092915050565b600063ffffffff808316818103612b0f57612b0f6129a1565b6001019392505050565b600060ff821660ff8103612b2f57612b2f6129a1565b60010192915050565b8082028115828204841417610b1357610b136129a1565b634e487b7160e01b600052601260045260246000fd5b600082612b7457612b74612b4f565b500490565b80820180821115610b1357610b136129a1565b81810381811115610b1357610b136129a1565b6000600160ff1b8201612bb457612bb46129a1565b506000190190565b600082612bcb57612bcb612b4f565b500690565b60006101e082019050825182526020830151602083015260408301516040830152606083015160608301526080830151612c1560808401826001600160a01b03169052565b5060a0838101519083015260c0808401519083015260e08084015190830152610100808401519083015261012080840151908301526101408084015190830152610160808401519083015261018080840151908301526101a080840151908301526101c080840151612aca8285018261283b565b60005b83811015612ca4578181015183820152602001612c8c565b50506000910152565b6020815260008251806020840152612ccc816040850160208701612c89565b601f01601f19169190910160400192915050565b600063ffffffff80841680612cf757612cf7612b4f565b92169190910492915050565b600063ffffffff80841680612d1a57612d1a612b4f565b92169190910692915050565b6000610b1063ffffffff8416836129fa565b600060018201612d4a57612d4a6129a1565b5060010190565b60008251612d63818460208701612c89565b9190910192915050565b6000610180820190508251825260208301516020830152604083015160408301526060830151612da860608401826001600160a01b03169052565b506080830151612dbe608084018261ffff169052565b5060a0830151612dd460a084018261ffff169052565b5060c0830151612dea60c084018261ffff169052565b5060e083810151908301526101008084015190830152610120808401519083015261014080840151908301526101609283015192909101919091529056fea2646970667358221220b54fe83cc3e8ab08d29177f9b727795831c4f82151f0b0c0eebf229f3133713364736f6c63430008130033",
    "sourcePath": "/Users/cj/games/game-oddsdex/contracts/OddsdexContract.sol",
    "compiler": {
        "name": "solc",
        "version": "0.8.19+commit.7dd6d404"
    },
    "functionHashes": {
        "canMatchmaking(uint8)": "5c3917d4",
        "getBackQueueCount()": "71f81e9d",
        "getBroker()": "d1314ee0",
        "getBulletinBoard()": "ecb891e1",
        "getFirstBillOfBackQueue()": "143025fd",
        "getFirstBillOfFrontQueue()": "c8655926",
        "getFrontQueueCount()": "6949c0b2",
        "getQueueCount()": "3471b337",
        "getRoot()": "5ca1e165",
        "getStakeBill(uint32)": "93accf97",
        "getTopFiveBillBackQueue()": "25903933",
        "getTopFiveBillFrontQueue()": "f2b6c156",
        "getWeiPrice()": "c53f2670",
        "isRunning()": "2014e5d1",
        "matchmake()": "8d1d5b3f",
        "run()": "c0406226",
        "stake(uint256,uint8,uint32)": "03cd5c59",
        "stop()": "07da68f5"
    },
    "gasEstimates": {
        "creation": {
            "codeDepositCost": "2374000",
            "executionCost": "infinite",
            "totalCost": "infinite"
        },
        "external": {
            "": "320",
            "canMatchmaking(uint8)": "infinite",
            "getBackQueueCount()": "infinite",
            "getBroker()": "2397",
            "getBulletinBoard()": "11387",
            "getFirstBillOfBackQueue()": "infinite",
            "getFirstBillOfFrontQueue()": "infinite",
            "getFrontQueueCount()": "infinite",
            "getQueueCount()": "infinite",
            "getRoot()": "2420",
            "getStakeBill(uint32)": "infinite",
            "getTopFiveBillBackQueue()": "infinite",
            "getTopFiveBillFrontQueue()": "infinite",
            "getWeiPrice()": "4531",
            "isRunning()": "2383",
            "matchmake()": "infinite",
            "run()": "24445",
            "stake(uint256,uint8,uint32)": "infinite",
            "stop()": "24396"
        },
        "internal": {
            "_calculateWinningDirection()": "infinite",
            "_getFirstSpaceBit()": "infinite",
            "_lengthOfStakeBills(bool,enum CoinDirection)": "infinite",
            "_matchmakePairBill(enum CoinDirection)": "infinite",
            "_min(uint256,uint256)": "68",
            "_moveFronts(uint32[5] memory,struct StakeBill memory[5] memory,uint256)": "infinite",
            "_refundCost(bytes32,uint256,struct StakeBill memory)": "infinite",
            "_removeStakeBill(uint32)": "infinite",
            "_setStakeBillAt(uint32)": "infinite",
            "_splitPrize(bytes32,uint256,struct StakeBill memory)": "infinite",
            "_topFirstOfStakeBill(enum CoinDirection)": "infinite",
            "_topFiveOfStakeBill(enum CoinDirection)": "infinite",
            "_totalLuckyNumber(enum CoinDirection)": "infinite",
            "storeStakeBill(struct StakeBill memory)": "infinite"
        }
    }
}