{
  "contractName": "GamblingContractFactory",
  "abi": [
    {
      "inputs": [],
      "stateMutability": "nonpayable",
      "type": "constructor"
    },
    {
      "anonymous": false,
      "inputs": [
        {
          "components": [
            {
              "internalType": "address",
              "name": "contractAddress",
              "type": "address"
            },
            {
              "internalType": "address",
              "name": "root",
              "type": "address"
            },
            {
              "internalType": "address",
              "name": "broker",
              "type": "address"
            },
            {
              "components": [
                {
                  "internalType": "bool",
                  "name": "isAllow",
                  "type": "bool"
                },
                {
                  "internalType": "uint8",
                  "name": "payMode",
                  "type": "uint8"
                },
                {
                  "internalType": "uint256",
                  "name": "time",
                  "type": "uint256"
                }
              ],
              "internalType": "struct ApplyRights",
              "name": "rights",
              "type": "tuple"
            }
          ],
          "indexed": false,
          "internalType": "struct CreateOddsdexContractMessage",
          "name": "e",
          "type": "tuple"
        }
      ],
      "name": "OnCreateOddsdexContract",
      "type": "event"
    },
    {
      "stateMutability": "payable",
      "type": "fallback"
    },
    {
      "inputs": [
        {
          "internalType": "uint256",
          "name": "",
          "type": "uint256"
        }
      ],
      "name": "contracts",
      "outputs": [
        {
          "internalType": "address",
          "name": "",
          "type": "address"
        }
      ],
      "stateMutability": "view",
      "type": "function"
    },
    {
      "inputs": [],
      "name": "root",
      "outputs": [
        {
          "internalType": "address",
          "name": "",
          "type": "address"
        }
      ],
      "stateMutability": "view",
      "type": "function"
    },
    {
      "stateMutability": "payable",
      "type": "receive"
    },
    {
      "inputs": [
        {
          "internalType": "address",
          "name": "broker",
          "type": "address"
        }
      ],
      "name": "getApplyRights",
      "outputs": [
        {
          "components": [
            {
              "internalType": "bool",
              "name": "isAllow",
              "type": "bool"
            },
            {
              "internalType": "uint8",
              "name": "payMode",
              "type": "uint8"
            },
            {
              "internalType": "uint256",
              "name": "time",
              "type": "uint256"
            }
          ],
          "internalType": "struct ApplyRights",
          "name": "",
          "type": "tuple"
        }
      ],
      "stateMutability": "view",
      "type": "function"
    },
    {
      "inputs": [
        {
          "internalType": "address",
          "name": "broker",
          "type": "address"
        }
      ],
      "name": "isPaidOfBroker",
      "outputs": [
        {
          "internalType": "bool",
          "name": "",
          "type": "bool"
        }
      ],
      "stateMutability": "view",
      "type": "function"
    },
    {
      "inputs": [
        {
          "internalType": "address",
          "name": "broker",
          "type": "address"
        }
      ],
      "name": "isValidBroker",
      "outputs": [
        {
          "internalType": "bool",
          "name": "",
          "type": "bool"
        }
      ],
      "stateMutability": "view",
      "type": "function"
    },
    {
      "inputs": [
        {
          "internalType": "address",
          "name": "broker",
          "type": "address"
        }
      ],
      "name": "isExpired",
      "outputs": [
        {
          "internalType": "bool",
          "name": "",
          "type": "bool"
        },
        {
          "internalType": "uint8",
          "name": "",
          "type": "uint8"
        }
      ],
      "stateMutability": "view",
      "type": "function"
    },
    {
      "inputs": [],
      "name": "getBalance",
      "outputs": [
        {
          "internalType": "uint256",
          "name": "",
          "type": "uint256"
        }
      ],
      "stateMutability": "view",
      "type": "function"
    },
    {
      "inputs": [],
      "name": "getAddress",
      "outputs": [
        {
          "internalType": "address",
          "name": "",
          "type": "address"
        }
      ],
      "stateMutability": "view",
      "type": "function"
    },
    {
      "inputs": [],
      "name": "getAnnualFee",
      "outputs": [
        {
          "internalType": "uint256",
          "name": "",
          "type": "uint256"
        }
      ],
      "stateMutability": "view",
      "type": "function"
    },
    {
      "inputs": [],
      "name": "getMonthlyFee",
      "outputs": [
        {
          "internalType": "uint256",
          "name": "",
          "type": "uint256"
        }
      ],
      "stateMutability": "view",
      "type": "function"
    },
    {
      "inputs": [
        {
          "internalType": "uint256",
          "name": "_annualFee",
          "type": "uint256"
        }
      ],
      "name": "setAnnualFee",
      "outputs": [],
      "stateMutability": "nonpayable",
      "type": "function"
    },
    {
      "inputs": [
        {
          "internalType": "uint256",
          "name": "_monthlyFee",
          "type": "uint256"
        }
      ],
      "name": "setMonthlyFee",
      "outputs": [],
      "stateMutability": "nonpayable",
      "type": "function"
    },
    {
      "inputs": [
        {
          "internalType": "address",
          "name": "_broker",
          "type": "address"
        }
      ],
      "name": "createOddsdexContract",
      "outputs": [
        {
          "internalType": "address",
          "name": "",
          "type": "address"
        }
      ],
      "stateMutability": "nonpayable",
      "type": "function"
    },
    {
      "inputs": [],
      "name": "withdraw",
      "outputs": [],
      "stateMutability": "payable",
      "type": "function"
    },
    {
      "inputs": [],
      "name": "recMothlyFee",
      "outputs": [],
      "stateMutability": "payable",
      "type": "function"
    },
    {
      "inputs": [],
      "name": "getBrokerCount",
      "outputs": [
        {
          "internalType": "uint256",
          "name": "",
          "type": "uint256"
        }
      ],
      "stateMutability": "view",
      "type": "function"
    },
    {
      "inputs": [],
      "name": "getOddsdexCount",
      "outputs": [
        {
          "internalType": "uint256",
          "name": "",
          "type": "uint256"
        }
      ],
      "stateMutability": "view",
      "type": "function"
    },
    {
      "inputs": [],
      "name": "enumBroker",
      "outputs": [
        {
          "internalType": "address[]",
          "name": "",
          "type": "address[]"
        }
      ],
      "stateMutability": "view",
      "type": "function"
    },
    {
      "inputs": [
        {
          "internalType": "address",
          "name": "broker",
          "type": "address"
        }
      ],
      "name": "listContractOfBroker",
      "outputs": [
        {
          "internalType": "address[]",
          "name": "",
          "type": "address[]"
        }
      ],
      "stateMutability": "view",
      "type": "function"
    }
  ],
  "bytecode": "0x6080604052673a4965bf58a4000060055567058d15e17628000060065534801561002857600080fd5b50336000806101000a81548173ffffffffffffffffffffffffffffffffffffffff021916908373ffffffffffffffffffffffffffffffffffffffff16021790555061671d806100786000396000f3fe608060405260043610620001335760003560e01c80638082052311620000af578063be8fabd3116200006d578063be8fabd3146200051a578063c737edec146200055e578063cca746df14620005a2578063e9a3e16914620005d2578063ebf0c7171462000616576200022f565b806380820523146200040557806388b89a7d146200043557806390405a3e1462000463578063ad450f2a14620004a7578063ba2eb54114620004d5576200022f565b80631ec2277811620000fd5780631ec22778146200034957806338cc483114620003555780633ccfd60b1462000385578063474da79a14620003915780634853276714620003d5576200022f565b806310b47ef3146200027557806310c0b89914620002a557806312065fe014620002d55780631214abd01462000305576200022f565b366200022f5760055434101562000181576040517f08c379a0000000000000000000000000000000000000000000000000000000008152600401620001789062001540565b60405180910390fd5b6040518060600160405280600115158152602001600160ff16815260200142815250600460003373ffffffffffffffffffffffffffffffffffffffff1673ffffffffffffffffffffffffffffffffffffffff16815260200190815260200160002060008201518160000160006101000a81548160ff02191690831515021790555060208201518160000160016101000a81548160ff021916908360ff16021790555060408201518160010155005b600062000273576040517f08c379a00000000000000000000000000000000000000000000000000000000081526004016200026a90620015b2565b60405180910390fd5b005b3480156200028257600080fd5b506200028d62000646565b6040516200029c9190620015ef565b60405180910390f35b348015620002b257600080fd5b50620002bd62000653565b604051620002cc91906200170e565b60405180910390f35b348015620002e257600080fd5b50620002ed620006e3565b604051620002fc9190620015ef565b60405180910390f35b3480156200031257600080fd5b506200033160048036038101906200032b919062001768565b620006eb565b6040516200034091906200170e565b60405180910390f35b62000353620007ba565b005b3480156200036257600080fd5b506200036d620008b3565b6040516200037c9190620017ab565b60405180910390f35b6200038f620008bb565b005b3480156200039e57600080fd5b50620003bd6004803603810190620003b79190620017f9565b62000a76565b604051620003cc9190620017ab565b60405180910390f35b348015620003e257600080fd5b50620003ed62000ab6565b604051620003fc9190620015ef565b60405180910390f35b3480156200041257600080fd5b506200041d62000ac0565b6040516200042c9190620015ef565b60405180910390f35b3480156200044257600080fd5b506200046160048036038101906200045b9190620017f9565b62000acd565b005b3480156200047057600080fd5b506200048f600480360381019062000489919062001768565b62000bae565b6040516200049e9190620017ab565b60405180910390f35b348015620004b457600080fd5b50620004d36004803603810190620004cd9190620017f9565b62001045565b005b348015620004e257600080fd5b50620005016004803603810190620004fb919062001768565b62001126565b6040516200051192919062001866565b60405180910390f35b3480156200052757600080fd5b5062000546600480360381019062000540919062001768565b6200123e565b6040516200055591906200190e565b60405180910390f35b3480156200056b57600080fd5b506200058a600480360381019062000584919062001768565b620012db565b6040516200059991906200192b565b60405180910390f35b348015620005af57600080fd5b50620005ba620013b5565b604051620005c99190620015ef565b60405180910390f35b348015620005df57600080fd5b50620005fe6004803603810190620005f8919062001768565b620013bf565b6040516200060d91906200192b565b60405180910390f35b3480156200062357600080fd5b506200062e62001461565b6040516200063d9190620017ab565b60405180910390f35b6000600180549050905090565b60606003805480602002602001604051908101604052809291908181526020018280548015620006d957602002820191906000526020600020905b8160009054906101000a900473ffffffffffffffffffffffffffffffffffffffff1673ffffffffffffffffffffffffffffffffffffffff16815260200190600101908083116200068e575b5050505050905090565b600047905090565b6060600260008373ffffffffffffffffffffffffffffffffffffffff1673ffffffffffffffffffffffffffffffffffffffff168152602001908152602001600020805480602002602001604051908101604052809291908181526020018280548015620007ae57602002820191906000526020600020905b8160009054906101000a900473ffffffffffffffffffffffffffffffffffffffff1673ffffffffffffffffffffffffffffffffffffffff168152602001906001019080831162000763575b50505050509050919050565b60065434101562000802576040517f08c379a0000000000000000000000000000000000000000000000000000000008152600401620007f990620019be565b60405180910390fd5b6040518060600160405280600115158152602001600260ff16815260200142815250600460003373ffffffffffffffffffffffffffffffffffffffff1673ffffffffffffffffffffffffffffffffffffffff16815260200190815260200160002060008201518160000160006101000a81548160ff02191690831515021790555060208201518160000160016101000a81548160ff021916908360ff16021790555060408201518160010155905050565b600030905090565b3373ffffffffffffffffffffffffffffffffffffffff1660008054906101000a900473ffffffffffffffffffffffffffffffffffffffff1673ffffffffffffffffffffffffffffffffffffffff16146200094c576040517f08c379a0000000000000000000000000000000000000000000000000000000008152600401620009439062001a30565b60405180910390fd5b60008060009054906101000a900473ffffffffffffffffffffffffffffffffffffffff1673ffffffffffffffffffffffffffffffffffffffff1647600067ffffffffffffffff811115620009a557620009a462001a52565b5b6040519080825280601f01601f191660200182016040528015620009d85781602001600182028036833780820191505090505b50604051620009e8919062001afa565b60006040518083038185875af1925050503d806000811462000a27576040519150601f19603f3d011682016040523d82523d6000602084013e62000a2c565b606091505b505090508062000a73576040517f08c379a000000000000000000000000000000000000000000000000000000000815260040162000a6a9062001b63565b60405180910390fd5b50565b6001818154811062000a8757600080fd5b906000526020600020016000915054906101000a900473ffffffffffffffffffffffffffffffffffffffff1681565b6000600654905090565b6000600380549050905090565b3373ffffffffffffffffffffffffffffffffffffffff1660008054906101000a900473ffffffffffffffffffffffffffffffffffffffff1673ffffffffffffffffffffffffffffffffffffffff161462000b5e576040517f08c379a000000000000000000000000000000000000000000000000000000000815260040162000b559062001a30565b60405180910390fd5b6000811162000ba4576040517f08c379a000000000000000000000000000000000000000000000000000000000815260040162000b9b9062001bd5565b60405180910390fd5b8060058190555050565b60003373ffffffffffffffffffffffffffffffffffffffff1660008054906101000a900473ffffffffffffffffffffffffffffffffffffffff1673ffffffffffffffffffffffffffffffffffffffff161462000c41576040517f08c379a000000000000000000000000000000000000000000000000000000000815260040162000c389062001a30565b60405180910390fd5b62000c4c82620012db565b62000c8e576040517f08c379a000000000000000000000000000000000000000000000000000000000815260040162000c859062001c6d565b60405180910390fd5b60008060009054906101000a900473ffffffffffffffffffffffffffffffffffffffff168360405162000cc19062001485565b62000cce92919062001c8f565b604051809103906000f08015801562000ceb573d6000803e3d6000fd5b50905060008190506001819080600181540180825580915050600190039060005260206000200160009091909190916101000a81548173ffffffffffffffffffffffffffffffffffffffff021916908373ffffffffffffffffffffffffffffffffffffffff1602179055506000600260008673ffffffffffffffffffffffffffffffffffffffff1673ffffffffffffffffffffffffffffffffffffffff168152602001908152602001600020905080829080600181540180825580915050600190039060005260206000200160009091909190916101000a81548173ffffffffffffffffffffffffffffffffffffffff021916908373ffffffffffffffffffffffffffffffffffffffff1602179055506000805b60038054905081101562000ea2578673ffffffffffffffffffffffffffffffffffffffff166003828154811062000e3b5762000e3a62001cbc565b5b9060005260206000200160009054906101000a900473ffffffffffffffffffffffffffffffffffffffff1673ffffffffffffffffffffffffffffffffffffffff160362000e8c576001915062000ea2565b808062000e999062001d1a565b91505062000dff565b508062000f0d576003869080600181540180825580915050600190039060005260206000200160009091909190916101000a81548173ffffffffffffffffffffffffffffffffffffffff021916908373ffffffffffffffffffffffffffffffffffffffff1602179055505b600060405180608001604052808573ffffffffffffffffffffffffffffffffffffffff1681526020013373ffffffffffffffffffffffffffffffffffffffff1681526020018873ffffffffffffffffffffffffffffffffffffffff168152602001600460008a73ffffffffffffffffffffffffffffffffffffffff1673ffffffffffffffffffffffffffffffffffffffff1681526020019081526020016000206040518060600160405290816000820160009054906101000a900460ff161515151581526020016000820160019054906101000a900460ff1660ff1660ff16815260200160018201548152505081525090507f9dcb72ef1591797d9ba01e8d7e2e632899cbf3a9ea38467a3f5661df00b43e848160405162001030919062001e0c565b60405180910390a18395505050505050919050565b3373ffffffffffffffffffffffffffffffffffffffff1660008054906101000a900473ffffffffffffffffffffffffffffffffffffffff1673ffffffffffffffffffffffffffffffffffffffff1614620010d6576040517f08c379a0000000000000000000000000000000000000000000000000000000008152600401620010cd9062001a30565b60405180910390fd5b600081116200111c576040517f08c379a0000000000000000000000000000000000000000000000000000000008152600401620011139062001e79565b60405180910390fd5b8060068190555050565b6000806000600460008573ffffffffffffffffffffffffffffffffffffffff1673ffffffffffffffffffffffffffffffffffffffff1681526020019081526020016000206040518060600160405290816000820160009054906101000a900460ff161515151581526020016000820160019054906101000a900460ff1660ff1660ff1681526020016001820154815250509050600080826020015190506000836040015103620011e0576001819450945050505062001239565b60018160ff160362001208576301e1338083604001514262001203919062001e9b565b101591505b60028160ff16036200122f576228de808360400151426200122a919062001e9b565b101591505b8181945094505050505b915091565b6200124862001493565b600460008373ffffffffffffffffffffffffffffffffffffffff1673ffffffffffffffffffffffffffffffffffffffff1681526020019081526020016000206040518060600160405290816000820160009054906101000a900460ff161515151581526020016000820160019054906101000a900460ff1660ff1660ff1681526020016001820154815250509050919050565b600080600460008473ffffffffffffffffffffffffffffffffffffffff1673ffffffffffffffffffffffffffffffffffffffff1681526020019081526020016000206040518060600160405290816000820160009054906101000a900460ff161515151581526020016000820160019054906101000a900460ff1660ff1660ff1681526020016001820154815250509050806000015162001381576000915050620013b0565b600081604001510362001399576000915050620013b0565b6000620013a68462001126565b5090508015925050505b919050565b6000600554905090565b600080600460008473ffffffffffffffffffffffffffffffffffffffff1673ffffffffffffffffffffffffffffffffffffffff1681526020019081526020016000206040518060600160405290816000820160009054906101000a900460ff161515151581526020016000820160019054906101000a900460ff1660ff1660ff1681526020016001820154815250509050600081604001511415915050919050565b60008054906101000a900473ffffffffffffffffffffffffffffffffffffffff1681565b6148118062001ed783390190565b6040518060600160405280600015158152602001600060ff168152602001600081525090565b600082825260208201905092915050565b7f546865206665652073686f756c64206265206174206c6561737420657175616c60008201527f20746f2074686520616e6e75616c206665650000000000000000000000000000602082015250565b600062001528603283620014b9565b91506200153582620014ca565b604082019050919050565b600060208201905081810360008301526200155b8162001519565b9050919050565b7f4e6f206f746865722063616c6c7320737570706f727465640000000000000000600082015250565b60006200159a601883620014b9565b9150620015a78262001562565b602082019050919050565b60006020820190508181036000830152620015cd816200158b565b9050919050565b6000819050919050565b620015e981620015d4565b82525050565b6000602082019050620016066000830184620015de565b92915050565b600081519050919050565b600082825260208201905092915050565b6000819050602082019050919050565b600073ffffffffffffffffffffffffffffffffffffffff82169050919050565b6000620016658262001638565b9050919050565b620016778162001658565b82525050565b60006200168b83836200166c565b60208301905092915050565b6000602082019050919050565b6000620016b1826200160c565b620016bd818562001617565b9350620016ca8362001628565b8060005b8381101562001701578151620016e588826200167d565b9750620016f28362001697565b925050600181019050620016ce565b5085935050505092915050565b600060208201905081810360008301526200172a8184620016a4565b905092915050565b600080fd5b620017428162001658565b81146200174e57600080fd5b50565b600081359050620017628162001737565b92915050565b60006020828403121562001781576200178062001732565b5b6000620017918482850162001751565b91505092915050565b620017a58162001658565b82525050565b6000602082019050620017c260008301846200179a565b92915050565b620017d381620015d4565b8114620017df57600080fd5b50565b600081359050620017f381620017c8565b92915050565b60006020828403121562001812576200181162001732565b5b60006200182284828501620017e2565b91505092915050565b60008115159050919050565b62001842816200182b565b82525050565b600060ff82169050919050565b620018608162001848565b82525050565b60006040820190506200187d600083018562001837565b6200188c602083018462001855565b9392505050565b6200189e816200182b565b82525050565b620018af8162001848565b82525050565b620018c081620015d4565b82525050565b606082016000820151620018de600085018262001893565b506020820151620018f36020850182620018a4565b506040820151620019086040850182620018b5565b50505050565b6000606082019050620019256000830184620018c6565b92915050565b600060208201905062001942600083018462001837565b92915050565b7f546865206665652073686f756c64206265206174206c6561737420657175616c60008201527f20746f20746865206d6f6e74686c792066656500000000000000000000000000602082015250565b6000620019a6603383620014b9565b9150620019b38262001948565b604082019050919050565b60006020820190508181036000830152620019d98162001997565b9050919050565b7f4f6e6c7920726f6f742063616e2063616c6c20746869732e0000000000000000600082015250565b600062001a18601883620014b9565b915062001a2582620019e0565b602082019050919050565b6000602082019050818103600083015262001a4b8162001a09565b9050919050565b7f4e487b7100000000000000000000000000000000000000000000000000000000600052604160045260246000fd5b600081519050919050565b600081905092915050565b60005b8381101562001ab757808201518184015260208101905062001a9a565b60008484015250505050565b600062001ad08262001a81565b62001adc818562001a8c565b935062001aee81856020860162001a97565b80840191505092915050565b600062001b08828462001ac3565b915081905092915050565b7f4554485f5452414e534645525f4641494c454400000000000000000000000000600082015250565b600062001b4b601383620014b9565b915062001b588262001b13565b602082019050919050565b6000602082019050818103600083015262001b7e8162001b3c565b9050919050565b7f416e6e75616c206665652063616e6e6f74206265206e65676174697665000000600082015250565b600062001bbd601d83620014b9565b915062001bca8262001b85565b602082019050919050565b6000602082019050818103600083015262001bf08162001bae565b9050919050565b7f41636365737320746f20626c696e6420626f786573206973206e6f7420616c6c60008201527f6f77656420616e64206d7573742062652070616964206f722065787069726564602082015250565b600062001c55604083620014b9565b915062001c628262001bf7565b604082019050919050565b6000602082019050818103600083015262001c888162001c46565b9050919050565b600060408201905062001ca660008301856200179a565b62001cb560208301846200179a565b9392505050565b7f4e487b7100000000000000000000000000000000000000000000000000000000600052603260045260246000fd5b7f4e487b7100000000000000000000000000000000000000000000000000000000600052601160045260246000fd5b600062001d2782620015d4565b91507fffffffffffffffffffffffffffffffffffffffffffffffffffffffffffffffff820362001d5c5762001d5b62001ceb565b5b600182019050919050565b60608201600082015162001d7f600085018262001893565b50602082015162001d946020850182620018a4565b50604082015162001da96040850182620018b5565b50505050565b60c08201600082015162001dc760008501826200166c565b50602082015162001ddc60208501826200166c565b50604082015162001df160408501826200166c565b50606082015162001e06606085018262001d67565b50505050565b600060c08201905062001e23600083018462001daf565b92915050565b7f4d6f6e74686c79206665652063616e6e6f74206265206e656761746976650000600082015250565b600062001e61601e83620014b9565b915062001e6e8262001e29565b602082019050919050565b6000602082019050818103600083015262001e948162001e52565b9050919050565b600062001ea882620015d4565b915062001eb583620015d4565b925082820390508181111562001ed05762001ecf62001ceb565b5b9291505056fe60806040523480156200001157600080fd5b506040516200481138038062004811833981810160405281019062000037919062000267565b33600260006101000a81548173ffffffffffffffffffffffffffffffffffffffff021916908373ffffffffffffffffffffffffffffffffffffffff16021790555081600060026101000a81548173ffffffffffffffffffffffffffffffffffffffff021916908373ffffffffffffffffffffffffffffffffffffffff16021790555080600160006101000a81548173ffffffffffffffffffffffffffffffffffffffff021916908373ffffffffffffffffffffffffffffffffffffffff1602179055506000655af3107a400090506000600190506000601490506000604690506000816064620001289190620002eb565b90506040518060c00160405280868152602001858152602001600081526020018461ffff1681526020018361ffff1681526020018261ffff16815250600360008201518160000155602082015181600101556040820151816002015560608201518160030160006101000a81548161ffff021916908361ffff16021790555060808201518160030160026101000a81548161ffff021916908361ffff16021790555060a08201518160030160046101000a81548161ffff021916908361ffff1602179055509050505050505050505062000328565b600080fd5b600073ffffffffffffffffffffffffffffffffffffffff82169050919050565b60006200022f8262000202565b9050919050565b620002418162000222565b81146200024d57600080fd5b50565b600081519050620002618162000236565b92915050565b60008060408385031215620002815762000280620001fd565b5b6000620002918582860162000250565b9250506020620002a48582860162000250565b9150509250929050565b600061ffff82169050919050565b7f4e487b7100000000000000000000000000000000000000000000000000000000600052601160045260246000fd5b6000620002f882620002ae565b91506200030583620002ae565b9250828203905061ffff811115620003225762000321620002bc565b5b92915050565b6144d980620003386000396000f3fe6080604052600436106100ec5760003560e01c80638d1d5b3f1161008a578063c53f267011610059578063c53f267014610327578063d1314ee014610352578063d63d12dc1461037d578063ecb891e1146103a857610134565b80638d1d5b3f14610291578063a57d1560146102a8578063b4540797146102e5578063c04062261461031057610134565b80632014e5d1116100c65780632014e5d1146101e25780635ca1e1651461020d578063806ea80e1461023857806382dbe0151461027557610134565b806307da68f51461017757806314a1362b1461018e5780631865c57d146101b757610134565b36610134576000610132576040517f08c379a0000000000000000000000000000000000000000000000000000000008152600401610129906130a0565b60405180910390fd5b005b6000610175576040517f08c379a000000000000000000000000000000000000000000000000000000000815260040161016c906130a0565b60405180910390fd5b005b34801561018357600080fd5b5061018c6103d3565b005b34801561019a57600080fd5b506101b560048036038101906101b091906130fb565b6103ef565b005b3480156101c357600080fd5b506101cc610575565b6040516101d9919061319f565b60405180910390f35b3480156101ee57600080fd5b506101f761058b565b60405161020491906131d5565b60405180910390f35b34801561021957600080fd5b506102226105a1565b60405161022f9190613231565b60405180910390f35b34801561024457600080fd5b5061025f600480360381019061025a9190613278565b6105ca565b60405161026c91906132b4565b60405180910390f35b61028f600480360381019061028a9190613330565b6105d1565b005b34801561029d57600080fd5b506102a6610f67565b005b3480156102b457600080fd5b506102cf60048036038101906102ca91906130fb565b6110ee565b6040516102dc91906133b8565b60405180910390f35b3480156102f157600080fd5b506102fa61142b565b60405161030791906131d5565b60405180910390f35b34801561031c57600080fd5b5061032561193a565b005b34801561033357600080fd5b5061033c611957565b60405161034991906132b4565b60405180910390f35b34801561035e57600080fd5b50610367611974565b6040516103749190613231565b60405180910390f35b34801561038957600080fd5b5061039261199e565b60405161039f91906133b8565b60405180910390f35b3480156103b457600080fd5b506103bd6119b5565b6040516103ca919061347a565b60405180910390f35b60008060016101000a81548160ff021916908315150217905550565b600160009054906101000a900473ffffffffffffffffffffffffffffffffffffffff1673ffffffffffffffffffffffffffffffffffffffff163373ffffffffffffffffffffffffffffffffffffffff161461047f576040517f08c379a0000000000000000000000000000000000000000000000000000000008152600401610476906134e1565b60405180910390fd5b600060019054906101000a900460ff166104ce576040517f08c379a00000000000000000000000000000000000000000000000000000000081526004016104c59061354d565b60405180910390fd5b6004808111156104e1576104e0613128565b5b60008054906101000a900460ff16600481111561050157610500613128565b5b14610541576040517f08c379a0000000000000000000000000000000000000000000000000000000008152600401610538906135df565b60405180910390fd5b8060078190555060008060006101000a81548160ff0219169083600481111561056d5761056c613128565b5b021790555050565b60008060009054906101000a900460ff16905090565b60008060019054906101000a900460ff16905090565b60008060029054906101000a900473ffffffffffffffffffffffffffffffffffffffff16905090565b6000919050565b600060028111156105e5576105e4613128565b5b8260028111156105f8576105f7613128565b5b03610638576040517f08c379a000000000000000000000000000000000000000000000000000000000815260040161062f9061364b565b60405180910390fd5b6003600481111561064c5761064b613128565b5b60008054906101000a900460ff16600481111561066c5761066b613128565b5b036106ac576040517f08c379a00000000000000000000000000000000000000000000000000000000081526004016106a3906136dd565b60405180910390fd5b60006106c86106b9611957565b34611a4d90919063ffffffff16565b9050600a81101561070e576040517f08c379a000000000000000000000000000000000000000000000000000000000815260040161070590613749565b60405180910390fd5b80600360020160008282546107239190613798565b925050819055506000424460405160200161073f9291906137ed565b6040516020818303038152906040529050600081905060006040518061010001604052808381526020013373ffffffffffffffffffffffffffffffffffffffff16815260200185815260200134815260200160036001015481526020018760028111156107af576107ae613128565b5b81526020015a81526020018663ffffffff168152509050600960003373ffffffffffffffffffffffffffffffffffffffff1673ffffffffffffffffffffffffffffffffffffffff16815260200190815260200160002081908060018154018082558091505060019003906000526020600020906008020160009091909190915060008201518160000190816108449190613a5f565b5060208201518160010160006101000a81548173ffffffffffffffffffffffffffffffffffffffff021916908373ffffffffffffffffffffffffffffffffffffffff16021790555060408201518160020155606082015181600301556080820151816004015560a08201518160050160006101000a81548160ff021916908360028111156108d5576108d4613128565b5b021790555060c0820151816006015560e08201518160070160006101000a81548163ffffffff021916908363ffffffff16021790555050506001600281111561092157610920613128565b5b86600281111561093457610933613128565b5b03610c1a57600a819080600181540180825580915050600190039060005260206000209060080201600090919091909150600082015181600001908161097a9190613a5f565b5060208201518160010160006101000a81548173ffffffffffffffffffffffffffffffffffffffff021916908373ffffffffffffffffffffffffffffffffffffffff16021790555060408201518160020155606082015181600301556080820151816004015560a08201518160050160006101000a81548160ff02191690836002811115610a0b57610a0a613128565b5b021790555060c0820151816006015560e08201518160070160006101000a81548163ffffffff021916908363ffffffff1602179055505050610c15600a805480602002602001604051908101604052809291908181526020016000905b82821015610c0c578382906000526020600020906008020160405180610100016040529081600082018054610a9c90613882565b80601f0160208091040260200160405190810160405280929190818152602001828054610ac890613882565b8015610b155780601f10610aea57610100808354040283529160200191610b15565b820191906000526020600020905b815481529060010190602001808311610af857829003601f168201915b505050505081526020016001820160009054906101000a900473ffffffffffffffffffffffffffffffffffffffff1673ffffffffffffffffffffffffffffffffffffffff1673ffffffffffffffffffffffffffffffffffffffff1681526020016002820154815260200160038201548152602001600482015481526020016005820160009054906101000a900460ff166002811115610bb757610bb6613128565b5b6002811115610bc957610bc8613128565b5b8152602001600682015481526020016007820160009054906101000a900463ffffffff1663ffffffff1663ffffffff168152505081526020019060010190610a68565b50505050611a97565b610f28565b600280811115610c2d57610c2c613128565b5b866002811115610c4057610c3f613128565b5b03610f2657600b8190806001815401808255809150506001900390600052602060002090600802016000909190919091506000820151816000019081610c869190613a5f565b5060208201518160010160006101000a81548173ffffffffffffffffffffffffffffffffffffffff021916908373ffffffffffffffffffffffffffffffffffffffff16021790555060408201518160020155606082015181600301556080820151816004015560a08201518160050160006101000a81548160ff02191690836002811115610d1757610d16613128565b5b021790555060c0820151816006015560e08201518160070160006101000a81548163ffffffff021916908363ffffffff1602179055505050610f21600b805480602002602001604051908101604052809291908181526020016000905b82821015610f18578382906000526020600020906008020160405180610100016040529081600082018054610da890613882565b80601f0160208091040260200160405190810160405280929190818152602001828054610dd490613882565b8015610e215780601f10610df657610100808354040283529160200191610e21565b820191906000526020600020905b815481529060010190602001808311610e0457829003601f168201915b505050505081526020016001820160009054906101000a900473ffffffffffffffffffffffffffffffffffffffff1673ffffffffffffffffffffffffffffffffffffffff1673ffffffffffffffffffffffffffffffffffffffff1681526020016002820154815260200160038201548152602001600482015481526020016005820160009054906101000a900460ff166002811115610ec357610ec2613128565b5b6002811115610ed557610ed4613128565b5b8152602001600682015481526020016007820160009054906101000a900463ffffffff1663ffffffff1663ffffffff168152505081526020019060010190610d74565b50505050611a97565b610f27565b5b5b7fbfce74231797fc4478cac74dea977032c066c814742601a5a6658a3723127b4b81604051610f579190613c93565b60405180910390a1505050505050565b600160009054906101000a900473ffffffffffffffffffffffffffffffffffffffff1673ffffffffffffffffffffffffffffffffffffffff163373ffffffffffffffffffffffffffffffffffffffff1614610ff7576040517f08c379a0000000000000000000000000000000000000000000000000000000008152600401610fee906134e1565b60405180910390fd5b6002600481111561100b5761100a613128565b5b60008054906101000a900460ff16600481111561102b5761102a613128565b5b1461106b576040517f08c379a000000000000000000000000000000000000000000000000000000000815260040161106290613d27565b60405180910390fd5b6003600481111561107f5761107e613128565b5b60008054906101000a900460ff16600481111561109f5761109e613128565b5b50506110a961142b565b156110b7576110b6611bab565b5b6004808111156110ca576110c9613128565b5b60008054906101000a900460ff1660048111156110ea576110e9613128565b5b5050565b6000600160009054906101000a900473ffffffffffffffffffffffffffffffffffffffff1673ffffffffffffffffffffffffffffffffffffffff163373ffffffffffffffffffffffffffffffffffffffff1614611180576040517f08c379a0000000000000000000000000000000000000000000000000000000008152600401611177906134e1565b60405180910390fd5b600060019054906101000a900460ff166111cf576040517f08c379a00000000000000000000000000000000000000000000000000000000081526004016111c69061354d565b60405180910390fd5b816000816040516020016111e39190613d47565b60405160208183030381529060405280519060200120905060008160001c90506007548114611247576040517f08c379a000000000000000000000000000000000000000000000000000000000815260040161123e90613dae565b60405180910390fd5b6000600481111561125b5761125a613128565b5b60008054906101000a900460ff16600481111561127b5761127a613128565b5b146112bb576040517f08c379a00000000000000000000000000000000000000000000000000000000081526004016112b290613e40565b60405180910390fd5b600160048111156112cf576112ce613128565b5b60008054906101000a900460ff1660048111156112ef576112ee613128565b5b50506112fa8561254e565b600860006101000a81548160ff0219169083600281111561131e5761131d613128565b5b02179055506002600481111561133757611336613128565b5b60008054906101000a900460ff16600481111561135757611356613128565b5b505060006040518060800160405280600860009054906101000a900460ff16600281111561138857611387613128565b5b8152602001878152602001600160009054906101000a900473ffffffffffffffffffffffffffffffffffffffff1673ffffffffffffffffffffffffffffffffffffffff16815260200160075481525090507ff52997b2a7357d8df9a9045621c15ba053a5f94dbcc70b3a9be3ab989564c588816040516114089190613eb5565b60405180910390a1600860009054906101000a900460ff16945050505050919050565b6000600160009054906101000a900473ffffffffffffffffffffffffffffffffffffffff1673ffffffffffffffffffffffffffffffffffffffff163373ffffffffffffffffffffffffffffffffffffffff16146114bd576040517f08c379a00000000000000000000000000000000000000000000000000000000081526004016114b4906134e1565b60405180910390fd5b600260048111156114d1576114d0613128565b5b60008054906101000a900460ff1660048111156114f1576114f0613128565b5b146114ff5760009050611937565b611507612f31565b6000600a8054905011156116c857600a6001600a805490506115299190613ed0565b8154811061153a57611539613f04565b5b90600052602060002090600802016040518061010001604052908160008201805461156490613882565b80601f016020809104026020016040519081016040528092919081815260200182805461159090613882565b80156115dd5780601f106115b2576101008083540402835291602001916115dd565b820191906000526020600020905b8154815290600101906020018083116115c057829003601f168201915b505050505081526020016001820160009054906101000a900473ffffffffffffffffffffffffffffffffffffffff1673ffffffffffffffffffffffffffffffffffffffff1673ffffffffffffffffffffffffffffffffffffffff1681526020016002820154815260200160038201548152602001600482015481526020016005820160009054906101000a900460ff16600281111561167f5761167e613128565b5b600281111561169157611690613128565b5b8152602001600682015481526020016007820160009054906101000a900463ffffffff1663ffffffff1663ffffffff168152505090505b6116d0612f31565b6000600b80549050111561189157600b6001600b805490506116f29190613ed0565b8154811061170357611702613f04565b5b90600052602060002090600802016040518061010001604052908160008201805461172d90613882565b80601f016020809104026020016040519081016040528092919081815260200182805461175990613882565b80156117a65780601f1061177b576101008083540402835291602001916117a6565b820191906000526020600020905b81548152906001019060200180831161178957829003601f168201915b505050505081526020016001820160009054906101000a900473ffffffffffffffffffffffffffffffffffffffff1673ffffffffffffffffffffffffffffffffffffffff1673ffffffffffffffffffffffffffffffffffffffff1681526020016002820154815260200160038201548152602001600482015481526020016005820160009054906101000a900460ff16600281111561184857611847613128565b5b600281111561185a57611859613128565b5b8152602001600682015481526020016007820160009054906101000a900463ffffffff1663ffffffff1663ffffffff168152505090505b600160028111156118a5576118a4613128565b5b600860009054906101000a900460ff1660028111156118c7576118c6613128565b5b036118e15780608001518260800151111592505050611937565b6002808111156118f4576118f3613128565b5b600860009054906101000a900460ff16600281111561191657611915613128565b5b036119305781608001518160800151111592505050611937565b6000925050505b90565b6001600060016101000a81548160ff021916908315150217905550565b600060036001015460036000015461196f9190613f33565b905090565b6000600160009054906101000a900473ffffffffffffffffffffffffffffffffffffffff16905090565b6000600860009054906101000a900460ff16905090565b6119bd612fa4565b60036040518060c00160405290816000820154815260200160018201548152602001600282015481526020016003820160009054906101000a900461ffff1661ffff1661ffff1681526020016003820160029054906101000a900461ffff1661ffff1661ffff1681526020016003820160049054906101000a900461ffff1661ffff1661ffff1681525050905090565b6000611a8f83836040518060400160405280601a81526020017f536166654d6174683a206469766973696f6e206279207a65726f00000000000081525061266a565b905092915050565b6000600190505b8151811015611ba7576000828281518110611abc57611abb613f04565b5b602002602001015190506000600183611ad59190613ed0565b90505b60008110158015611b0a5750838181518110611af757611af6613f04565b5b6020026020010151608001518260800151105b15611b6757838181518110611b2257611b21613f04565b5b602002602001015184600183611b389190613798565b81518110611b4957611b48613f04565b5b60200260200101819052508080611b5f90613f75565b915050611ad8565b8184600183611b769190613798565b81518110611b8757611b86613f04565b5b602002602001018190525050508080611b9f90613f9e565b915050611a9e565b5050565b611bb3612f31565b6000600a805490501115611e2157600a6001600a80549050611bd59190613ed0565b81548110611be657611be5613f04565b5b906000526020600020906008020160405180610100016040529081600082018054611c1090613882565b80601f0160208091040260200160405190810160405280929190818152602001828054611c3c90613882565b8015611c895780601f10611c5e57610100808354040283529160200191611c89565b820191906000526020600020905b815481529060010190602001808311611c6c57829003601f168201915b505050505081526020016001820160009054906101000a900473ffffffffffffffffffffffffffffffffffffffff1673ffffffffffffffffffffffffffffffffffffffff1673ffffffffffffffffffffffffffffffffffffffff1681526020016002820154815260200160038201548152602001600482015481526020016005820160009054906101000a900460ff166002811115611d2b57611d2a613128565b5b6002811115611d3d57611d3c613128565b5b8152602001600682015481526020016007820160009054906101000a900463ffffffff1663ffffffff1663ffffffff16815250509050600a805480611d8557611d84613fe6565b5b600190038181906000526020600020906008020160008082016000611daa9190612fe6565b6001820160006101000a81549073ffffffffffffffffffffffffffffffffffffffff02191690556002820160009055600382016000905560048201600090556005820160006101000a81549060ff021916905560068201600090556007820160006101000a81549063ffffffff0219169055505090555b611e29612f31565b6000600b80549050111561209757600b6001600b80549050611e4b9190613ed0565b81548110611e5c57611e5b613f04565b5b906000526020600020906008020160405180610100016040529081600082018054611e8690613882565b80601f0160208091040260200160405190810160405280929190818152602001828054611eb290613882565b8015611eff5780601f10611ed457610100808354040283529160200191611eff565b820191906000526020600020905b815481529060010190602001808311611ee257829003601f168201915b505050505081526020016001820160009054906101000a900473ffffffffffffffffffffffffffffffffffffffff1673ffffffffffffffffffffffffffffffffffffffff1673ffffffffffffffffffffffffffffffffffffffff1681526020016002820154815260200160038201548152602001600482015481526020016005820160009054906101000a900460ff166002811115611fa157611fa0613128565b5b6002811115611fb357611fb2613128565b5b8152602001600682015481526020016007820160009054906101000a900463ffffffff1663ffffffff1663ffffffff16815250509050600b805480611ffb57611ffa613fe6565b5b6001900381819060005260206000209060080201600080820160006120209190612fe6565b6001820160006101000a81549073ffffffffffffffffffffffffffffffffffffffff02191690556002820160009055600382016000905560048201600090556005820160006101000a81549060ff021916905560068201600090556007820160006101000a81549063ffffffff0219169055505090555b60006120ab836040015183604001516126cd565b905060006120dd60026120cf856080015187608001516126e790919063ffffffff16565b611a4d90919063ffffffff16565b905060006120f883866040015161274590919063ffffffff16565b9050600061211384866040015161274590919063ffffffff16565b9050600061212e87608001518461278f90919063ffffffff16565b9050600061214987608001518461278f90919063ffffffff16565b9050600042446040516020016121609291906137ed565b60405160208183030381529060405290506000819050600086111561229e57838a6060018181525050858a6040018181525050600a8a908060018154018082558091505060019003906000526020600020906008020160009091909190915060008201518160000190816121d49190613a5f565b5060208201518160010160006101000a81548173ffffffffffffffffffffffffffffffffffffffff021916908373ffffffffffffffffffffffffffffffffffffffff16021790555060408201518160020155606082015181600301556080820151816004015560a08201518160050160006101000a81548160ff0219169083600281111561226557612264613128565b5b021790555060c0820151816006015560e08201518160070160006101000a81548163ffffffff021916908363ffffffff16021790555050505b60008511156123c6578289606001818152505084896040018181525050600b89908060018154018082558091505060019003906000526020600020906008020160009091909190915060008201518160000190816122fc9190613a5f565b5060208201518160010160006101000a81548173ffffffffffffffffffffffffffffffffffffffff021916908373ffffffffffffffffffffffffffffffffffffffff16021790555060408201518160020155606082015181600301556080820151816004015560a08201518160050160006101000a81548160ff0219169083600281111561238d5761238c613128565b5b021790555060c0820151816006015560e08201518160070160006101000a81548163ffffffff021916908363ffffffff16021790555050505b60006123db888a61278f90919063ffffffff16565b9050600061240c866123fe8e608001518f6040015161278f90919063ffffffff16565b61274590919063ffffffff16565b9050600061243d8661242f8e608001518f6040015161278f90919063ffffffff16565b61274590919063ffffffff16565b905061244a84838f612809565b61245584828e612809565b6001600281111561246957612468613128565b5b600860009054906101000a900460ff16600281111561248b5761248a613128565b5b036124a05761249b84848f6129be565b6124ec565b6002808111156124b3576124b2613128565b5b600860009054906101000a900460ff1660028111156124d5576124d4613128565b5b036124ea576124e584848e6129be565b6124eb565b5b5b896003600101819055508a6003600201600082825461250b9190613ed0565b92505081905550600042446040516020016125279291906137ed565b60405160208183030381529060405290506000819050505050505050505050505050505050565b60008082905060005b600a805490508110156125c6576000600a828154811061257a57612579613f04565b5b906000526020600020906008020160070160009054906101000a900463ffffffff1690508063ffffffff16836125b09190613798565b92505080806125be90613f9e565b915050612557565b5060005b600b80549050811015612639576000600b82815481106125ed576125ec613f04565b5b906000526020600020906008020160070160009054906101000a900463ffffffff1690508063ffffffff16836126239190613798565b925050808061263190613f9e565b9150506125ca565b5060006002826126499190614044565b90506001810361265e57600192505050612665565b6002925050505b919050565b600080831182906126b1576040517f08c379a00000000000000000000000000000000000000000000000000000000081526004016126a891906140ae565b60405180910390fd5b50600083856126c091906140d0565b9050809150509392505050565b6000818311156126dd57816126df565b825b905092915050565b60008082846126f69190613798565b90508381101561273b576040517f08c379a00000000000000000000000000000000000000000000000000000000081526004016127329061414d565b60405180910390fd5b8091505092915050565b600061278783836040518060400160405280601e81526020017f536166654d6174683a207375627472616374696f6e206f766572666c6f770000815250612ecd565b905092915050565b60008083036127a15760009050612803565b600082846127af9190613f33565b90508284826127be91906140d0565b146127fe576040517f08c379a00000000000000000000000000000000000000000000000000000000081526004016127f5906141df565b60405180910390fd5b809150505b92915050565b60008160200151905060008173ffffffffffffffffffffffffffffffffffffffff1684600067ffffffffffffffff81111561284757612846613824565b5b6040519080825280601f01601f1916602001820160405280156128795781602001600182028036833780820191505090505b506040516128879190614246565b60006040518083038185875af1925050503d80600081146128c4576040519150601f19603f3d011682016040523d82523d6000602084013e6128c9565b606091505b505090508061290d576040517f08c379a0000000000000000000000000000000000000000000000000000000008152600401612904906142a9565b60405180910390fd5b600042446040516020016129229291906137ed565b6040516020818303038152906040529050600081905060006040518060a00160405280838152602001876000015181526020018981526020018673ffffffffffffffffffffffffffffffffffffffff1681526020018881525090507f41a2c219f9ce41e35d569f8344b9c242cb02d5f54a4395610d3f44eb2c142e9f816040516129ac919061434d565b60405180910390a15050505050505050565b6000816020015190506000612a0560646129f76003800160009054906101000a900461ffff1661ffff168761278f90919063ffffffff16565b611a4d90919063ffffffff16565b90506000612a1c828661274590919063ffffffff16565b90506000612a5c6064612a4e6003800160029054906101000a900461ffff1661ffff168661278f90919063ffffffff16565b611a4d90919063ffffffff16565b90506000612a73828561274590919063ffffffff16565b905060008573ffffffffffffffffffffffffffffffffffffffff1684600067ffffffffffffffff811115612aaa57612aa9613824565b5b6040519080825280601f01601f191660200182016040528015612adc5781602001600182028036833780820191505090505b50604051612aea9190614246565b60006040518083038185875af1925050503d8060008114612b27576040519150601f19603f3d011682016040523d82523d6000602084013e612b2c565b606091505b5050905080612b70576040517f08c379a0000000000000000000000000000000000000000000000000000000008152600401612b67906142a9565b60405180910390fd5b6000600160009054906101000a900473ffffffffffffffffffffffffffffffffffffffff1673ffffffffffffffffffffffffffffffffffffffff1684600067ffffffffffffffff811115612bc757612bc6613824565b5b6040519080825280601f01601f191660200182016040528015612bf95781602001600182028036833780820191505090505b50604051612c079190614246565b60006040518083038185875af1925050503d8060008114612c44576040519150601f19603f3d011682016040523d82523d6000602084013e612c49565b606091505b5050905080612c8d576040517f08c379a0000000000000000000000000000000000000000000000000000000008152600401612c84906142a9565b60405180910390fd5b60008060029054906101000a900473ffffffffffffffffffffffffffffffffffffffff1673ffffffffffffffffffffffffffffffffffffffff1684600067ffffffffffffffff811115612ce357612ce2613824565b5b6040519080825280601f01601f191660200182016040528015612d155781602001600182028036833780820191505090505b50604051612d239190614246565b60006040518083038185875af1925050503d8060008114612d60576040519150601f19603f3d011682016040523d82523d6000602084013e612d65565b606091505b5050905080612da9576040517f08c379a0000000000000000000000000000000000000000000000000000000008152600401612da0906142a9565b60405180910390fd5b60004244604051602001612dbe9291906137ed565b6040516020818303038152906040529050600081905060006040518061018001604052808381526020018d6000015181526020018f81526020018c73ffffffffffffffffffffffffffffffffffffffff1681526020016003800160009054906101000a900461ffff1661ffff1681526020016003800160029054906101000a900461ffff1661ffff1681526020016003800160049054906101000a900461ffff1661ffff1681526020018e81526020018a81526020018b81526020018981526020018881525090507fc876b9ea3ed48808367dd8a82176a0796c1bf86672548fd2ef59eb29e5ff357881604051612eb59190614481565b60405180910390a15050505050505050505050505050565b6000838311158290612f15576040517f08c379a0000000000000000000000000000000000000000000000000000000008152600401612f0c91906140ae565b60405180910390fd5b5060008385612f249190613ed0565b9050809150509392505050565b60405180610100016040528060608152602001600073ffffffffffffffffffffffffffffffffffffffff16815260200160008152602001600081526020016000815260200160006002811115612f8a57612f89613128565b5b815260200160008152602001600063ffffffff1681525090565b6040518060c00160405280600081526020016000815260200160008152602001600061ffff168152602001600061ffff168152602001600061ffff1681525090565b508054612ff290613882565b6000825580601f106130045750613023565b601f0160209004906000526020600020908101906130229190613026565b5b50565b5b8082111561303f576000816000905550600101613027565b5090565b600082825260208201905092915050565b7f4e6f206f746865722063616c6c7320737570706f727465640000000000000000600082015250565b600061308a601883613043565b915061309582613054565b602082019050919050565b600060208201905081810360008301526130b98161307d565b9050919050565b600080fd5b6000819050919050565b6130d8816130c5565b81146130e357600080fd5b50565b6000813590506130f5816130cf565b92915050565b600060208284031215613111576131106130c0565b5b600061311f848285016130e6565b91505092915050565b7f4e487b7100000000000000000000000000000000000000000000000000000000600052602160045260246000fd5b6005811061316857613167613128565b5b50565b600081905061317982613157565b919050565b60006131898261316b565b9050919050565b6131998161317e565b82525050565b60006020820190506131b46000830184613190565b92915050565b60008115159050919050565b6131cf816131ba565b82525050565b60006020820190506131ea60008301846131c6565b92915050565b600073ffffffffffffffffffffffffffffffffffffffff82169050919050565b600061321b826131f0565b9050919050565b61322b81613210565b82525050565b60006020820190506132466000830184613222565b92915050565b61325581613210565b811461326057600080fd5b50565b6000813590506132728161324c565b92915050565b60006020828403121561328e5761328d6130c0565b5b600061329c84828501613263565b91505092915050565b6132ae816130c5565b82525050565b60006020820190506132c960008301846132a5565b92915050565b600381106132dc57600080fd5b50565b6000813590506132ee816132cf565b92915050565b600063ffffffff82169050919050565b61330d816132f4565b811461331857600080fd5b50565b60008135905061332a81613304565b92915050565b60008060408385031215613347576133466130c0565b5b6000613355858286016132df565b92505060206133668582860161331b565b9150509250929050565b6003811061338157613380613128565b5b50565b600081905061339282613370565b919050565b60006133a282613384565b9050919050565b6133b281613397565b82525050565b60006020820190506133cd60008301846133a9565b92915050565b6133dc816130c5565b82525050565b600061ffff82169050919050565b6133f9816133e2565b82525050565b60c08201600082015161341560008501826133d3565b50602082015161342860208501826133d3565b50604082015161343b60408501826133d3565b50606082015161344e60608501826133f0565b50608082015161346160808501826133f0565b5060a082015161347460a08501826133f0565b50505050565b600060c08201905061348f60008301846133ff565b92915050565b7f4f6e6c792062726f6b65722063616e2063616c6c20746869732e000000000000600082015250565b60006134cb601a83613043565b91506134d682613495565b602082019050919050565b600060208201905081810360008301526134fa816134be565b9050919050565b7f6f646473646578206861732073746f7070656400000000000000000000000000600082015250565b6000613537601383613043565b915061354282613501565b602082019050919050565b600060208201905081810360008301526135668161352a565b9050919050565b7f4d7573742068617665206d617463686d616b6564206265666f72652063616c6c60008201527f696e670000000000000000000000000000000000000000000000000000000000602082015250565b60006135c9602383613043565b91506135d48261356d565b604082019050919050565b600060208201905081810360008301526135f8816135bc565b9050919050565b7f427579696e6720646972656374696f6e20697320756e6b6e6f776e0000000000600082015250565b6000613635601b83613043565b9150613640826135ff565b602082019050919050565b6000602082019050818103600083015261366481613628565b9050919050565b7f446f206e6f7420616363657074206f7264657273207768656e206d617463686960008201527f6e67000000000000000000000000000000000000000000000000000000000000602082015250565b60006136c7602283613043565b91506136d28261366b565b604082019050919050565b600060208201905081810360008301526136f6816136ba565b9050919050565b7f4d696e696d756d207075726368617365206f66203130206f6464730000000000600082015250565b6000613733601b83613043565b915061373e826136fd565b602082019050919050565b6000602082019050818103600083015261376281613726565b9050919050565b7f4e487b7100000000000000000000000000000000000000000000000000000000600052601160045260246000fd5b60006137a3826130c5565b91506137ae836130c5565b92508282019050808211156137c6576137c5613769565b5b92915050565b6000819050919050565b6137e76137e2826130c5565b6137cc565b82525050565b60006137f982856137d6565b60208201915061380982846137d6565b6020820191508190509392505050565b600081519050919050565b7f4e487b7100000000000000000000000000000000000000000000000000000000600052604160045260246000fd5b7f4e487b7100000000000000000000000000000000000000000000000000000000600052602260045260246000fd5b6000600282049050600182168061389a57607f821691505b6020821081036138ad576138ac613853565b5b50919050565b60008190508160005260206000209050919050565b60006020601f8301049050919050565b600082821b905092915050565b6000600883026139157fffffffffffffffffffffffffffffffffffffffffffffffffffffffffffffffff826138d8565b61391f86836138d8565b95508019841693508086168417925050509392505050565b6000819050919050565b600061395c613957613952846130c5565b613937565b6130c5565b9050919050565b6000819050919050565b61397683613941565b61398a61398282613963565b8484546138e5565b825550505050565b600090565b61399f613992565b6139aa81848461396d565b505050565b5b818110156139ce576139c3600082613997565b6001810190506139b0565b5050565b601f821115613a13576139e4816138b3565b6139ed846138c8565b810160208510156139fc578190505b613a10613a08856138c8565b8301826139af565b50505b505050565b600082821c905092915050565b6000613a3660001984600802613a18565b1980831691505092915050565b6000613a4f8383613a25565b9150826002028217905092915050565b613a6882613819565b67ffffffffffffffff811115613a8157613a80613824565b5b613a8b8254613882565b613a968282856139d2565b600060209050601f831160018114613ac95760008415613ab7578287015190505b613ac18582613a43565b865550613b29565b601f198416613ad7866138b3565b60005b82811015613aff57848901518255600182019150602085019450602081019050613ada565b86831015613b1c5784890151613b18601f891682613a25565b8355505b6001600288020188555050505b505050505050565b600082825260208201905092915050565b60005b83811015613b60578082015181840152602081019050613b45565b60008484015250505050565b6000601f19601f8301169050919050565b6000613b8882613819565b613b928185613b31565b9350613ba2818560208601613b42565b613bab81613b6c565b840191505092915050565b613bbf81613210565b82525050565b613bce81613397565b82525050565b613bdd816132f4565b82525050565b6000610100830160008301518482036000860152613c018282613b7d565b9150506020830151613c166020860182613bb6565b506040830151613c2960408601826133d3565b506060830151613c3c60608601826133d3565b506080830151613c4f60808601826133d3565b5060a0830151613c6260a0860182613bc5565b5060c0830151613c7560c08601826133d3565b5060e0830151613c8860e0860182613bd4565b508091505092915050565b60006020820190508181036000830152613cad8184613be3565b905092915050565b7f4d7573742068617665206c6f747465726564206265666f72652063616c6c696e60008201527f6700000000000000000000000000000000000000000000000000000000000000602082015250565b6000613d11602183613043565b9150613d1c82613cb5565b604082019050919050565b60006020820190508181036000830152613d4081613d04565b9050919050565b6000613d5382846137d6565b60208201915081905092915050565b7f4c75636b794e756d62657220766572696669636174696f6e206661696c656400600082015250565b6000613d98601f83613043565b9150613da382613d62565b602082019050919050565b60006020820190508181036000830152613dc781613d8b565b9050919050565b7f4d757374206861766520636f766572696e67206265666f72652063616c6c696e60008201527f6700000000000000000000000000000000000000000000000000000000000000602082015250565b6000613e2a602183613043565b9150613e3582613dce565b604082019050919050565b60006020820190508181036000830152613e5981613e1d565b9050919050565b608082016000820151613e766000850182613bc5565b506020820151613e8960208501826133d3565b506040820151613e9c6040850182613bb6565b506060820151613eaf60608501826133d3565b50505050565b6000608082019050613eca6000830184613e60565b92915050565b6000613edb826130c5565b9150613ee6836130c5565b9250828203905081811115613efe57613efd613769565b5b92915050565b7f4e487b7100000000000000000000000000000000000000000000000000000000600052603260045260246000fd5b6000613f3e826130c5565b9150613f49836130c5565b9250828202613f57816130c5565b91508282048414831517613f6e57613f6d613769565b5b5092915050565b6000613f80826130c5565b915060008203613f9357613f92613769565b5b600182039050919050565b6000613fa9826130c5565b91507fffffffffffffffffffffffffffffffffffffffffffffffffffffffffffffffff8203613fdb57613fda613769565b5b600182019050919050565b7f4e487b7100000000000000000000000000000000000000000000000000000000600052603160045260246000fd5b7f4e487b7100000000000000000000000000000000000000000000000000000000600052601260045260246000fd5b600061404f826130c5565b915061405a836130c5565b92508261406a57614069614015565b5b828206905092915050565b600061408082613819565b61408a8185613043565b935061409a818560208601613b42565b6140a381613b6c565b840191505092915050565b600060208201905081810360008301526140c88184614075565b905092915050565b60006140db826130c5565b91506140e6836130c5565b9250826140f6576140f5614015565b5b828204905092915050565b7f536166654d6174683a206164646974696f6e206f766572666c6f770000000000600082015250565b6000614137601b83613043565b915061414282614101565b602082019050919050565b600060208201905081810360008301526141668161412a565b9050919050565b7f536166654d6174683a206d756c7469706c69636174696f6e206f766572666c6f60008201527f7700000000000000000000000000000000000000000000000000000000000000602082015250565b60006141c9602183613043565b91506141d48261416d565b604082019050919050565b600060208201905081810360008301526141f8816141bc565b9050919050565b600081519050919050565b600081905092915050565b6000614220826141ff565b61422a818561420a565b935061423a818560208601613b42565b80840191505092915050565b60006142528284614215565b915081905092915050565b7f4554485f5452414e534645525f4641494c454400000000000000000000000000600082015250565b6000614293601383613043565b915061429e8261425d565b602082019050919050565b600060208201905081810360008301526142c281614286565b9050919050565b600060a08301600083015184820360008601526142e68282613b7d565b915050602083015184820360208601526143008282613b7d565b9150506040830151848203604086015261431a8282613b7d565b915050606083015161432f6060860182613bb6565b50608083015161434260808601826133d3565b508091505092915050565b6000602082019050818103600083015261436781846142c9565b905092915050565b600061018083016000830151848203600086015261438d8282613b7d565b915050602083015184820360208601526143a78282613b7d565b915050604083015184820360408601526143c18282613b7d565b91505060608301516143d66060860182613bb6565b5060808301516143e960808601826133f0565b5060a08301516143fc60a08601826133f0565b5060c083015161440f60c08601826133f0565b5060e083015161442260e08601826133d3565b506101008301516144376101008601826133d3565b5061012083015161444c6101208601826133d3565b506101408301516144616101408601826133d3565b506101608301516144766101608601826133d3565b508091505092915050565b6000602082019050818103600083015261449b818461436f565b90509291505056fea26469706673582212201b56a59aed0b6d9a0b23f24b276aabdf6abf0767f1ee3797931e6f9b38d5600364736f6c63430008130033a2646970667358221220bb732861686753665e4cd415cc37bfef1a9bc1e0d9dbb82b72bb351b1a1257ba64736f6c63430008130033",
  "immutableReferences": {},
  "source": "// SPDX-License-Identifier: MIT\npragma solidity >=0.4.22 <0.8.20;\nimport \"./IGamblingContractFactory.sol\";\nimport \"./OddsdexContract.sol\";\nimport \"./SafeMath.sol\";\n\ncontract GamblingContractFactory is IGamblingContractFactory {\n    using SafeMath for *;\n\n    address public root;\n    address[] public contracts;\n    mapping(address => address[]) contractsOfBroker;\n    address[] brokers;\n    mapping(address => ApplyRights) private rights;\n    uint256 private annualFee = 4200000000000000000; //4.2 ether\n    uint256 private monthlyFee = 400000000000000000; //0.4 ether\n\n    constructor() {\n        root = msg.sender;\n    }\n\n    modifier onlyRoot() {\n        require(root == msg.sender, \"Only root can call this.\");\n        _;\n    }\n\n    function getApplyRights(\n        address broker\n    ) public view override returns (ApplyRights memory) {\n        return rights[broker];\n    }\n\n    function isPaidOfBroker(\n        address broker\n    ) public view override returns (bool) {\n        ApplyRights memory right = rights[broker];\n        return right.time != 0;\n    }\n\n    function isValidBroker(address broker) public view override returns (bool) {\n        ApplyRights memory right = rights[broker];\n        if (!right.isAllow) {\n            return false;\n        }\n        if (right.time == 0) {\n            return false;\n        }\n        (bool expired, ) = isExpired(broker);\n        return !expired;\n    }\n\n    function isExpired(\n        address broker\n    ) public view override returns (bool, uint8) {\n        ApplyRights memory right = rights[broker];\n\n        bool _expired;\n        uint8 payMode = right.payMode;\n        if (right.time == 0) {\n            return (true, payMode);\n        }\n        if (payMode == 1) {\n            _expired = (block.timestamp - right.time >= 31536000);\n        }\n        if (payMode == 2) {\n            _expired = (block.timestamp - right.time >= 2678400);\n        }\n        return (_expired, payMode);\n    }\n\n    function getBalance() public view override returns (uint256) {\n        return address(this).balance;\n    }\n\n    function getAddress() public view override returns (address) {\n        return address(this);\n    }\n\n    function getAnnualFee() public view override returns (uint256) {\n        return annualFee;\n    }\n\n    function getMonthlyFee() public view override returns (uint256) {\n        return monthlyFee;\n    }\n\n    function setAnnualFee(uint256 _annualFee) public override onlyRoot {\n        require(_annualFee > 0, \"Annual fee cannot be negative\");\n        annualFee = _annualFee;\n    }\n\n    function setMonthlyFee(uint256 _monthlyFee) public override onlyRoot {\n        require(_monthlyFee > 0, \"Monthly fee cannot be negative\");\n        monthlyFee = _monthlyFee;\n    }\n\n    function createOddsdexContract(\n        address _broker\n    ) public override onlyRoot returns (address) {\n        require(\n            isValidBroker(_broker),\n            \"Access to blind boxes is not allowed and must be paid or expired\"\n        );\n\n        OddsdexContract blindBox = new OddsdexContract(root, _broker);\n        address blindBoxAddress = address(blindBox);\n        contracts.push(blindBoxAddress);\n        address[] storage contractAddressArr = contractsOfBroker[_broker];\n        contractAddressArr.push(blindBoxAddress);\n        bool foundKey = false;\n        for (uint i = 0; i < brokers.length; i++) {\n            if (brokers[i] == _broker) {\n                foundKey = true;\n                break;\n            }\n        }\n        if (!foundKey) {\n            brokers.push(_broker);\n        }\n        CreateOddsdexContractMessage memory cgcm = CreateOddsdexContractMessage(\n            blindBoxAddress,\n            msg.sender,\n            _broker,\n            rights[_broker]\n        );\n\n        emit OnCreateOddsdexContract(cgcm);\n        return blindBoxAddress;\n    }\n\n    function withdraw() public payable override onlyRoot {\n        (bool success, ) = payable(root).call{value: address(this).balance}(\n            new bytes(0)\n        );\n        require(success, \"ETH_TRANSFER_FAILED\");\n    }\n\n    fallback() external payable {\n        require(false, \"No other calls supported\");\n    }\n\n    ///@dev The default payment method is only used for charging annual fees\n    receive() external payable {\n        require(\n            msg.value >= annualFee,\n            \"The fee should be at least equal to the annual fee\"\n        );\n        rights[msg.sender] = ApplyRights(true, 1, block.timestamp);\n    }\n\n    function recMothlyFee() external payable override {\n        require(\n            msg.value >= monthlyFee,\n            \"The fee should be at least equal to the monthly fee\"\n        );\n        rights[msg.sender] = ApplyRights(true, 2, block.timestamp);\n    }\n\n    function getBrokerCount() public view override returns (uint256) {\n        return brokers.length;\n    }\n\n    function getOddsdexCount() public view override returns (uint256) {\n        return contracts.length;\n    }\n\n    function enumBroker() public view override returns (address[] memory) {\n        return brokers;\n    }\n\n    function listContractOfBroker(\n        address broker\n    ) public view override returns (address[] memory) {\n        return contractsOfBroker[broker];\n    }\n}\n",
  "sourcePath": "/Users/cj/games/game-oddsdex/contracts/GamblingContractFactory.sol",
  "compiler": {
    "name": "solc",
    "version": "0.8.19+commit.7dd6d404.Emscripten.clang"
  },
  "schemaVersion": "3.4.14",
  "updatedAt": "2023-08-23T14:55:29.685Z",
  "devdoc": {
    "kind": "dev",
    "methods": {},
    "version": 1
  },
  "userdoc": {
    "kind": "user",
    "methods": {},
    "version": 1
  }
}