{
  "contractName": "OddsdexContract",
  "abi": [
    {
      "inputs": [
        {
          "internalType": "address",
          "name": "_root",
          "type": "address"
        },
        {
          "internalType": "address",
          "name": "_broker",
          "type": "address"
        }
      ],
      "stateMutability": "nonpayable",
      "type": "constructor"
    },
    {
      "anonymous": false,
      "inputs": [
        {
          "components": [
            {
              "internalType": "enum CoinDirection",
              "name": "winningDirection",
              "type": "uint8"
            },
            {
              "internalType": "uint256",
              "name": "luckyNumber",
              "type": "uint256"
            },
            {
              "internalType": "address",
              "name": "broker",
              "type": "address"
            },
            {
              "internalType": "uint256",
              "name": "coverHash",
              "type": "uint256"
            }
          ],
          "indexed": false,
          "internalType": "struct LotteryMessage",
          "name": "message",
          "type": "tuple"
        }
      ],
      "name": "OnLotteryEvent",
      "type": "event"
    },
    {
      "anonymous": false,
      "inputs": [
        {
          "components": [
            {
              "internalType": "bytes32",
              "name": "id",
              "type": "bytes32"
            },
            {
              "internalType": "bytes32",
              "name": "refFId",
              "type": "bytes32"
            },
            {
              "internalType": "bytes32",
              "name": "refBId",
              "type": "bytes32"
            },
            {
              "internalType": "bytes32",
              "name": "mtn",
              "type": "bytes32"
            },
            {
              "internalType": "address",
              "name": "broker",
              "type": "address"
            },
            {
              "internalType": "uint256",
              "name": "dealOdds",
              "type": "uint256"
            },
            {
              "internalType": "uint256",
              "name": "dealPrice",
              "type": "uint256"
            },
            {
              "internalType": "uint256",
              "name": "tailFOdds",
              "type": "uint256"
            },
            {
              "internalType": "uint256",
              "name": "tailBOdds",
              "type": "uint256"
            },
            {
              "internalType": "uint256",
              "name": "tailFCostOnBill",
              "type": "uint256"
            },
            {
              "internalType": "uint256",
              "name": "tailBCostOnBill",
              "type": "uint256"
            },
            {
              "internalType": "uint256",
              "name": "tailFRefundCosts",
              "type": "uint256"
            },
            {
              "internalType": "uint256",
              "name": "tailBRefundCosts",
              "type": "uint256"
            },
            {
              "internalType": "uint256",
              "name": "prize",
              "type": "uint256"
            }
          ],
          "indexed": false,
          "internalType": "struct MatchmakingBill",
          "name": "bill",
          "type": "tuple"
        }
      ],
      "name": "OnMatchMakingEvent",
      "type": "event"
    },
    {
      "anonymous": false,
      "inputs": [
        {
          "components": [
            {
              "internalType": "bytes32",
              "name": "id",
              "type": "bytes32"
            },
            {
              "internalType": "bytes32",
              "name": "refId",
              "type": "bytes32"
            },
            {
              "internalType": "bytes32",
              "name": "mtn",
              "type": "bytes32"
            },
            {
              "internalType": "address",
              "name": "owner",
              "type": "address"
            },
            {
              "internalType": "uint256",
              "name": "costs",
              "type": "uint256"
            }
          ],
          "indexed": false,
          "internalType": "struct RefundBill",
          "name": "bill",
          "type": "tuple"
        }
      ],
      "name": "OnRefundBillEvent",
      "type": "event"
    },
    {
      "anonymous": false,
      "inputs": [
        {
          "components": [
            {
              "internalType": "bytes32",
              "name": "id",
              "type": "bytes32"
            },
            {
              "internalType": "bytes32",
              "name": "refId",
              "type": "bytes32"
            },
            {
              "internalType": "bytes32",
              "name": "mtn",
              "type": "bytes32"
            },
            {
              "internalType": "address",
              "name": "owner",
              "type": "address"
            },
            {
              "internalType": "uint16",
              "name": "kickbackRate",
              "type": "uint16"
            },
            {
              "internalType": "uint16",
              "name": "brokerageRate",
              "type": "uint16"
            },
            {
              "internalType": "uint16",
              "name": "taxRate",
              "type": "uint16"
            },
            {
              "internalType": "uint256",
              "name": "prize",
              "type": "uint256"
            },
            {
              "internalType": "uint256",
              "name": "bonus",
              "type": "uint256"
            },
            {
              "internalType": "uint256",
              "name": "kickback",
              "type": "uint256"
            },
            {
              "internalType": "uint256",
              "name": "brokerage",
              "type": "uint256"
            },
            {
              "internalType": "uint256",
              "name": "tax",
              "type": "uint256"
            }
          ],
          "indexed": false,
          "internalType": "struct SplitBill",
          "name": "bill",
          "type": "tuple"
        }
      ],
      "name": "OnSplitBillEvent",
      "type": "event"
    },
    {
      "anonymous": false,
      "inputs": [
        {
          "components": [
            {
              "internalType": "bytes32",
              "name": "id",
              "type": "bytes32"
            },
            {
              "internalType": "address",
              "name": "owner",
              "type": "address"
            },
            {
              "internalType": "uint256",
              "name": "odds",
              "type": "uint256"
            },
            {
              "internalType": "uint256",
              "name": "costs",
              "type": "uint256"
            },
            {
              "internalType": "uint256",
              "name": "buyPrice",
              "type": "uint256"
            },
            {
              "internalType": "uint256",
              "name": "marketPrice",
              "type": "uint256"
            },
            {
              "internalType": "enum CoinDirection",
              "name": "buyDirection",
              "type": "uint8"
            },
            {
              "internalType": "uint256",
              "name": "gas",
              "type": "uint256"
            },
            {
              "internalType": "uint32",
              "name": "luckyNumber",
              "type": "uint32"
            }
          ],
          "indexed": false,
          "internalType": "struct StakeBill",
          "name": "bill",
          "type": "tuple"
        }
      ],
      "name": "OnStakeBillEvent",
      "type": "event"
    },
    {
      "stateMutability": "payable",
      "type": "fallback",
      "payable": true
    },
    {
      "stateMutability": "payable",
      "type": "receive",
      "payable": true
    },
    {
      "inputs": [],
      "name": "getState",
      "outputs": [
        {
          "internalType": "enum OddsdexState",
          "name": "",
          "type": "uint8"
        }
      ],
      "stateMutability": "view",
      "type": "function",
      "constant": true
    },
    {
      "inputs": [],
      "name": "getWinningDirection",
      "outputs": [
        {
          "internalType": "enum CoinDirection",
          "name": "",
          "type": "uint8"
        }
      ],
      "stateMutability": "view",
      "type": "function",
      "constant": true
    },
    {
      "inputs": [],
      "name": "getWeiPrice",
      "outputs": [
        {
          "internalType": "uint256",
          "name": "",
          "type": "uint256"
        }
      ],
      "stateMutability": "view",
      "type": "function",
      "constant": true
    },
    {
      "inputs": [],
      "name": "getBulletinBoard",
      "outputs": [
        {
          "components": [
            {
              "internalType": "uint256",
              "name": "oddunit",
              "type": "uint256"
            },
            {
              "internalType": "uint256",
              "name": "price",
              "type": "uint256"
            },
            {
              "internalType": "uint256",
              "name": "odds",
              "type": "uint256"
            },
            {
              "internalType": "uint256",
              "name": "funds",
              "type": "uint256"
            },
            {
              "internalType": "uint16",
              "name": "kickbackRate",
              "type": "uint16"
            },
            {
              "internalType": "uint16",
              "name": "brokerageRate",
              "type": "uint16"
            },
            {
              "internalType": "uint16",
              "name": "taxRate",
              "type": "uint16"
            }
          ],
          "internalType": "struct BulletinBoard",
          "name": "",
          "type": "tuple"
        }
      ],
      "stateMutability": "view",
      "type": "function",
      "constant": true
    },
    {
      "inputs": [],
      "name": "isRunning",
      "outputs": [
        {
          "internalType": "bool",
          "name": "",
          "type": "bool"
        }
      ],
      "stateMutability": "view",
      "type": "function",
      "constant": true
    },
    {
      "inputs": [],
      "name": "stop",
      "outputs": [],
      "stateMutability": "nonpayable",
      "type": "function"
    },
    {
      "inputs": [],
      "name": "run",
      "outputs": [],
      "stateMutability": "nonpayable",
      "type": "function"
    },
    {
      "inputs": [],
      "name": "getRoot",
      "outputs": [
        {
          "internalType": "address",
          "name": "",
          "type": "address"
        }
      ],
      "stateMutability": "view",
      "type": "function",
      "constant": true
    },
    {
      "inputs": [],
      "name": "getBroker",
      "outputs": [
        {
          "internalType": "address",
          "name": "",
          "type": "address"
        }
      ],
      "stateMutability": "view",
      "type": "function",
      "constant": true
    },
    {
      "inputs": [],
      "name": "getQueueCount",
      "outputs": [
        {
          "internalType": "uint256",
          "name": "",
          "type": "uint256"
        }
      ],
      "stateMutability": "view",
      "type": "function",
      "constant": true
    },
    {
      "inputs": [],
      "name": "getFrontQueueCount",
      "outputs": [
        {
          "internalType": "uint256",
          "name": "",
          "type": "uint256"
        }
      ],
      "stateMutability": "view",
      "type": "function",
      "constant": true
    },
    {
      "inputs": [],
      "name": "getBackQueueCount",
      "outputs": [
        {
          "internalType": "uint256",
          "name": "",
          "type": "uint256"
        }
      ],
      "stateMutability": "view",
      "type": "function",
      "constant": true
    },
    {
      "inputs": [],
      "name": "getTopFiveBillFrontQueue",
      "outputs": [
        {
          "internalType": "uint32",
          "name": "length",
          "type": "uint32"
        },
        {
          "components": [
            {
              "internalType": "bytes32",
              "name": "id",
              "type": "bytes32"
            },
            {
              "internalType": "address",
              "name": "owner",
              "type": "address"
            },
            {
              "internalType": "uint256",
              "name": "odds",
              "type": "uint256"
            },
            {
              "internalType": "uint256",
              "name": "costs",
              "type": "uint256"
            },
            {
              "internalType": "uint256",
              "name": "buyPrice",
              "type": "uint256"
            },
            {
              "internalType": "uint256",
              "name": "marketPrice",
              "type": "uint256"
            },
            {
              "internalType": "enum CoinDirection",
              "name": "buyDirection",
              "type": "uint8"
            },
            {
              "internalType": "uint256",
              "name": "gas",
              "type": "uint256"
            },
            {
              "internalType": "uint32",
              "name": "luckyNumber",
              "type": "uint32"
            }
          ],
          "internalType": "struct StakeBill[5]",
          "name": "bills",
          "type": "tuple[5]"
        }
      ],
      "stateMutability": "view",
      "type": "function",
      "constant": true
    },
    {
      "inputs": [],
      "name": "getTopFiveBillBackQueue",
      "outputs": [
        {
          "internalType": "uint32",
          "name": "length",
          "type": "uint32"
        },
        {
          "components": [
            {
              "internalType": "bytes32",
              "name": "id",
              "type": "bytes32"
            },
            {
              "internalType": "address",
              "name": "owner",
              "type": "address"
            },
            {
              "internalType": "uint256",
              "name": "odds",
              "type": "uint256"
            },
            {
              "internalType": "uint256",
              "name": "costs",
              "type": "uint256"
            },
            {
              "internalType": "uint256",
              "name": "buyPrice",
              "type": "uint256"
            },
            {
              "internalType": "uint256",
              "name": "marketPrice",
              "type": "uint256"
            },
            {
              "internalType": "enum CoinDirection",
              "name": "buyDirection",
              "type": "uint8"
            },
            {
              "internalType": "uint256",
              "name": "gas",
              "type": "uint256"
            },
            {
              "internalType": "uint32",
              "name": "luckyNumber",
              "type": "uint32"
            }
          ],
          "internalType": "struct StakeBill[5]",
          "name": "bills",
          "type": "tuple[5]"
        }
      ],
      "stateMutability": "view",
      "type": "function",
      "constant": true
    },
    {
      "inputs": [],
      "name": "getFirstBillOfFrontQueue",
      "outputs": [
        {
          "internalType": "uint32",
          "name": "bitIndexAt",
          "type": "uint32"
        },
        {
          "components": [
            {
              "internalType": "bytes32",
              "name": "id",
              "type": "bytes32"
            },
            {
              "internalType": "address",
              "name": "owner",
              "type": "address"
            },
            {
              "internalType": "uint256",
              "name": "odds",
              "type": "uint256"
            },
            {
              "internalType": "uint256",
              "name": "costs",
              "type": "uint256"
            },
            {
              "internalType": "uint256",
              "name": "buyPrice",
              "type": "uint256"
            },
            {
              "internalType": "uint256",
              "name": "marketPrice",
              "type": "uint256"
            },
            {
              "internalType": "enum CoinDirection",
              "name": "buyDirection",
              "type": "uint8"
            },
            {
              "internalType": "uint256",
              "name": "gas",
              "type": "uint256"
            },
            {
              "internalType": "uint32",
              "name": "luckyNumber",
              "type": "uint32"
            }
          ],
          "internalType": "struct StakeBill",
          "name": "bill",
          "type": "tuple"
        }
      ],
      "stateMutability": "view",
      "type": "function",
      "constant": true
    },
    {
      "inputs": [],
      "name": "getFirstBillOfBackQueue",
      "outputs": [
        {
          "internalType": "uint32",
          "name": "bitIndexAt",
          "type": "uint32"
        },
        {
          "components": [
            {
              "internalType": "bytes32",
              "name": "id",
              "type": "bytes32"
            },
            {
              "internalType": "address",
              "name": "owner",
              "type": "address"
            },
            {
              "internalType": "uint256",
              "name": "odds",
              "type": "uint256"
            },
            {
              "internalType": "uint256",
              "name": "costs",
              "type": "uint256"
            },
            {
              "internalType": "uint256",
              "name": "buyPrice",
              "type": "uint256"
            },
            {
              "internalType": "uint256",
              "name": "marketPrice",
              "type": "uint256"
            },
            {
              "internalType": "enum CoinDirection",
              "name": "buyDirection",
              "type": "uint8"
            },
            {
              "internalType": "uint256",
              "name": "gas",
              "type": "uint256"
            },
            {
              "internalType": "uint32",
              "name": "luckyNumber",
              "type": "uint32"
            }
          ],
          "internalType": "struct StakeBill",
          "name": "bill",
          "type": "tuple"
        }
      ],
      "stateMutability": "view",
      "type": "function",
      "constant": true
    },
    {
      "inputs": [
        {
          "internalType": "uint32",
          "name": "index",
          "type": "uint32"
        }
      ],
      "name": "getStakeBill",
      "outputs": [
        {
          "internalType": "bool",
          "name": "exists",
          "type": "bool"
        },
        {
          "components": [
            {
              "internalType": "bytes32",
              "name": "id",
              "type": "bytes32"
            },
            {
              "internalType": "address",
              "name": "owner",
              "type": "address"
            },
            {
              "internalType": "uint256",
              "name": "odds",
              "type": "uint256"
            },
            {
              "internalType": "uint256",
              "name": "costs",
              "type": "uint256"
            },
            {
              "internalType": "uint256",
              "name": "buyPrice",
              "type": "uint256"
            },
            {
              "internalType": "uint256",
              "name": "marketPrice",
              "type": "uint256"
            },
            {
              "internalType": "enum CoinDirection",
              "name": "buyDirection",
              "type": "uint8"
            },
            {
              "internalType": "uint256",
              "name": "gas",
              "type": "uint256"
            },
            {
              "internalType": "uint32",
              "name": "luckyNumber",
              "type": "uint32"
            }
          ],
          "internalType": "struct StakeBill",
          "name": "bill",
          "type": "tuple"
        }
      ],
      "stateMutability": "view",
      "type": "function",
      "constant": true
    },
    {
      "inputs": [
        {
          "internalType": "uint256",
          "name": "_hash",
          "type": "uint256"
        }
      ],
      "name": "cover",
      "outputs": [],
      "stateMutability": "nonpayable",
      "type": "function"
    },
    {
      "inputs": [
        {
          "internalType": "uint256",
          "name": "buyPrice",
          "type": "uint256"
        },
        {
          "internalType": "enum CoinDirection",
          "name": "buyDirection",
          "type": "uint8"
        },
        {
          "internalType": "uint32",
          "name": "luckyNumber",
          "type": "uint32"
        }
      ],
      "name": "stake",
      "outputs": [],
      "stateMutability": "payable",
      "type": "function",
      "payable": true
    }
  ],
  "bytecode": "0x60806040523480156200001157600080fd5b5060405162001e5438038062001e5483398101604081905262000034916200015c565b60028054600160a060020a0319908116331790915560008054600160a060020a0385811662010000026201000060b060020a0319909216919091178255600180549185169190931617909155606490655af3107a4000906014906046906200009d828662000194565b6040805160e0810182528681526020810188905260009181018290526060810182905261ffff9586166080820181905294861660a082018190529290951660c090950185905260039590955560049590955550600583905560068390556007805463ffffffff1916909117620100009094029390931765ffff00000000191664010000000090910217909155805461ffff191661010417905550620001de9050565b8051600160a060020a03811681146200015757600080fd5b919050565b600080604083850312156200017057600080fd5b6200017b836200013f565b91506200018b602084016200013f565b90509250929050565b61ffff828116828216039080821115620001d7577f4e487b7100000000000000000000000000000000000000000000000000000000600052601160045260246000fd5b5092915050565b611c6680620001ee6000396000f3fe608060405260043610610135576000357c0100000000000000000000000000000000000000000000000000000000900480636949c0b2116100bd578063c865592611610081578063c8655926146103a7578063d1314ee0146103bc578063d63d12dc146103da578063ecb891e1146103fa578063f2b6c156146104715761018c565b80636949c0b21461031957806371f81e9d1461032e57806393accf9714610343578063c040622614610371578063c53f2670146103925761018c565b80631865c57d116101045780631865c57d146102535780632014e5d114610273578063259039331461029b5780633471b337146102be5780635ca1e165146102e15761018c565b806303cd5c59146101d757806307da68f5146101ea578063143025fd1461020757806314a1362b146102335761018c565b3661018c5760405160e560020a62461bcd02815260206004820152601860248201527f4e6f206f746865722063616c6c7320737570706f72746564000000000000000060448201526064015b60405180910390fd5b005b60405160e560020a62461bcd02815260206004820152601860248201527f4e6f206f746865722063616c6c7320737570706f7274656400000000000000006044820152606401610181565b61018a6101e5366004611754565b610486565b3480156101f657600080fd5b5061018a6000805461ff0019169055565b34801561021357600080fd5b5061021c610687565b60405161022a929190611831565b60405180910390f35b34801561023f57600080fd5b5061018a61024e36600461184c565b6106a3565b34801561025f57600080fd5b5060005460ff1660405161022a9190611865565b34801561027f57600080fd5b50600054610100900460ff16604051901515815260200161022a565b3480156102a757600080fd5b506102b06107f8565b60405161022a92919061187f565b3480156102ca57600080fd5b506102d3610817565b60405190815260200161022a565b3480156102ed57600080fd5b50600054620100009004600160a060020a03165b604051600160a060020a03909116815260200161022a565b34801561032557600080fd5b506102d3610830565b34801561033a57600080fd5b506102d361083e565b34801561034f57600080fd5b5061036361035e3660046118c9565b61084c565b60405161022a9291906118e4565b34801561037d57600080fd5b5061018a6000805461ff001916610100179055565b34801561039e57600080fd5b506102d3610a20565b3480156103b357600080fd5b5061021c610a37565b3480156103c857600080fd5b50600154600160a060020a0316610301565b3480156103e657600080fd5b5060095460ff1660405161022a91906118fb565b34801561040657600080fd5b5061040f610a4b565b60405161022a9190600060e08201905082518252602083015160208301526040830151604083015260608301516060830152608083015161ffff80821660808501528060a08601511660a08501528060c08601511660c0850152505092915050565b34801561047d57600080fd5b506102b0610aee565b600082600281111561049a5761049a611796565b036104ea5760405160e560020a62461bcd02815260206004820152601b60248201527f427579696e6720646972656374696f6e20697320756e6b6e6f776e00000000006044820152606401610181565b600360005460ff16600481111561050357610503611796565b036105795760405160e560020a62461bcd02815260206004820152602260248201527f446f206e6f7420616363657074206f7264657273207768656e206d617463686960448201527f6e670000000000000000000000000000000000000000000000000000000000006064820152608401610181565b6003546000906105949061058d9086610b02565b3490610bac565b6005549091506105a49082610bee565b6005556006546105b49034610bee565b600655604080514260208083019190915244828401528251808303840181526060830180855281519190920120610180830190935282815233608083015260a082018490523460c083015260e082018790526004546101008301526000916101200186600281111561062857610628611796565b81526020015a81526020018563ffffffff16815250905061064881610c50565b7f67ff9f7ebf0786f0383127a22a0f947768f85d4ad4c7a4fe559ade9bab63eeb9816040516106779190611909565b60405180910390a1505050505050565b60006106916116a4565b61069b6002610d9f565b915091509091565b600154600160a060020a031633146107005760405160e560020a62461bcd02815260206004820152601a60248201527f4f6e6c792062726f6b65722063616e2063616c6c20746869732e0000000000006044820152606401610181565b600054610100900460ff1661075a5760405160e560020a62461bcd02815260206004820152601360248201527f6f646473646578206861732073746f70706564000000000000000000000000006044820152606401610181565b600460005460ff16600481111561077357610773611796565b146107e95760405160e560020a62461bcd02815260206004820152602360248201527f4d7573742068617665206d617463686d616b6564206265666f72652063616c6c60448201527f696e6700000000000000000000000000000000000000000000000000000000006064820152608401610181565b6008556000805460ff19169055565b60006108026116f0565b61080c6002610fa6565b919491935090915050565b600061082560016000611271565b63ffffffff16905090565b600061082560006001611271565b600061082560006002611271565b60006108566116a4565b6000805b60208163ffffffff161015610a0b57600061090a8263ffffffff166020811061088557610885611918565b602081049091015460ff601f9092166101000a900416905060005b60088160ff1610156109f65760006108b9826002611a31565b831660ff1690506108cb826002611a31565b8160ff16036109e3578763ffffffff168563ffffffff16036109d5576001600a60ff84166108fa876008611a40565b6109049190611a68565b63ffffffff16610100811061091b5761091b611918565b604080516101208101825260099290920292909201805482526001810154600160a060020a03166020830152600280820154938301939093526003810154606083015260048101546080830152600581015460a083015260068101549092839160c084019160ff9091169081111561099557610995611796565b60028111156109a6576109a6611796565b81526007820154602082015260089091015463ffffffff16604090910152919a91995090975050505050505050565b846109df81611a8c565b9550505b50806109ee81611aaf565b9150506108a0565b50508080610a0390611a8c565b91505061085a565b50610a146116a4565b60009590945092505050565b600454600354600091610a3291611ace565b905090565b6000610a416116a4565b61069b6001610d9f565b610a976040518060e0016040528060008152602001600081526020016000815260200160008152602001600061ffff168152602001600061ffff168152602001600061ffff1681525090565b506040805160e0810182526003548152600454602082015260055491810191909152600654606082015260075461ffff8082166080840152620100008204811660a08401526401000000009091041660c082015290565b6000610af86116f0565b61080c6001610fa6565b600082600003610b1457506000610ba6565b6000610b208385611ace565b905082610b2d8583611afe565b14610ba35760405160e560020a62461bcd02815260206004820152602160248201527f536166654d6174683a206d756c7469706c69636174696f6e206f766572666c6f60448201527f77000000000000000000000000000000000000000000000000000000000000006064820152608401610181565b90505b92915050565b6000610ba383836040518060400160405280601a81526020017f536166654d6174683a206469766973696f6e206279207a65726f00000000000081525061144f565b600080610bfb8385611b12565b905083811015610ba35760405160e560020a62461bcd02815260206004820152601b60248201527f536166654d6174683a206164646974696f6e206f766572666c6f7700000000006044820152606401610181565b6000610c5a61148b565b90508063ffffffff1663ffffffff03610cb85760405160e560020a62461bcd02815260206004820152601e60248201527f5374616b652042696c6c2041727261792073706163652069732066756c6c00006044820152606401610181565b81600a8263ffffffff166101008110610cd357610cd3611918565b600902016000820151816000015560208201518160010160006101000a815481600160a060020a030219169083600160a060020a0316021790555060408201518160020155606082015181600301556080820151816004015560a0820151816005015560c08201518160060160006101000a81548160ff02191690836002811115610d6057610d60611796565b021790555060e08201516007820155610100909101516008909101805463ffffffff191663ffffffff909216919091179055610d9b81611563565b5050565b6000610da96116a4565b610db16116a4565b63ffffffff925060005b60208163ffffffff161015610f9d57600061090a8263ffffffff1660208110610de657610de6611918565b602081049091015460ff601f9092166101000a900416905060005b60088160ff161015610f88576000610e1a826002611a31565b831660ff169050610e2c826002611a31565b8160ff1603610f7457600a60ff8316610e46866008611a40565b610e509190611a68565b63ffffffff166101008110610e6757610e67611918565b604080516101208101825260099290920292909201805482526001810154600160a060020a03166020830152600280820154938301939093526003810154606083015260048101546080830152600581015460a083015260068101549192909160c084019160ff90911690811115610ee157610ee1611796565b6002811115610ef257610ef2611796565b81526007820154602082015260089091015463ffffffff166040909101529550876002811115610f2457610f24611796565b8660c001516002811115610f3a57610f3a611796565b14610f455750610f76565b846080015186608001511115610f745785945060ff8216610f67856008611a40565b610f719190611a68565b96505b505b80610f8081611aaf565b915050610e01565b50508080610f9590611a8c565b915050610dbb565b50919391925050565b6000610fb061171d565b610fb86116f0565b60005b60208163ffffffff16101561125557600061090a8263ffffffff1660208110610fe657610fe6611918565b602081049091015460ff601f9092166101000a900416905060005b60088160ff16101561124057600061101a826002611a31565b831660ff16905061102c826002611a31565b8160ff160361122c576000600a60ff8416611048876008611a40565b6110529190611a68565b63ffffffff16610100811061106957611069611918565b604080516101208101825260099290920292909201805482526001810154600160a060020a03166020830152600280820154938301939093526003810154606083015260048101546080830152600581015460a083015260068101549192909160c084019160ff909116908111156110e3576110e3611796565b60028111156110f4576110f4611796565b81526007820154602082015260089091015463ffffffff16604090910152905088600281111561112657611126611796565b8160c00151600281111561113c5761113c611796565b1461114857505061122e565b855160809081015190820151101561116157505061122e565b60056000611170600183611b25565b90505b6000198113156112285787816005811061118f5761118f611918565b60200201516080015183608001511115611216578091506111b1898984611607565b828883600581106111c4576111c4611918565b602002015260ff85166111d8886008611a40565b6111e29190611a68565b8983600581106111f4576111f4611918565b63ffffffff90921660209290920201528961120e81611a8c565b9a5050611228565b8061122081611b38565b915050611173565b5050505b505b8061123881611aaf565b915050611001565b5050808061124d90611a8c565b915050610fbb565b5060058363ffffffff16111561126a57600592505b9193909250565b600080805b60208163ffffffff16101561144757600061090a8263ffffffff16602081106112a1576112a1611918565b602081049091015460ff601f9092166101000a900416905060005b60088160ff1610156114325760006112d5826002611a31565b831660ff1690506112e7826002611a31565b8160ff160361141e576000600a60ff8416611303876008611a40565b61130d9190611a68565b63ffffffff16610100811061132457611324611918565b604080516101208101825260099290920292909201805482526001810154600160a060020a03166020830152600280820154938301939093526003810154606083015260048101546080830152600581015460a083015260068101549192909160c084019160ff9091169081111561139e5761139e611796565b60028111156113af576113af611796565b81526007820154602082015260089091015463ffffffff1660409091015290508815801561140357508760028111156113ea576113ea611796565b8160c00151600281111561140057611400611796565b14155b1561140f575050611420565b8561141981611a8c565b965050505b505b8061142a81611aaf565b9150506112bc565b5050808061143f90611a8c565b915050611276565b509392505050565b600081836114735760405160e560020a62461bcd0281526004016101819190611b71565b5060006114808486611afe565b9150505b9392505050565b600063ffffffff81805b60208163ffffffff16101561155b57600061090a8263ffffffff16602081106114c0576114c0611918565b602081049091015460ff601f9092166101000a900416905060005b60088160ff16101561153b5760006114f4826002611a31565b8360ff16169050806000036115285760ff8216611512856008611a40565b61151c9190611a68565b9550600194505061153b565b508061153381611aaf565b9150506114db565b508215611548575061155b565b508061155381611a8c565b915050611495565b509092915050565b6000611570600883611bbf565b9050600061157f600884611be2565b9050600061090a8363ffffffff166020811061159d5761159d611918565b602081049091015460ff601f9092166101000a90041690506115c0826002611c05565b60ff909116178061090a63ffffffff8516602081106115e1576115e1611918565b602091828204019190066101000a81548160ff021916908360ff16021790555050505050565b60015b81811161169e5782816005811061162357611623611918565b602002015183611634600184611b25565b6005811061164457611644611918565b602002015283816005811061165b5761165b611918565b60200201518461166c600184611b25565b6005811061167c5761167c611918565b63ffffffff90921660209290920201528061169681611c17565b91505061160a565b50505050565b6040805161012081018252600080825260208201819052918101829052606081018290526080810182905260a081018290529060c0820190815260006020820181905260409091015290565b6040518060a001604052806005905b6117076116a4565b8152602001906001900390816116ff5790505090565b6040518060a001604052806005906020820280368337509192915050565b803563ffffffff8116811461174f57600080fd5b919050565b60008060006060848603121561176957600080fd5b8335925060208401356003811061177f57600080fd5b915061178d6040850161173b565b90509250925092565b60e060020a634e487b7102600052602160045260246000fd5b600381106117bf576117bf611796565b9052565b80518252600160a060020a03602082015116602083015260408101516040830152606081015160608301526080810151608083015260a081015160a083015260c081015161181460c08401826117af565b5060e081810151908301526101009081015163ffffffff16910152565b63ffffffff83168152610140810161148460208301846117c3565b60006020828403121561185e57600080fd5b5035919050565b602081016005831061187957611879611796565b91905290565b63ffffffff831681526105c0810160208083018460005b60058110156118be576118aa8383516117c3565b610120929092019190830190600101611896565b505050509392505050565b6000602082840312156118db57600080fd5b610ba38261173b565b8215158152610140810161148460208301846117c3565b60208101610ba682846117af565b6101208101610ba682846117c3565b60e060020a634e487b7102600052603260045260246000fd5b60e060020a634e487b7102600052601160045260246000fd5b600181815b8085111561198757816000190482111561196b5761196b611931565b8085161561197857918102915b6002909404939080029061194f565b509250929050565b60008261199e57506001610ba6565b816119ab57506000610ba6565b81600181146119c157600281146119cb576119e8565b6001915050610ba6565b60ff8411156119dc576119dc611931565b8360020a915050610ba6565b5060208310610133831016604e8410600b8410161715611a0b575081810a610ba6565b611a15838361194a565b8060001904821115611a2957611a29611931565b029392505050565b6000610ba360ff84168361198f565b63ffffffff818116838216028082169190828114611a6057611a60611931565b505092915050565b63ffffffff818116838216019080821115611a8557611a85611931565b5092915050565b600063ffffffff808316818103611aa557611aa5611931565b6001019392505050565b600060ff821660ff8103611ac557611ac5611931565b60010192915050565b8082028115828204841417610ba657610ba6611931565b60e060020a634e487b7102600052601260045260246000fd5b600082611b0d57611b0d611ae5565b500490565b80820180821115610ba657610ba6611931565b81810381811115610ba657610ba6611931565b60007f80000000000000000000000000000000000000000000000000000000000000008203611b6957611b69611931565b506000190190565b600060208083528351808285015260005b81811015611b9e57858101830151858201604001528201611b82565b506000604082860101526040601f19601f8301168501019250505092915050565b600063ffffffff80841680611bd657611bd6611ae5565b92169190910492915050565b600063ffffffff80841680611bf957611bf9611ae5565b92169190910692915050565b6000610ba363ffffffff84168361198f565b600060018201611c2957611c29611931565b506001019056fea26469706673582212202f27b0827eed75be599df5b76d4945036efb2da8f0ce7d3dd3005867f9a07d5d64736f6c63430008130033",
  "immutableReferences": {},
  "source": "// SPDX-License-Identifier: MIT\npragma solidity >=0.4.22 <0.8.20;\nimport \"./IOddsdex.sol\";\nimport \"./SafeMath.sol\";\n\ncontract OddsdexContract is IOddsdexContract {\n    using SafeMath for *;\n\n    OddsdexState private state;\n    bool private running;\n    address private root;\n    address private broker;\n    address private parent;\n    BulletinBoard private bulletinBoard;\n    uint256 private coverHash;\n    CoinDirection private winningDirection;\n    StakeBill[8 * 32] private stakeBills;\n    uint8[32] stakeBillsBitmap;\n\n    // StakeBill[10] private buyFrontBillQueue;\n    // StakeBill[10] private buyBackBillQueue;\n\n    constructor(address _root, address _broker) {\n        parent = msg.sender;\n        root = _root;\n        broker = _broker;\n        uint256 initialPrice = 100;\n        uint256 oddunit = 0.0001 * (10 ** 18);\n        uint16 kickbackRate = 20;\n        uint16 brokerageRate = 70;\n        uint16 taxRate = 100 - brokerageRate;\n        bulletinBoard = BulletinBoard(\n            oddunit,\n            initialPrice,\n            0,\n            0,\n            kickbackRate,\n            brokerageRate,\n            taxRate\n        );\n        state = OddsdexState.matchmaked;\n        running = true;\n    }\n\n    modifier onlyRoot() {\n        require(msg.sender == root, \"Only root can call this.\");\n        _;\n    }\n\n    modifier onlyBroker() {\n        require(msg.sender == broker, \"Only broker can call this.\");\n        _;\n    }\n    modifier mustRunning() {\n        require(running, \"oddsdex has stopped\");\n        _;\n    }\n    modifier checkLuckyNumberByBrokerHash(uint256 luckyNumber) {\n        bytes32 packed = keccak256(abi.encodePacked(luckyNumber));\n        uint256 _hash = uint256(packed);\n        require(_hash == coverHash, \"LuckyNumber verification failed\");\n        _;\n    }\n\n    function getState() public view override returns (OddsdexState) {\n        return state;\n    }\n\n    function getWinningDirection()\n        public\n        view\n        override\n        returns (CoinDirection)\n    {\n        return winningDirection;\n    }\n\n    function getWeiPrice() public view override returns (uint256) {\n        return bulletinBoard.oddunit * bulletinBoard.price;\n    }\n\n    function getBulletinBoard()\n        public\n        view\n        override\n        returns (BulletinBoard memory)\n    {\n        return bulletinBoard;\n    }\n\n    function isRunning() public view override returns (bool) {\n        return running;\n    }\n\n    function stop() public override {\n        running = false;\n    }\n\n    function run() public override {\n        running = true;\n    }\n\n    function getRoot() public view override returns (address) {\n        return root;\n    }\n\n    function getBroker() public view override returns (address) {\n        return broker;\n    }\n\n    function getQueueCount() public view override returns (uint256) {\n        return _lengthOfStakeBills(true, CoinDirection.unknown);\n    }\n\n    function getFrontQueueCount() public view override returns (uint256) {\n        return _lengthOfStakeBills(false, CoinDirection.front);\n    }\n\n    function getBackQueueCount() public view override returns (uint256) {\n        return _lengthOfStakeBills(false, CoinDirection.back);\n    }\n\n    function getTopFiveBillFrontQueue()\n        public\n        view\n        override\n        returns (uint32 length, StakeBill[5] memory bills)\n    {\n        (length, , bills) = _topFiveOfStakeBill(CoinDirection.front);\n        return (length, bills);\n    }\n\n    function getTopFiveBillBackQueue()\n        public\n        view\n        override\n        returns (uint32 length, StakeBill[5] memory bills)\n    {\n        (length, , bills) = _topFiveOfStakeBill(CoinDirection.back);\n        return (length, bills);\n    }\n\n    function getFirstBillOfFrontQueue()\n        public\n        view\n        override\n        returns (uint32 bitIndexAt, StakeBill memory bill)\n    {\n        return _topFirstOfStakeBill(CoinDirection.front);\n    }\n\n    function getFirstBillOfBackQueue()\n        public\n        view\n        override\n        returns (uint32 bitIndexAt, StakeBill memory bill)\n    {\n        return _topFirstOfStakeBill(CoinDirection.back);\n    }\n\n    function getStakeBill(\n        uint32 index\n    ) public view override returns (bool exists, StakeBill memory bill) {\n        uint32 count;\n        for (uint32 i = 0; i < stakeBillsBitmap.length; i++) {\n            uint8 b = stakeBillsBitmap[i];\n            for (uint8 j = 0; j < 8; j++) {\n                uint8 v = uint8(b & (2 ** j));\n                if (v == 2 ** j) {\n                    if (count == index) {\n                        return (true, stakeBills[i * 8 + j]);\n                    }\n                    count++;\n                }\n            }\n        }\n        StakeBill memory ret;\n        return (false, ret);\n    }\n\n    function cover(uint256 _hash) public override onlyBroker mustRunning {\n        require(\n            state == OddsdexState.matchmaked,\n            \"Must have matchmaked before calling\"\n        );\n        coverHash = _hash;\n        state = OddsdexState.covering;\n    }\n\n    fallback() external payable {\n        require(false, \"No other calls supported\");\n    }\n\n    receive() external payable {\n        require(false, \"No other calls supported\");\n    }\n\n    function stake(\n        uint256 buyPrice,\n        CoinDirection buyDirection,\n        uint32 luckyNumber\n    ) external payable override {\n        require(\n            buyDirection != CoinDirection.unknown,\n            \"Buying direction is unknown\"\n        );\n        require(\n            state != OddsdexState.matchmaking,\n            \"Do not accept orders when matching\"\n        );\n        uint256 odds = msg.value.div(bulletinBoard.oddunit.mul(buyPrice));\n        // require(odds >= 10, \"Minimum purchase of 10 odds\");\n        bulletinBoard.odds = bulletinBoard.odds.add(odds);\n        bulletinBoard.funds = bulletinBoard.funds.add(msg.value);\n        bytes32 idBytes = keccak256(\n            abi.encodePacked(block.timestamp, block.difficulty)\n        );\n        StakeBill memory bill = StakeBill(\n            idBytes,\n            msg.sender,\n            odds,\n            msg.value,\n            buyPrice,\n            bulletinBoard.price,\n            buyDirection,\n            gasleft(),\n            luckyNumber\n        );\n        storeStakeBill(bill);\n        emit OnStakeBillEvent(bill);\n    }\n\n    function _getFirstSpaceBit() private view returns (uint32) {\n        uint32 index = 0xFFFFFFFF;\n        bool found;\n        for (uint32 i = 0; i < stakeBillsBitmap.length; i++) {\n            uint8 b = stakeBillsBitmap[i];\n            for (uint8 j = 0; j < 8; j++) {\n                uint v = b & (2 ** j);\n                if (v == 0) {\n                    index = i * 8 + j;\n                    found = true;\n                    break;\n                }\n            }\n            if (found) {\n                break;\n            }\n        }\n        return index;\n    }\n\n    function _lengthOfStakeBills(\n        bool all,\n        CoinDirection direction\n    ) private view returns (uint32) {\n        uint32 len = 0;\n        for (uint32 i = 0; i < stakeBillsBitmap.length; i++) {\n            uint8 b = stakeBillsBitmap[i];\n            for (uint8 j = 0; j < 8; j++) {\n                uint8 v = uint8(b & (2 ** j));\n                if (v == 2 ** j) {\n                    StakeBill memory bill = stakeBills[i * 8 + j];\n                    if (!all && bill.buyDirection != direction) {\n                        continue;\n                    }\n                    len++;\n                }\n            }\n        }\n        return len;\n    }\n\n    function _topFiveOfStakeBill(\n        CoinDirection direction\n    )\n        private\n        view\n        returns (\n            uint32 length,\n            uint32[5] memory bitIndexAts,\n            StakeBill[5] memory bills\n        )\n    {\n        for (uint32 i = 0; i < stakeBillsBitmap.length; i++) {\n            uint8 b = stakeBillsBitmap[i];\n            for (uint8 j = 0; j < 8; j++) {\n                uint8 v = uint8(b & (2 ** j));\n                if (v == 2 ** j) {\n                    StakeBill memory bill = stakeBills[i * 8 + j];\n                    if (bill.buyDirection != direction) {\n                        continue;\n                    }\n                    if (bill.buyPrice < bills[0].buyPrice) {\n                        continue;\n                    }\n                    uint pos = bills.length;\n                    for (int t = int(bills.length - 1); t > -1; t--) {\n                        if (bill.buyPrice > bills[uint(t)].buyPrice) {\n                            pos = uint(t);\n                            _moveFronts(bitIndexAts, bills, pos);\n                            bills[pos] = bill;\n                            bitIndexAts[pos] = i * 8 + j;\n                            length++;\n                            break;\n                        }\n                    }\n                }\n            }\n        }\n        if (length > bills.length) {\n            length = uint32(bills.length);\n        }\n        return (length, bitIndexAts, bills);\n    }\n\n    function _moveFronts(\n        uint32[5] memory bitIndexAts,\n        StakeBill[5] memory bills,\n        uint pos\n    ) private pure {\n        for (uint i = 1; i <= pos; i++) {\n            bills[i - 1] = bills[i];\n            bitIndexAts[i - 1] = bitIndexAts[i];\n        }\n    }\n\n    function _topFirstOfStakeBill(\n        CoinDirection direction\n    ) private view returns (uint32 bitIndexAt, StakeBill memory bill) {\n        StakeBill memory maxbill;\n        bitIndexAt = 0xFFFFFFFF;\n        for (uint32 i = 0; i < stakeBillsBitmap.length; i++) {\n            uint8 b = stakeBillsBitmap[i];\n            for (uint8 j = 0; j < 8; j++) {\n                uint8 v = uint8(b & (2 ** j));\n                if (v == 2 ** j) {\n                    bill = stakeBills[i * 8 + j];\n                    if (bill.buyDirection != direction) {\n                        continue;\n                    }\n                    if (bill.buyPrice > maxbill.buyPrice) {\n                        maxbill = bill;\n                        bitIndexAt = i * 8 + j;\n                    }\n                }\n            }\n        }\n        return (bitIndexAt, maxbill);\n    }\n\n    function _removeStakeBill(uint32 index) private {\n        uint32 i = index / 8;\n        uint32 j = index % 8;\n        uint8 v = stakeBillsBitmap[i];\n        v = uint8(v & (~(2 ** j)));\n        stakeBillsBitmap[i] = v;\n    }\n\n    function _setStakeBillAt(uint32 index) private {\n        uint32 i = index / 8;\n        uint32 j = index % 8;\n        uint8 v = stakeBillsBitmap[i];\n        v = uint8(v | (2 ** j));\n        stakeBillsBitmap[i] = v;\n    }\n\n    function storeStakeBill(StakeBill memory bill) private {\n        uint32 index = _getFirstSpaceBit();\n        require(index != 0xFFFFFFFF, \"Stake Bill Array space is full\");\n        stakeBills[index] = bill;\n        _setStakeBillAt(index);\n    }\n}\n",
  "sourcePath": "/Users/cj/games/game-oddsdex/contracts/OddsdexContract.sol",
  "compiler": {
    "name": "solc",
    "version": "0.8.19+commit.7dd6d404.Emscripten.clang"
  },
  "schemaVersion": "3.4.14",
  "updatedAt": "2023-08-27T06:26:25.894Z",
  "networkType": "ethereum",
  "devdoc": {
    "kind": "dev",
    "methods": {},
    "version": 1
  },
  "userdoc": {
    "kind": "user",
    "methods": {},
    "version": 1
  }
}