{
  "contractName": "OddsdexContract",
  "abi": [
    {
      "inputs": [
        {
          "internalType": "address",
          "name": "_root",
          "type": "address"
        },
        {
          "internalType": "address",
          "name": "_broker",
          "type": "address"
        }
      ],
      "stateMutability": "nonpayable",
      "type": "constructor"
    },
    {
      "anonymous": false,
      "inputs": [
        {
          "components": [
            {
              "internalType": "enum CoinDirection",
              "name": "winningDirection",
              "type": "uint8"
            },
            {
              "internalType": "uint256",
              "name": "luckyNumber",
              "type": "uint256"
            },
            {
              "internalType": "address",
              "name": "broker",
              "type": "address"
            },
            {
              "internalType": "uint256",
              "name": "coverHash",
              "type": "uint256"
            }
          ],
          "indexed": false,
          "internalType": "struct LotteryMessage",
          "name": "message",
          "type": "tuple"
        }
      ],
      "name": "OnLotteryEvent",
      "type": "event"
    },
    {
      "anonymous": false,
      "inputs": [
        {
          "components": [
            {
              "internalType": "string",
              "name": "id",
              "type": "string"
            },
            {
              "internalType": "string",
              "name": "refFId",
              "type": "string"
            },
            {
              "internalType": "string",
              "name": "refBId",
              "type": "string"
            },
            {
              "internalType": "string",
              "name": "mtn",
              "type": "string"
            },
            {
              "internalType": "address",
              "name": "broker",
              "type": "address"
            },
            {
              "internalType": "uint256",
              "name": "dealOdds",
              "type": "uint256"
            },
            {
              "internalType": "uint256",
              "name": "dealPrice",
              "type": "uint256"
            },
            {
              "internalType": "uint256",
              "name": "tailFOdds",
              "type": "uint256"
            },
            {
              "internalType": "uint256",
              "name": "tailBOdds",
              "type": "uint256"
            },
            {
              "internalType": "uint256",
              "name": "tailFCostOnBill",
              "type": "uint256"
            },
            {
              "internalType": "uint256",
              "name": "tailBCostOnBill",
              "type": "uint256"
            },
            {
              "internalType": "uint256",
              "name": "tailFReturnCosts",
              "type": "uint256"
            },
            {
              "internalType": "uint256",
              "name": "tailBReturnCosts",
              "type": "uint256"
            },
            {
              "internalType": "uint256",
              "name": "prize",
              "type": "uint256"
            }
          ],
          "indexed": false,
          "internalType": "struct MatchmakingBill",
          "name": "bill",
          "type": "tuple"
        }
      ],
      "name": "OnMatchMakingEvent",
      "type": "event"
    },
    {
      "anonymous": false,
      "inputs": [
        {
          "components": [
            {
              "internalType": "string",
              "name": "id",
              "type": "string"
            },
            {
              "internalType": "string",
              "name": "refId",
              "type": "string"
            },
            {
              "internalType": "string",
              "name": "mtn",
              "type": "string"
            },
            {
              "internalType": "address",
              "name": "owner",
              "type": "address"
            },
            {
              "internalType": "uint256",
              "name": "costs",
              "type": "uint256"
            }
          ],
          "indexed": false,
          "internalType": "struct ReturnBill",
          "name": "bill",
          "type": "tuple"
        }
      ],
      "name": "OnReturnBillEvent",
      "type": "event"
    },
    {
      "anonymous": false,
      "inputs": [
        {
          "components": [
            {
              "internalType": "string",
              "name": "id",
              "type": "string"
            },
            {
              "internalType": "string",
              "name": "refId",
              "type": "string"
            },
            {
              "internalType": "string",
              "name": "mtn",
              "type": "string"
            },
            {
              "internalType": "address",
              "name": "owner",
              "type": "address"
            },
            {
              "internalType": "uint16",
              "name": "kickbackRate",
              "type": "uint16"
            },
            {
              "internalType": "uint16",
              "name": "brokerageRate",
              "type": "uint16"
            },
            {
              "internalType": "uint16",
              "name": "taxRate",
              "type": "uint16"
            },
            {
              "internalType": "uint256",
              "name": "prize",
              "type": "uint256"
            },
            {
              "internalType": "uint256",
              "name": "bonus",
              "type": "uint256"
            },
            {
              "internalType": "uint256",
              "name": "kickback",
              "type": "uint256"
            },
            {
              "internalType": "uint256",
              "name": "brokerage",
              "type": "uint256"
            },
            {
              "internalType": "uint256",
              "name": "tax",
              "type": "uint256"
            }
          ],
          "indexed": false,
          "internalType": "struct SplitBill",
          "name": "bill",
          "type": "tuple"
        }
      ],
      "name": "OnSplitBillEvent",
      "type": "event"
    },
    {
      "anonymous": false,
      "inputs": [
        {
          "components": [
            {
              "internalType": "string",
              "name": "id",
              "type": "string"
            },
            {
              "internalType": "address",
              "name": "owner",
              "type": "address"
            },
            {
              "internalType": "uint256",
              "name": "odds",
              "type": "uint256"
            },
            {
              "internalType": "uint256",
              "name": "costs",
              "type": "uint256"
            },
            {
              "internalType": "uint256",
              "name": "buyPrice",
              "type": "uint256"
            },
            {
              "internalType": "enum CoinDirection",
              "name": "buyDirection",
              "type": "uint8"
            },
            {
              "internalType": "uint256",
              "name": "gas",
              "type": "uint256"
            },
            {
              "internalType": "uint32",
              "name": "luckyNumber",
              "type": "uint32"
            }
          ],
          "indexed": false,
          "internalType": "struct StakeBill",
          "name": "bill",
          "type": "tuple"
        }
      ],
      "name": "OnStakeBillEvent",
      "type": "event"
    },
    {
      "stateMutability": "payable",
      "type": "fallback",
      "payable": true
    },
    {
      "stateMutability": "payable",
      "type": "receive",
      "payable": true
    },
    {
      "inputs": [],
      "name": "getState",
      "outputs": [
        {
          "internalType": "enum OddsdexState",
          "name": "",
          "type": "uint8"
        }
      ],
      "stateMutability": "view",
      "type": "function",
      "constant": true
    },
    {
      "inputs": [],
      "name": "getWinningDirection",
      "outputs": [
        {
          "internalType": "enum CoinDirection",
          "name": "",
          "type": "uint8"
        }
      ],
      "stateMutability": "view",
      "type": "function",
      "constant": true
    },
    {
      "inputs": [],
      "name": "getWeiPrice",
      "outputs": [
        {
          "internalType": "uint256",
          "name": "",
          "type": "uint256"
        }
      ],
      "stateMutability": "view",
      "type": "function",
      "constant": true
    },
    {
      "inputs": [],
      "name": "getBulletinBoard",
      "outputs": [
        {
          "components": [
            {
              "internalType": "uint256",
              "name": "oddunit",
              "type": "uint256"
            },
            {
              "internalType": "uint256",
              "name": "price",
              "type": "uint256"
            },
            {
              "internalType": "uint256",
              "name": "odds",
              "type": "uint256"
            },
            {
              "internalType": "uint16",
              "name": "kickbackRate",
              "type": "uint16"
            },
            {
              "internalType": "uint16",
              "name": "brokerageRate",
              "type": "uint16"
            },
            {
              "internalType": "uint16",
              "name": "taxRate",
              "type": "uint16"
            }
          ],
          "internalType": "struct BulletinBoard",
          "name": "",
          "type": "tuple"
        }
      ],
      "stateMutability": "view",
      "type": "function",
      "constant": true
    },
    {
      "inputs": [],
      "name": "isRunning",
      "outputs": [
        {
          "internalType": "bool",
          "name": "",
          "type": "bool"
        }
      ],
      "stateMutability": "view",
      "type": "function",
      "constant": true
    },
    {
      "inputs": [],
      "name": "stop",
      "outputs": [],
      "stateMutability": "nonpayable",
      "type": "function"
    },
    {
      "inputs": [],
      "name": "run",
      "outputs": [],
      "stateMutability": "nonpayable",
      "type": "function"
    },
    {
      "inputs": [],
      "name": "getRoot",
      "outputs": [
        {
          "internalType": "address",
          "name": "",
          "type": "address"
        }
      ],
      "stateMutability": "view",
      "type": "function",
      "constant": true
    },
    {
      "inputs": [],
      "name": "getBroker",
      "outputs": [
        {
          "internalType": "address",
          "name": "",
          "type": "address"
        }
      ],
      "stateMutability": "view",
      "type": "function",
      "constant": true
    },
    {
      "inputs": [
        {
          "internalType": "address",
          "name": "_player",
          "type": "address"
        }
      ],
      "name": "oddBalanceOf",
      "outputs": [
        {
          "internalType": "uint256",
          "name": "",
          "type": "uint256"
        }
      ],
      "stateMutability": "nonpayable",
      "type": "function"
    },
    {
      "inputs": [
        {
          "internalType": "uint256",
          "name": "_hash",
          "type": "uint256"
        }
      ],
      "name": "cover",
      "outputs": [],
      "stateMutability": "nonpayable",
      "type": "function"
    },
    {
      "inputs": [
        {
          "internalType": "uint256",
          "name": "_luckyNumber",
          "type": "uint256"
        }
      ],
      "name": "lottery",
      "outputs": [
        {
          "internalType": "enum CoinDirection",
          "name": "",
          "type": "uint8"
        }
      ],
      "stateMutability": "nonpayable",
      "type": "function"
    },
    {
      "inputs": [],
      "name": "canMatchmaking",
      "outputs": [
        {
          "internalType": "bool",
          "name": "",
          "type": "bool"
        }
      ],
      "stateMutability": "view",
      "type": "function",
      "constant": true
    },
    {
      "inputs": [],
      "name": "matchmake",
      "outputs": [],
      "stateMutability": "nonpayable",
      "type": "function"
    },
    {
      "inputs": [
        {
          "internalType": "enum CoinDirection",
          "name": "buyDirection",
          "type": "uint8"
        },
        {
          "internalType": "uint32",
          "name": "luckyNumber",
          "type": "uint32"
        }
      ],
      "name": "stake",
      "outputs": [],
      "stateMutability": "payable",
      "type": "function",
      "payable": true
    }
  ],
  "bytecode": "0x60806040523480156200001157600080fd5b50604051620030d3380380620030d3833981016040819052620000349162000141565b60028054600160a060020a0319908116331790915560008054600160a060020a0385811662010000026201000060b060020a03199092169190911782556001805491851691909316178255655af3107a400091906014906046906200009b82606462000179565b6040805160c08101825287815260208101879052600091810182905261ffff95861660608201819052948616608082018190529290951660a0909501859052600396909655600494909455506005939093556006805463ffffffff1916909317620100009092029190911765ffff00000000191664010000000090910217905550620001c39050565b8051600160a060020a03811681146200013c57600080fd5b919050565b600080604083850312156200015557600080fd5b620001608362000124565b9150620001706020840162000124565b90509250929050565b61ffff828116828216039080821115620001bc577f4e487b7100000000000000000000000000000000000000000000000000000000600052601160045260246000fd5b5092915050565b612f0080620001d36000396000f3fe608060405260043610610109576000357c0100000000000000000000000000000000000000000000000000000000900480638d1d5b3f116100a7578063c53f267011610076578063c53f26701461032c578063d1314ee014610341578063d63d12dc1461035f578063ecb891e11461037757610160565b80638d1d5b3f146102b4578063a57d1560146102c9578063b4540797146102f6578063c04062261461030b57610160565b80632014e5d1116100e35780632014e5d1146102115780635ca1e1651461023a578063806ea80e1461027257806382dbe015146102a157610160565b806307da68f5146101ab57806314a1362b146101c85780631865c57d146101e857610160565b366101605760405160e560020a62461bcd02815260206004820152601860248201527f4e6f206f746865722063616c6c7320737570706f72746564000000000000000060448201526064015b60405180910390fd5b005b60405160e560020a62461bcd02815260206004820152601860248201527f4e6f206f746865722063616c6c7320737570706f7274656400000000000000006044820152606401610155565b3480156101b757600080fd5b5061015e6000805461ff0019169055565b3480156101d457600080fd5b5061015e6101e3366004612752565b610460565b3480156101f457600080fd5b5060005460ff166040516102089190612784565b60405180910390f35b34801561021d57600080fd5b50600054610100900460ff165b6040519015158152602001610208565b34801561024657600080fd5b50600054620100009004600160a060020a03165b604051600160a060020a039091168152602001610208565b34801561027e57600080fd5b5061029361028d36600461279e565b50600090565b604051908152602001610208565b61015e6102af3660046127c7565b610585565b3480156102c057600080fd5b5061015e610d8d565b3480156102d557600080fd5b506102e96102e4366004612752565b610e9c565b6040516102089190612821565b34801561030257600080fd5b5061022a611141565b34801561031757600080fd5b5061015e6000805461ff001916610100179055565b34801561033857600080fd5b506102936114b4565b34801561034d57600080fd5b50600154600160a060020a031661025a565b34801561036b57600080fd5b5060085460ff166102e9565b34801561038357600080fd5b506104086040805160c081018252600080825260208201819052918101829052606081018290526080810182905260a0810191909152506040805160c081018252600354815260045460208201526005549181019190915260065461ffff8082166060840152620100008204811660808401526401000000009091041660a082015290565b6040516102089190600060c082019050825182526020830151602083015260408301516040830152606083015161ffff80821660608501528060808601511660808501528060a08601511660a0850152505092915050565b600154600160a060020a0316331461048d5760405160e560020a62461bcd0281526004016101559061282f565b600054610100900460ff166104e75760405160e560020a62461bcd02815260206004820152601360248201527f6f646473646578206861732073746f70706564000000000000000000000000006044820152606401610155565b600460005460ff1660048111156105005761050061276b565b146105765760405160e560020a62461bcd02815260206004820152602360248201527f4d7573742068617665206d617463686d616b6564206265666f72652063616c6c60448201527f696e6700000000000000000000000000000000000000000000000000000000006064820152608401610155565b6007556000805460ff19169055565b60008260028111156105995761059961276b565b036105e95760405160e560020a62461bcd02815260206004820152601b60248201527f427579696e6720646972656374696f6e20697320756e6b6e6f776e00000000006044820152606401610155565b600360005460ff1660048111156106025761060261276b565b036106785760405160e560020a62461bcd02815260206004820152602260248201527f446f206e6f7420616363657074206f7264657273207768656e206d617463686960448201527f6e670000000000000000000000000000000000000000000000000000000000006064820152608401610155565b600061068c6106856114b4565b34906114cb565b9050600a8110156106e25760405160e560020a62461bcd02815260206004820152601b60248201527f4d696e696d756d207075726368617365206f66203130206f64647300000000006044820152606401610155565b80600360020160008282546106f7919061287f565b909155505060408051426020820152448183015281518082038301815261016082019092526060810182815233608083015260a082018490523460c083015260045460e08301528291600091906101000187600281111561075a5761075a61276b565b81526020015a815263ffffffff871660209182015233600090815260098252604081208054600181018255908252919020825192935083926008909202019081906107a59082612937565b5060208201518160010160006101000a815481600160a060020a030219169083600160a060020a0316021790555060408201518160020155606082015181600301556080820151816004015560a08201518160050160006101000a81548160ff0219169083600281111561081b5761081b61276b565b021790555060c0820151600682015560e0909101516007909101805463ffffffff191663ffffffff90921691909117905560018660028111156108605761086061276b565b03610ad457600a8054600181018255600091909152815182916008027fc65a7bb8d6351c1cf70c95a316cc6a92839c986682d98bc35f958f4883f9d2a8019081906108ab9082612937565b5060208201518160010160006101000a815481600160a060020a030219169083600160a060020a0316021790555060408201518160020155606082015181600301556080820151816004015560a08201518160050160006101000a81548160ff021916908360028111156109215761092161276b565b021790555060c0820151816006015560e08201518160070160006101000a81548163ffffffff021916908363ffffffff1602179055505050610acf600a805480602002602001604051908101604052809291908181526020016000905b82821015610ac65783829060005260206000209060080201604051806101000160405290816000820180546109b2906128ab565b80601f01602080910402602001604051908101604052809291908181526020018280546109de906128ab565b8015610a2b5780601f10610a0057610100808354040283529160200191610a2b565b820191906000526020600020905b815481529060010190602001808311610a0e57829003601f168201915b50505091835250506001820154600160a060020a0316602082015260028083015460408301526003830154606083015260048301546080830152600583015460a09092019160ff1690811115610a8357610a8361276b565b6002811115610a9457610a9461276b565b8152600682015460208083019190915260079092015463ffffffff16604090910152908252600192909201910161097e565b50505050611516565b610d4e565b6002866002811115610ae857610ae861276b565b03610d4e57600b8054600181018255600091909152815182916008027f0175b7a638427703f0dbe7bb9bbf987a2551717b34e79f33b5b1008d1fa01db901908190610b339082612937565b5060208201518160010160006101000a815481600160a060020a030219169083600160a060020a0316021790555060408201518160020155606082015181600301556080820151816004015560a08201518160050160006101000a81548160ff02191690836002811115610ba957610ba961276b565b021790555060c0820151816006015560e08201518160070160006101000a81548163ffffffff021916908363ffffffff1602179055505050610acf600b805480602002602001604051908101604052809291908181526020016000905b82821015610ac6578382906000526020600020906008020160405180610100016040529081600082018054610c3a906128ab565b80601f0160208091040260200160405190810160405280929190818152602001828054610c66906128ab565b8015610cb35780601f10610c8857610100808354040283529160200191610cb3565b820191906000526020600020905b815481529060010190602001808311610c9657829003601f168201915b50505091835250506001820154600160a060020a0316602082015260028083015460408301526003830154606083015260048301546080830152600583015460a09092019160ff1690811115610d0b57610d0b61276b565b6002811115610d1c57610d1c61276b565b8152600682015460208083019190915260079092015463ffffffff166040909101529082526001929092019101610c06565b7fbfce74231797fc4478cac74dea977032c066c814742601a5a6658a3723127b4b81604051610d7d9190612a4d565b60405180910390a1505050505050565b600154600160a060020a03163314610dba5760405160e560020a62461bcd0281526004016101559061282f565b600260005460ff166004811115610dd357610dd361276b565b14610e495760405160e560020a62461bcd02815260206004820152602160248201527f4d7573742068617665206c6f747465726564206265666f72652063616c6c696e60448201527f67000000000000000000000000000000000000000000000000000000000000006064820152608401610155565b600360005460ff166004811115610e6257610e6261276b565b50505b610e6d611141565b15610e7f57610e7a61160e565b610e65565b600460005460ff166004811115610e9857610e9861276b565b5050565b600154600090600160a060020a03163314610ecc5760405160e560020a62461bcd0281526004016101559061282f565b600054610100900460ff16610f265760405160e560020a62461bcd02815260206004820152601360248201527f6f646473646578206861732073746f70706564000000000000000000000000006044820152606401610155565b81600081604051602001610f3c91815260200190565b60408051601f19818403018152919052805160209091012060075490915081908114610fad5760405160e560020a62461bcd02815260206004820152601f60248201527f4c75636b794e756d62657220766572696669636174696f6e206661696c6564006044820152606401610155565b6000805460ff166004811115610fc557610fc561276b565b1461103b5760405160e560020a62461bcd02815260206004820152602160248201527f4d757374206861766520636f766572696e67206265666f72652063616c6c696e60448201527f67000000000000000000000000000000000000000000000000000000000000006064820152608401610155565b600160005460ff1660048111156110545761105461276b565b505061105f85611f2a565b6008805460ff1916600183600281111561107b5761107b61276b565b0217905550600260005460ff1660048111156110995761109961276b565b5050604080516080810190915260085460009190819060ff1660028111156110c3576110c361276b565b8152602001878152602001600160009054906101000a9004600160a060020a0316600160a060020a0316815260200160075481525090507ff52997b2a7357d8df9a9045621c15ba053a5f94dbcc70b3a9be3ab989564c588816040516111299190612ad6565b60405180910390a1505060085460ff16949350505050565b600154600090600160a060020a031633146111715760405160e560020a62461bcd0281526004016101559061282f565b600260005460ff16600481111561118a5761118a61276b565b146111955750600090565b61119d61261b565b600a54156112f257600a80546111b590600190612b16565b815481106111c5576111c5612b29565b9060005260206000209060080201604051806101000160405290816000820180546111ef906128ab565b80601f016020809104026020016040519081016040528092919081815260200182805461121b906128ab565b80156112685780601f1061123d57610100808354040283529160200191611268565b820191906000526020600020905b81548152906001019060200180831161124b57829003601f168201915b50505091835250506001820154600160a060020a0316602082015260028083015460408301526003830154606083015260048301546080830152600583015460a09092019160ff16908111156112c0576112c061276b565b60028111156112d1576112d161276b565b81526006820154602082015260079091015463ffffffff1660409091015290505b6112fa61261b565b600b541561144f57600b805461131290600190612b16565b8154811061132257611322612b29565b90600052602060002090600802016040518061010001604052908160008201805461134c906128ab565b80601f0160208091040260200160405190810160405280929190818152602001828054611378906128ab565b80156113c55780601f1061139a576101008083540402835291602001916113c5565b820191906000526020600020905b8154815290600101906020018083116113a857829003601f168201915b50505091835250506001820154600160a060020a0316602082015260028083015460408301526003830154606083015260048301546080830152600583015460a09092019160ff169081111561141d5761141d61276b565b600281111561142e5761142e61276b565b81526006820154602082015260079091015463ffffffff1660409091015290505b600160085460ff1660028111156114685761146861276b565b0361147d576080908101519101511115905090565b600260085460ff1660028111156114965761149661276b565b036114ab576080918201519101511115905090565b60009250505090565b6004546003546000916114c691612b42565b905090565b600061150d83836040518060400160405280601a81526020017f536166654d6174683a206469766973696f6e206279207a65726f000000000000815250612015565b90505b92915050565b60015b8151811015610e9857600082828151811061153657611536612b29565b60200260200101519050600060018361154f9190612b16565b90505b83818151811061156457611564612b29565b602002602001015160800151826080015110156115d15783818151811061158d5761158d612b29565b6020026020010151848260016115a3919061287f565b815181106115b3576115b3612b29565b602002602001018190525080806115c990612b59565b915050611552565b81846115de83600161287f565b815181106115ee576115ee612b29565b60200260200101819052505050808061160690612b70565b915050611519565b61161661267a565b600a54156117f457600a805461162e90600190612b16565b8154811061163e5761163e612b29565b906000526020600020906008020160405180610100016040529081600082018054611668906128ab565b80601f0160208091040260200160405190810160405280929190818152602001828054611694906128ab565b80156116e15780601f106116b6576101008083540402835291602001916116e1565b820191906000526020600020905b8154815290600101906020018083116116c457829003601f168201915b50505091835250506001820154600160a060020a0316602082015260028083015460408301526003830154606083015260048301546080830152600583015460a09092019160ff16908111156117395761173961276b565b600281111561174a5761174a61276b565b81526006820154602082015260079091015463ffffffff166040909101528152600a80548061177b5761177b612b89565b6000828152602081206000199092019160088302019061179b82826126fc565b5060018101805473ffffffffffffffffffffffffffffffffffffffff19169055600060028201819055600382018190556004820181905560058201805460ff191690556006820155600701805463ffffffff1916905590555b600b54156119d757600b805461180c90600190612b16565b8154811061181c5761181c612b29565b906000526020600020906008020160405180610100016040529081600082018054611846906128ab565b80601f0160208091040260200160405190810160405280929190818152602001828054611872906128ab565b80156118bf5780601f10611894576101008083540402835291602001916118bf565b820191906000526020600020905b8154815290600101906020018083116118a257829003601f168201915b50505091835250506001820154600160a060020a0316602082015260028083015460408301526003830154606083015260048301546080830152600583015460a09092019160ff16908111156119175761191761276b565b60028111156119285761192861276b565b8152600682015460208083019190915260079092015463ffffffff16604090910152820152600b80548061195e5761195e612b89565b6000828152602081206000199092019160088302019061197e82826126fc565b5060018101805473ffffffffffffffffffffffffffffffffffffffff19169055600060028201819055600382018190556004820181905560058201805460ff191690556006820155600701805463ffffffff1916905590555b6119f181600001516040015182602001516040015161204f565b60408201526020810151608090810151825190910151611a1d91600291611a1791612066565b906114cb565b6060820152604080820151825190910151611a37916120c8565b6080820152604080820151602083015190910151611a54916120c8565b60a0820152805160809081015190820151611a6e9161210a565b60c082015260208101516080015160a0820151611a8a9161210a565b60e082015260408051426020820152448183015281518082038301815260609091019091526101008201819052610120820152608081015115611bcd5760c081015181516060015260808101518151604001528051600a8054600181018255600091909152815160089091027fc65a7bb8d6351c1cf70c95a316cc6a92839c986682d98bc35f958f4883f9d2a801908190611b259082612937565b5060208201518160010160006101000a815481600160a060020a030219169083600160a060020a0316021790555060408201518160020155606082015181600301556080820151816004015560a08201518160050160006101000a81548160ff02191690836002811115611b9b57611b9b61276b565b021790555060c0820151600682015560e0909101516007909101805463ffffffff191663ffffffff9092169190911790555b60a081015115611ce35760e08101516020820180516060019190915260a082015181516040015251600b8054600181018255600091909152815160089091027f0175b7a638427703f0dbe7bb9bbf987a2551717b34e79f33b5b1008d1fa01db901908190611c3b9082612937565b5060208201518160010160006101000a815481600160a060020a030219169083600160a060020a0316021790555060408201518160020155606082015181600301556080820151816004015560a08201518160050160006101000a81548160ff02191690836002811115611cb157611cb161276b565b021790555060c0820151600682015560e0909101516007909101805463ffffffff191663ffffffff9092169190911790555b60608101516040820151611cf69161210a565b61014082015260c081015181516080810151604090910151611d239291611d1d919061210a565b906120c8565b61016082015260e081015160208201516080810151604090910151611d4d9291611d1d919061210a565b6101808201526101208101516101608201518251611d6c9291906121ab565b611d8581610120015182610180015183602001516121ab565b600160085460ff166002811115611d9e57611d9e61276b565b03611dc157611dbc81610120015182610140015183600001516122de565b611df8565b600260085460ff166002811115611dda57611dda61276b565b03611df857611dbc81610120015182610140015183602001516122de565b6060810151600455604081015160058054600090611e17908490612b16565b909155505060408051426020808301919091524482840152825180830384018152606092830184526101a08086018290526101c08087019283528551908101865291518252855151828401529185015151818501526101208086015182850152600154600160a060020a03166080808401919091528686015160a0808501919091529487015160c0808501919091529087015160e08085019190915294870151610100840152860151908201529184015161014080840191909152610160808601519084015261018080860151908401528401519082015290517fa5973330a0355cb9fe76000eab64af7398ac306b2fd623bd385a381967f5d66790611f1e908390612ba2565b60405180910390a15050565b600081815b600a54811015611f8a576000600a8281548110611f4e57611f4e612b29565b600091825260209091206007600890920201015463ffffffff169050611f74818461287f565b9250508080611f8290612b70565b915050611f2f565b5060005b600b54811015611fe9576000600b8281548110611fad57611fad612b29565b600091825260209091206007600890920201015463ffffffff169050611fd3818461287f565b9250508080611fe190612b70565b915050611f8e565b506000611ff7600283612cca565b90508060010361200b575060019392505050565b5060029392505050565b600081836120395760405160e560020a62461bcd0281526004016101559190612cde565b5060006120468486612cf1565b95945050505050565b60008183111561205f578161150d565b5090919050565b600080612073838561287f565b90508381101561150d5760405160e560020a62461bcd02815260206004820152601b60248201527f536166654d6174683a206164646974696f6e206f766572666c6f7700000000006044820152606401610155565b600061150d83836040518060400160405280601e81526020017f536166654d6174683a207375627472616374696f6e206f766572666c6f7700008152506125e7565b60008260000361211c57506000611510565b60006121288385612b42565b9050826121358583612cf1565b1461150d5760405160e560020a62461bcd02815260206004820152602160248201527f536166654d6174683a206d756c7469706c69636174696f6e206f766572666c6f60448201527f77000000000000000000000000000000000000000000000000000000000000006064820152608401610155565b60208181015160408051600080825293810191829052919291600160a060020a0384169186916121da91612d05565b60006040518083038185875af1925050503d8060008114612217576040519150601f19603f3d011682016040523d82523d6000602084013e61221c565b606091505b50509050806122405760405160e560020a62461bcd02815260040161015590612d21565b6000424460405160200161225e929190918252602082015260400190565b60408051601f1981840301815260a08301825280835286516020840152828201899052600160a060020a03861660608401526080830188905290519092508291907f41a2c219f9ce41e35d569f8344b9c242cb02d5f54a4395610d3f44eb2c142e9f906122cc908390612d58565b60405180910390a15050505050505050565b60208101516006546000906122ff90606490611a1790879061ffff1661210a565b9050600061230d85836120c8565b60065490915060009061233290606490611a1790869062010000900461ffff1661210a565b9050600061234084836120c8565b6040805160008082526020820192839052929350600160a060020a03881691869161236a91612d05565b60006040518083038185875af1925050503d80600081146123a7576040519150601f19603f3d011682016040523d82523d6000602084013e6123ac565b606091505b50509050806123d05760405160e560020a62461bcd02815260040161015590612d21565b600154604080516000808252602082019283905292600160a060020a03169186916123fa91612d05565b60006040518083038185875af1925050503d8060008114612437576040519150601f19603f3d011682016040523d82523d6000602084013e61243c565b606091505b50509050806124605760405160e560020a62461bcd02815260040161015590612d21565b60008054604080518381526020810190915262010000909104600160a060020a03169085906040516124929190612d05565b60006040518083038185875af1925050503d80600081146124cf576040519150601f19603f3d011682016040523d82523d6000602084013e6124d4565b606091505b50509050806124f85760405160e560020a62461bcd02815260040161015590612d21565b60004244604051602001612516929190918252602082015260400190565b60408051601f19818403018152610180830182528083528c5160208401528282018f9052600160a060020a038c16606084015260065461ffff8082166080860152620100008204811660a08601526401000000009091041660c084015260e083018e905261010083018a905261012083018b90526101408301899052610160830188905290519092508291907fc876b9ea3ed48808367dd8a82176a0796c1bf86672548fd2ef59eb29e5ff3578906125cf908390612dda565b60405180910390a15050505050505050505050505050565b6000818484111561260e5760405160e560020a62461bcd0281526004016101559190612cde565b5060006120468486612b16565b604051806101000160405280606081526020016000600160a060020a03168152602001600081526020016000815260200160008152602001600060028111156126665761266661276b565b815260006020820181905260409091015290565b604051806101e0016040528061268e61261b565b815260200161269b61261b565b8152602001600081526020016000815260200160008152602001600081526020016000815260200160008152602001606081526020016060815260200160008152602001600081526020016000815260200160608152602001606081525090565b508054612708906128ab565b6000825580601f10612718575050565b601f0160209004906000526020600020908101906127369190612739565b50565b5b8082111561274e576000815560010161273a565b5090565b60006020828403121561276457600080fd5b5035919050565b60e060020a634e487b7102600052602160045260246000fd5b60208101600583106127985761279861276b565b91905290565b6000602082840312156127b057600080fd5b8135600160a060020a038116811461150d57600080fd5b600080604083850312156127da57600080fd5b8235600381106127e957600080fd5b9150602083013563ffffffff8116811461280257600080fd5b809150509250929050565b6003811061281d5761281d61276b565b9052565b60208101611510828461280d565b6020808252601a908201527f4f6e6c792062726f6b65722063616e2063616c6c20746869732e000000000000604082015260600190565b60e060020a634e487b7102600052601160045260246000fd5b8082018082111561151057611510612866565b60e060020a634e487b7102600052604160045260246000fd5b6002810460018216806128bf57607f821691505b6020821081036128e25760e060020a634e487b7102600052602260045260246000fd5b50919050565b601f821115612932576000818152602081206020601f8601048101602086101561290f5750805b6020601f860104820191505b8181101561292e5782815560010161291b565b5050505b505050565b815167ffffffffffffffff81111561295157612951612892565b6129658161295f84546128ab565b846128e8565b602080601f83116001811461299e57600084156129825750858301515b60028086026008870290910a600019041982161786555061292e565b600085815260208120601f198616915b828110156129cd578886015182559484019460019091019084016129ae565b50858210156129ed57878501516008601f88160260020a60001904191681555b5050505050600202600101905550565b60005b83811015612a18578181015183820152602001612a00565b50506000910152565b60008151808452612a398160208601602086016129fd565b601f01601f19169290920160200192915050565b6020815260008251610100806020850152612a6c610120850183612a21565b9150600160a060020a0360208601511660408501526040850151606085015260608501516080850152608085015160a085015260a0850151612ab160c086018261280d565b5060c085015160e085015263ffffffff60e08601511681850152508091505092915050565b6000608082019050612ae982845161280d565b60208301516020830152600160a060020a0360408401511660408301526060830151606083015292915050565b8181038181111561151057611510612866565b60e060020a634e487b7102600052603260045260246000fd5b808202811582820484141761151057611510612866565b600081612b6857612b68612866565b506000190190565b600060018201612b8257612b82612866565b5060010190565b60e060020a634e487b7102600052603160045260246000fd5b60208152600082516101c0806020850152612bc16101e0850183612a21565b91506020850151601f1980868503016040870152612bdf8483612a21565b93506040870151915080868503016060870152612bfc8483612a21565b9350606087015191508086850301608087015250612c1a8382612a21565b9250506080850151612c3760a0860182600160a060020a03169052565b5060a085015160c08581019190915285015160e08086019190915285015161010080860191909152850151610120808601919091528501516101408086019190915285015161016080860191909152850151610180808601919091528501516101a080860191909152909401519390920192909252919050565b60e060020a634e487b7102600052601260045260246000fd5b600082612cd957612cd9612cb1565b500690565b60208152600061150d6020830184612a21565b600082612d0057612d00612cb1565b500490565b60008251612d178184602087016129fd565b9190910192915050565b60208082526013908201527f4554485f5452414e534645525f4641494c454400000000000000000000000000604082015260600190565b602081526000825160a06020840152612d7460c0840182612a21565b90506020840151601f1980858403016040860152612d928383612a21565b9250604086015191508085840301606086015250612db08282612a21565b915050600160a060020a036060850151166080840152608084015160a08401528091505092915050565b6020815260008251610180806020850152612df96101a0850183612a21565b91506020850151601f1980868503016040870152612e178483612a21565b9350604087015191508086850301606087015250612e358382612a21565b9250506060850151612e526080860182600160a060020a03169052565b50608085015161ffff811660a08601525060a085015161ffff811660c08601525060c085015161ffff811660e08601525060e08501516101008581019190915285015161012080860191909152850151610140808601919091528501516101608086019190915290940151939092019290925291905056fea26469706673582212208c3d7cee78349bcac1d0136b151ca4a55754c80c53af2c4143179eb42516531e64736f6c63430008130033",
  "immutableReferences": {},
  "source": "// SPDX-License-Identifier: MIT\npragma solidity >=0.4.22 <0.8.20;\nimport \"./IOddsdex.sol\";\nimport \"./SafeMath.sol\";\n\ncontract OddsdexContract is IOddsdexContract {\n    using SafeMath for *;\n\n    OddsdexState private state;\n    bool private running;\n    address private root;\n    address private broker;\n    address private parent;\n    BulletinBoard private bulletinBoard;\n    uint256 private coverHash;\n    CoinDirection private winningDirection;\n    mapping(address => StakeBill[]) private stakeBills;\n    StakeBill[] private buyFrontBillQueue;\n    StakeBill[] private buyBackBillQueue;\n\n    constructor(address _root, address _broker) {\n        parent = msg.sender;\n        root = _root;\n        broker = _broker;\n        uint256 oddunit = 0.0001 * (10 ** 18);\n        uint256 initialPrice = 1;\n        uint16 kickbackRate = 20;\n        uint16 brokerageRate = 70;\n        uint16 taxRate = 100 - brokerageRate;\n        bulletinBoard = BulletinBoard(\n            oddunit,\n            initialPrice,\n            0,\n            kickbackRate,\n            brokerageRate,\n            taxRate\n        );\n    }\n\n    modifier onlyRoot() {\n        require(msg.sender == root, \"Only root can call this.\");\n        _;\n    }\n\n    modifier onlyBroker() {\n        require(msg.sender == broker, \"Only broker can call this.\");\n        _;\n    }\n    modifier mustRunning() {\n        require(running, \"oddsdex has stopped\");\n        _;\n    }\n    modifier checkLuckyNumberByBrokerHash(uint256 luckyNumber) {\n        bytes32 packed = keccak256(abi.encodePacked(luckyNumber));\n        uint256 _hash = uint256(packed);\n        require(_hash == coverHash, \"LuckyNumber verification failed\");\n        _;\n    }\n\n    function getState() public view override returns (OddsdexState) {\n        return state;\n    }\n\n    function getWinningDirection()\n        public\n        view\n        override\n        returns (CoinDirection)\n    {\n        return winningDirection;\n    }\n\n    function getWeiPrice() public view override returns (uint256) {\n        return bulletinBoard.oddunit * bulletinBoard.price;\n    }\n\n    function getBulletinBoard()\n        public\n        view\n        override\n        returns (BulletinBoard memory)\n    {\n        return bulletinBoard;\n    }\n\n    function isRunning() public view override returns (bool) {\n        return running;\n    }\n\n    function stop() public override {\n        running = false;\n    }\n\n    function run() public override {\n        running = true;\n    }\n\n    function getRoot() public view override returns (address) {\n        return root;\n    }\n\n    function getBroker() public view override returns (address) {\n        return broker;\n    }\n\n    function oddBalanceOf(address _player) public override returns (uint256) {}\n\n    function cover(uint256 _hash) public override onlyBroker mustRunning {\n        require(\n            state == OddsdexState.matchmaked,\n            \"Must have matchmaked before calling\"\n        );\n        coverHash = _hash;\n        state = OddsdexState.covering;\n    }\n\n    function lottery(\n        uint256 _luckyNumber\n    )\n        public\n        override\n        onlyBroker\n        mustRunning\n        checkLuckyNumberByBrokerHash(_luckyNumber)\n        returns (CoinDirection)\n    {\n        require(\n            state == OddsdexState.covering,\n            \"Must have covering before calling\"\n        );\n        state == OddsdexState.lottering;\n        winningDirection = _calculateWinning(_luckyNumber);\n        state == OddsdexState.lottered;\n\n        LotteryMessage memory message = LotteryMessage(\n            winningDirection,\n            _luckyNumber,\n            broker,\n            coverHash\n        );\n\n        emit OnLotteryEvent(message);\n\n        return winningDirection;\n    }\n\n    function _calculateWinning(\n        uint256 _luckyNumber\n    ) internal view returns (CoinDirection) {\n        uint total = _luckyNumber;\n        for (uint i = 0; i < buyFrontBillQueue.length; i++) {\n            uint32 luckyNumberOfPlayer = buyFrontBillQueue[i].luckyNumber;\n            total += luckyNumberOfPlayer;\n        }\n        for (uint i = 0; i < buyBackBillQueue.length; i++) {\n            uint32 luckyNumberOfPlayer = buyBackBillQueue[i].luckyNumber;\n            total += luckyNumberOfPlayer;\n        }\n        uint v = total % 2;\n        if (v == 1) {\n            return CoinDirection.front;\n        } else {\n            return CoinDirection.back;\n        }\n    }\n\n    function canMatchmaking() public view override onlyBroker returns (bool) {\n        if (state != OddsdexState.lottered) {\n            return false;\n        }\n        StakeBill memory tailF;\n        if (buyFrontBillQueue.length > 0) {\n            tailF = buyFrontBillQueue[buyFrontBillQueue.length - 1];\n        }\n        StakeBill memory tailB;\n        if (buyBackBillQueue.length > 0) {\n            tailB = buyBackBillQueue[buyBackBillQueue.length - 1];\n        }\n\n        if (winningDirection == CoinDirection.front) {\n            return tailF.buyPrice <= tailB.buyPrice;\n        } else if (winningDirection == CoinDirection.back) {\n            return tailB.buyPrice <= tailF.buyPrice;\n        } else {\n            return false;\n        }\n    }\n\n    function matchmake() public override onlyBroker {\n        require(\n            state == OddsdexState.lottered,\n            \"Must have lottered before calling\"\n        );\n        state == OddsdexState.matchmaking;\n        while (canMatchmaking()) {\n            _matchmakePairBill();\n        }\n        state == OddsdexState.matchmaked;\n    }\n\n    struct LocalVar {\n        StakeBill tailF;\n        StakeBill tailB;\n        uint256 dealOdds;\n        uint256 dealPrice;\n        uint256 tailFOdds;\n        uint256 tailBOdds;\n        uint256 tailFCostOnBill;\n        uint256 tailBCostOnBill;\n        bytes idBytes;\n        string mtn;\n        uint256 prize;\n        uint256 tailFReturnCost;\n        uint256 tailBReturnCost;\n        bytes idNewBytes;\n        string id;\n    }\n\n    function _matchmakePairBill() internal {\n        LocalVar memory lvar;\n        //\n        if (buyFrontBillQueue.length > 0) {\n            lvar.tailF = buyFrontBillQueue[buyFrontBillQueue.length - 1];\n            buyFrontBillQueue.pop();\n        }\n\n        if (buyBackBillQueue.length > 0) {\n            lvar.tailB = buyBackBillQueue[buyBackBillQueue.length - 1];\n            buyBackBillQueue.pop();\n        }\n\n        lvar.dealOdds = _min(lvar.tailF.odds, lvar.tailB.odds);\n        lvar.dealPrice = (lvar.tailF.buyPrice.add(lvar.tailB.buyPrice)).div(2);\n        lvar.tailFOdds = lvar.tailF.odds.sub(lvar.dealOdds);\n        lvar.tailBOdds = lvar.tailB.odds.sub(lvar.dealOdds);\n        lvar.tailFCostOnBill = lvar.tailFOdds.mul(lvar.tailF.buyPrice);\n        lvar.tailBCostOnBill = lvar.tailBOdds.mul(lvar.tailB.buyPrice);\n\n        lvar.idBytes = abi.encodePacked(block.timestamp, block.prevrandao);\n        //mtn is Matchmaking transaction number\n        lvar.mtn = string(lvar.idBytes);\n\n        if (lvar.tailFOdds > 0) {\n            lvar.tailF.costs = lvar.tailFCostOnBill;\n            lvar.tailF.odds = lvar.tailFOdds;\n            buyFrontBillQueue.push(lvar.tailF);\n        }\n        if (lvar.tailBOdds > 0) {\n            lvar.tailB.costs = lvar.tailBCostOnBill;\n            lvar.tailB.odds = lvar.tailBOdds;\n            buyBackBillQueue.push(lvar.tailB);\n        }\n\n        lvar.prize = lvar.dealOdds.mul(lvar.dealPrice);\n        lvar.tailFReturnCost = lvar.tailF.odds.mul(lvar.tailF.buyPrice).sub(\n            lvar.tailFCostOnBill\n        );\n        lvar.tailBReturnCost = lvar.tailB.odds.mul(lvar.tailB.buyPrice).sub(\n            lvar.tailBCostOnBill\n        );\n\n        _returnCost(lvar.mtn, lvar.tailFReturnCost, lvar.tailF);\n        _returnCost(lvar.mtn, lvar.tailBReturnCost, lvar.tailB);\n\n        if (winningDirection == CoinDirection.front) {\n            _splitPrize(lvar.mtn, lvar.prize, lvar.tailF);\n        } else if (winningDirection == CoinDirection.back) {\n            _splitPrize(lvar.mtn, lvar.prize, lvar.tailB);\n        } else {}\n\n        bulletinBoard.price = lvar.dealPrice;\n        bulletinBoard.odds -= lvar.dealOdds;\n\n        lvar.idNewBytes = abi.encodePacked(block.timestamp, block.prevrandao);\n        lvar.id = string(lvar.idNewBytes);\n\n        MatchmakingBill memory _mbill = MatchmakingBill(\n            lvar.id,\n            lvar.tailF.id,\n            lvar.tailB.id,\n            lvar.mtn,\n            broker,\n            lvar.dealOdds,\n            lvar.dealPrice,\n            lvar.tailFOdds,\n            lvar.tailBOdds,\n            lvar.tailFCostOnBill,\n            lvar.tailBCostOnBill,\n            lvar.tailFReturnCost,\n            lvar.tailBReturnCost,\n            lvar.prize\n        );\n        emit OnMatchMakingEvent(_mbill);\n    }\n\n    function _returnCost(\n        string memory mtn,\n        uint256 cost,\n        StakeBill memory bill\n    ) internal {\n        address player = bill.owner;\n        (bool success, ) = payable(player).call{value: cost}(new bytes(0));\n        require(success, \"ETH_TRANSFER_FAILED\");\n\n        bytes memory idBytes = abi.encodePacked(\n            block.timestamp,\n            block.prevrandao\n        );\n        string memory id = string(idBytes);\n        ReturnBill memory _rbill = ReturnBill(id, bill.id, mtn, player, cost);\n        emit OnReturnBillEvent(_rbill);\n    }\n\n    function _splitPrize(\n        string memory mtn,\n        uint256 prize,\n        StakeBill memory bill\n    ) internal {\n        address player = bill.owner;\n        uint256 kickback = prize.mul(bulletinBoard.kickbackRate).div(100);\n        uint256 bonusOfPlayer = prize.sub(kickback);\n        uint256 brokerage = kickback.mul(bulletinBoard.brokerageRate).div(100);\n        uint256 tax = kickback.sub(brokerage);\n\n        (bool success, ) = payable(player).call{value: bonusOfPlayer}(\n            new bytes(0)\n        );\n        require(success, \"ETH_TRANSFER_FAILED\");\n        (bool success1, ) = payable(broker).call{value: brokerage}(\n            new bytes(0)\n        );\n        require(success1, \"ETH_TRANSFER_FAILED\");\n        (bool success2, ) = payable(root).call{value: tax}(new bytes(0));\n        require(success2, \"ETH_TRANSFER_FAILED\");\n\n        bytes memory idBytes = abi.encodePacked(\n            block.timestamp,\n            block.prevrandao\n        );\n        string memory id = string(idBytes);\n        SplitBill memory _sbill = SplitBill(\n            id,\n            bill.id,\n            mtn,\n            player,\n            bulletinBoard.kickbackRate,\n            bulletinBoard.brokerageRate,\n            bulletinBoard.taxRate,\n            prize,\n            bonusOfPlayer,\n            kickback,\n            brokerage,\n            tax\n        );\n        emit OnSplitBillEvent(_sbill);\n    }\n\n    function _min(uint256 a, uint256 b) internal pure returns (uint256) {\n        return a <= b ? a : b;\n    }\n\n    fallback() external payable {\n        require(false, \"No other calls supported\");\n    }\n\n    receive() external payable {\n        require(false, \"No other calls supported\");\n    }\n\n    function stake(\n        CoinDirection buyDirection,\n        uint32 luckyNumber\n    ) external payable override {\n        require(\n            buyDirection != CoinDirection.unknown,\n            \"Buying direction is unknown\"\n        );\n        require(\n            state != OddsdexState.matchmaking,\n            \"Do not accept orders when matching\"\n        );\n\n        uint256 odds = msg.value.div(getWeiPrice());\n        require(odds >= 10, \"Minimum purchase of 10 odds\");\n\n        bulletinBoard.odds += odds;\n\n        bytes memory idBytes = abi.encodePacked(\n            block.timestamp,\n            block.prevrandao\n        );\n        string memory id = string(idBytes);\n        StakeBill memory bill = StakeBill(\n            id,\n            msg.sender,\n            odds,\n            msg.value,\n            bulletinBoard.price,\n            buyDirection,\n            gasleft(),\n            luckyNumber\n        );\n\n        stakeBills[msg.sender].push(bill);\n\n        if (buyDirection == CoinDirection.front) {\n            buyFrontBillQueue.push(bill);\n            _insertionSort(buyFrontBillQueue);\n        } else if (buyDirection == CoinDirection.back) {\n            buyBackBillQueue.push(bill);\n            _insertionSort(buyBackBillQueue);\n        } else {}\n\n        emit OnStakeBillEvent(bill);\n    }\n\n    function _insertionSort(StakeBill[] memory a) internal pure {\n        for (uint i = 1; i < a.length; i++) {\n            StakeBill memory temp = a[i];\n            uint j;\n            for (j = i - 1; j >= 0 && temp.buyPrice < a[j].buyPrice; j--)\n                a[j + 1] = a[j];\n            a[j + 1] = temp;\n        }\n    }\n}\n",
  "sourcePath": "/Users/cj/games/game-oddsdex/contracts/OddsdexContract.sol",
  "compiler": {
    "name": "solc",
    "version": "0.8.19+commit.7dd6d404.Emscripten.clang"
  },
  "schemaVersion": "3.4.14",
  "updatedAt": "2023-08-24T00:14:53.292Z",
  "networkType": "ethereum",
  "devdoc": {
    "kind": "dev",
    "methods": {},
    "version": 1
  },
  "userdoc": {
    "kind": "user",
    "methods": {},
    "version": 1
  }
}