{
  "contractName": "OddsdexContract",
  "abi": [
    {
      "inputs": [
        {
          "internalType": "address",
          "name": "_root",
          "type": "address"
        },
        {
          "internalType": "address",
          "name": "_broker",
          "type": "address"
        }
      ],
      "stateMutability": "nonpayable",
      "type": "constructor"
    },
    {
      "anonymous": false,
      "inputs": [
        {
          "components": [
            {
              "internalType": "enum CoinDirection",
              "name": "winningDirection",
              "type": "uint8"
            },
            {
              "internalType": "uint256",
              "name": "luckyNumber",
              "type": "uint256"
            },
            {
              "internalType": "address",
              "name": "broker",
              "type": "address"
            },
            {
              "internalType": "uint256",
              "name": "coverHash",
              "type": "uint256"
            }
          ],
          "indexed": false,
          "internalType": "struct LotteryMessage",
          "name": "message",
          "type": "tuple"
        }
      ],
      "name": "OnLotteryEvent",
      "type": "event"
    },
    {
      "anonymous": false,
      "inputs": [
        {
          "components": [
            {
              "internalType": "string",
              "name": "id",
              "type": "string"
            },
            {
              "internalType": "string",
              "name": "refFId",
              "type": "string"
            },
            {
              "internalType": "string",
              "name": "refBId",
              "type": "string"
            },
            {
              "internalType": "string",
              "name": "mtn",
              "type": "string"
            },
            {
              "internalType": "address",
              "name": "broker",
              "type": "address"
            },
            {
              "internalType": "uint256",
              "name": "dealOdds",
              "type": "uint256"
            },
            {
              "internalType": "uint256",
              "name": "dealPrice",
              "type": "uint256"
            },
            {
              "internalType": "uint256",
              "name": "tailFOdds",
              "type": "uint256"
            },
            {
              "internalType": "uint256",
              "name": "tailBOdds",
              "type": "uint256"
            },
            {
              "internalType": "uint256",
              "name": "tailFCostOnBill",
              "type": "uint256"
            },
            {
              "internalType": "uint256",
              "name": "tailBCostOnBill",
              "type": "uint256"
            },
            {
              "internalType": "uint256",
              "name": "tailFRefundCosts",
              "type": "uint256"
            },
            {
              "internalType": "uint256",
              "name": "tailBRefundCosts",
              "type": "uint256"
            },
            {
              "internalType": "uint256",
              "name": "prize",
              "type": "uint256"
            }
          ],
          "indexed": false,
          "internalType": "struct MatchmakingBill",
          "name": "bill",
          "type": "tuple"
        }
      ],
      "name": "OnMatchMakingEvent",
      "type": "event"
    },
    {
      "anonymous": false,
      "inputs": [
        {
          "components": [
            {
              "internalType": "string",
              "name": "id",
              "type": "string"
            },
            {
              "internalType": "string",
              "name": "refId",
              "type": "string"
            },
            {
              "internalType": "string",
              "name": "mtn",
              "type": "string"
            },
            {
              "internalType": "address",
              "name": "owner",
              "type": "address"
            },
            {
              "internalType": "uint256",
              "name": "costs",
              "type": "uint256"
            }
          ],
          "indexed": false,
          "internalType": "struct RefundBill",
          "name": "bill",
          "type": "tuple"
        }
      ],
      "name": "OnRefundBillEvent",
      "type": "event"
    },
    {
      "anonymous": false,
      "inputs": [
        {
          "components": [
            {
              "internalType": "string",
              "name": "id",
              "type": "string"
            },
            {
              "internalType": "string",
              "name": "refId",
              "type": "string"
            },
            {
              "internalType": "string",
              "name": "mtn",
              "type": "string"
            },
            {
              "internalType": "address",
              "name": "owner",
              "type": "address"
            },
            {
              "internalType": "uint16",
              "name": "kickbackRate",
              "type": "uint16"
            },
            {
              "internalType": "uint16",
              "name": "brokerageRate",
              "type": "uint16"
            },
            {
              "internalType": "uint16",
              "name": "taxRate",
              "type": "uint16"
            },
            {
              "internalType": "uint256",
              "name": "prize",
              "type": "uint256"
            },
            {
              "internalType": "uint256",
              "name": "bonus",
              "type": "uint256"
            },
            {
              "internalType": "uint256",
              "name": "kickback",
              "type": "uint256"
            },
            {
              "internalType": "uint256",
              "name": "brokerage",
              "type": "uint256"
            },
            {
              "internalType": "uint256",
              "name": "tax",
              "type": "uint256"
            }
          ],
          "indexed": false,
          "internalType": "struct SplitBill",
          "name": "bill",
          "type": "tuple"
        }
      ],
      "name": "OnSplitBillEvent",
      "type": "event"
    },
    {
      "anonymous": false,
      "inputs": [
        {
          "components": [
            {
              "internalType": "string",
              "name": "id",
              "type": "string"
            },
            {
              "internalType": "address",
              "name": "owner",
              "type": "address"
            },
            {
              "internalType": "uint256",
              "name": "odds",
              "type": "uint256"
            },
            {
              "internalType": "uint256",
              "name": "costs",
              "type": "uint256"
            },
            {
              "internalType": "uint256",
              "name": "buyPrice",
              "type": "uint256"
            },
            {
              "internalType": "enum CoinDirection",
              "name": "buyDirection",
              "type": "uint8"
            },
            {
              "internalType": "uint256",
              "name": "gas",
              "type": "uint256"
            },
            {
              "internalType": "uint32",
              "name": "luckyNumber",
              "type": "uint32"
            }
          ],
          "indexed": false,
          "internalType": "struct StakeBill",
          "name": "bill",
          "type": "tuple"
        }
      ],
      "name": "OnStakeBillEvent",
      "type": "event"
    },
    {
      "stateMutability": "payable",
      "type": "fallback",
      "payable": true
    },
    {
      "stateMutability": "payable",
      "type": "receive",
      "payable": true
    },
    {
      "inputs": [],
      "name": "getState",
      "outputs": [
        {
          "internalType": "enum OddsdexState",
          "name": "",
          "type": "uint8"
        }
      ],
      "stateMutability": "view",
      "type": "function",
      "constant": true
    },
    {
      "inputs": [],
      "name": "getWinningDirection",
      "outputs": [
        {
          "internalType": "enum CoinDirection",
          "name": "",
          "type": "uint8"
        }
      ],
      "stateMutability": "view",
      "type": "function",
      "constant": true
    },
    {
      "inputs": [],
      "name": "getWeiPrice",
      "outputs": [
        {
          "internalType": "uint256",
          "name": "",
          "type": "uint256"
        }
      ],
      "stateMutability": "view",
      "type": "function",
      "constant": true
    },
    {
      "inputs": [],
      "name": "getBulletinBoard",
      "outputs": [
        {
          "components": [
            {
              "internalType": "uint256",
              "name": "oddunit",
              "type": "uint256"
            },
            {
              "internalType": "uint256",
              "name": "price",
              "type": "uint256"
            },
            {
              "internalType": "uint256",
              "name": "odds",
              "type": "uint256"
            },
            {
              "internalType": "uint16",
              "name": "kickbackRate",
              "type": "uint16"
            },
            {
              "internalType": "uint16",
              "name": "brokerageRate",
              "type": "uint16"
            },
            {
              "internalType": "uint16",
              "name": "taxRate",
              "type": "uint16"
            }
          ],
          "internalType": "struct BulletinBoard",
          "name": "",
          "type": "tuple"
        }
      ],
      "stateMutability": "view",
      "type": "function",
      "constant": true
    },
    {
      "inputs": [],
      "name": "isRunning",
      "outputs": [
        {
          "internalType": "bool",
          "name": "",
          "type": "bool"
        }
      ],
      "stateMutability": "view",
      "type": "function",
      "constant": true
    },
    {
      "inputs": [],
      "name": "stop",
      "outputs": [],
      "stateMutability": "nonpayable",
      "type": "function"
    },
    {
      "inputs": [],
      "name": "run",
      "outputs": [],
      "stateMutability": "nonpayable",
      "type": "function"
    },
    {
      "inputs": [],
      "name": "getRoot",
      "outputs": [
        {
          "internalType": "address",
          "name": "",
          "type": "address"
        }
      ],
      "stateMutability": "view",
      "type": "function",
      "constant": true
    },
    {
      "inputs": [],
      "name": "getBroker",
      "outputs": [
        {
          "internalType": "address",
          "name": "",
          "type": "address"
        }
      ],
      "stateMutability": "view",
      "type": "function",
      "constant": true
    },
    {
      "inputs": [
        {
          "internalType": "address",
          "name": "_player",
          "type": "address"
        }
      ],
      "name": "costOnBillOfPlayer",
      "outputs": [
        {
          "internalType": "uint256",
          "name": "",
          "type": "uint256"
        }
      ],
      "stateMutability": "view",
      "type": "function",
      "constant": true
    },
    {
      "inputs": [
        {
          "internalType": "uint256",
          "name": "_hash",
          "type": "uint256"
        }
      ],
      "name": "cover",
      "outputs": [],
      "stateMutability": "nonpayable",
      "type": "function"
    },
    {
      "inputs": [
        {
          "internalType": "uint256",
          "name": "_luckyNumber",
          "type": "uint256"
        }
      ],
      "name": "lottery",
      "outputs": [
        {
          "internalType": "enum CoinDirection",
          "name": "",
          "type": "uint8"
        }
      ],
      "stateMutability": "nonpayable",
      "type": "function"
    },
    {
      "inputs": [],
      "name": "canMatchmaking",
      "outputs": [
        {
          "internalType": "bool",
          "name": "",
          "type": "bool"
        }
      ],
      "stateMutability": "view",
      "type": "function",
      "constant": true
    },
    {
      "inputs": [],
      "name": "matchmake",
      "outputs": [],
      "stateMutability": "nonpayable",
      "type": "function"
    },
    {
      "inputs": [
        {
          "internalType": "enum CoinDirection",
          "name": "buyDirection",
          "type": "uint8"
        },
        {
          "internalType": "uint32",
          "name": "luckyNumber",
          "type": "uint32"
        }
      ],
      "name": "stake",
      "outputs": [],
      "stateMutability": "payable",
      "type": "function",
      "payable": true
    }
  ],
  "bytecode": "0x60806040523480156200001157600080fd5b50604051620032bc380380620032bc83398101604081905262000034916200014d565b60028054600160a060020a0319908116331790915560008054600160a060020a0385811662010000026201000060b060020a03199092169190911782556001805491851691909316178255655af3107a400091906014906046906200009b82606462000185565b6040805160c08101825287815260208101879052600091810182905261ffff95861660608201819052948616608082018190529290951660a09095018590526003969096556004949094555060058490556006805463ffffffff1916909117620100009093029290921765ffff000000001916640100000000909102179055805461ffff191661010417905550620001cf9050565b8051600160a060020a03811681146200014857600080fd5b919050565b600080604083850312156200016157600080fd5b6200016c8362000130565b91506200017c6020840162000130565b90509250929050565b61ffff828116828216039080821115620001c8577f4e487b7100000000000000000000000000000000000000000000000000000000600052601160045260246000fd5b5092915050565b6130dd80620001df6000396000f3fe608060405260043610610109576000357c0100000000000000000000000000000000000000000000000000000000900480638d1d5b3f116100a7578063c53f267011610076578063c53f26701461032b578063d1314ee014610340578063d63d12dc1461035e578063ecb891e11461037657610160565b80638d1d5b3f146102b3578063a57d1560146102c8578063b4540797146102f5578063c04062261461030a57610160565b80632014e5d1116100e35780632014e5d1146102115780635ca1e1651461023a57806365bbe6941461027257806382dbe015146102a057610160565b806307da68f5146101ab57806314a1362b146101c85780631865c57d146101e857610160565b366101605760405160e560020a62461bcd02815260206004820152601860248201527f4e6f206f746865722063616c6c7320737570706f72746564000000000000000060448201526064015b60405180910390fd5b005b60405160e560020a62461bcd02815260206004820152601860248201527f4e6f206f746865722063616c6c7320737570706f7274656400000000000000006044820152606401610155565b3480156101b757600080fd5b5061015e6000805461ff0019169055565b3480156101d457600080fd5b5061015e6101e336600461292f565b61045f565b3480156101f457600080fd5b5060005460ff166040516102089190612961565b60405180910390f35b34801561021d57600080fd5b50600054610100900460ff165b6040519015158152602001610208565b34801561024657600080fd5b50600054620100009004600160a060020a03165b604051600160a060020a039091168152602001610208565b34801561027e57600080fd5b5061029261028d36600461297b565b610584565b604051908152602001610208565b61015e6102ae3660046129a4565b610762565b3480156102bf57600080fd5b5061015e610f6a565b3480156102d457600080fd5b506102e86102e336600461292f565b611079565b60405161020891906129fe565b34801561030157600080fd5b5061022a61131e565b34801561031657600080fd5b5061015e6000805461ff001916610100179055565b34801561033757600080fd5b50610292611691565b34801561034c57600080fd5b50600154600160a060020a031661025a565b34801561036a57600080fd5b5060085460ff166102e8565b34801561038257600080fd5b506104076040805160c081018252600080825260208201819052918101829052606081018290526080810182905260a0810191909152506040805160c081018252600354815260045460208201526005549181019190915260065461ffff8082166060840152620100008204811660808401526401000000009091041660a082015290565b6040516102089190600060c082019050825182526020830151602083015260408301516040830152606083015161ffff80821660608501528060808601511660808501528060a08601511660a0850152505092915050565b600154600160a060020a0316331461048c5760405160e560020a62461bcd02815260040161015590612a0c565b600054610100900460ff166104e65760405160e560020a62461bcd02815260206004820152601360248201527f6f646473646578206861732073746f70706564000000000000000000000000006044820152606401610155565b600460005460ff1660048111156104ff576104ff612948565b146105755760405160e560020a62461bcd02815260206004820152602360248201527f4d7573742068617665206d617463686d616b6564206265666f72652063616c6c60448201527f696e6700000000000000000000000000000000000000000000000000000000006064820152608401610155565b6007556000805460ff19169055565b600160a060020a038116600090815260096020908152604080832080548251818502810185019093528083528493849084015b828210156106ff5783829060005260206000209060080201604051806101000160405290816000820180546105eb90612a43565b80601f016020809104026020016040519081016040528092919081815260200182805461061790612a43565b80156106645780601f1061063957610100808354040283529160200191610664565b820191906000526020600020905b81548152906001019060200180831161064757829003601f168201915b50505091835250506001820154600160a060020a0316602082015260028083015460408301526003830154606083015260048301546080830152600583015460a09092019160ff16908111156106bc576106bc612948565b60028111156106cd576106cd612948565b8152600682015460208083019190915260079092015463ffffffff1660409091015290825260019290920191016105b7565b505050509050600080600090505b825181101561075a57600083828151811061072a5761072a612a80565b602002602001015190508060600151836107449190612ab2565b925050808061075290612ac5565b91505061070d565b509392505050565b600082600281111561077657610776612948565b036107c65760405160e560020a62461bcd02815260206004820152601b60248201527f427579696e6720646972656374696f6e20697320756e6b6e6f776e00000000006044820152606401610155565b600360005460ff1660048111156107df576107df612948565b036108555760405160e560020a62461bcd02815260206004820152602260248201527f446f206e6f7420616363657074206f7264657273207768656e206d617463686960448201527f6e670000000000000000000000000000000000000000000000000000000000006064820152608401610155565b6000610869610862611691565b34906116a8565b9050600a8110156108bf5760405160e560020a62461bcd02815260206004820152601b60248201527f4d696e696d756d207075726368617365206f66203130206f64647300000000006044820152606401610155565b80600360020160008282546108d49190612ab2565b909155505060408051426020820152448183015281518082038301815261016082019092526060810182815233608083015260a082018490523460c083015260045460e08301528291600091906101000187600281111561093757610937612948565b81526020015a815263ffffffff871660209182015233600090815260098252604081208054600181018255908252919020825192935083926008909202019081906109829082612b46565b5060208201518160010160006101000a815481600160a060020a030219169083600160a060020a0316021790555060408201518160020155606082015181600301556080820151816004015560a08201518160050160006101000a81548160ff021916908360028111156109f8576109f8612948565b021790555060c0820151600682015560e0909101516007909101805463ffffffff191663ffffffff9092169190911790556001866002811115610a3d57610a3d612948565b03610cb157600a8054600181018255600091909152815182916008027fc65a7bb8d6351c1cf70c95a316cc6a92839c986682d98bc35f958f4883f9d2a801908190610a889082612b46565b5060208201518160010160006101000a815481600160a060020a030219169083600160a060020a0316021790555060408201518160020155606082015181600301556080820151816004015560a08201518160050160006101000a81548160ff02191690836002811115610afe57610afe612948565b021790555060c0820151816006015560e08201518160070160006101000a81548163ffffffff021916908363ffffffff1602179055505050610cac600a805480602002602001604051908101604052809291908181526020016000905b82821015610ca3578382906000526020600020906008020160405180610100016040529081600082018054610b8f90612a43565b80601f0160208091040260200160405190810160405280929190818152602001828054610bbb90612a43565b8015610c085780601f10610bdd57610100808354040283529160200191610c08565b820191906000526020600020905b815481529060010190602001808311610beb57829003601f168201915b50505091835250506001820154600160a060020a0316602082015260028083015460408301526003830154606083015260048301546080830152600583015460a09092019160ff1690811115610c6057610c60612948565b6002811115610c7157610c71612948565b8152600682015460208083019190915260079092015463ffffffff166040909101529082526001929092019101610b5b565b505050506116f3565b610f2b565b6002866002811115610cc557610cc5612948565b03610f2b57600b8054600181018255600091909152815182916008027f0175b7a638427703f0dbe7bb9bbf987a2551717b34e79f33b5b1008d1fa01db901908190610d109082612b46565b5060208201518160010160006101000a815481600160a060020a030219169083600160a060020a0316021790555060408201518160020155606082015181600301556080820151816004015560a08201518160050160006101000a81548160ff02191690836002811115610d8657610d86612948565b021790555060c0820151816006015560e08201518160070160006101000a81548163ffffffff021916908363ffffffff1602179055505050610cac600b805480602002602001604051908101604052809291908181526020016000905b82821015610ca3578382906000526020600020906008020160405180610100016040529081600082018054610e1790612a43565b80601f0160208091040260200160405190810160405280929190818152602001828054610e4390612a43565b8015610e905780601f10610e6557610100808354040283529160200191610e90565b820191906000526020600020905b815481529060010190602001808311610e7357829003601f168201915b50505091835250506001820154600160a060020a0316602082015260028083015460408301526003830154606083015260048301546080830152600583015460a09092019160ff1690811115610ee857610ee8612948565b6002811115610ef957610ef9612948565b8152600682015460208083019190915260079092015463ffffffff166040909101529082526001929092019101610de3565b7fbfce74231797fc4478cac74dea977032c066c814742601a5a6658a3723127b4b81604051610f5a9190612c5c565b60405180910390a1505050505050565b600154600160a060020a03163314610f975760405160e560020a62461bcd02815260040161015590612a0c565b600260005460ff166004811115610fb057610fb0612948565b146110265760405160e560020a62461bcd02815260206004820152602160248201527f4d7573742068617665206c6f747465726564206265666f72652063616c6c696e60448201527f67000000000000000000000000000000000000000000000000000000000000006064820152608401610155565b600360005460ff16600481111561103f5761103f612948565b50505b61104a61131e565b1561105c576110576117eb565b611042565b600460005460ff16600481111561107557611075612948565b5050565b600154600090600160a060020a031633146110a95760405160e560020a62461bcd02815260040161015590612a0c565b600054610100900460ff166111035760405160e560020a62461bcd02815260206004820152601360248201527f6f646473646578206861732073746f70706564000000000000000000000000006044820152606401610155565b8160008160405160200161111991815260200190565b60408051601f1981840301815291905280516020909101206007549091508190811461118a5760405160e560020a62461bcd02815260206004820152601f60248201527f4c75636b794e756d62657220766572696669636174696f6e206661696c6564006044820152606401610155565b6000805460ff1660048111156111a2576111a2612948565b146112185760405160e560020a62461bcd02815260206004820152602160248201527f4d757374206861766520636f766572696e67206265666f72652063616c6c696e60448201527f67000000000000000000000000000000000000000000000000000000000000006064820152608401610155565b600160005460ff16600481111561123157611231612948565b505061123c85612107565b6008805460ff1916600183600281111561125857611258612948565b0217905550600260005460ff16600481111561127657611276612948565b5050604080516080810190915260085460009190819060ff1660028111156112a0576112a0612948565b8152602001878152602001600160009054906101000a9004600160a060020a0316600160a060020a0316815260200160075481525090507ff52997b2a7357d8df9a9045621c15ba053a5f94dbcc70b3a9be3ab989564c588816040516113069190612ce5565b60405180910390a1505060085460ff16949350505050565b600154600090600160a060020a0316331461134e5760405160e560020a62461bcd02815260040161015590612a0c565b600260005460ff16600481111561136757611367612948565b146113725750600090565b61137a6127f8565b600a54156114cf57600a805461139290600190612d25565b815481106113a2576113a2612a80565b9060005260206000209060080201604051806101000160405290816000820180546113cc90612a43565b80601f01602080910402602001604051908101604052809291908181526020018280546113f890612a43565b80156114455780601f1061141a57610100808354040283529160200191611445565b820191906000526020600020905b81548152906001019060200180831161142857829003601f168201915b50505091835250506001820154600160a060020a0316602082015260028083015460408301526003830154606083015260048301546080830152600583015460a09092019160ff169081111561149d5761149d612948565b60028111156114ae576114ae612948565b81526006820154602082015260079091015463ffffffff1660409091015290505b6114d76127f8565b600b541561162c57600b80546114ef90600190612d25565b815481106114ff576114ff612a80565b90600052602060002090600802016040518061010001604052908160008201805461152990612a43565b80601f016020809104026020016040519081016040528092919081815260200182805461155590612a43565b80156115a25780601f10611577576101008083540402835291602001916115a2565b820191906000526020600020905b81548152906001019060200180831161158557829003601f168201915b50505091835250506001820154600160a060020a0316602082015260028083015460408301526003830154606083015260048301546080830152600583015460a09092019160ff16908111156115fa576115fa612948565b600281111561160b5761160b612948565b81526006820154602082015260079091015463ffffffff1660409091015290505b600160085460ff16600281111561164557611645612948565b0361165a576080908101519101511115905090565b600260085460ff16600281111561167357611673612948565b03611688576080918201519101511115905090565b60009250505090565b6004546003546000916116a391612d38565b905090565b60006116ea83836040518060400160405280601a81526020017f536166654d6174683a206469766973696f6e206279207a65726f0000000000008152506121f2565b90505b92915050565b60015b815181101561107557600082828151811061171357611713612a80565b60200260200101519050600060018361172c9190612d25565b90505b83818151811061174157611741612a80565b602002602001015160800151826080015110156117ae5783818151811061176a5761176a612a80565b6020026020010151848260016117809190612ab2565b8151811061179057611790612a80565b602002602001018190525080806117a690612d4f565b91505061172f565b81846117bb836001612ab2565b815181106117cb576117cb612a80565b6020026020010181905250505080806117e390612ac5565b9150506116f6565b6117f3612857565b600a54156119d157600a805461180b90600190612d25565b8154811061181b5761181b612a80565b90600052602060002090600802016040518061010001604052908160008201805461184590612a43565b80601f016020809104026020016040519081016040528092919081815260200182805461187190612a43565b80156118be5780601f10611893576101008083540402835291602001916118be565b820191906000526020600020905b8154815290600101906020018083116118a157829003601f168201915b50505091835250506001820154600160a060020a0316602082015260028083015460408301526003830154606083015260048301546080830152600583015460a09092019160ff169081111561191657611916612948565b600281111561192757611927612948565b81526006820154602082015260079091015463ffffffff166040909101528152600a80548061195857611958612d66565b6000828152602081206000199092019160088302019061197882826128d9565b5060018101805473ffffffffffffffffffffffffffffffffffffffff19169055600060028201819055600382018190556004820181905560058201805460ff191690556006820155600701805463ffffffff1916905590555b600b5415611bb457600b80546119e990600190612d25565b815481106119f9576119f9612a80565b906000526020600020906008020160405180610100016040529081600082018054611a2390612a43565b80601f0160208091040260200160405190810160405280929190818152602001828054611a4f90612a43565b8015611a9c5780601f10611a7157610100808354040283529160200191611a9c565b820191906000526020600020905b815481529060010190602001808311611a7f57829003601f168201915b50505091835250506001820154600160a060020a0316602082015260028083015460408301526003830154606083015260048301546080830152600583015460a09092019160ff1690811115611af457611af4612948565b6002811115611b0557611b05612948565b8152600682015460208083019190915260079092015463ffffffff16604090910152820152600b805480611b3b57611b3b612d66565b60008281526020812060001990920191600883020190611b5b82826128d9565b5060018101805473ffffffffffffffffffffffffffffffffffffffff19169055600060028201819055600382018190556004820181905560058201805460ff191690556006820155600701805463ffffffff1916905590555b611bce81600001516040015182602001516040015161222c565b60408201526020810151608090810151825190910151611bfa91600291611bf491612243565b906116a8565b6060820152604080820151825190910151611c14916122a5565b6080820152604080820151602083015190910151611c31916122a5565b60a0820152805160809081015190820151611c4b916122e7565b60c082015260208101516080015160a0820151611c67916122e7565b60e082015260408051426020820152448183015281518082038301815260609091019091526101008201819052610120820152608081015115611daa5760c081015181516060015260808101518151604001528051600a8054600181018255600091909152815160089091027fc65a7bb8d6351c1cf70c95a316cc6a92839c986682d98bc35f958f4883f9d2a801908190611d029082612b46565b5060208201518160010160006101000a815481600160a060020a030219169083600160a060020a0316021790555060408201518160020155606082015181600301556080820151816004015560a08201518160050160006101000a81548160ff02191690836002811115611d7857611d78612948565b021790555060c0820151600682015560e0909101516007909101805463ffffffff191663ffffffff9092169190911790555b60a081015115611ec05760e08101516020820180516060019190915260a082015181516040015251600b8054600181018255600091909152815160089091027f0175b7a638427703f0dbe7bb9bbf987a2551717b34e79f33b5b1008d1fa01db901908190611e189082612b46565b5060208201518160010160006101000a815481600160a060020a030219169083600160a060020a0316021790555060408201518160020155606082015181600301556080820151816004015560a08201518160050160006101000a81548160ff02191690836002811115611e8e57611e8e612948565b021790555060c0820151600682015560e0909101516007909101805463ffffffff191663ffffffff9092169190911790555b60608101516040820151611ed3916122e7565b61014082015260c081015181516080810151604090910151611f009291611efa91906122e7565b906122a5565b61016082015260e081015160208201516080810151604090910151611f2a9291611efa91906122e7565b6101808201526101208101516101608201518251611f49929190612388565b611f628161012001518261018001518360200151612388565b600160085460ff166002811115611f7b57611f7b612948565b03611f9e57611f9981610120015182610140015183600001516124bb565b611fd5565b600260085460ff166002811115611fb757611fb7612948565b03611fd557611f9981610120015182610140015183602001516124bb565b6060810151600455604081015160058054600090611ff4908490612d25565b909155505060408051426020808301919091524482840152825180830384018152606092830184526101a08086018290526101c08087019283528551908101865291518252855151828401529185015151818501526101208086015182850152600154600160a060020a03166080808401919091528686015160a0808501919091529487015160c0808501919091529087015160e08085019190915294870151610100840152860151908201529184015161014080840191909152610160808601519084015261018080860151908401528401519082015290517fa5973330a0355cb9fe76000eab64af7398ac306b2fd623bd385a381967f5d667906120fb908390612d7f565b60405180910390a15050565b600081815b600a54811015612167576000600a828154811061212b5761212b612a80565b600091825260209091206007600890920201015463ffffffff1690506121518184612ab2565b925050808061215f90612ac5565b91505061210c565b5060005b600b548110156121c6576000600b828154811061218a5761218a612a80565b600091825260209091206007600890920201015463ffffffff1690506121b08184612ab2565b92505080806121be90612ac5565b91505061216b565b5060006121d4600283612ea7565b9050806001036121e8575060019392505050565b5060029392505050565b600081836122165760405160e560020a62461bcd0281526004016101559190612ebb565b5060006122238486612ece565b95945050505050565b60008183111561223c57816116ea565b5090919050565b6000806122508385612ab2565b9050838110156116ea5760405160e560020a62461bcd02815260206004820152601b60248201527f536166654d6174683a206164646974696f6e206f766572666c6f7700000000006044820152606401610155565b60006116ea83836040518060400160405280601e81526020017f536166654d6174683a207375627472616374696f6e206f766572666c6f7700008152506127c4565b6000826000036122f9575060006116ed565b60006123058385612d38565b9050826123128583612ece565b146116ea5760405160e560020a62461bcd02815260206004820152602160248201527f536166654d6174683a206d756c7469706c69636174696f6e206f766572666c6f60448201527f77000000000000000000000000000000000000000000000000000000000000006064820152608401610155565b60208181015160408051600080825293810191829052919291600160a060020a0384169186916123b791612ee2565b60006040518083038185875af1925050503d80600081146123f4576040519150601f19603f3d011682016040523d82523d6000602084013e6123f9565b606091505b505090508061241d5760405160e560020a62461bcd02815260040161015590612efe565b6000424460405160200161243b929190918252602082015260400190565b60408051601f1981840301815260a08301825280835286516020840152828201899052600160a060020a03861660608401526080830188905290519092508291907f760319905fd44c644230d3f078affa81e7c8a27e9cb832f3a973dc98759abcf4906124a9908390612f35565b60405180910390a15050505050505050565b60208101516006546000906124dc90606490611bf490879061ffff166122e7565b905060006124ea85836122a5565b60065490915060009061250f90606490611bf490869062010000900461ffff166122e7565b9050600061251d84836122a5565b6040805160008082526020820192839052929350600160a060020a03881691869161254791612ee2565b60006040518083038185875af1925050503d8060008114612584576040519150601f19603f3d011682016040523d82523d6000602084013e612589565b606091505b50509050806125ad5760405160e560020a62461bcd02815260040161015590612efe565b600154604080516000808252602082019283905292600160a060020a03169186916125d791612ee2565b60006040518083038185875af1925050503d8060008114612614576040519150601f19603f3d011682016040523d82523d6000602084013e612619565b606091505b505090508061263d5760405160e560020a62461bcd02815260040161015590612efe565b60008054604080518381526020810190915262010000909104600160a060020a031690859060405161266f9190612ee2565b60006040518083038185875af1925050503d80600081146126ac576040519150601f19603f3d011682016040523d82523d6000602084013e6126b1565b606091505b50509050806126d55760405160e560020a62461bcd02815260040161015590612efe565b600042446040516020016126f3929190918252602082015260400190565b60408051601f19818403018152610180830182528083528c5160208401528282018f9052600160a060020a038c16606084015260065461ffff8082166080860152620100008204811660a08601526401000000009091041660c084015260e083018e905261010083018a905261012083018b90526101408301899052610160830188905290519092508291907fc876b9ea3ed48808367dd8a82176a0796c1bf86672548fd2ef59eb29e5ff3578906127ac908390612fb7565b60405180910390a15050505050505050505050505050565b600081848411156127eb5760405160e560020a62461bcd0281526004016101559190612ebb565b5060006122238486612d25565b604051806101000160405280606081526020016000600160a060020a031681526020016000815260200160008152602001600081526020016000600281111561284357612843612948565b815260006020820181905260409091015290565b604051806101e0016040528061286b6127f8565b81526020016128786127f8565b8152602001600081526020016000815260200160008152602001600081526020016000815260200160008152602001606081526020016060815260200160008152602001600081526020016000815260200160608152602001606081525090565b5080546128e590612a43565b6000825580601f106128f5575050565b601f0160209004906000526020600020908101906129139190612916565b50565b5b8082111561292b5760008155600101612917565b5090565b60006020828403121561294157600080fd5b5035919050565b60e060020a634e487b7102600052602160045260246000fd5b602081016005831061297557612975612948565b91905290565b60006020828403121561298d57600080fd5b8135600160a060020a03811681146116ea57600080fd5b600080604083850312156129b757600080fd5b8235600381106129c657600080fd5b9150602083013563ffffffff811681146129df57600080fd5b809150509250929050565b600381106129fa576129fa612948565b9052565b602081016116ed82846129ea565b6020808252601a908201527f4f6e6c792062726f6b65722063616e2063616c6c20746869732e000000000000604082015260600190565b600281046001821680612a5757607f821691505b602082108103612a7a5760e060020a634e487b7102600052602260045260246000fd5b50919050565b60e060020a634e487b7102600052603260045260246000fd5b60e060020a634e487b7102600052601160045260246000fd5b808201808211156116ed576116ed612a99565b600060018201612ad757612ad7612a99565b5060010190565b60e060020a634e487b7102600052604160045260246000fd5b601f821115612b41576000818152602081206020601f86010481016020861015612b1e5750805b6020601f860104820191505b81811015612b3d57828155600101612b2a565b5050505b505050565b815167ffffffffffffffff811115612b6057612b60612ade565b612b7481612b6e8454612a43565b84612af7565b602080601f831160018114612bad5760008415612b915750858301515b60028086026008870290910a6000190419821617865550612b3d565b600085815260208120601f198616915b82811015612bdc57888601518255948401946001909101908401612bbd565b5085821015612bfc57878501516008601f88160260020a60001904191681555b5050505050600202600101905550565b60005b83811015612c27578181015183820152602001612c0f565b50506000910152565b60008151808452612c48816020860160208601612c0c565b601f01601f19169290920160200192915050565b6020815260008251610100806020850152612c7b610120850183612c30565b9150600160a060020a0360208601511660408501526040850151606085015260608501516080850152608085015160a085015260a0850151612cc060c08601826129ea565b5060c085015160e085015263ffffffff60e08601511681850152508091505092915050565b6000608082019050612cf88284516129ea565b60208301516020830152600160a060020a0360408401511660408301526060830151606083015292915050565b818103818111156116ed576116ed612a99565b80820281158282048414176116ed576116ed612a99565b600081612d5e57612d5e612a99565b506000190190565b60e060020a634e487b7102600052603160045260246000fd5b60208152600082516101c0806020850152612d9e6101e0850183612c30565b91506020850151601f1980868503016040870152612dbc8483612c30565b93506040870151915080868503016060870152612dd98483612c30565b9350606087015191508086850301608087015250612df78382612c30565b9250506080850151612e1460a0860182600160a060020a03169052565b5060a085015160c08581019190915285015160e08086019190915285015161010080860191909152850151610120808601919091528501516101408086019190915285015161016080860191909152850151610180808601919091528501516101a080860191909152909401519390920192909252919050565b60e060020a634e487b7102600052601260045260246000fd5b600082612eb657612eb6612e8e565b500690565b6020815260006116ea6020830184612c30565b600082612edd57612edd612e8e565b500490565b60008251612ef4818460208701612c0c565b9190910192915050565b60208082526013908201527f4554485f5452414e534645525f4641494c454400000000000000000000000000604082015260600190565b602081526000825160a06020840152612f5160c0840182612c30565b90506020840151601f1980858403016040860152612f6f8383612c30565b9250604086015191508085840301606086015250612f8d8282612c30565b915050600160a060020a036060850151166080840152608084015160a08401528091505092915050565b6020815260008251610180806020850152612fd66101a0850183612c30565b91506020850151601f1980868503016040870152612ff48483612c30565b93506040870151915080868503016060870152506130128382612c30565b925050606085015161302f6080860182600160a060020a03169052565b50608085015161ffff811660a08601525060a085015161ffff811660c08601525060c085015161ffff811660e08601525060e08501516101008581019190915285015161012080860191909152850151610140808601919091528501516101608086019190915290940151939092019290925291905056fea26469706673582212207e27b713488d5a0fe42cbd85d088f88d9a9548977638b58257570397a3f6356664736f6c63430008130033",
  "immutableReferences": {},
  "source": "// SPDX-License-Identifier: MIT\npragma solidity >=0.4.22 <0.8.20;\nimport \"./IOddsdex.sol\";\nimport \"./SafeMath.sol\";\n\ncontract OddsdexContract is IOddsdexContract {\n    using SafeMath for *;\n\n    OddsdexState private state;\n    bool private running;\n    address private root;\n    address private broker;\n    address private parent;\n    BulletinBoard private bulletinBoard;\n    uint256 private coverHash;\n    CoinDirection private winningDirection;\n    mapping(address => StakeBill[]) private stakeBills;\n    StakeBill[] private buyFrontBillQueue;\n    StakeBill[] private buyBackBillQueue;\n\n    constructor(address _root, address _broker) {\n        parent = msg.sender;\n        root = _root;\n        broker = _broker;\n        uint256 oddunit = 0.0001 * (10 ** 18);\n        uint256 initialPrice = 1;\n        uint16 kickbackRate = 20;\n        uint16 brokerageRate = 70;\n        uint16 taxRate = 100 - brokerageRate;\n        bulletinBoard = BulletinBoard(\n            oddunit,\n            initialPrice,\n            0,\n            kickbackRate,\n            brokerageRate,\n            taxRate\n        );\n        state=OddsdexState.matchmaked;\n        running=true;\n    }\n\n    modifier onlyRoot() {\n        require(msg.sender == root, \"Only root can call this.\");\n        _;\n    }\n\n    modifier onlyBroker() {\n        require(msg.sender == broker, \"Only broker can call this.\");\n        _;\n    }\n    modifier mustRunning() {\n        require(running, \"oddsdex has stopped\");\n        _;\n    }\n    modifier checkLuckyNumberByBrokerHash(uint256 luckyNumber) {\n        bytes32 packed = keccak256(abi.encodePacked(luckyNumber));\n        uint256 _hash = uint256(packed);\n        require(_hash == coverHash, \"LuckyNumber verification failed\");\n        _;\n    }\n\n    function getState() public view override returns (OddsdexState) {\n        return state;\n    }\n\n    function getWinningDirection()\n        public\n        view\n        override\n        returns (CoinDirection)\n    {\n        return winningDirection;\n    }\n\n    function getWeiPrice() public view override returns (uint256) {\n        return bulletinBoard.oddunit * bulletinBoard.price;\n    }\n\n    function getBulletinBoard()\n        public\n        view\n        override\n        returns (BulletinBoard memory)\n    {\n        return bulletinBoard;\n    }\n\n    function isRunning() public view override returns (bool) {\n        return running;\n    }\n\n    function stop() public override {\n        running = false;\n    }\n\n    function run() public override {\n        running = true;\n    }\n\n    function getRoot() public view override returns (address) {\n        return root;\n    }\n\n    function getBroker() public view override returns (address) {\n        return broker;\n    }\n\n    function costOnBillOfPlayer(\n        address _player\n    ) public view override returns (uint256) {\n        StakeBill[] memory bills = stakeBills[_player];\n        uint256 total;\n        for (uint i = 0; i < bills.length; i++) {\n            StakeBill memory bill = bills[i];\n            total += bill.costs;\n        }\n        return total;\n    }\n\n    function cover(uint256 _hash) public override onlyBroker mustRunning {\n        require(\n            state == OddsdexState.matchmaked,\n            \"Must have matchmaked before calling\"\n        );\n        coverHash = _hash;\n        state = OddsdexState.covering;\n    }\n\n    function lottery(\n        uint256 _luckyNumber\n    )\n        public\n        override\n        onlyBroker\n        mustRunning\n        checkLuckyNumberByBrokerHash(_luckyNumber)\n        returns (CoinDirection)\n    {\n        require(\n            state == OddsdexState.covering,\n            \"Must have covering before calling\"\n        );\n        state == OddsdexState.lottering;\n        winningDirection = _calculateWinning(_luckyNumber);\n        state == OddsdexState.lottered;\n\n        LotteryMessage memory message = LotteryMessage(\n            winningDirection,\n            _luckyNumber,\n            broker,\n            coverHash\n        );\n\n        emit OnLotteryEvent(message);\n\n        return winningDirection;\n    }\n\n    function _calculateWinning(\n        uint256 _luckyNumber\n    ) internal view returns (CoinDirection) {\n        uint total = _luckyNumber;\n        for (uint i = 0; i < buyFrontBillQueue.length; i++) {\n            uint32 luckyNumberOfPlayer = buyFrontBillQueue[i].luckyNumber;\n            total += luckyNumberOfPlayer;\n        }\n        for (uint i = 0; i < buyBackBillQueue.length; i++) {\n            uint32 luckyNumberOfPlayer = buyBackBillQueue[i].luckyNumber;\n            total += luckyNumberOfPlayer;\n        }\n        uint v = total % 2;\n        if (v == 1) {\n            return CoinDirection.front;\n        } else {\n            return CoinDirection.back;\n        }\n    }\n\n    function canMatchmaking() public view override onlyBroker returns (bool) {\n        if (state != OddsdexState.lottered) {\n            return false;\n        }\n        StakeBill memory tailF;\n        if (buyFrontBillQueue.length > 0) {\n            tailF = buyFrontBillQueue[buyFrontBillQueue.length - 1];\n        }\n        StakeBill memory tailB;\n        if (buyBackBillQueue.length > 0) {\n            tailB = buyBackBillQueue[buyBackBillQueue.length - 1];\n        }\n\n        if (winningDirection == CoinDirection.front) {\n            return tailF.buyPrice <= tailB.buyPrice;\n        } else if (winningDirection == CoinDirection.back) {\n            return tailB.buyPrice <= tailF.buyPrice;\n        } else {\n            return false;\n        }\n    }\n\n    function matchmake() public override onlyBroker {\n        require(\n            state == OddsdexState.lottered,\n            \"Must have lottered before calling\"\n        );\n        state == OddsdexState.matchmaking;\n        while (canMatchmaking()) {\n            _matchmakePairBill();\n        }\n        state == OddsdexState.matchmaked;\n    }\n\n    struct LocalVar {\n        StakeBill tailF;\n        StakeBill tailB;\n        uint256 dealOdds;\n        uint256 dealPrice;\n        uint256 tailFOdds;\n        uint256 tailBOdds;\n        uint256 tailFCostOnBill;\n        uint256 tailBCostOnBill;\n        bytes idBytes;\n        string mtn;\n        uint256 prize;\n        uint256 tailFRefundCost;\n        uint256 tailBRefundCost;\n        bytes idNewBytes;\n        string id;\n    }\n\n    function _matchmakePairBill() internal {\n        LocalVar memory lvar;\n        //\n        if (buyFrontBillQueue.length > 0) {\n            lvar.tailF = buyFrontBillQueue[buyFrontBillQueue.length - 1];\n            buyFrontBillQueue.pop();\n        }\n\n        if (buyBackBillQueue.length > 0) {\n            lvar.tailB = buyBackBillQueue[buyBackBillQueue.length - 1];\n            buyBackBillQueue.pop();\n        }\n\n        lvar.dealOdds = _min(lvar.tailF.odds, lvar.tailB.odds);\n        lvar.dealPrice = (lvar.tailF.buyPrice.add(lvar.tailB.buyPrice)).div(2);\n        lvar.tailFOdds = lvar.tailF.odds.sub(lvar.dealOdds);\n        lvar.tailBOdds = lvar.tailB.odds.sub(lvar.dealOdds);\n        lvar.tailFCostOnBill = lvar.tailFOdds.mul(lvar.tailF.buyPrice);\n        lvar.tailBCostOnBill = lvar.tailBOdds.mul(lvar.tailB.buyPrice);\n\n        lvar.idBytes = abi.encodePacked(block.timestamp, block.difficulty);\n        //mtn is Matchmaking transaction number\n        lvar.mtn = string(lvar.idBytes);\n\n        if (lvar.tailFOdds > 0) {\n            lvar.tailF.costs = lvar.tailFCostOnBill;\n            lvar.tailF.odds = lvar.tailFOdds;\n            buyFrontBillQueue.push(lvar.tailF);\n        }\n        if (lvar.tailBOdds > 0) {\n            lvar.tailB.costs = lvar.tailBCostOnBill;\n            lvar.tailB.odds = lvar.tailBOdds;\n            buyBackBillQueue.push(lvar.tailB);\n        }\n\n        lvar.prize = lvar.dealOdds.mul(lvar.dealPrice);\n        lvar.tailFRefundCost = lvar.tailF.odds.mul(lvar.tailF.buyPrice).sub(\n            lvar.tailFCostOnBill\n        );\n        lvar.tailBRefundCost = lvar.tailB.odds.mul(lvar.tailB.buyPrice).sub(\n            lvar.tailBCostOnBill\n        );\n\n        _refundCost(lvar.mtn, lvar.tailFRefundCost, lvar.tailF);\n        _refundCost(lvar.mtn, lvar.tailBRefundCost, lvar.tailB);\n\n        if (winningDirection == CoinDirection.front) {\n            _splitPrize(lvar.mtn, lvar.prize, lvar.tailF);\n        } else if (winningDirection == CoinDirection.back) {\n            _splitPrize(lvar.mtn, lvar.prize, lvar.tailB);\n        } else {}\n\n        bulletinBoard.price = lvar.dealPrice;\n        bulletinBoard.odds -= lvar.dealOdds;\n\n        lvar.idNewBytes = abi.encodePacked(block.timestamp, block.difficulty);\n        lvar.id = string(lvar.idNewBytes);\n\n        MatchmakingBill memory _mbill = MatchmakingBill(\n            lvar.id,\n            lvar.tailF.id,\n            lvar.tailB.id,\n            lvar.mtn,\n            broker,\n            lvar.dealOdds,\n            lvar.dealPrice,\n            lvar.tailFOdds,\n            lvar.tailBOdds,\n            lvar.tailFCostOnBill,\n            lvar.tailBCostOnBill,\n            lvar.tailFRefundCost,\n            lvar.tailBRefundCost,\n            lvar.prize\n        );\n        emit OnMatchMakingEvent(_mbill);\n    }\n\n    function _refundCost(\n        string memory mtn,\n        uint256 cost,\n        StakeBill memory bill\n    ) internal {\n        address player = bill.owner;\n        (bool success, ) = payable(player).call{value: cost}(new bytes(0));\n        require(success, \"ETH_TRANSFER_FAILED\");\n\n        bytes memory idBytes = abi.encodePacked(\n            block.timestamp,\n            block.difficulty\n        );\n        string memory id = string(idBytes);\n        RefundBill memory _rbill = RefundBill(id, bill.id, mtn, player, cost);\n        emit OnRefundBillEvent(_rbill);\n    }\n\n    function _splitPrize(\n        string memory mtn,\n        uint256 prize,\n        StakeBill memory bill\n    ) internal {\n        address player = bill.owner;\n        uint256 kickback = prize.mul(bulletinBoard.kickbackRate).div(100);\n        uint256 bonusOfPlayer = prize.sub(kickback);\n        uint256 brokerage = kickback.mul(bulletinBoard.brokerageRate).div(100);\n        uint256 tax = kickback.sub(brokerage);\n\n        (bool success, ) = payable(player).call{value: bonusOfPlayer}(\n            new bytes(0)\n        );\n        require(success, \"ETH_TRANSFER_FAILED\");\n        (bool success1, ) = payable(broker).call{value: brokerage}(\n            new bytes(0)\n        );\n        require(success1, \"ETH_TRANSFER_FAILED\");\n        (bool success2, ) = payable(root).call{value: tax}(new bytes(0));\n        require(success2, \"ETH_TRANSFER_FAILED\");\n\n        bytes memory idBytes = abi.encodePacked(\n            block.timestamp,\n            block.difficulty\n        );\n        string memory id = string(idBytes);\n        SplitBill memory _sbill = SplitBill(\n            id,\n            bill.id,\n            mtn,\n            player,\n            bulletinBoard.kickbackRate,\n            bulletinBoard.brokerageRate,\n            bulletinBoard.taxRate,\n            prize,\n            bonusOfPlayer,\n            kickback,\n            brokerage,\n            tax\n        );\n        emit OnSplitBillEvent(_sbill);\n    }\n\n    function _min(uint256 a, uint256 b) internal pure returns (uint256) {\n        return a <= b ? a : b;\n    }\n\n    fallback() external payable {\n        require(false, \"No other calls supported\");\n    }\n\n    receive() external payable {\n        require(false, \"No other calls supported\");\n    }\n\n    function stake(\n        CoinDirection buyDirection,\n        uint32 luckyNumber\n    ) external payable override {\n        require(\n            buyDirection != CoinDirection.unknown,\n            \"Buying direction is unknown\"\n        );\n        require(\n            state != OddsdexState.matchmaking,\n            \"Do not accept orders when matching\"\n        );\n\n        uint256 odds = msg.value.div(getWeiPrice());\n        require(odds >= 10, \"Minimum purchase of 10 odds\");\n\n        bulletinBoard.odds += odds;\n\n        bytes memory idBytes = abi.encodePacked(\n            block.timestamp,\n            block.difficulty\n        );\n        string memory id = string(idBytes);\n        StakeBill memory bill = StakeBill(\n            id,\n            msg.sender,\n            odds,\n            msg.value,\n            bulletinBoard.price,\n            buyDirection,\n            gasleft(),\n            luckyNumber\n        );\n\n        stakeBills[msg.sender].push(bill);\n\n        if (buyDirection == CoinDirection.front) {\n            buyFrontBillQueue.push(bill);\n            _insertionSort(buyFrontBillQueue);\n        } else if (buyDirection == CoinDirection.back) {\n            buyBackBillQueue.push(bill);\n            _insertionSort(buyBackBillQueue);\n        } else {}\n\n        emit OnStakeBillEvent(bill);\n    }\n\n    function _insertionSort(StakeBill[] memory a) internal pure {\n        for (uint i = 1; i < a.length; i++) {\n            StakeBill memory temp = a[i];\n            uint j;\n            for (j = i - 1; j >= 0 && temp.buyPrice < a[j].buyPrice; j--)\n                a[j + 1] = a[j];\n            a[j + 1] = temp;\n        }\n    }\n}\n",
  "sourcePath": "/Users/cj/games/game-oddsdex/contracts/OddsdexContract.sol",
  "compiler": {
    "name": "solc",
    "version": "0.8.19+commit.7dd6d404.Emscripten.clang"
  },
  "schemaVersion": "3.4.14",
  "updatedAt": "2023-08-24T01:34:22.786Z",
  "networkType": "ethereum",
  "devdoc": {
    "kind": "dev",
    "methods": {},
    "version": 1
  },
  "userdoc": {
    "kind": "user",
    "methods": {},
    "version": 1
  }
}