{
  "contractName": "OddsdexContract",
  "abi": [
    {
      "inputs": [
        {
          "internalType": "address",
          "name": "_root",
          "type": "address"
        },
        {
          "internalType": "address",
          "name": "_broker",
          "type": "address"
        }
      ],
      "stateMutability": "nonpayable",
      "type": "constructor"
    },
    {
      "anonymous": false,
      "inputs": [
        {
          "components": [
            {
              "internalType": "enum CoinDirection",
              "name": "winningDirection",
              "type": "uint8"
            },
            {
              "internalType": "uint256",
              "name": "luckyNumber",
              "type": "uint256"
            },
            {
              "internalType": "address",
              "name": "broker",
              "type": "address"
            },
            {
              "internalType": "uint256",
              "name": "coverHash",
              "type": "uint256"
            }
          ],
          "indexed": false,
          "internalType": "struct LotteryMessage",
          "name": "message",
          "type": "tuple"
        }
      ],
      "name": "OnLotteryEvent",
      "type": "event"
    },
    {
      "anonymous": false,
      "inputs": [
        {
          "components": [
            {
              "internalType": "bytes32",
              "name": "id",
              "type": "bytes32"
            },
            {
              "internalType": "bytes32",
              "name": "refFId",
              "type": "bytes32"
            },
            {
              "internalType": "bytes32",
              "name": "refBId",
              "type": "bytes32"
            },
            {
              "internalType": "bytes32",
              "name": "mtn",
              "type": "bytes32"
            },
            {
              "internalType": "address",
              "name": "broker",
              "type": "address"
            },
            {
              "internalType": "uint256",
              "name": "dealOdds",
              "type": "uint256"
            },
            {
              "internalType": "uint256",
              "name": "dealPrice",
              "type": "uint256"
            },
            {
              "internalType": "uint256",
              "name": "tailFOdds",
              "type": "uint256"
            },
            {
              "internalType": "uint256",
              "name": "tailBOdds",
              "type": "uint256"
            },
            {
              "internalType": "uint256",
              "name": "tailFCostOnBill",
              "type": "uint256"
            },
            {
              "internalType": "uint256",
              "name": "tailBCostOnBill",
              "type": "uint256"
            },
            {
              "internalType": "uint256",
              "name": "tailFRefundCosts",
              "type": "uint256"
            },
            {
              "internalType": "uint256",
              "name": "tailBRefundCosts",
              "type": "uint256"
            },
            {
              "internalType": "uint256",
              "name": "prize",
              "type": "uint256"
            }
          ],
          "indexed": false,
          "internalType": "struct MatchmakingBill",
          "name": "bill",
          "type": "tuple"
        }
      ],
      "name": "OnMatchMakingEvent",
      "type": "event"
    },
    {
      "anonymous": false,
      "inputs": [
        {
          "components": [
            {
              "internalType": "bytes32",
              "name": "id",
              "type": "bytes32"
            },
            {
              "internalType": "bytes32",
              "name": "refId",
              "type": "bytes32"
            },
            {
              "internalType": "bytes32",
              "name": "mtn",
              "type": "bytes32"
            },
            {
              "internalType": "address",
              "name": "owner",
              "type": "address"
            },
            {
              "internalType": "uint256",
              "name": "costs",
              "type": "uint256"
            }
          ],
          "indexed": false,
          "internalType": "struct RefundBill",
          "name": "bill",
          "type": "tuple"
        }
      ],
      "name": "OnRefundBillEvent",
      "type": "event"
    },
    {
      "anonymous": false,
      "inputs": [
        {
          "components": [
            {
              "internalType": "bytes32",
              "name": "id",
              "type": "bytes32"
            },
            {
              "internalType": "bytes32",
              "name": "refId",
              "type": "bytes32"
            },
            {
              "internalType": "bytes32",
              "name": "mtn",
              "type": "bytes32"
            },
            {
              "internalType": "address",
              "name": "owner",
              "type": "address"
            },
            {
              "internalType": "uint16",
              "name": "kickbackRate",
              "type": "uint16"
            },
            {
              "internalType": "uint16",
              "name": "brokerageRate",
              "type": "uint16"
            },
            {
              "internalType": "uint16",
              "name": "taxRate",
              "type": "uint16"
            },
            {
              "internalType": "uint256",
              "name": "prize",
              "type": "uint256"
            },
            {
              "internalType": "uint256",
              "name": "bonus",
              "type": "uint256"
            },
            {
              "internalType": "uint256",
              "name": "kickback",
              "type": "uint256"
            },
            {
              "internalType": "uint256",
              "name": "brokerage",
              "type": "uint256"
            },
            {
              "internalType": "uint256",
              "name": "tax",
              "type": "uint256"
            }
          ],
          "indexed": false,
          "internalType": "struct SplitBill",
          "name": "bill",
          "type": "tuple"
        }
      ],
      "name": "OnSplitBillEvent",
      "type": "event"
    },
    {
      "anonymous": false,
      "inputs": [
        {
          "components": [
            {
              "internalType": "bytes32",
              "name": "id",
              "type": "bytes32"
            },
            {
              "internalType": "address",
              "name": "owner",
              "type": "address"
            },
            {
              "internalType": "uint256",
              "name": "odds",
              "type": "uint256"
            },
            {
              "internalType": "uint256",
              "name": "costs",
              "type": "uint256"
            },
            {
              "internalType": "uint256",
              "name": "buyPrice",
              "type": "uint256"
            },
            {
              "internalType": "enum CoinDirection",
              "name": "buyDirection",
              "type": "uint8"
            },
            {
              "internalType": "uint256",
              "name": "gas",
              "type": "uint256"
            },
            {
              "internalType": "uint32",
              "name": "luckyNumber",
              "type": "uint32"
            }
          ],
          "indexed": false,
          "internalType": "struct StakeBill",
          "name": "bill",
          "type": "tuple"
        }
      ],
      "name": "OnStakeBillEvent",
      "type": "event"
    },
    {
      "stateMutability": "payable",
      "type": "fallback",
      "payable": true
    },
    {
      "stateMutability": "payable",
      "type": "receive",
      "payable": true
    },
    {
      "inputs": [],
      "name": "getState",
      "outputs": [
        {
          "internalType": "enum OddsdexState",
          "name": "",
          "type": "uint8"
        }
      ],
      "stateMutability": "view",
      "type": "function",
      "constant": true
    },
    {
      "inputs": [],
      "name": "getFrontQueueCount",
      "outputs": [
        {
          "internalType": "uint256",
          "name": "",
          "type": "uint256"
        }
      ],
      "stateMutability": "view",
      "type": "function",
      "constant": true
    },
    {
      "inputs": [],
      "name": "getBackQueueCount",
      "outputs": [
        {
          "internalType": "uint256",
          "name": "",
          "type": "uint256"
        }
      ],
      "stateMutability": "view",
      "type": "function",
      "constant": true
    },
    {
      "inputs": [
        {
          "internalType": "uint256",
          "name": "index",
          "type": "uint256"
        }
      ],
      "name": "getFrontBillQueue",
      "outputs": [
        {
          "components": [
            {
              "internalType": "bytes32",
              "name": "id",
              "type": "bytes32"
            },
            {
              "internalType": "address",
              "name": "owner",
              "type": "address"
            },
            {
              "internalType": "uint256",
              "name": "odds",
              "type": "uint256"
            },
            {
              "internalType": "uint256",
              "name": "costs",
              "type": "uint256"
            },
            {
              "internalType": "uint256",
              "name": "buyPrice",
              "type": "uint256"
            },
            {
              "internalType": "enum CoinDirection",
              "name": "buyDirection",
              "type": "uint8"
            },
            {
              "internalType": "uint256",
              "name": "gas",
              "type": "uint256"
            },
            {
              "internalType": "uint32",
              "name": "luckyNumber",
              "type": "uint32"
            }
          ],
          "internalType": "struct StakeBill",
          "name": "",
          "type": "tuple"
        }
      ],
      "stateMutability": "view",
      "type": "function",
      "constant": true
    },
    {
      "inputs": [
        {
          "internalType": "uint256",
          "name": "index",
          "type": "uint256"
        }
      ],
      "name": "getBackBillQueue",
      "outputs": [
        {
          "components": [
            {
              "internalType": "bytes32",
              "name": "id",
              "type": "bytes32"
            },
            {
              "internalType": "address",
              "name": "owner",
              "type": "address"
            },
            {
              "internalType": "uint256",
              "name": "odds",
              "type": "uint256"
            },
            {
              "internalType": "uint256",
              "name": "costs",
              "type": "uint256"
            },
            {
              "internalType": "uint256",
              "name": "buyPrice",
              "type": "uint256"
            },
            {
              "internalType": "enum CoinDirection",
              "name": "buyDirection",
              "type": "uint8"
            },
            {
              "internalType": "uint256",
              "name": "gas",
              "type": "uint256"
            },
            {
              "internalType": "uint32",
              "name": "luckyNumber",
              "type": "uint32"
            }
          ],
          "internalType": "struct StakeBill",
          "name": "",
          "type": "tuple"
        }
      ],
      "stateMutability": "view",
      "type": "function",
      "constant": true
    },
    {
      "inputs": [],
      "name": "getWinningDirection",
      "outputs": [
        {
          "internalType": "enum CoinDirection",
          "name": "",
          "type": "uint8"
        }
      ],
      "stateMutability": "view",
      "type": "function",
      "constant": true
    },
    {
      "inputs": [],
      "name": "getWeiPrice",
      "outputs": [
        {
          "internalType": "uint256",
          "name": "",
          "type": "uint256"
        }
      ],
      "stateMutability": "view",
      "type": "function",
      "constant": true
    },
    {
      "inputs": [],
      "name": "getBulletinBoard",
      "outputs": [
        {
          "components": [
            {
              "internalType": "uint256",
              "name": "oddunit",
              "type": "uint256"
            },
            {
              "internalType": "uint256",
              "name": "price",
              "type": "uint256"
            },
            {
              "internalType": "uint256",
              "name": "odds",
              "type": "uint256"
            },
            {
              "internalType": "uint16",
              "name": "kickbackRate",
              "type": "uint16"
            },
            {
              "internalType": "uint16",
              "name": "brokerageRate",
              "type": "uint16"
            },
            {
              "internalType": "uint16",
              "name": "taxRate",
              "type": "uint16"
            }
          ],
          "internalType": "struct BulletinBoard",
          "name": "",
          "type": "tuple"
        }
      ],
      "stateMutability": "view",
      "type": "function",
      "constant": true
    },
    {
      "inputs": [],
      "name": "isRunning",
      "outputs": [
        {
          "internalType": "bool",
          "name": "",
          "type": "bool"
        }
      ],
      "stateMutability": "view",
      "type": "function",
      "constant": true
    },
    {
      "inputs": [],
      "name": "stop",
      "outputs": [],
      "stateMutability": "nonpayable",
      "type": "function"
    },
    {
      "inputs": [],
      "name": "run",
      "outputs": [],
      "stateMutability": "nonpayable",
      "type": "function"
    },
    {
      "inputs": [],
      "name": "getRoot",
      "outputs": [
        {
          "internalType": "address",
          "name": "",
          "type": "address"
        }
      ],
      "stateMutability": "view",
      "type": "function",
      "constant": true
    },
    {
      "inputs": [],
      "name": "getBroker",
      "outputs": [
        {
          "internalType": "address",
          "name": "",
          "type": "address"
        }
      ],
      "stateMutability": "view",
      "type": "function",
      "constant": true
    },
    {
      "inputs": [
        {
          "internalType": "address",
          "name": "_player",
          "type": "address"
        }
      ],
      "name": "costOnBillOfPlayer",
      "outputs": [
        {
          "internalType": "uint256",
          "name": "",
          "type": "uint256"
        }
      ],
      "stateMutability": "view",
      "type": "function",
      "constant": true
    },
    {
      "inputs": [
        {
          "internalType": "uint256",
          "name": "_hash",
          "type": "uint256"
        }
      ],
      "name": "cover",
      "outputs": [],
      "stateMutability": "nonpayable",
      "type": "function"
    },
    {
      "inputs": [
        {
          "internalType": "uint256",
          "name": "_luckyNumber",
          "type": "uint256"
        }
      ],
      "name": "lottery",
      "outputs": [
        {
          "internalType": "enum CoinDirection",
          "name": "",
          "type": "uint8"
        }
      ],
      "stateMutability": "nonpayable",
      "type": "function"
    },
    {
      "inputs": [],
      "name": "canMatchmaking",
      "outputs": [
        {
          "internalType": "bool",
          "name": "",
          "type": "bool"
        }
      ],
      "stateMutability": "view",
      "type": "function",
      "constant": true
    },
    {
      "inputs": [],
      "name": "matchmake",
      "outputs": [],
      "stateMutability": "nonpayable",
      "type": "function"
    },
    {
      "inputs": [
        {
          "internalType": "enum CoinDirection",
          "name": "buyDirection",
          "type": "uint8"
        },
        {
          "internalType": "uint32",
          "name": "luckyNumber",
          "type": "uint32"
        }
      ],
      "name": "stake",
      "outputs": [],
      "stateMutability": "payable",
      "type": "function",
      "payable": true
    }
  ],
  "bytecode": "0x60806040523480156200001157600080fd5b50604051620030493803806200304983398101604081905262000034916200014d565b60028054600160a060020a0319908116331790915560008054600160a060020a0385811662010000026201000060b060020a03199092169190911782556001805491851691909316178255655af3107a400091906014906046906200009b82606462000185565b6040805160c08101825287815260208101879052600091810182905261ffff95861660608201819052948616608082018190529290951660a09095018590526003969096556004949094555060058490556006805463ffffffff1916909117620100009093029290921765ffff000000001916640100000000909102179055805461ffff191661010417905550620001cf9050565b8051600160a060020a03811681146200014857600080fd5b919050565b600080604083850312156200016157600080fd5b6200016c8362000130565b91506200017c6020840162000130565b90509250929050565b61ffff828116828216039080821115620001c8577f4e487b7100000000000000000000000000000000000000000000000000000000600052601160045260246000fd5b5092915050565b612e6a80620001df6000396000f3fe608060405260043610610135576000357c01000000000000000000000000000000000000000000000000000000009004806382dbe015116100bd578063c040622611610081578063c0406226146103ad578063c53f2670146103ce578063d1314ee0146103e3578063d63d12dc14610401578063ecb891e1146104195761018c565b806382dbe015146103235780638d1d5b3f14610336578063a57d15601461034b578063b454079714610378578063b4ab1a121461038d5761018c565b80634f907681116101045780634f907681146102665780635ca1e1651461029357806365bbe694146102cb5780636949c0b2146102f957806371f81e9d1461030e5761018c565b806307da68f5146101d757806314a1362b146101f45780631865c57d146102145780632014e5d11461023d5761018c565b3661018c5760405160e560020a62461bcd02815260206004820152601860248201527f4e6f206f746865722063616c6c7320737570706f72746564000000000000000060448201526064015b60405180910390fd5b005b60405160e560020a62461bcd02815260206004820152601860248201527f4e6f206f746865722063616c6c7320737570706f7274656400000000000000006044820152606401610181565b3480156101e357600080fd5b5061018a6000805461ff0019169055565b34801561020057600080fd5b5061018a61020f366004612964565b610502565b34801561022057600080fd5b5060005460ff166040516102349190612996565b60405180910390f35b34801561024957600080fd5b50600054610100900460ff165b6040519015158152602001610234565b34801561027257600080fd5b50610286610281366004612964565b610627565b60405161023491906129c4565b34801561029f57600080fd5b50600054620100009004600160a060020a03165b604051600160a060020a039091168152602001610234565b3480156102d757600080fd5b506102eb6102e6366004612a35565b610709565b604051908152602001610234565b34801561030557600080fd5b50600a546102eb565b34801561031a57600080fd5b50600b546102eb565b61018a610331366004612a5e565b610863565b34801561034257600080fd5b5061018a611072565b34801561035757600080fd5b5061036b610366366004612964565b611181565b6040516102349190612aa4565b34801561038457600080fd5b50610256611426565b34801561039957600080fd5b506102866103a8366004612964565b611697565b3480156103b957600080fd5b5061018a6000805461ff001916610100179055565b3480156103da57600080fd5b506102eb6116c9565b3480156103ef57600080fd5b50600154600160a060020a03166102b3565b34801561040d57600080fd5b5060085460ff1661036b565b34801561042557600080fd5b506104aa6040805160c081018252600080825260208201819052918101829052606081018290526080810182905260a0810191909152506040805160c081018252600354815260045460208201526005549181019190915260065461ffff8082166060840152620100008204811660808401526401000000009091041660a082015290565b6040516102349190600060c082019050825182526020830151602083015260408301516040830152606083015161ffff80821660608501528060808601511660808501528060a08601511660a0850152505092915050565b600154600160a060020a0316331461052f5760405160e560020a62461bcd02815260040161018190612ab2565b600054610100900460ff166105895760405160e560020a62461bcd02815260206004820152601360248201527f6f646473646578206861732073746f70706564000000000000000000000000006044820152606401610181565b600460005460ff1660048111156105a2576105a261297d565b146106185760405160e560020a62461bcd02815260206004820152602360248201527f4d7573742068617665206d617463686d616b6564206265666f72652063616c6c60448201527f696e6700000000000000000000000000000000000000000000000000000000006064820152608401610181565b6007556000805460ff19169055565b61062f6128a5565b6106376128a5565b600a5483106106465792915050565b600a838154811061065957610659612ae9565b600091825260209182902060408051610100810182526008909302909101805483526001810154600160a060020a031693830193909352600280840154918301919091526003830154606083015260048301546080830152600583015491929160a084019160ff909116908111156106d3576106d361297d565b60028111156106e4576106e461297d565b81526006820154602082015260079091015463ffffffff166040909101529392505050565b600160a060020a038116600090815260096020908152604080832080548251818502810185019093528083528493849084015b82821015610800576000848152602090819020604080516101008101825260088602909201805483526001810154600160a060020a031693830193909352600280840154918301919091526003830154606083015260048301546080830152600583015491929160a084019160ff909116908111156107bd576107bd61297d565b60028111156107ce576107ce61297d565b8152600682015460208083019190915260079092015463ffffffff16604090910152908252600192909201910161073c565b505050509050600080600090505b825181101561085b57600083828151811061082b5761082b612ae9565b602002602001015190508060600151836108459190612b1b565b925050808061085390612b2e565b91505061080e565b509392505050565b60008260028111156108775761087761297d565b036108c75760405160e560020a62461bcd02815260206004820152601b60248201527f427579696e6720646972656374696f6e20697320756e6b6e6f776e00000000006044820152606401610181565b600360005460ff1660048111156108e0576108e061297d565b036109565760405160e560020a62461bcd02815260206004820152602260248201527f446f206e6f7420616363657074206f7264657273207768656e206d617463686960448201527f6e670000000000000000000000000000000000000000000000000000000000006064820152608401610181565b600061096a6109636116c9565b34906116e0565b9050600a8110156109c05760405160e560020a62461bcd02815260206004820152601b60248201527f4d696e696d756d207075726368617365206f66203130206f64647300000000006044820152606401610181565b80600360020160008282546109d59190612b1b565b9091555050604080514260208083019190915244828401528251808303840181526060830180855281519190920120610160830190935282815233608083015260a082018490523460c083015260045460e083015260009161010001866002811115610a4357610a4361297d565b81526020015a815263ffffffff8616602091820152336000908152600982526040808220805460018082018355918452928490208551600890940201928355928401518284018054600160a060020a031916600160a060020a03909216919091179055830151600280830191909155606084015160038301556080840151600483015560a0840151600583018054959650869593949193909260ff1990911691908490811115610af557610af561297d565b021790555060c0820151600682015560e0909101516007909101805463ffffffff191663ffffffff9092169190911790556001856002811115610b3a57610b3a61297d565b03610db457600a805460018181018355600092909252825160089091027fc65a7bb8d6351c1cf70c95a316cc6a92839c986682d98bc35f958f4883f9d2a8810191825560208401517fc65a7bb8d6351c1cf70c95a316cc6a92839c986682d98bc35f958f4883f9d2a982018054600160a060020a03909216600160a060020a031990921691909117905560408401517fc65a7bb8d6351c1cf70c95a316cc6a92839c986682d98bc35f958f4883f9d2aa82015560608401517fc65a7bb8d6351c1cf70c95a316cc6a92839c986682d98bc35f958f4883f9d2ab82015560808401517fc65a7bb8d6351c1cf70c95a316cc6a92839c986682d98bc35f958f4883f9d2ac82015560a08401517fc65a7bb8d6351c1cf70c95a316cc6a92839c986682d98bc35f958f4883f9d2ad9091018054859460ff1990911690836002811115610c8557610c8561297d565b021790555060c0820151816006015560e08201518160070160006101000a81548163ffffffff021916908363ffffffff1602179055505050610daf600a805480602002602001604051908101604052809291908181526020016000905b82821015610da6576000848152602090819020604080516101008101825260088602909201805483526001810154600160a060020a031693830193909352600280840154918301919091526003830154606083015260048301546080830152600583015491929160a084019160ff90911690811115610d6357610d6361297d565b6002811115610d7457610d7461297d565b8152600682015460208083019190915260079092015463ffffffff166040909101529082526001929092019101610ce2565b5050505061172b565b611034565b6002856002811115610dc857610dc861297d565b0361103457600b805460018181018355600092909252825160089091027f0175b7a638427703f0dbe7bb9bbf987a2551717b34e79f33b5b1008d1fa01db9810191825560208401517f0175b7a638427703f0dbe7bb9bbf987a2551717b34e79f33b5b1008d1fa01dba82018054600160a060020a03909216600160a060020a031990921691909117905560408401517f0175b7a638427703f0dbe7bb9bbf987a2551717b34e79f33b5b1008d1fa01dbb82015560608401517f0175b7a638427703f0dbe7bb9bbf987a2551717b34e79f33b5b1008d1fa01dbc82015560808401517f0175b7a638427703f0dbe7bb9bbf987a2551717b34e79f33b5b1008d1fa01dbd82015560a08401517f0175b7a638427703f0dbe7bb9bbf987a2551717b34e79f33b5b1008d1fa01dbe9091018054859460ff1990911690836002811115610f1357610f1361297d565b021790555060c0820151816006015560e08201518160070160006101000a81548163ffffffff021916908363ffffffff1602179055505050610daf600b805480602002602001604051908101604052809291908181526020016000905b82821015610da6576000848152602090819020604080516101008101825260088602909201805483526001810154600160a060020a031693830193909352600280840154918301919091526003830154606083015260048301546080830152600583015491929160a084019160ff90911690811115610ff157610ff161297d565b60028111156110025761100261297d565b8152600682015460208083019190915260079092015463ffffffff166040909101529082526001929092019101610f70565b7f2f8363ee1755af52fbc3b50de76b306cbf58ca0d527cff01f24b890226aa06918160405161106391906129c4565b60405180910390a15050505050565b600154600160a060020a0316331461109f5760405160e560020a62461bcd02815260040161018190612ab2565b600260005460ff1660048111156110b8576110b861297d565b1461112e5760405160e560020a62461bcd02815260206004820152602160248201527f4d7573742068617665206c6f747465726564206265666f72652063616c6c696e60448201527f67000000000000000000000000000000000000000000000000000000000000006064820152608401610181565b600360005460ff1660048111156111475761114761297d565b50505b611152611426565b156111645761115f611823565b61114a565b600460005460ff16600481111561117d5761117d61297d565b5050565b600154600090600160a060020a031633146111b15760405160e560020a62461bcd02815260040161018190612ab2565b600054610100900460ff1661120b5760405160e560020a62461bcd02815260206004820152601360248201527f6f646473646578206861732073746f70706564000000000000000000000000006044820152606401610181565b8160008160405160200161122191815260200190565b60408051601f198184030181529190528051602090910120600754909150819081146112925760405160e560020a62461bcd02815260206004820152601f60248201527f4c75636b794e756d62657220766572696669636174696f6e206661696c6564006044820152606401610181565b6000805460ff1660048111156112aa576112aa61297d565b146113205760405160e560020a62461bcd02815260206004820152602160248201527f4d757374206861766520636f766572696e67206265666f72652063616c6c696e60448201527f67000000000000000000000000000000000000000000000000000000000000006064820152608401610181565b600160005460ff1660048111156113395761133961297d565b50506113448561215d565b6008805460ff191660018360028111156113605761136061297d565b0217905550600260005460ff16600481111561137e5761137e61297d565b5050604080516080810190915260085460009190819060ff1660028111156113a8576113a861297d565b8152602001878152602001600160009054906101000a9004600160a060020a0316600160a060020a0316815260200160075481525090507ff52997b2a7357d8df9a9045621c15ba053a5f94dbcc70b3a9be3ab989564c5888160405161140e9190612b47565b60405180910390a1505060085460ff16949350505050565b600154600090600160a060020a031633146114565760405160e560020a62461bcd02815260040161018190612ab2565b600260005460ff16600481111561146f5761146f61297d565b1461147a5750600090565b6114826128a5565b600a541561155657600a805461149a90600190612b87565b815481106114aa576114aa612ae9565b600091825260209182902060408051610100810182526008909302909101805483526001810154600160a060020a031693830193909352600280840154918301919091526003830154606083015260048301546080830152600583015491929160a084019160ff909116908111156115245761152461297d565b60028111156115355761153561297d565b81526006820154602082015260079091015463ffffffff1660409091015290505b61155e6128a5565b600b541561163257600b805461157690600190612b87565b8154811061158657611586612ae9565b600091825260209182902060408051610100810182526008909302909101805483526001810154600160a060020a031693830193909352600280840154918301919091526003830154606083015260048301546080830152600583015491929160a084019160ff909116908111156116005761160061297d565b60028111156116115761161161297d565b81526006820154602082015260079091015463ffffffff1660409091015290505b600160085460ff16600281111561164b5761164b61297d565b03611660576080908101519101511115905090565b600260085460ff1660028111156116795761167961297d565b0361168e576080918201519101511115905090565b60009250505090565b61169f6128a5565b6116a76128a5565b600b5483106116b65792915050565b600b838154811061065957610659612ae9565b6004546003546000916116db91612b9a565b905090565b600061172283836040518060400160405280601a81526020017f536166654d6174683a206469766973696f6e206279207a65726f000000000000815250612248565b90505b92915050565b60015b815181101561117d57600082828151811061174b5761174b612ae9565b6020026020010151905060006001836117649190612b87565b90505b83818151811061177957611779612ae9565b602002602001015160800151826080015110156117e6578381815181106117a2576117a2612ae9565b6020026020010151848260016117b89190612b1b565b815181106117c8576117c8612ae9565b602002602001018190525080806117de90612bb1565b915050611767565b81846117f3836001612b1b565b8151811061180357611803612ae9565b60200260200101819052505050808061181b90612b2e565b91505061172e565b61182b6128ea565b600a541561197357600a805461184390600190612b87565b8154811061185357611853612ae9565b600091825260209182902060408051610100810182526008909302909101805483526001810154600160a060020a031693830193909352600280840154918301919091526003830154606083015260048301546080830152600583015491929160a084019160ff909116908111156118cd576118cd61297d565b60028111156118de576118de61297d565b81526006820154602082015260079091015463ffffffff166040909101528152600a80548061190f5761190f612bc8565b600082815260208120600860001990930192830201818155600181018054600160a060020a031916905560028101829055600381018290556004810182905560058101805460ff191690556006810191909155600701805463ffffffff1916905590555b600b5415611ac057600b805461198b90600190612b87565b8154811061199b5761199b612ae9565b600091825260209182902060408051610100810182526008909302909101805483526001810154600160a060020a031693830193909352600280840154918301919091526003830154606083015260048301546080830152600583015491929160a084019160ff90911690811115611a1557611a1561297d565b6002811115611a2657611a2661297d565b8152600682015460208083019190915260079092015463ffffffff16604090910152820152600b805480611a5c57611a5c612bc8565b600082815260208120600860001990930192830201818155600181018054600160a060020a031916905560028101829055600381018290556004810182905560058101805460ff191690556006810191909155600701805463ffffffff1916905590555b611ada816000015160400151826020015160400151612282565b60408201526020810151608090810151825190910151611b0691600291611b0091612299565b906116e0565b6060820152604080820151825190910151611b20916122fb565b6080820152604080820151602083015190910151611b3d916122fb565b60a0820152805160809081015190820151611b579161233d565b60c082015260208101516080015160a0820151611b739161233d565b60e082015260408051426020820152449181019190915260600160408051601f198184030181529190528051602090910120610100820152608081015115611d4e5760c0810151815160609081019190915260808083015183516040908101919091528351600a805460018181018355600092909252825160089091027fc65a7bb8d6351c1cf70c95a316cc6a92839c986682d98bc35f958f4883f9d2a8810191825560208401517fc65a7bb8d6351c1cf70c95a316cc6a92839c986682d98bc35f958f4883f9d2a982018054600160a060020a03909216600160a060020a0319909216919091179055938301517fc65a7bb8d6351c1cf70c95a316cc6a92839c986682d98bc35f958f4883f9d2aa850155948201517fc65a7bb8d6351c1cf70c95a316cc6a92839c986682d98bc35f958f4883f9d2ab840155928101517fc65a7bb8d6351c1cf70c95a316cc6a92839c986682d98bc35f958f4883f9d2ac83015560a08101517fc65a7bb8d6351c1cf70c95a316cc6a92839c986682d98bc35f958f4883f9d2ad9092018054919493909160ff191690836002811115611d1c57611d1c61297d565b021790555060c0820151600682015560e0909101516007909101805463ffffffff191663ffffffff9092169190911790555b60a081015115611ef35760e08101516020808301805160609081019390935260a08085015182516040908101919091529151600b80546001808201835560009290925282517f0175b7a638427703f0dbe7bb9bbf987a2551717b34e79f33b5b1008d1fa01db96008909202918201908155958301517f0175b7a638427703f0dbe7bb9bbf987a2551717b34e79f33b5b1008d1fa01dba82018054600160a060020a031916600160a060020a03909216919091179055938201517f0175b7a638427703f0dbe7bb9bbf987a2551717b34e79f33b5b1008d1fa01dbb850155948101517f0175b7a638427703f0dbe7bb9bbf987a2551717b34e79f33b5b1008d1fa01dbc84015560808101517f0175b7a638427703f0dbe7bb9bbf987a2551717b34e79f33b5b1008d1fa01dbd840155908101517f0175b7a638427703f0dbe7bb9bbf987a2551717b34e79f33b5b1008d1fa01dbe90920180549194909160ff191690836002811115611ec157611ec161297d565b021790555060c0820151600682015560e0909101516007909101805463ffffffff191663ffffffff9092169190911790555b60608101516040820151611f069161233d565b61012082015260c081015181516080810151604090910151611f339291611f2d919061233d565b906122fb565b61014082015260e081015160208201516080810151604090910151611f5d9291611f2d919061233d565b6101608201526101008101516101408201518251611f7c9291906123de565b611f9581610100015182610160015183602001516123de565b600160085460ff166002811115611fae57611fae61297d565b03611fd157611fcc816101000151826101200151836000015161255f565b612008565b600260085460ff166002811115611fea57611fea61297d565b0361200857611fcc816101000151826101200151836020015161255f565b6060810151600455604081015160058054600090612027908490612b87565b909155505060408051426020820152449181019190915260600160405160208183030381529060405280519060200120816101800181815250506000604051806101c001604052808361018001518152602001836000015160000151815260200183602001516000015181526020018361010001518152602001600160009054906101000a9004600160a060020a0316600160a060020a031681526020018360400151815260200183606001518152602001836080015181526020018360a0015181526020018360c0015181526020018360e0015181526020018361014001518152602001836101600151815260200183610120015181525090507fa529cbc4923912b6715f134df9069fee388c4bb00027952ccba1683d6dae2e12816040516121519190612be1565b60405180910390a15050565b600081815b600a548110156121bd576000600a828154811061218157612181612ae9565b600091825260209091206007600890920201015463ffffffff1690506121a78184612b1b565b92505080806121b590612b2e565b915050612162565b5060005b600b5481101561221c576000600b82815481106121e0576121e0612ae9565b600091825260209091206007600890920201015463ffffffff1690506122068184612b1b565b925050808061221490612b2e565b9150506121c1565b50600061222a600283612ca7565b90508060010361223e575060019392505050565b5060029392505050565b6000818361226c5760405160e560020a62461bcd0281526004016101819190612cdf565b5060006122798486612d12565b95945050505050565b6000818311156122925781611722565b5090919050565b6000806122a68385612b1b565b9050838110156117225760405160e560020a62461bcd02815260206004820152601b60248201527f536166654d6174683a206164646974696f6e206f766572666c6f7700000000006044820152606401610181565b600061172283836040518060400160405280601e81526020017f536166654d6174683a207375627472616374696f6e206f766572666c6f770000815250612871565b60008260000361234f57506000611725565b600061235b8385612b9a565b9050826123688583612d12565b146117225760405160e560020a62461bcd02815260206004820152602160248201527f536166654d6174683a206d756c7469706c69636174696f6e206f766572666c6f60448201527f77000000000000000000000000000000000000000000000000000000000000006064820152608401610181565b60208181015160408051600080825293810191829052919291600160a060020a03841691869161240d91612d26565b60006040518083038185875af1925050503d806000811461244a576040519150601f19603f3d011682016040523d82523d6000602084013e61244f565b606091505b50509050806124735760405160e560020a62461bcd02815260040161018190612d42565b60004244604051602001612491929190918252602082015260400190565b60405160208183030381529060405280519060200120905060006040518060a001604052808381526020018660000151815260200188815260200185600160a060020a031681526020018781525090507f18fb24206513f6983861e5acad39384526cb897f511f911740263279449125bc8160405161254e9190600060a082019050825182526020830151602083015260408301516040830152600160a060020a0360608401511660608301526080830151608083015292915050565b60405180910390a150505050505050565b602081015160065460009061258090606490611b0090879061ffff1661233d565b9050600061258e85836122fb565b6006549091506000906125b390606490611b0090869062010000900461ffff1661233d565b905060006125c184836122fb565b6040805160008082526020820192839052929350600160a060020a0388169186916125eb91612d26565b60006040518083038185875af1925050503d8060008114612628576040519150601f19603f3d011682016040523d82523d6000602084013e61262d565b606091505b50509050806126515760405160e560020a62461bcd02815260040161018190612d42565b600154604080516000808252602082019283905292600160a060020a031691869161267b91612d26565b60006040518083038185875af1925050503d80600081146126b8576040519150601f19603f3d011682016040523d82523d6000602084013e6126bd565b606091505b50509050806126e15760405160e560020a62461bcd02815260040161018190612d42565b60008054604080518381526020810190915262010000909104600160a060020a03169085906040516127139190612d26565b60006040518083038185875af1925050503d8060008114612750576040519150601f19603f3d011682016040523d82523d6000602084013e612755565b606091505b50509050806127795760405160e560020a62461bcd02815260040161018190612d42565b60004244604051602001612797929190918252602082015260400190565b60408051601f198184030181528282528051602091820120610180840183528084528d51918401919091528282018f9052600160a060020a038c16606084015260065461ffff8082166080860152620100008204811660a08601526401000000009091041660c084015260e083018e905261010083018a905261012083018b90526101408301899052610160830188905290519092507f8c77d17dfdf762b972b90fefbcc2031d1494f3414de7f55a6b70d7c1b4c3a9d99061285a908390612d79565b60405180910390a150505050505050505050505050565b600081848411156128985760405160e560020a62461bcd0281526004016101819190612cdf565b5060006122798486612b87565b604080516101008101825260008082526020820181905291810182905260608101829052608081018290529060a0820190815260006020820181905260409091015290565b604051806101a001604052806128fe6128a5565b815260200161290b6128a5565b815260200160008152602001600081526020016000815260200160008152602001600081526020016000815260200160008019168152602001600081526020016000815260200160008152602001600080191681525090565b60006020828403121561297657600080fd5b5035919050565b60e060020a634e487b7102600052602160045260246000fd5b60208101600583106129aa576129aa61297d565b91905290565b600381106129c0576129c061297d565b9052565b60006101008201905082518252600160a060020a03602084015116602083015260408301516040830152606083015160608301526080830151608083015260a0830151612a1460a08401826129b0565b5060c083015160c083015263ffffffff60e08401511660e083015292915050565b600060208284031215612a4757600080fd5b8135600160a060020a038116811461172257600080fd5b60008060408385031215612a7157600080fd5b823560038110612a8057600080fd5b9150602083013563ffffffff81168114612a9957600080fd5b809150509250929050565b6020810161172582846129b0565b6020808252601a908201527f4f6e6c792062726f6b65722063616e2063616c6c20746869732e000000000000604082015260600190565b60e060020a634e487b7102600052603260045260246000fd5b60e060020a634e487b7102600052601160045260246000fd5b8082018082111561172557611725612b02565b600060018201612b4057612b40612b02565b5060010190565b6000608082019050612b5a8284516129b0565b60208301516020830152600160a060020a0360408401511660408301526060830151606083015292915050565b8181038181111561172557611725612b02565b808202811582820484141761172557611725612b02565b600081612bc057612bc0612b02565b506000190190565b60e060020a634e487b7102600052603160045260246000fd5b60006101c082019050825182526020830151602083015260408301516040830152606083015160608301526080830151612c266080840182600160a060020a03169052565b5060a0838101519083015260c0808401519083015260e08084015190830152610100808401519083015261012080840151908301526101408084015190830152610160808401519083015261018080840151908301526101a092830151929091019190915290565b60e060020a634e487b7102600052601260045260246000fd5b600082612cb657612cb6612c8e565b500690565b60005b83811015612cd6578181015183820152602001612cbe565b50506000910152565b6020815260008251806020840152612cfe816040850160208701612cbb565b601f01601f19169190910160400192915050565b600082612d2157612d21612c8e565b500490565b60008251612d38818460208701612cbb565b9190910192915050565b60208082526013908201527f4554485f5452414e534645525f4641494c454400000000000000000000000000604082015260600190565b6000610180820190508251825260208301516020830152604083015160408301526060830151612db46060840182600160a060020a03169052565b506080830151612dca608084018261ffff169052565b5060a0830151612de060a084018261ffff169052565b5060c0830151612df660c084018261ffff169052565b5060e083810151908301526101008084015190830152610120808401519083015261014080840151908301526101609283015192909101919091529056fea26469706673582212200346bb2fbd7658beffeb22821c1b1ca4dac3a9197c4fab6b1b780d5892869d9b64736f6c63430008130033",
  "immutableReferences": {},
  "source": "// SPDX-License-Identifier: MIT\npragma solidity >=0.4.22 <0.8.20;\nimport \"./IOddsdex.sol\";\nimport \"./SafeMath.sol\";\n\ncontract OddsdexContract is IOddsdexContract {\n    using SafeMath for *;\n\n    OddsdexState private state;\n    bool private running;\n    address private root;\n    address private broker;\n    address private parent;\n    BulletinBoard private bulletinBoard;\n    uint256 private coverHash;\n    CoinDirection private winningDirection;\n    mapping(address => StakeBill[]) private stakeBills;\n    StakeBill[] private buyFrontBillQueue;\n    StakeBill[] private buyBackBillQueue;\n\n    constructor(address _root, address _broker) {\n        parent = msg.sender;\n        root = _root;\n        broker = _broker;\n        uint256 oddunit = 0.0001 * (10 ** 18);\n        uint256 initialPrice = 1;\n        uint16 kickbackRate = 20;\n        uint16 brokerageRate = 70;\n        uint16 taxRate = 100 - brokerageRate;\n        bulletinBoard = BulletinBoard(\n            oddunit,\n            initialPrice,\n            0,\n            kickbackRate,\n            brokerageRate,\n            taxRate\n        );\n        state = OddsdexState.matchmaked;\n        running = true;\n    }\n\n    modifier onlyRoot() {\n        require(msg.sender == root, \"Only root can call this.\");\n        _;\n    }\n\n    modifier onlyBroker() {\n        require(msg.sender == broker, \"Only broker can call this.\");\n        _;\n    }\n    modifier mustRunning() {\n        require(running, \"oddsdex has stopped\");\n        _;\n    }\n    modifier checkLuckyNumberByBrokerHash(uint256 luckyNumber) {\n        bytes32 packed = keccak256(abi.encodePacked(luckyNumber));\n        uint256 _hash = uint256(packed);\n        require(_hash == coverHash, \"LuckyNumber verification failed\");\n        _;\n    }\n\n    function getState() public view override returns (OddsdexState) {\n        return state;\n    }\n\n    function getFrontQueueCount() public view override returns (uint256) {\n        return buyFrontBillQueue.length;\n    }\n\n    function getBackQueueCount() public view override returns (uint256) {\n        return buyBackBillQueue.length;\n    }\n\n    function getFrontBillQueue(\n        uint index\n    ) public view override returns (StakeBill memory) {\n        StakeBill memory bill;\n        if (index >= buyFrontBillQueue.length) {\n            return bill;\n        }\n        bill = buyFrontBillQueue[index];\n        return bill;\n    }\n\n    function getBackBillQueue(\n        uint index\n    ) public view override returns (StakeBill memory) {\n        StakeBill memory bill;\n        if (index >= buyBackBillQueue.length) {\n            return bill;\n        }\n        bill = buyBackBillQueue[index];\n        return bill;\n    }\n\n    function getWinningDirection()\n        public\n        view\n        override\n        returns (CoinDirection)\n    {\n        return winningDirection;\n    }\n\n    function getWeiPrice() public view override returns (uint256) {\n        return bulletinBoard.oddunit * bulletinBoard.price;\n    }\n\n    function getBulletinBoard()\n        public\n        view\n        override\n        returns (BulletinBoard memory)\n    {\n        return bulletinBoard;\n    }\n\n    function isRunning() public view override returns (bool) {\n        return running;\n    }\n\n    function stop() public override {\n        running = false;\n    }\n\n    function run() public override {\n        running = true;\n    }\n\n    function getRoot() public view override returns (address) {\n        return root;\n    }\n\n    function getBroker() public view override returns (address) {\n        return broker;\n    }\n\n    function costOnBillOfPlayer(\n        address _player\n    ) public view override returns (uint256) {\n        StakeBill[] memory bills = stakeBills[_player];\n        uint256 total;\n        for (uint i = 0; i < bills.length; i++) {\n            StakeBill memory bill = bills[i];\n            total += bill.costs;\n        }\n        return total;\n    }\n\n    function cover(uint256 _hash) public override onlyBroker mustRunning {\n        require(\n            state == OddsdexState.matchmaked,\n            \"Must have matchmaked before calling\"\n        );\n        coverHash = _hash;\n        state = OddsdexState.covering;\n    }\n\n    function lottery(\n        uint256 _luckyNumber\n    )\n        public\n        override\n        onlyBroker\n        mustRunning\n        checkLuckyNumberByBrokerHash(_luckyNumber)\n        returns (CoinDirection)\n    {\n        require(\n            state == OddsdexState.covering,\n            \"Must have covering before calling\"\n        );\n        state == OddsdexState.lottering;\n        winningDirection = _calculateWinning(_luckyNumber);\n        state == OddsdexState.lottered;\n\n        LotteryMessage memory message = LotteryMessage(\n            winningDirection,\n            _luckyNumber,\n            broker,\n            coverHash\n        );\n\n        emit OnLotteryEvent(message);\n\n        return winningDirection;\n    }\n\n    function _calculateWinning(\n        uint256 _luckyNumber\n    ) internal view returns (CoinDirection) {\n        uint total = _luckyNumber;\n        for (uint i = 0; i < buyFrontBillQueue.length; i++) {\n            uint32 luckyNumberOfPlayer = buyFrontBillQueue[i].luckyNumber;\n            total += luckyNumberOfPlayer;\n        }\n        for (uint i = 0; i < buyBackBillQueue.length; i++) {\n            uint32 luckyNumberOfPlayer = buyBackBillQueue[i].luckyNumber;\n            total += luckyNumberOfPlayer;\n        }\n        uint v = total % 2;\n        if (v == 1) {\n            return CoinDirection.front;\n        } else {\n            return CoinDirection.back;\n        }\n    }\n\n    function canMatchmaking() public view override onlyBroker returns (bool) {\n        if (state != OddsdexState.lottered) {\n            return false;\n        }\n        StakeBill memory tailF;\n        if (buyFrontBillQueue.length > 0) {\n            tailF = buyFrontBillQueue[buyFrontBillQueue.length - 1];\n        }\n        StakeBill memory tailB;\n        if (buyBackBillQueue.length > 0) {\n            tailB = buyBackBillQueue[buyBackBillQueue.length - 1];\n        }\n\n        if (winningDirection == CoinDirection.front) {\n            return tailF.buyPrice <= tailB.buyPrice;\n        } else if (winningDirection == CoinDirection.back) {\n            return tailB.buyPrice <= tailF.buyPrice;\n        } else {\n            return false;\n        }\n    }\n\n    function matchmake() public override onlyBroker {\n        require(\n            state == OddsdexState.lottered,\n            \"Must have lottered before calling\"\n        );\n        state == OddsdexState.matchmaking;\n        while (canMatchmaking()) {\n            _matchmakePairBill();\n        }\n        state == OddsdexState.matchmaked;\n    }\n\n    struct LocalVar {\n        StakeBill tailF;\n        StakeBill tailB;\n        uint256 dealOdds;\n        uint256 dealPrice;\n        uint256 tailFOdds;\n        uint256 tailBOdds;\n        uint256 tailFCostOnBill;\n        uint256 tailBCostOnBill;\n        bytes32 mtn;\n        uint256 prize;\n        uint256 tailFRefundCost;\n        uint256 tailBRefundCost;\n        bytes32 idNewBytes;\n    }\n\n    function _matchmakePairBill() internal {\n        LocalVar memory lvar;\n        //\n        if (buyFrontBillQueue.length > 0) {\n            lvar.tailF = buyFrontBillQueue[buyFrontBillQueue.length - 1];\n            buyFrontBillQueue.pop();\n        }\n\n        if (buyBackBillQueue.length > 0) {\n            lvar.tailB = buyBackBillQueue[buyBackBillQueue.length - 1];\n            buyBackBillQueue.pop();\n        }\n\n        lvar.dealOdds = _min(lvar.tailF.odds, lvar.tailB.odds);\n        lvar.dealPrice = (lvar.tailF.buyPrice.add(lvar.tailB.buyPrice)).div(2);\n        lvar.tailFOdds = lvar.tailF.odds.sub(lvar.dealOdds);\n        lvar.tailBOdds = lvar.tailB.odds.sub(lvar.dealOdds);\n        lvar.tailFCostOnBill = lvar.tailFOdds.mul(lvar.tailF.buyPrice);\n        lvar.tailBCostOnBill = lvar.tailBOdds.mul(lvar.tailB.buyPrice);\n\n        //mtn is Matchmaking transaction number\n        lvar.mtn = bytes32(\n            keccak256(abi.encodePacked(block.timestamp, block.difficulty))\n        );\n\n        if (lvar.tailFOdds > 0) {\n            lvar.tailF.costs = lvar.tailFCostOnBill;\n            lvar.tailF.odds = lvar.tailFOdds;\n            buyFrontBillQueue.push(lvar.tailF);\n        }\n        if (lvar.tailBOdds > 0) {\n            lvar.tailB.costs = lvar.tailBCostOnBill;\n            lvar.tailB.odds = lvar.tailBOdds;\n            buyBackBillQueue.push(lvar.tailB);\n        }\n\n        lvar.prize = lvar.dealOdds.mul(lvar.dealPrice);\n        lvar.tailFRefundCost = lvar.tailF.odds.mul(lvar.tailF.buyPrice).sub(\n            lvar.tailFCostOnBill\n        );\n        lvar.tailBRefundCost = lvar.tailB.odds.mul(lvar.tailB.buyPrice).sub(\n            lvar.tailBCostOnBill\n        );\n\n        _refundCost(lvar.mtn, lvar.tailFRefundCost, lvar.tailF);\n        _refundCost(lvar.mtn, lvar.tailBRefundCost, lvar.tailB);\n\n        if (winningDirection == CoinDirection.front) {\n            _splitPrize(lvar.mtn, lvar.prize, lvar.tailF);\n        } else if (winningDirection == CoinDirection.back) {\n            _splitPrize(lvar.mtn, lvar.prize, lvar.tailB);\n        } else {}\n\n        bulletinBoard.price = lvar.dealPrice;\n        bulletinBoard.odds -= lvar.dealOdds;\n\n        lvar.idNewBytes = bytes32(\n            keccak256(abi.encodePacked(block.timestamp, block.difficulty))\n        );\n\n        MatchmakingBill memory _mbill = MatchmakingBill(\n            lvar.idNewBytes,\n            lvar.tailF.id,\n            lvar.tailB.id,\n            lvar.mtn,\n            broker,\n            lvar.dealOdds,\n            lvar.dealPrice,\n            lvar.tailFOdds,\n            lvar.tailBOdds,\n            lvar.tailFCostOnBill,\n            lvar.tailBCostOnBill,\n            lvar.tailFRefundCost,\n            lvar.tailBRefundCost,\n            lvar.prize\n        );\n        emit OnMatchMakingEvent(_mbill);\n    }\n\n    function _refundCost(\n        bytes32 mtn,\n        uint256 cost,\n        StakeBill memory bill\n    ) internal {\n        address player = bill.owner;\n        (bool success, ) = payable(player).call{value: cost}(new bytes(0));\n        require(success, \"ETH_TRANSFER_FAILED\");\n\n        bytes32 idBytes = keccak256(\n            abi.encodePacked(block.timestamp, block.difficulty)\n        );\n        RefundBill memory _rbill = RefundBill(\n            idBytes,\n            bill.id,\n            mtn,\n            player,\n            cost\n        );\n        emit OnRefundBillEvent(_rbill);\n    }\n\n    function _splitPrize(\n        bytes32 mtn,\n        uint256 prize,\n        StakeBill memory bill\n    ) internal {\n        address player = bill.owner;\n        uint256 kickback = prize.mul(bulletinBoard.kickbackRate).div(100);\n        uint256 bonusOfPlayer = prize.sub(kickback);\n        uint256 brokerage = kickback.mul(bulletinBoard.brokerageRate).div(100);\n        uint256 tax = kickback.sub(brokerage);\n\n        (bool success, ) = payable(player).call{value: bonusOfPlayer}(\n            new bytes(0)\n        );\n        require(success, \"ETH_TRANSFER_FAILED\");\n        (bool success1, ) = payable(broker).call{value: brokerage}(\n            new bytes(0)\n        );\n        require(success1, \"ETH_TRANSFER_FAILED\");\n        (bool success2, ) = payable(root).call{value: tax}(new bytes(0));\n        require(success2, \"ETH_TRANSFER_FAILED\");\n\n        bytes32 idBytes = keccak256(\n            abi.encodePacked(block.timestamp, block.difficulty)\n        );\n        SplitBill memory _sbill = SplitBill(\n            idBytes,\n            bill.id,\n            mtn,\n            player,\n            bulletinBoard.kickbackRate,\n            bulletinBoard.brokerageRate,\n            bulletinBoard.taxRate,\n            prize,\n            bonusOfPlayer,\n            kickback,\n            brokerage,\n            tax\n        );\n        emit OnSplitBillEvent(_sbill);\n    }\n\n    function _min(uint256 a, uint256 b) internal pure returns (uint256) {\n        return a <= b ? a : b;\n    }\n\n    fallback() external payable {\n        require(false, \"No other calls supported\");\n    }\n\n    receive() external payable {\n        require(false, \"No other calls supported\");\n    }\n\n    function stake(\n        CoinDirection buyDirection,\n        uint32 luckyNumber\n    ) external payable override {\n        require(\n            buyDirection != CoinDirection.unknown,\n            \"Buying direction is unknown\"\n        );\n        require(\n            state != OddsdexState.matchmaking,\n            \"Do not accept orders when matching\"\n        );\n        uint256 odds = msg.value.div(getWeiPrice());\n        require(odds >= 10, \"Minimum purchase of 10 odds\");\n        bulletinBoard.odds += odds;\n        bytes32 idBytes = keccak256(\n            abi.encodePacked(block.timestamp, block.difficulty)\n        );\n        StakeBill memory bill = StakeBill(\n            idBytes,\n            msg.sender,\n            odds,\n            msg.value,\n            bulletinBoard.price,\n            buyDirection,\n            gasleft(),\n            luckyNumber\n        );\n        stakeBills[msg.sender].push(bill);\n        if (buyDirection == CoinDirection.front) {\n            buyFrontBillQueue.push(bill);\n            _insertionSort(buyFrontBillQueue);\n        } else if (buyDirection == CoinDirection.back) {\n            buyBackBillQueue.push(bill);\n            _insertionSort(buyBackBillQueue);\n        } else {}\n        emit OnStakeBillEvent(bill);\n    }\n\n    function _insertionSort(StakeBill[] memory a) internal pure {\n        for (uint i = 1; i < a.length; i++) {\n            StakeBill memory temp = a[i];\n            uint j;\n            for (j = i - 1; j >= 0 && temp.buyPrice < a[j].buyPrice; j--)\n                a[j + 1] = a[j];\n            a[j + 1] = temp;\n        }\n    }\n}\n",
  "sourcePath": "/Users/cj/games/game-oddsdex/contracts/OddsdexContract.sol",
  "compiler": {
    "name": "solc",
    "version": "0.8.19+commit.7dd6d404.Emscripten.clang"
  },
  "schemaVersion": "3.4.14",
  "updatedAt": "2023-08-25T13:29:19.685Z",
  "networkType": "ethereum",
  "devdoc": {
    "kind": "dev",
    "methods": {},
    "version": 1
  },
  "userdoc": {
    "kind": "user",
    "methods": {},
    "version": 1
  }
}