{
  "contractName": "OddsdexContract",
  "abi": [
    {
      "inputs": [
        {
          "internalType": "address",
          "name": "_root",
          "type": "address"
        },
        {
          "internalType": "address",
          "name": "_broker",
          "type": "address"
        }
      ],
      "stateMutability": "nonpayable",
      "type": "constructor"
    },
    {
      "anonymous": false,
      "inputs": [
        {
          "components": [
            {
              "internalType": "bytes16",
              "name": "id",
              "type": "bytes16"
            },
            {
              "internalType": "bytes16",
              "name": "fid",
              "type": "bytes16"
            },
            {
              "internalType": "bytes16",
              "name": "bid",
              "type": "bytes16"
            },
            {
              "internalType": "address",
              "name": "broker",
              "type": "address"
            },
            {
              "internalType": "uint256",
              "name": "dealOdds",
              "type": "uint256"
            },
            {
              "internalType": "uint256",
              "name": "dealPrice",
              "type": "uint256"
            },
            {
              "internalType": "uint256",
              "name": "fOdds",
              "type": "uint256"
            },
            {
              "internalType": "uint256",
              "name": "bOdds",
              "type": "uint256"
            },
            {
              "internalType": "uint256",
              "name": "fCostOnBill",
              "type": "uint256"
            },
            {
              "internalType": "uint256",
              "name": "bCostOnBill",
              "type": "uint256"
            },
            {
              "internalType": "uint256",
              "name": "fRefundCosts",
              "type": "uint256"
            },
            {
              "internalType": "uint256",
              "name": "bRefundCosts",
              "type": "uint256"
            },
            {
              "internalType": "uint256",
              "name": "prize",
              "type": "uint256"
            },
            {
              "internalType": "enum CoinDirection",
              "name": "winningDirection",
              "type": "uint8"
            }
          ],
          "indexed": false,
          "internalType": "struct MatchmakingBill",
          "name": "bill",
          "type": "tuple"
        }
      ],
      "name": "OnMatchMakingEvent",
      "type": "event"
    },
    {
      "anonymous": false,
      "inputs": [
        {
          "indexed": false,
          "internalType": "uint32",
          "name": "matchmakeTimes",
          "type": "uint32"
        },
        {
          "indexed": false,
          "internalType": "enum CoinDirection",
          "name": "winningDirection",
          "type": "uint8"
        }
      ],
      "name": "OnMatchmakeReturn",
      "type": "event"
    },
    {
      "anonymous": false,
      "inputs": [
        {
          "components": [
            {
              "internalType": "bytes16",
              "name": "id",
              "type": "bytes16"
            },
            {
              "internalType": "address",
              "name": "broker",
              "type": "address"
            },
            {
              "internalType": "uint256",
              "name": "amount",
              "type": "uint256"
            },
            {
              "internalType": "uint256",
              "name": "balance",
              "type": "uint256"
            },
            {
              "internalType": "uint256",
              "name": "gas",
              "type": "uint256"
            }
          ],
          "indexed": false,
          "internalType": "struct RechargeBill",
          "name": "bill",
          "type": "tuple"
        }
      ],
      "name": "OnRechargeEvent",
      "type": "event"
    },
    {
      "anonymous": false,
      "inputs": [
        {
          "components": [
            {
              "internalType": "bytes16",
              "name": "id",
              "type": "bytes16"
            },
            {
              "internalType": "bytes16",
              "name": "mmid",
              "type": "bytes16"
            },
            {
              "internalType": "address",
              "name": "owner",
              "type": "address"
            },
            {
              "internalType": "uint256",
              "name": "costs",
              "type": "uint256"
            }
          ],
          "indexed": false,
          "internalType": "struct RefundBill",
          "name": "bill",
          "type": "tuple"
        }
      ],
      "name": "OnRefundBillEvent",
      "type": "event"
    },
    {
      "anonymous": false,
      "inputs": [
        {
          "components": [
            {
              "internalType": "bytes16",
              "name": "id",
              "type": "bytes16"
            },
            {
              "internalType": "bytes16",
              "name": "mmid",
              "type": "bytes16"
            },
            {
              "internalType": "address",
              "name": "owner",
              "type": "address"
            },
            {
              "internalType": "uint16",
              "name": "kickbackRate",
              "type": "uint16"
            },
            {
              "internalType": "uint16",
              "name": "brokerageRate",
              "type": "uint16"
            },
            {
              "internalType": "uint16",
              "name": "taxRate",
              "type": "uint16"
            },
            {
              "internalType": "uint256",
              "name": "prize",
              "type": "uint256"
            },
            {
              "internalType": "uint256",
              "name": "bonus",
              "type": "uint256"
            },
            {
              "internalType": "uint256",
              "name": "kickback",
              "type": "uint256"
            },
            {
              "internalType": "uint256",
              "name": "brokerage",
              "type": "uint256"
            },
            {
              "internalType": "uint256",
              "name": "tax",
              "type": "uint256"
            }
          ],
          "indexed": false,
          "internalType": "struct SplitBill",
          "name": "bill",
          "type": "tuple"
        }
      ],
      "name": "OnSplitBillEvent",
      "type": "event"
    },
    {
      "anonymous": false,
      "inputs": [
        {
          "components": [
            {
              "internalType": "bytes16",
              "name": "id",
              "type": "bytes16"
            },
            {
              "internalType": "address",
              "name": "owner",
              "type": "address"
            },
            {
              "internalType": "uint256",
              "name": "odds",
              "type": "uint256"
            },
            {
              "internalType": "uint256",
              "name": "costs",
              "type": "uint256"
            },
            {
              "internalType": "uint256",
              "name": "buyPrice",
              "type": "uint256"
            },
            {
              "internalType": "uint256",
              "name": "marketPrice",
              "type": "uint256"
            },
            {
              "internalType": "enum CoinDirection",
              "name": "buyDirection",
              "type": "uint8"
            },
            {
              "internalType": "uint256",
              "name": "gas",
              "type": "uint256"
            },
            {
              "internalType": "uint32",
              "name": "luckyNumber",
              "type": "uint32"
            }
          ],
          "indexed": false,
          "internalType": "struct StakeBill",
          "name": "bill",
          "type": "tuple"
        }
      ],
      "name": "OnStakeBillEvent",
      "type": "event"
    },
    {
      "stateMutability": "payable",
      "type": "fallback",
      "payable": true
    },
    {
      "stateMutability": "payable",
      "type": "receive",
      "payable": true
    },
    {
      "inputs": [],
      "name": "getWeiPrice",
      "outputs": [
        {
          "internalType": "uint256",
          "name": "",
          "type": "uint256"
        }
      ],
      "stateMutability": "view",
      "type": "function",
      "constant": true
    },
    {
      "inputs": [],
      "name": "getBulletinBoard",
      "outputs": [
        {
          "components": [
            {
              "internalType": "uint256",
              "name": "oddunit",
              "type": "uint256"
            },
            {
              "internalType": "uint256",
              "name": "price",
              "type": "uint256"
            },
            {
              "internalType": "uint256",
              "name": "odds",
              "type": "uint256"
            },
            {
              "internalType": "uint256",
              "name": "funds",
              "type": "uint256"
            },
            {
              "internalType": "uint16",
              "name": "kickbackRate",
              "type": "uint16"
            },
            {
              "internalType": "uint16",
              "name": "brokerageRate",
              "type": "uint16"
            },
            {
              "internalType": "uint16",
              "name": "taxRate",
              "type": "uint16"
            }
          ],
          "internalType": "struct BulletinBoard",
          "name": "",
          "type": "tuple"
        }
      ],
      "stateMutability": "view",
      "type": "function",
      "constant": true
    },
    {
      "inputs": [],
      "name": "isRunning",
      "outputs": [
        {
          "internalType": "bool",
          "name": "",
          "type": "bool"
        }
      ],
      "stateMutability": "view",
      "type": "function",
      "constant": true
    },
    {
      "inputs": [],
      "name": "stop",
      "outputs": [],
      "stateMutability": "nonpayable",
      "type": "function"
    },
    {
      "inputs": [],
      "name": "run",
      "outputs": [],
      "stateMutability": "nonpayable",
      "type": "function"
    },
    {
      "inputs": [],
      "name": "getRoot",
      "outputs": [
        {
          "internalType": "address",
          "name": "",
          "type": "address"
        }
      ],
      "stateMutability": "view",
      "type": "function",
      "constant": true
    },
    {
      "inputs": [],
      "name": "getBroker",
      "outputs": [
        {
          "internalType": "address",
          "name": "",
          "type": "address"
        }
      ],
      "stateMutability": "view",
      "type": "function",
      "constant": true
    },
    {
      "inputs": [],
      "name": "getBalance",
      "outputs": [
        {
          "internalType": "uint256",
          "name": "",
          "type": "uint256"
        }
      ],
      "stateMutability": "view",
      "type": "function",
      "constant": true
    },
    {
      "inputs": [],
      "name": "getQueueCount",
      "outputs": [
        {
          "internalType": "uint256",
          "name": "",
          "type": "uint256"
        }
      ],
      "stateMutability": "view",
      "type": "function",
      "constant": true
    },
    {
      "inputs": [],
      "name": "getFrontQueueCount",
      "outputs": [
        {
          "internalType": "uint256",
          "name": "",
          "type": "uint256"
        }
      ],
      "stateMutability": "view",
      "type": "function",
      "constant": true
    },
    {
      "inputs": [],
      "name": "getBackQueueCount",
      "outputs": [
        {
          "internalType": "uint256",
          "name": "",
          "type": "uint256"
        }
      ],
      "stateMutability": "view",
      "type": "function",
      "constant": true
    },
    {
      "inputs": [],
      "name": "getTopFiveBillFrontQueue",
      "outputs": [
        {
          "internalType": "uint32",
          "name": "length",
          "type": "uint32"
        },
        {
          "components": [
            {
              "internalType": "bytes16",
              "name": "id",
              "type": "bytes16"
            },
            {
              "internalType": "address",
              "name": "owner",
              "type": "address"
            },
            {
              "internalType": "uint256",
              "name": "odds",
              "type": "uint256"
            },
            {
              "internalType": "uint256",
              "name": "costs",
              "type": "uint256"
            },
            {
              "internalType": "uint256",
              "name": "buyPrice",
              "type": "uint256"
            },
            {
              "internalType": "uint256",
              "name": "marketPrice",
              "type": "uint256"
            },
            {
              "internalType": "enum CoinDirection",
              "name": "buyDirection",
              "type": "uint8"
            },
            {
              "internalType": "uint256",
              "name": "gas",
              "type": "uint256"
            },
            {
              "internalType": "uint32",
              "name": "luckyNumber",
              "type": "uint32"
            }
          ],
          "internalType": "struct StakeBill[5]",
          "name": "bills",
          "type": "tuple[5]"
        }
      ],
      "stateMutability": "view",
      "type": "function",
      "constant": true
    },
    {
      "inputs": [],
      "name": "getTopFiveBillBackQueue",
      "outputs": [
        {
          "internalType": "uint32",
          "name": "length",
          "type": "uint32"
        },
        {
          "components": [
            {
              "internalType": "bytes16",
              "name": "id",
              "type": "bytes16"
            },
            {
              "internalType": "address",
              "name": "owner",
              "type": "address"
            },
            {
              "internalType": "uint256",
              "name": "odds",
              "type": "uint256"
            },
            {
              "internalType": "uint256",
              "name": "costs",
              "type": "uint256"
            },
            {
              "internalType": "uint256",
              "name": "buyPrice",
              "type": "uint256"
            },
            {
              "internalType": "uint256",
              "name": "marketPrice",
              "type": "uint256"
            },
            {
              "internalType": "enum CoinDirection",
              "name": "buyDirection",
              "type": "uint8"
            },
            {
              "internalType": "uint256",
              "name": "gas",
              "type": "uint256"
            },
            {
              "internalType": "uint32",
              "name": "luckyNumber",
              "type": "uint32"
            }
          ],
          "internalType": "struct StakeBill[5]",
          "name": "bills",
          "type": "tuple[5]"
        }
      ],
      "stateMutability": "view",
      "type": "function",
      "constant": true
    },
    {
      "inputs": [],
      "name": "getFirstBillOfFrontQueue",
      "outputs": [
        {
          "internalType": "uint32",
          "name": "bitIndexAt",
          "type": "uint32"
        },
        {
          "components": [
            {
              "internalType": "bytes16",
              "name": "id",
              "type": "bytes16"
            },
            {
              "internalType": "address",
              "name": "owner",
              "type": "address"
            },
            {
              "internalType": "uint256",
              "name": "odds",
              "type": "uint256"
            },
            {
              "internalType": "uint256",
              "name": "costs",
              "type": "uint256"
            },
            {
              "internalType": "uint256",
              "name": "buyPrice",
              "type": "uint256"
            },
            {
              "internalType": "uint256",
              "name": "marketPrice",
              "type": "uint256"
            },
            {
              "internalType": "enum CoinDirection",
              "name": "buyDirection",
              "type": "uint8"
            },
            {
              "internalType": "uint256",
              "name": "gas",
              "type": "uint256"
            },
            {
              "internalType": "uint32",
              "name": "luckyNumber",
              "type": "uint32"
            }
          ],
          "internalType": "struct StakeBill",
          "name": "bill",
          "type": "tuple"
        }
      ],
      "stateMutability": "view",
      "type": "function",
      "constant": true
    },
    {
      "inputs": [],
      "name": "getFirstBillOfBackQueue",
      "outputs": [
        {
          "internalType": "uint32",
          "name": "bitIndexAt",
          "type": "uint32"
        },
        {
          "components": [
            {
              "internalType": "bytes16",
              "name": "id",
              "type": "bytes16"
            },
            {
              "internalType": "address",
              "name": "owner",
              "type": "address"
            },
            {
              "internalType": "uint256",
              "name": "odds",
              "type": "uint256"
            },
            {
              "internalType": "uint256",
              "name": "costs",
              "type": "uint256"
            },
            {
              "internalType": "uint256",
              "name": "buyPrice",
              "type": "uint256"
            },
            {
              "internalType": "uint256",
              "name": "marketPrice",
              "type": "uint256"
            },
            {
              "internalType": "enum CoinDirection",
              "name": "buyDirection",
              "type": "uint8"
            },
            {
              "internalType": "uint256",
              "name": "gas",
              "type": "uint256"
            },
            {
              "internalType": "uint32",
              "name": "luckyNumber",
              "type": "uint32"
            }
          ],
          "internalType": "struct StakeBill",
          "name": "bill",
          "type": "tuple"
        }
      ],
      "stateMutability": "view",
      "type": "function",
      "constant": true
    },
    {
      "inputs": [
        {
          "internalType": "uint32",
          "name": "index",
          "type": "uint32"
        }
      ],
      "name": "getStakeBill",
      "outputs": [
        {
          "internalType": "bool",
          "name": "exists",
          "type": "bool"
        },
        {
          "components": [
            {
              "internalType": "bytes16",
              "name": "id",
              "type": "bytes16"
            },
            {
              "internalType": "address",
              "name": "owner",
              "type": "address"
            },
            {
              "internalType": "uint256",
              "name": "odds",
              "type": "uint256"
            },
            {
              "internalType": "uint256",
              "name": "costs",
              "type": "uint256"
            },
            {
              "internalType": "uint256",
              "name": "buyPrice",
              "type": "uint256"
            },
            {
              "internalType": "uint256",
              "name": "marketPrice",
              "type": "uint256"
            },
            {
              "internalType": "enum CoinDirection",
              "name": "buyDirection",
              "type": "uint8"
            },
            {
              "internalType": "uint256",
              "name": "gas",
              "type": "uint256"
            },
            {
              "internalType": "uint32",
              "name": "luckyNumber",
              "type": "uint32"
            }
          ],
          "internalType": "struct StakeBill",
          "name": "bill",
          "type": "tuple"
        }
      ],
      "stateMutability": "view",
      "type": "function",
      "constant": true
    },
    {
      "inputs": [],
      "name": "canMatchmaking",
      "outputs": [
        {
          "internalType": "bool",
          "name": "matched",
          "type": "bool"
        },
        {
          "components": [
            {
              "internalType": "uint32",
              "name": "bitIndexAtF",
              "type": "uint32"
            },
            {
              "components": [
                {
                  "internalType": "bytes16",
                  "name": "id",
                  "type": "bytes16"
                },
                {
                  "internalType": "address",
                  "name": "owner",
                  "type": "address"
                },
                {
                  "internalType": "uint256",
                  "name": "odds",
                  "type": "uint256"
                },
                {
                  "internalType": "uint256",
                  "name": "costs",
                  "type": "uint256"
                },
                {
                  "internalType": "uint256",
                  "name": "buyPrice",
                  "type": "uint256"
                },
                {
                  "internalType": "uint256",
                  "name": "marketPrice",
                  "type": "uint256"
                },
                {
                  "internalType": "enum CoinDirection",
                  "name": "buyDirection",
                  "type": "uint8"
                },
                {
                  "internalType": "uint256",
                  "name": "gas",
                  "type": "uint256"
                },
                {
                  "internalType": "uint32",
                  "name": "luckyNumber",
                  "type": "uint32"
                }
              ],
              "internalType": "struct StakeBill",
              "name": "tailF",
              "type": "tuple"
            },
            {
              "internalType": "uint32",
              "name": "bitIndexAtB",
              "type": "uint32"
            },
            {
              "components": [
                {
                  "internalType": "bytes16",
                  "name": "id",
                  "type": "bytes16"
                },
                {
                  "internalType": "address",
                  "name": "owner",
                  "type": "address"
                },
                {
                  "internalType": "uint256",
                  "name": "odds",
                  "type": "uint256"
                },
                {
                  "internalType": "uint256",
                  "name": "costs",
                  "type": "uint256"
                },
                {
                  "internalType": "uint256",
                  "name": "buyPrice",
                  "type": "uint256"
                },
                {
                  "internalType": "uint256",
                  "name": "marketPrice",
                  "type": "uint256"
                },
                {
                  "internalType": "enum CoinDirection",
                  "name": "buyDirection",
                  "type": "uint8"
                },
                {
                  "internalType": "uint256",
                  "name": "gas",
                  "type": "uint256"
                },
                {
                  "internalType": "uint32",
                  "name": "luckyNumber",
                  "type": "uint32"
                }
              ],
              "internalType": "struct StakeBill",
              "name": "tailB",
              "type": "tuple"
            }
          ],
          "internalType": "struct MatchmakingResult",
          "name": "result",
          "type": "tuple"
        }
      ],
      "stateMutability": "view",
      "type": "function",
      "constant": true
    },
    {
      "inputs": [],
      "name": "matchmake",
      "outputs": [],
      "stateMutability": "nonpayable",
      "type": "function"
    },
    {
      "inputs": [],
      "name": "recharge",
      "outputs": [],
      "stateMutability": "payable",
      "type": "function",
      "payable": true
    },
    {
      "inputs": [
        {
          "internalType": "uint256",
          "name": "buyPrice",
          "type": "uint256"
        },
        {
          "internalType": "enum CoinDirection",
          "name": "buyDirection",
          "type": "uint8"
        },
        {
          "internalType": "uint32",
          "name": "luckyNumber",
          "type": "uint32"
        }
      ],
      "name": "stake",
      "outputs": [],
      "stateMutability": "payable",
      "type": "function",
      "payable": true
    }
  ],
  "bytecode": "0x608060405261090980546001606860020a03191690553480156200002257600080fd5b5060405162003c9138038062003c91833981016040819052620000459162000169565b60028054600160a060020a0319908116331790915560008054600160a060020a038581166101000261010060a860020a0319909216919091178255600180549185169190931617909155606490655af3107a400090601490604690620000ac8286620001a1565b6040805160e0810182528681526020810188905260009181018290526060810182905261ffff9586166080820181905294861660a082018190529290951660c090950185905260039590955560049590955550600583905560068390556007805463ffffffff1916909117620100009094029390931765ffff00000000191664010000000090910217909155805460ff1916600117905550620001eb9050565b8051600160a060020a03811681146200016457600080fd5b919050565b600080604083850312156200017d57600080fd5b62000188836200014c565b915062000198602084016200014c565b90509250929050565b61ffff828116828216039080821115620001e4577f4e487b7100000000000000000000000000000000000000000000000000000000600052601160045260246000fd5b5092915050565b613a9680620001fb6000396000f3fe608060405260043610610140576000357c01000000000000000000000000000000000000000000000000000000009004806371f81e9d116100bd578063c53f267011610081578063c53f2670146103a0578063c8655926146103b5578063d1314ee0146103ca578063ecb891e1146103e8578063f2b6c1561461045f57610197565b806371f81e9d146103065780638d1d5b3f1461031b57806393accf9714610330578063b45407971461035e578063c04062261461038157610197565b80632590393311610104578063259039331461027a5780633471b3371461029d5780634cddae28146102b25780635ca1e165146102ba5780636949c0b2146102f157610197565b806303cd5c59146101e257806307da68f5146101f557806312065fe014610211578063143025fd146102345780632014e5d11461025757610197565b366101975760405160e560020a62461bcd02815260206004820152601860248201527f4e6f206f746865722063616c6c7320737570706f72746564000000000000000060448201526064015b60405180910390fd5b005b60405160e560020a62461bcd02815260206004820152601860248201527f4e6f206f746865722063616c6c7320737570706f727465640000000000000000604482015260640161018c565b6101956101f0366004612f86565b610474565b34801561020157600080fd5b506101956000805460ff19169055565b34801561021d57600080fd5b5030315b6040519081526020015b60405180910390f35b34801561024057600080fd5b50610249610655565b60405161022b92919061308d565b34801561026357600080fd5b5060005460ff16604051901515815260200161022b565b34801561028657600080fd5b5061028f610671565b60405161022b9291906130a8565b3480156102a957600080fd5b50610221610690565b6101956106a9565b3480156102c657600080fd5b506000546101009004600160a060020a03165b604051600160a060020a03909116815260200161022b565b3480156102fd57600080fd5b5061022161088d565b34801561031257600080fd5b5061022161089b565b34801561032757600080fd5b506101956108a9565b34801561033c57600080fd5b5061035061034b3660046130f2565b6109be565b60405161022b92919061310d565b34801561036a57600080fd5b50610373610ba1565b60405161022b929190613124565b34801561038d57600080fd5b506101956000805460ff19166001179055565b3480156103ac57600080fd5b50610221610c28565b3480156103c157600080fd5b50610249610c3f565b3480156103d657600080fd5b50600154600160a060020a03166102d9565b3480156103f457600080fd5b506103fd610c53565b60405161022b9190600060e08201905082518252602083015160208301526040830151604083015260608301516060830152608083015161ffff80821660808501528060a08601511660a08501528060c08601511660c0850152505092915050565b34801561046b57600080fd5b5061028f610cf6565b60005460ff166104995760405160e560020a62461bcd02815260040161018c90613172565b60008260028111156104ad576104ad612fc8565b036104fd5760405160e560020a62461bcd02815260206004820152601b60248201527f427579696e6720646972656374696f6e20697320756e6b6e6f776e0000000000604482015260640161018c565b600354600090610518906105119086610d0a565b3490610db4565b6005549091506105289082610df6565b6005556006546105389034610df6565b60065560408051610120810190915260009080610553610e58565b6040517f736b2d000000000000000000000000000000000000000000000000000000000060208201526cffffffffffffffffffffffffff91909116609860020a0260238201526030016040516020818303038152906040526105b4906131a9565b6001608060020a0319168152336020820152604081018490523460608201526080810187905260045460a082015260c0018560028111156105f7576105f7612fc8565b81526020015a81526020018463ffffffff16815250905061061781610eaf565b7f9ec812f8ec92f0aa28735df3fc91d0f71b6f5c6e8ec1eca919480807f47cb2928160405161064691906131e3565b60405180910390a15050505050565b600061065f612e9d565b6106696002611028565b915091509091565b600061067b612ee9565b610685600261123e565b919491935090915050565b600061069e60016000611518565b63ffffffff16905090565b600154600160a060020a031633146107065760405160e560020a62461bcd02815260206004820152601a60248201527f4f6e6c792062726f6b65722063616e2063616c6c20746869732e000000000000604482015260640161018c565b60005460ff1661072b5760405160e560020a62461bcd02815260040161018c90613172565b6000341161077e5760405160e560020a62461bcd02815260206004820152601660248201527f46656564696e672063616e6e6f74206265207a65726f00000000000000000000604482015260640161018c565b60006040518060a00160405280610793610e58565b6040517f72632d000000000000000000000000000000000000000000000000000000000060208201526cffffffffffffffffffffffffff91909116609860020a0260238201526030016040516020818303038152906040526107f4906131a9565b6001608060020a0319168152336020820152346040820152303160608201526080015a90526040805182516001608060020a0319168152602080840151600160a060020a0316908201528282015181830152606080840151908201526080808401519082015290519192507f8b2c439cf991f9f439d04a38cf4c701d3a006aed0f0d713041acc35050dce64d919081900360a00190a150565b600061069e60006001611518565b600061069e60006002611518565b600154600160a060020a031633146109065760405160e560020a62461bcd02815260206004820152601a60248201527f4f6e6c792062726f6b65722063616e2063616c6c20746869732e000000000000604482015260640161018c565b60005460ff1661092b5760405160e560020a62461bcd02815260040161018c90613172565b600080610936611705565b9150505b60058263ffffffff161161098157600080610953610ba1565b9150915081610963575050610981565b61096d8382611a94565b836109778161320b565b945050505061093a565b7fb6068b8d005cf7e41803100218e6564afe38177de768c54039f9bae376e1ba8482826040516109b292919061322e565b60405180910390a15050565b60006109c8612e9d565b6000805b60208163ffffffff161015610b8c5760006109088263ffffffff16602081106109f7576109f7613248565b602081049091015460ff601f9092166101000a900416905060005b60088160ff161015610b77576000610a2b826002613348565b831660ff169050610a3d826002613348565b8160ff1603610b64578763ffffffff168563ffffffff1603610b56576001600860ff8416610a6b8783613357565b610a75919061337f565b63ffffffff166101008110610a8c57610a8c613248565b6040805161012081018252600992909202929092018054608060020a026001608060020a03191682526001810154600160a060020a03166020830152600280820154938301939093526003810154606083015260048101546080830152600581015460a083015260068101549092839160c084019160ff90911690811115610b1657610b16612fc8565b6002811115610b2757610b27612fc8565b81526007820154602082015260089091015463ffffffff16604090910152919a91995090975050505050505050565b84610b608161320b565b9550505b5080610b6f816133a3565b915050610a12565b50508080610b849061320b565b9150506109cc565b50610b95612e9d565b60009590945092505050565b6000610bab612f16565b600080610bb86001611028565b915091508163ffffffff1663ffffffff03610bd7576000935050509091565b600080610be46002611028565b915091508163ffffffff1663ffffffff03610c055760009550505050509091565b63ffffffff93841685529216604084015260208301526060820152600192909150565b600454600354600091610c3a916133c2565b905090565b6000610c49612e9d565b6106696001611028565b610c9f6040518060e0016040528060008152602001600081526020016000815260200160008152602001600061ffff168152602001600061ffff168152602001600061ffff1681525090565b506040805160e0810182526003548152600454602082015260055491810191909152600654606082015260075461ffff8082166080840152620100008204811660a08401526401000000009091041660c082015290565b6000610d00612ee9565b610685600161123e565b600082600003610d1c57506000610dae565b6000610d2883856133c2565b905082610d3585836133f2565b14610dab5760405160e560020a62461bcd02815260206004820152602160248201527f536166654d6174683a206d756c7469706c69636174696f6e206f766572666c6f60448201527f7700000000000000000000000000000000000000000000000000000000000000606482015260840161018c565b90505b92915050565b6000610dab83836040518060400160405280601a81526020017f536166654d6174683a206469766973696f6e206279207a65726f000000000000815250612094565b600080610e038385613406565b905083811015610dab5760405160e560020a62461bcd02815260206004820152601b60248201527f536166654d6174683a206164646974696f6e206f766572666c6f770000000000604482015260640161018c565b6109098054600091908290610e7b906cffffffffffffffffffffffffff16613419565b91906101000a8154816cffffffffffffffffffffffffff02191690836cffffffffffffffffffffffffff1602179055905090565b6000610eb96120d0565b90508063ffffffff1663ffffffff03610f175760405160e560020a62461bcd02815260206004820152601e60248201527f5374616b652042696c6c2041727261792073706163652069732066756c6c0000604482015260640161018c565b8160088263ffffffff166101008110610f3257610f32613248565b6009020160008201518160000160006101000a8154816fffffffffffffffffffffffffffffffff0219169083608060020a9004021790555060208201518160010160006101000a815481600160a060020a030219169083600160a060020a0316021790555060408201518160020155606082015181600301556080820151816004015560a0820151816005015560c08201518160060160006101000a81548160ff02191690836002811115610fe957610fe9612fc8565b021790555060e08201516007820155610100909101516008909101805463ffffffff191663ffffffff909216919091179055611024816121a8565b5050565b6000611032612e9d565b61103a612e9d565b63ffffffff925060005b60208163ffffffff1610156112355760006109088263ffffffff166020811061106f5761106f613248565b602081049091015460ff601f9092166101000a900416905060005b60088160ff1610156112205760006110a3826002613348565b831660ff1690506110b5826002613348565b8160ff160361120c57600860ff83166110ce8683613357565b6110d8919061337f565b63ffffffff1661010081106110ef576110ef613248565b6040805161012081018252600992909202929092018054608060020a026001608060020a03191682526001810154600160a060020a03166020830152600280820154938301939093526003810154606083015260048101546080830152600581015460a083015260068101549192909160c084019160ff9091169081111561117957611179612fc8565b600281111561118a5761118a612fc8565b81526007820154602082015260089091015463ffffffff1660409091015295508760028111156111bc576111bc612fc8565b8660c0015160028111156111d2576111d2612fc8565b146111dd575061120e565b84608001518660800151111561120c5785945060ff82166111ff856008613357565b611209919061337f565b96505b505b80611218816133a3565b91505061108a565b5050808061122d9061320b565b915050611044565b50919391925050565b6000611248612f4f565b611250612ee9565b60005b60208163ffffffff1610156114fc5760006109088263ffffffff166020811061127e5761127e613248565b602081049091015460ff601f9092166101000a900416905060005b60088160ff1610156114e75760006112b2826002613348565b831660ff1690506112c4826002613348565b8160ff16036114d3576000600860ff84166112df8783613357565b6112e9919061337f565b63ffffffff16610100811061130057611300613248565b6040805161012081018252600992909202929092018054608060020a026001608060020a03191682526001810154600160a060020a03166020830152600280820154938301939093526003810154606083015260048101546080830152600581015460a083015260068101549192909160c084019160ff9091169081111561138a5761138a612fc8565b600281111561139b5761139b612fc8565b81526007820154602082015260089091015463ffffffff1660409091015290508860028111156113cd576113cd612fc8565b8160c0015160028111156113e3576113e3612fc8565b146113ef5750506114d5565b85516080908101519082015110156114085750506114d5565b6005600061141760018361343b565b90505b6000198113156114cf5787816005811061143657611436613248565b602002015160800151836080015111156114bd5780915061145889898461224c565b8288836005811061146b5761146b613248565b602002015260ff851661147f886008613357565b611489919061337f565b89836005811061149b5761149b613248565b63ffffffff9092166020929092020152896114b58161320b565b9a50506114cf565b806114c78161344e565b91505061141a565b5050505b505b806114df816133a3565b915050611299565b505080806114f49061320b565b915050611253565b5060058363ffffffff16111561151157600592505b9193909250565b600080805b60208163ffffffff1610156116fd5760006109088263ffffffff166020811061154857611548613248565b602081049091015460ff601f9092166101000a900416905060005b60088160ff1610156116e857600061157c826002613348565b831660ff16905061158e826002613348565b8160ff16036116d4576000600860ff84166115a98783613357565b6115b3919061337f565b63ffffffff1661010081106115ca576115ca613248565b6040805161012081018252600992909202929092018054608060020a026001608060020a03191682526001810154600160a060020a03166020830152600280820154938301939093526003810154606083015260048101546080830152600581015460a083015260068101549192909160c084019160ff9091169081111561165457611654612fc8565b600281111561166557611665612fc8565b81526007820154602082015260089091015463ffffffff166040909101529050881580156116b957508760028111156116a0576116a0612fc8565b8160c0015160028111156116b6576116b6612fc8565b14155b156116c55750506116d6565b856116cf8161320b565b965050505b505b806116e0816133a3565b915050611563565b505080806116f59061320b565b91505061151d565b509392505050565b6040805161010081018252600080825260208201819052918101829052606081018290526080810182905260a0810182905260c0810182905260e0810191909152604080514260208201524491810191909152606060020a33026060820152600090600a9060740160408051601f19818403018152919052805160209091012061178f9190613487565b60ff168083526040805142602080830191909152448284015233606060020a02606083015260f860020a909302607482015281516055818303018152607590910190915280519101206117e490600a90613487565b60ff908116602084810182905284516040805142818501524481830152606060020a3302606082015260f860020a929095168202607486015292026075840152815180840360560181526076909301909152815191012061184790600a90613487565b60ff90811660408481018290528451602080870151835142818401524481860152606060020a3302606082015260f860020a9387168402607482015295168202607586015292026076840152805180840360570181526077909301905281519101206118b590600a90613487565b60ff90811660608481018290528451602080870151604080890151815142818601524481840152606060020a33029681019690965260f860020a948816850260748701529187168402607586015295168202607684015292026077820152825180820360580181526078909101909252815191012061193690600a90613487565b60ff166080830152600061194a60016122e9565b9050600061195860026122e9565b604080514260208201524491810191909152606060020a3302606082015260748101849052909150600a9060940160408051601f1981840301815291905280516020909101206119a89190613487565b60ff1660a0850152604080514260208201524491810191909152606060020a3302606082015260748101829052600a9060940160408051601f1981840301815291905280516020909101206119fd9190613487565b60ff1660c08501819052845160208087015160408089015160608a015160808b015160a08c01519351600098600298611a48984298449833989397919693959194909290910161349b565b60408051601f198184030181529190528051602090910120611a6a9190613487565b60e0860181905290506001819003611a885750929360019350915050565b50929360029350915050565b8051602082015160408301516060840151611aae846124d2565b611ab7826124d2565b611b2760405180610160016040528060006fffffffffffffffffffffffffffffffff19168152602001600081526020016000815260200160008152602001600081526020016000815260200160008152602001600081526020016000815260200160008152602001600081525090565b611b2f610e58565b6040517f6d6d2d000000000000000000000000000000000000000000000000000000000060208201526cffffffffffffffffffffffffff91909116609860020a026023820152603001604051602081830303815290604052611b90906131a9565b6001608060020a031916808252611baa908890868561254f565b61014082015260408085015190830151611bc491906126d6565b602082015260808083015190850151611be991600291611be391610df6565b90610db4565b604080830191909152602082015190850151611c04916126ed565b606082015260208101516040830151611c1c916126ed565b608080830191909152600354908501516060830151611c469291611c409190610d0a565b90610d0a565b60a082015260035460808084015190830151611c679291611c409190610d0a565b60c082015260035460408201516020830151611c889291611c409190610d0a565b60e08201526001876002811115611ca157611ca1612fc8565b03611d1657611cd88160a00151611cd2600360000154611c4088608001518960400151610d0a90919063ffffffff16565b906126ed565b61010082015260e081015160c082015160035460808501516040860151611d0b9493611cd29390928492611c4091610d0a565b610120820152611d95565b6002876002811115611d2a57611d2a612fc8565b03611d9557611d5b8160c00151611cd2600360000154611c4086608001518760400151610d0a90919063ffffffff16565b61012082015260e081015160a082015160035460808701516040880151611d8e9493611cd29390928492611c4091610d0a565b6101008201525b606081015115611dbe5760a08101516060808601919091528101516040850152611dbe84610eaf565b608081015115611de55760c0810151606083015260808101516040830152611de582610eaf565b6000611e12826101200151611e0c8461010001518560e00151610df690919063ffffffff16565b90610df6565b90503031811115611e228261272f565b604051602001611e329190613552565b60405160208183030381529060405290611e625760405160e560020a62461bcd02815260040161018c91906135bd565b50611e7b826000015183610100015187602001516127cf565b611e93826000015183610120015185602001516127cf565b6001886002811115611ea757611ea7612fc8565b03611ec857611ec382600001518360e0015187602001516129bb565b611ef8565b6002886002811115611edc57611edc612fc8565b03611ef857611ec382600001518360e0015185602001516129bb565b60408201516004556020820151611f1d90611f14906002610d0a565b600554906126ed565b600555610140820151610120830151610100840151611f4e92611f45929091611e0c91610df6565b600654906126ed565b60038001819055506000604051806101c0016040528084600001516fffffffffffffffffffffffffffffffff1916815260200187600001516fffffffffffffffffffffffffffffffff1916815260200185600001516fffffffffffffffffffffffffffffffff19168152602001600160009054906101000a9004600160a060020a0316600160a060020a03168152602001846020015181526020018460400151815260200184606001518152602001846080015181526020018460a0015181526020018460c001518152602001846101000151815260200184610120015181526020018460e0015181526020018a600281111561204d5761204d612fc8565b81525090507fb274f2c9db7b1904e74e499844ad1298696591ede7b8b9ed9d847f117137d8158160405161208191906135f0565b60405180910390a1505050505050505050565b600081836120b85760405160e560020a62461bcd02815260040161018c91906135bd565b5060006120c584866133f2565b9150505b9392505050565b600063ffffffff81805b60208163ffffffff1610156121a05760006109088263ffffffff166020811061210557612105613248565b602081049091015460ff601f9092166101000a900416905060005b60088160ff161015612180576000612139826002613348565b8360ff161690508060000361216d5760ff8216612157856008613357565b612161919061337f565b95506001945050612180565b5080612178816133a3565b915050612120565b50821561218d57506121a0565b50806121988161320b565b9150506120da565b509092915050565b60006121b56008836136c8565b905060006121c46008846136eb565b905060006109088363ffffffff16602081106121e2576121e2613248565b602081049091015460ff601f9092166101000a900416905061220582600261370e565b60ff909116178061090863ffffffff85166020811061222657612226613248565b602091828204019190066101000a81548160ff021916908360ff16021790555050505050565b60015b8181116122e35782816005811061226857612268613248565b60200201518361227960018461343b565b6005811061228957612289613248565b60200201528381600581106122a0576122a0613248565b6020020151846122b160018461343b565b600581106122c1576122c1613248565b63ffffffff9092166020929092020152806122db81613720565b91505061224f565b50505050565b6000805b60208163ffffffff1610156124cc5760006109088263ffffffff166020811061231857612318613248565b602081049091015460ff601f9092166101000a900416905060005b60088160ff1610156124b757600061234c826002613348565b831660ff16905061235e826002613348565b8160ff16036124a3576000600860ff84166123798783613357565b612383919061337f565b63ffffffff16610100811061239a5761239a613248565b6040805161012081018252600992909202929092018054608060020a026001608060020a03191682526001810154600160a060020a03166020830152600280820154938301939093526003810154606083015260048101546080830152600581015460a083015260068101549192909160c084019160ff9091169081111561242457612424612fc8565b600281111561243557612435612fc8565b81526007820154602082015260089091015463ffffffff16604090910152905086600281111561246757612467612fc8565b8160c00151600281111561247d5761247d612fc8565b146124895750506124a5565b61010081015161249f9063ffffffff1687613406565b9550505b505b806124af816133a3565b915050612333565b505080806124c49061320b565b9150506122ed565b50919050565b60006124df6008836136c8565b905060006124ee6008846136eb565b905060006109088363ffffffff166020811061250c5761250c613248565b602081049091015460ff601f9092166101000a900416905061252f82600261370e565b191660ff168061090863ffffffff85166020811061222657612226613248565b6000600185600281111561256557612565612fc8565b148015612579575081608001518360800151115b156126165760035460808301516000916125a19161259691610d0a565b606086015190610db4565b905060006125cb6125c46003600001548660800151610d0a90919063ffffffff16565b8390610d0a565b905060008186606001516125df919061343b565b608080870151908801526040870184905260608701839052602087015190915061260c90889083906127cf565b92506126ce915050565b600285600281111561262a5761262a612fc8565b14801561263e575082608001518260800151115b156126ca5760035460808401516000916126669161265b91610d0a565b606085015190610db4565b905060006126896125c46003600001548760800151610d0a90919063ffffffff16565b9050600081856060015161269d919061343b565b608080880151908701526040860184905260608601839052602086015190915061260c90889083906127cf565b5060005b949350505050565b6000818311156126e65781610dab565b5090919050565b6000610dab83836040518060400160405280601e81526020017f536166654d6174683a207375627472616374696f6e206f766572666c6f770000815250612d87565b6060600061273c83612dbb565b600101905060008167ffffffffffffffff81111561275c5761275c613739565b6040519080825280601f01601f191660200182016040528015612786576020820181803683370190505b5090508181016020015b600019017f3031323334353637383961626364656600000000000000000000000000000000600a86061a8153600a850494508461279057509392505050565b816000036127dc57505050565b604080516000808252602082019283905283929091600160a060020a03841691869161280791613752565b60006040518083038185875af1925050503d8060008114612844576040519150601f19603f3d011682016040523d82523d6000602084013e612849565b606091505b50509050806128578561272f565b8360405160200161286992919061376e565b604051602081830303815290604052906128995760405160e560020a62461bcd02815260040161018c91906135bd565b5060006128a4610e58565b6040517f72662d000000000000000000000000000000000000000000000000000000000060208201526cffffffffffffffffffffffffff91909116609860020a026023820152603001604051602081830303815290604052612905906131a9565b604080516080810182526001608060020a0319808416825289166020820152600160a060020a03861681830152606081018890529051919250907f616acbe3b3780f7b77a90271cb1e2ec1ad604af18c0e04da2ccb3d513e35a7a1906129aa90839081516001608060020a0319908116825260208084015190911690820152604080830151600160a060020a0316908201526060918201519181019190915260800190565b60405180910390a150505050505050565b60075481906000906129d990606490611be390879061ffff16610d0a565b905060006129e785836126ed565b600754909150600090612a0c90606490611be390869062010000900461ffff16610d0a565b90506000612a1a84836126ed565b6040805160008082526020820192839052929350600160a060020a038816918691612a4491613752565b60006040518083038185875af1925050503d8060008114612a81576040519150601f19603f3d011682016040523d82523d6000602084013e612a86565b606091505b5050905080612a948561272f565b87604051602001612aa6929190613817565b60405160208183030381529060405290612ad65760405160e560020a62461bcd02815260040161018c91906135bd565b50600154604080516000808252602082019283905292600160a060020a0316918691612b0191613752565b60006040518083038185875af1925050503d8060008114612b3e576040519150601f19603f3d011682016040523d82523d6000602084013e612b43565b606091505b5050905080612b518661272f565b604051602001612b6191906138c0565b60405160208183030381529060405290612b915760405160e560020a62461bcd02815260040161018c91906135bd565b50600080546040805183815260208101909152610100909104600160a060020a0316908590604051612bc39190613752565b60006040518083038185875af1925050503d8060008114612c00576040519150601f19603f3d011682016040523d82523d6000602084013e612c05565b606091505b5050905080612c138761272f565b604051602001612c23919061392b565b60405160208183030381529060405290612c535760405160e560020a62461bcd02815260040161018c91906135bd565b506000612c5e610e58565b6040517f73742d000000000000000000000000000000000000000000000000000000000060208201526cffffffffffffffffffffffffff91909116609860020a026023820152603001604051602081830303815290604052612cbf906131a9565b60408051610160810182526001608060020a031980841682528f166020820152600160a060020a038c168183015260075461ffff8082166060840152620100008204811660808401526401000000009091041660a082015260c081018e905260e081018a905261010081018b9052610120810189905261014081018890529051919250907fe1328845d3b2fd88767520a581f3c225c998224ddad904743b94cc5a9a971b0590612d70908390613996565b60405180910390a150505050505050505050505050565b60008184841115612dae5760405160e560020a62461bcd02815260040161018c91906135bd565b5060006120c5848661343b565b6000807a184f03e93ff9f4daa797ed6e38ed64bf6a1f0100000000000000008310612e04577a184f03e93ff9f4daa797ed6e38ed64bf6a1f010000000000000000830492506040015b6d04ee2d6d415b85acef81000000008310612e30576d04ee2d6d415b85acef8100000000830492506020015b662386f26fc100008310612e4e57662386f26fc10000830492506010015b6305f5e1008310612e66576305f5e100830492506008015b6127108310612e7a57612710830492506004015b60648310612e8c576064830492506002015b600a8310610dae5760010192915050565b6040805161012081018252600080825260208201819052918101829052606081018290526080810182905260a081018290529060c0820190815260006020820181905260409091015290565b6040518060a001604052806005905b612f00612e9d565b815260200190600190039081612ef85790505090565b6040518060800160405280600063ffffffff168152602001612f36612e9d565b815260006020820152604001612f4a612e9d565b905290565b6040518060a001604052806005906020820280368337509192915050565b803563ffffffff81168114612f8157600080fd5b919050565b600080600060608486031215612f9b57600080fd5b83359250602084013560038110612fb157600080fd5b9150612fbf60408501612f6d565b90509250925092565b60e060020a634e487b7102600052602160045260246000fd5b600381106130025760e060020a634e487b7102600052602160045260246000fd5b9052565b6fffffffffffffffffffffffffffffffff198151168252600160a060020a03602082015116602083015260408101516040830152606081015160608301526080810151608083015260a081015160a083015260c081015161306a60c0840182612fe1565b5060e081015160e0830152610100808201516122e38285018263ffffffff169052565b63ffffffff8316815261014081016120c96020830184613006565b63ffffffff831681526105c0810160208083018460005b60058110156130e7576130d3838351613006565b6101209290920191908301906001016130bf565b505050509392505050565b60006020828403121561310457600080fd5b610dab82612f6d565b821515815261014081016120c96020830184613006565b60006102a082019050831515825263ffffffff80845116602084015260208401516131526040850182613006565b5060408401511661016083015260608301516116fd610180840182613006565b60208082526013908201527f6f646473646578206861732073746f7070656400000000000000000000000000604082015260600190565b805160208201516001608060020a031980821692919060108310156131db57808360100360080260020a820283161693505b505050919050565b6101208101610dae8284613006565b60e060020a634e487b7102600052601160045260246000fd5b600063ffffffff808316818103613224576132246131f2565b6001019392505050565b63ffffffff83168152604081016120c96020830184612fe1565b60e060020a634e487b7102600052603260045260246000fd5b600181815b8085111561329e578160001904821115613282576132826131f2565b8085161561328f57918102915b60029094049390800290613266565b509250929050565b6000826132b557506001610dae565b816132c257506000610dae565b81600181146132d857600281146132e2576132ff565b6001915050610dae565b60ff8411156132f3576132f36131f2565b8360020a915050610dae565b5060208310610133831016604e8410600b8410161715613322575081810a610dae565b61332c8383613261565b8060001904821115613340576133406131f2565b029392505050565b6000610dab60ff8416836132a6565b63ffffffff818116838216028082169190828114613377576133776131f2565b505092915050565b63ffffffff81811683821601908082111561339c5761339c6131f2565b5092915050565b600060ff821660ff81036133b9576133b96131f2565b60010192915050565b8082028115828204841417610dae57610dae6131f2565b60e060020a634e487b7102600052601260045260246000fd5b600082613401576134016133d9565b500490565b80820180821115610dae57610dae6131f2565b60006cffffffffffffffffffffffffff808316818103613224576132246131f2565b81810381811115610dae57610dae6131f2565b60007f8000000000000000000000000000000000000000000000000000000000000000820361347f5761347f6131f2565b506000190190565b600082613496576134966133d9565b500690565b8a8152896020820152606060020a600160a060020a038a16026040820152600060f860020a8060ff8b160260548401528060ff8a160260558401528060ff89160260568401528060ff88160260578401528060ff87160260588401525061350d605983018560ff1660f860020a029052565b60f860020a60ff841602605a83015250605b019a9950505050505050505050565b60005b83811015613549578181015183820152602001613531565b50506000910152565b7f496e73756666696369656e7420636f6e74726163742062616c616e63652e206d81527f696e696d756d2062616c616e63653a20000000000000000000000000000000006020820152600082516135b081603085016020870161352e565b9190910160300192915050565b60208152600082518060208401526135dc81604085016020870161352e565b601f01601f19169190910160400192915050565b81516001608060020a03191681526101c08101602083015161361e60208401826001608060020a0319169052565b50604083015161363a60408401826001608060020a0319169052565b5060608301516136556060840182600160a060020a03169052565b506080838101519083015260a0808401519083015260c0808401519083015260e08084015190830152610100808401519083015261012080840151908301526101408084015190830152610160808401519083015261018080840151908301526101a08084015161337782850182612fe1565b600063ffffffff808416806136df576136df6133d9565b92169190910492915050565b600063ffffffff80841680613702576137026133d9565b92169190910692915050565b6000610dab63ffffffff8416836132a6565b600060018201613732576137326131f2565b5060010190565b60e060020a634e487b7102600052604160045260246000fd5b6000825161376481846020870161352e565b9190910192915050565b7f4554485f5452414e534645525f4641494c45443a20526566756e6420746f207081527f616c7965722e20526566756e6420636f7374733a2000000000000000000000006020820152600083516137cc81603585016020880161352e565b7f2c20706c617965723a20000000000000000000000000000000000000000000006035939091019283015250600160a060020a0391909116606060020a02603f820152605301919050565b7f4554485f5452414e534645525f4641494c45443a2073706c6974207072697a6581527f20746f2070616c7965722e20626f6e75733a200000000000000000000000000060208201526000835161387581603385016020880161352e565b7f2c20706c617965723a20000000000000000000000000000000000000000000006033939091019283015250600160a060020a0391909116606060020a02603d820152605101919050565b7f4554485f5452414e534645525f4641494c45443a2073706c6974207072697a6581527f20746f2062726f6b65722e2062726f6b65726167653a2000000000000000000060208201526000825161391e81603785016020870161352e565b9190910160370192915050565b7f4554485f5452414e534645525f4641494c45443a2073706c6974207072697a6581527f20746f20726f6f742e207461783a20000000000000000000000000000000000060208201526000825161398981602f85016020870161352e565b91909101602f0192915050565b81516001608060020a0319168152610160810160208301516139c460208401826001608060020a0319169052565b5060408301516139df6040840182600160a060020a03169052565b5060608301516139f5606084018261ffff169052565b506080830151613a0b608084018261ffff169052565b5060a0830151613a2160a084018261ffff169052565b5060c083015160c083015260e083015160e08301526101008084015181840152506101208084015181840152506101408084015181840152509291505056fea2646970667358221220244735a2702ad80fe62a55484accaeb3c80240bb05be40afdb61a98331a2263564736f6c63430008130033",
  "immutableReferences": {},
  "source": "// SPDX-License-Identifier: MIT\npragma solidity >=0.4.22 <0.8.20;\nimport \"./IOddsdex.sol\";\nimport \"./SafeMath.sol\";\nimport \"./Strings.sol\";\n\ncontract OddsdexContract is IOddsdexContract {\n    using SafeMath for *;\n\n    bool private running;\n    address private root;\n    address private broker;\n    address private parent;\n    BulletinBoard private bulletinBoard;\n    StakeBill[8 * 32] private stakeBills;\n    uint8[32] private stakeBillsBitmap;\n    uint104 private numberGenerator = 0;\n\n    constructor(address _root, address _broker) {\n        parent = msg.sender;\n        root = _root;\n        broker = _broker;\n        uint256 initialPrice = 100;\n        uint256 oddunit = 0.0001 * (10 ** 18);\n        uint16 kickbackRate = 20;\n        uint16 brokerageRate = 70;\n        uint16 taxRate = 100 - brokerageRate;\n        bulletinBoard = BulletinBoard(\n            oddunit,\n            initialPrice,\n            0,\n            0,\n            kickbackRate,\n            brokerageRate,\n            taxRate\n        );\n        running = true;\n    }\n\n    modifier onlyRoot() {\n        require(msg.sender == root, \"Only root can call this.\");\n        _;\n    }\n\n    modifier onlyBroker() {\n        require(msg.sender == broker, \"Only broker can call this.\");\n        _;\n    }\n    modifier mustRunning() {\n        require(running, \"oddsdex has stopped\");\n        _;\n    }\n\n    function getWeiPrice() public view override returns (uint256) {\n        return bulletinBoard.oddunit * bulletinBoard.price;\n    }\n\n    function getBulletinBoard()\n        public\n        view\n        override\n        returns (BulletinBoard memory)\n    {\n        return bulletinBoard;\n    }\n\n    function isRunning() public view override returns (bool) {\n        return running;\n    }\n\n    function stop() public override {\n        running = false;\n    }\n\n    function run() public override {\n        running = true;\n    }\n\n    function getRoot() public view override returns (address) {\n        return root;\n    }\n\n    function getBroker() public view override returns (address) {\n        return broker;\n    }\n\n    function getBalance() public view override returns (uint256) {\n        return address(this).balance;\n    }\n\n    function getQueueCount() public view override returns (uint256) {\n        return _lengthOfStakeBills(true, CoinDirection.unknown);\n    }\n\n    function getFrontQueueCount() public view override returns (uint256) {\n        return _lengthOfStakeBills(false, CoinDirection.front);\n    }\n\n    function getBackQueueCount() public view override returns (uint256) {\n        return _lengthOfStakeBills(false, CoinDirection.back);\n    }\n\n    function getTopFiveBillFrontQueue()\n        public\n        view\n        override\n        returns (uint32 length, StakeBill[5] memory bills)\n    {\n        (length, , bills) = _topFiveOfStakeBill(CoinDirection.front);\n        return (length, bills);\n    }\n\n    function getTopFiveBillBackQueue()\n        public\n        view\n        override\n        returns (uint32 length, StakeBill[5] memory bills)\n    {\n        (length, , bills) = _topFiveOfStakeBill(CoinDirection.back);\n        return (length, bills);\n    }\n\n    function getFirstBillOfFrontQueue()\n        public\n        view\n        override\n        returns (uint32 bitIndexAt, StakeBill memory bill)\n    {\n        return _topFirstOfStakeBill(CoinDirection.front);\n    }\n\n    function getFirstBillOfBackQueue()\n        public\n        view\n        override\n        returns (uint32 bitIndexAt, StakeBill memory bill)\n    {\n        return _topFirstOfStakeBill(CoinDirection.back);\n    }\n\n    function getStakeBill(\n        uint32 index\n    ) public view override returns (bool exists, StakeBill memory bill) {\n        uint32 count;\n        for (uint32 i = 0; i < stakeBillsBitmap.length; i++) {\n            uint8 b = stakeBillsBitmap[i];\n            for (uint8 j = 0; j < 8; j++) {\n                uint8 v = uint8(b & (2 ** j));\n                if (v == 2 ** j) {\n                    if (count == index) {\n                        return (true, stakeBills[i * 8 + j]);\n                    }\n                    count++;\n                }\n            }\n        }\n        StakeBill memory ret;\n        return (false, ret);\n    }\n\n    function _calculateWinningDirection()\n        internal\n        view\n        returns (LuckyNumber memory lvar, CoinDirection winningDirection)\n    {\n        lvar.r1 = uint8(\n            uint256(\n                keccak256(\n                    abi.encodePacked(\n                        block.timestamp,\n                        block.difficulty,\n                        msg.sender\n                    )\n                )\n            ) % 10\n        );\n        lvar.r2 = uint8(\n            uint256(\n                keccak256(\n                    abi.encodePacked(\n                        block.timestamp,\n                        block.difficulty,\n                        msg.sender,\n                        lvar.r1\n                    )\n                )\n            ) % 10\n        );\n\n        lvar.r3 = uint8(\n            uint256(\n                keccak256(\n                    abi.encodePacked(\n                        block.timestamp,\n                        block.difficulty,\n                        msg.sender,\n                        lvar.r1,\n                        lvar.r2\n                    )\n                )\n            ) % 10\n        );\n        lvar.r4 = uint8(\n            uint256(\n                keccak256(\n                    abi.encodePacked(\n                        block.timestamp,\n                        block.difficulty,\n                        msg.sender,\n                        lvar.r1,\n                        lvar.r2,\n                        lvar.r3\n                    )\n                )\n            ) % 10\n        );\n        lvar.r5 = uint8(\n            uint256(\n                keccak256(\n                    abi.encodePacked(\n                        block.timestamp,\n                        block.difficulty,\n                        msg.sender,\n                        lvar.r1,\n                        lvar.r2,\n                        lvar.r3,\n                        lvar.r4\n                    )\n                )\n            ) % 10\n        );\n\n        uint256 totalF = _totalLuckyNumber(CoinDirection.front);\n        uint256 totalB = _totalLuckyNumber(CoinDirection.back);\n\n        lvar.f = uint8(\n            uint256(\n                keccak256(\n                    abi.encodePacked(\n                        block.timestamp,\n                        block.difficulty,\n                        msg.sender,\n                        totalF\n                    )\n                )\n            ) % 10\n        );\n        lvar.b = uint8(\n            uint256(\n                keccak256(\n                    abi.encodePacked(\n                        block.timestamp,\n                        block.difficulty,\n                        msg.sender,\n                        totalB\n                    )\n                )\n            ) % 10\n        );\n\n        uint256 v = uint256(\n            keccak256(\n                abi.encodePacked(\n                    block.timestamp,\n                    block.difficulty,\n                    msg.sender,\n                    lvar.r1,\n                    lvar.r2,\n                    lvar.r3,\n                    lvar.r4,\n                    lvar.r5,\n                    lvar.f,\n                    lvar.b\n                )\n            )\n        ) % 2;\n        lvar.sign = v;\n        if (v == 1) {\n            return (lvar, CoinDirection.front);\n        } else {\n            return (lvar, CoinDirection.back);\n        }\n    }\n\n    function _totalLuckyNumber(\n        CoinDirection direction\n    ) private view returns (uint256 total) {\n        for (uint32 i = 0; i < stakeBillsBitmap.length; i++) {\n            uint8 b = stakeBillsBitmap[i];\n            for (uint8 j = 0; j < 8; j++) {\n                uint8 v = uint8(b & (2 ** j));\n                if (v == 2 ** j) {\n                    StakeBill memory bill = stakeBills[i * 8 + j];\n                    if (bill.buyDirection != direction) {\n                        continue;\n                    }\n                    total += bill.luckyNumber;\n                }\n            }\n        }\n        return total;\n    }\n\n    function canMatchmaking()\n        public\n        view\n        override\n        returns (bool matched, MatchmakingResult memory result)\n    {\n        //After matching an order, the uneatable ones will be placed in the queue again,\n        //so wait for the next round of matching, so only consider matching the current order\n        (uint32 bitIndexAtF, StakeBill memory tailF) = _topFirstOfStakeBill(\n            CoinDirection.front\n        );\n        if (bitIndexAtF == 0xFFFFFFFF) {\n            return (false, result);\n        }\n        (uint32 bitIndexAtB, StakeBill memory tailB) = _topFirstOfStakeBill(\n            CoinDirection.back\n        );\n        if (bitIndexAtB == 0xFFFFFFFF) {\n            return (false, result);\n        }\n\n        result.bitIndexAtF = bitIndexAtF;\n        result.bitIndexAtB = bitIndexAtB;\n        result.tailF = tailF;\n        result.tailB = tailB;\n        return (true, result);\n    }\n\n    function matchmake() public override onlyBroker mustRunning {\n        uint32 matchmakeTimes = 0;\n        (, CoinDirection _winningDirection) = _calculateWinningDirection();\n        //Gas limitations and loops\n        //A loop with a fixed number of iterations must be used, as the block gas is limited and the loop may result in contract termination\n        //If the private chain upper limit can be adjusted during the development process, such as setting the gas limit parameter of Gananche large enough to handle the limited number of while requests.\n        //For the sake of safety, it is best not to use a while loop. If it can be changed to an application layer loop call, it can be changed to save more processing fees.\n        while (matchmakeTimes <= 5) {\n            (bool matched, MatchmakingResult memory result) = canMatchmaking();\n            if (!matched) {\n                break;\n            }\n            _matchmakePairBill(_winningDirection, result);\n            matchmakeTimes++;\n        }\n\n        emit OnMatchmakeReturn(matchmakeTimes, _winningDirection);\n    }\n\n    struct LocalVar {\n        bytes16 mmid;\n        uint256 dealOdds;\n        uint256 dealPrice;\n        uint256 tailFOdds;\n        uint256 tailBOdds;\n        uint256 tailFCostOnBill;\n        uint256 tailBCostOnBill;\n        uint256 prize;\n        uint256 tailFRefundCost;\n        uint256 tailBRefundCost;\n        uint256 adjustRefundCost;\n    }\n\n    function _matchmakePairBill(\n        CoinDirection winningDirection,\n        MatchmakingResult memory result\n    ) private {\n        uint32 bitIndexAtF = result.bitIndexAtF;\n        StakeBill memory tailF = result.tailF;\n        uint32 bitIndexAtB = result.bitIndexAtB;\n        StakeBill memory tailB = result.tailB;\n        //Remove the two bills, and put them in the queue if there are any remaining\n        _removeStakeBill(bitIndexAtF);\n        _removeStakeBill(bitIndexAtB);\n\n        LocalVar memory lvar;\n\n        lvar.mmid = bytes16(abi.encodePacked(\"mm-\", _numberGenerator()));\n\n        lvar.adjustRefundCost = _adjustWinBill(\n            winningDirection,\n            lvar.mmid,\n            tailF,\n            tailB\n        );\n\n        //Make a deal\n\n        lvar.dealOdds = _min(tailF.odds, tailB.odds);\n        lvar.dealPrice = (tailF.buyPrice.add(tailB.buyPrice)).div(2);\n        lvar.tailFOdds = tailF.odds.sub(lvar.dealOdds);\n        lvar.tailBOdds = tailB.odds.sub(lvar.dealOdds);\n        lvar.tailFCostOnBill = lvar.tailFOdds.mul(tailF.buyPrice).mul(\n            bulletinBoard.oddunit\n        );\n        lvar.tailBCostOnBill = lvar.tailBOdds.mul(tailB.buyPrice).mul(\n            bulletinBoard.oddunit\n        );\n\n        //due prize\n        lvar.prize = lvar.dealOdds.mul(lvar.dealPrice).mul(\n            bulletinBoard.oddunit\n        );\n\n        //Calculate the funds to be returned\n        if (winningDirection == CoinDirection.front) {\n            lvar.tailFRefundCost = tailF\n                .odds\n                .mul(tailF.buyPrice)\n                .mul(bulletinBoard.oddunit)\n                .sub(lvar.tailFCostOnBill);\n            lvar.tailBRefundCost = tailB\n                .odds\n                .mul(tailB.buyPrice)\n                .mul(bulletinBoard.oddunit)\n                .sub(lvar.tailBCostOnBill)\n                .sub(lvar.prize);\n        } else if (winningDirection == CoinDirection.back) {\n            lvar.tailBRefundCost = tailB\n                .odds\n                .mul(tailB.buyPrice)\n                .mul(bulletinBoard.oddunit)\n                .sub(lvar.tailBCostOnBill);\n            lvar.tailFRefundCost = tailF\n                .odds\n                .mul(tailF.buyPrice)\n                .mul(bulletinBoard.oddunit)\n                .sub(lvar.tailFCostOnBill)\n                .sub(lvar.prize);\n        }\n\n        //restore if there is any remaining\n        if (lvar.tailFOdds > 0) {\n            tailF.costs = lvar.tailFCostOnBill;\n            tailF.odds = lvar.tailFOdds;\n            storeStakeBill(tailF);\n        }\n        if (lvar.tailBOdds > 0) {\n            tailB.costs = lvar.tailBCostOnBill;\n            tailB.odds = lvar.tailBOdds;\n            storeStakeBill(tailB);\n        }\n\n        //Verify Balance\n        uint256 minimumBalance = lvar.prize.add(lvar.tailFRefundCost).add(\n            lvar.tailBRefundCost\n        );\n\n        require(\n            address(this).balance >= minimumBalance,\n            string.concat(\n                \"Insufficient contract balance. minimum balance: \",\n                Strings.toString(minimumBalance)\n            )\n        );\n\n        _refundCost(lvar.mmid, lvar.tailFRefundCost, tailF.owner);\n        _refundCost(lvar.mmid, lvar.tailBRefundCost, tailB.owner);\n\n        if (winningDirection == CoinDirection.front) {\n            _splitPrize(lvar.mmid, lvar.prize, tailF.owner);\n        } else if (winningDirection == CoinDirection.back) {\n            _splitPrize(lvar.mmid, lvar.prize, tailB.owner);\n        } else {}\n\n        bulletinBoard.price = lvar.dealPrice;\n        bulletinBoard.odds = bulletinBoard.odds.sub(lvar.dealOdds.mul(2));\n        bulletinBoard.funds = bulletinBoard.funds.sub(\n            lvar.tailFRefundCost.add(lvar.tailBRefundCost).add(\n                lvar.adjustRefundCost\n            )\n        );\n\n        MatchmakingBill memory _mbill = MatchmakingBill(\n            lvar.mmid,\n            tailF.id,\n            tailB.id,\n            broker,\n            lvar.dealOdds,\n            lvar.dealPrice,\n            lvar.tailFOdds,\n            lvar.tailBOdds,\n            lvar.tailFCostOnBill,\n            lvar.tailBCostOnBill,\n            lvar.tailFRefundCost,\n            lvar.tailBRefundCost,\n            lvar.prize,\n            winningDirection\n        );\n        emit OnMatchMakingEvent(_mbill);\n    }\n\n    function _adjustWinBill(\n        CoinDirection winningDirection,\n        bytes16 mmid,\n        StakeBill memory tailF,\n        StakeBill memory tailB\n    ) private returns (uint256) {\n        if (\n            winningDirection == CoinDirection.front &&\n            tailF.buyPrice > tailB.buyPrice\n        ) {\n            uint256 newodds = tailF.costs.div(\n                tailB.buyPrice.mul(bulletinBoard.oddunit)\n            );\n            uint256 newcosts = newodds.mul(\n                tailB.buyPrice.mul(bulletinBoard.oddunit)\n            );\n            uint256 refundCost = tailF.costs - newcosts;\n            tailF.buyPrice = tailB.buyPrice;\n            tailF.odds = newodds;\n            tailF.costs = newcosts;\n            _refundCost(mmid, refundCost, tailF.owner);\n            return refundCost;\n        } else if (\n            winningDirection == CoinDirection.back &&\n            tailB.buyPrice > tailF.buyPrice\n        ) {\n            uint256 newodds = tailB.costs.div(\n                tailF.buyPrice.mul(bulletinBoard.oddunit)\n            );\n            uint256 newcosts = newodds.mul(\n                tailF.buyPrice.mul(bulletinBoard.oddunit)\n            );\n            uint256 refundCost = tailB.costs - newcosts;\n            tailB.buyPrice = tailF.buyPrice;\n            tailB.odds = newodds;\n            tailB.costs = newcosts;\n            _refundCost(mmid, refundCost, tailB.owner);\n            return refundCost;\n        } else {\n            return 0;\n        }\n    }\n\n    function _refundCost(bytes16 mmid, uint256 costs, address owner) private {\n        if (costs == 0) {\n            return;\n        }\n        address player = owner;\n        (bool success, ) = payable(player).call{value: costs}(new bytes(0));\n        require(\n            success,\n            string(\n                abi.encodePacked(\n                    \"ETH_TRANSFER_FAILED: Refund to palyer. Refund costs: \",\n                    Strings.toString(costs),\n                    \", player: \",\n                    player\n                )\n            )\n        );\n        bytes16 id = bytes16(abi.encodePacked(\"rf-\", _numberGenerator()));\n        RefundBill memory _rbill = RefundBill(id, mmid, player, costs);\n        emit OnRefundBillEvent(_rbill);\n    }\n\n    function _splitPrize(bytes16 mmid, uint256 prize, address owner) private {\n        address player = owner;\n        uint256 kickback = prize.mul(bulletinBoard.kickbackRate).div(100);\n        uint256 bonusOfPlayer = prize.sub(kickback);\n        uint256 brokerage = kickback.mul(bulletinBoard.brokerageRate).div(100);\n        uint256 tax = kickback.sub(brokerage);\n\n        (bool success, ) = payable(player).call{value: bonusOfPlayer}(\n            new bytes(0)\n        );\n        require(\n            success,\n            string(\n                abi.encodePacked(\n                    \"ETH_TRANSFER_FAILED: split prize to palyer. bonus: \",\n                    Strings.toString(bonusOfPlayer),\n                    \", player: \",\n                    player\n                )\n            )\n        );\n        (bool success1, ) = payable(broker).call{value: brokerage}(\n            new bytes(0)\n        );\n        require(\n            success1,\n            string(\n                abi.encodePacked(\n                    \"ETH_TRANSFER_FAILED: split prize to broker. brokerage: \",\n                    Strings.toString(bonusOfPlayer)\n                )\n            )\n        );\n        (bool success2, ) = payable(root).call{value: tax}(new bytes(0));\n        require(\n            success2,\n            string(\n                abi.encodePacked(\n                    \"ETH_TRANSFER_FAILED: split prize to root. tax: \",\n                    Strings.toString(bonusOfPlayer)\n                )\n            )\n        );\n        bytes16 id = bytes16(abi.encodePacked(\"st-\", _numberGenerator()));\n        SplitBill memory _sbill = SplitBill(\n            id,\n            mmid,\n            player,\n            bulletinBoard.kickbackRate,\n            bulletinBoard.brokerageRate,\n            bulletinBoard.taxRate,\n            prize,\n            bonusOfPlayer,\n            kickback,\n            brokerage,\n            tax\n        );\n        emit OnSplitBillEvent(_sbill);\n    }\n\n    function _min(uint256 a, uint256 b) internal pure returns (uint256) {\n        return a <= b ? a : b;\n    }\n\n    function recharge() external payable onlyBroker mustRunning {\n        require(msg.value > 0, \"Feeding cannot be zero\");\n\n        RechargeBill memory bm = RechargeBill(\n            bytes16(abi.encodePacked(\"rc-\", _numberGenerator())),\n            msg.sender,\n            msg.value,\n            address(this).balance,\n            gasleft()\n        );\n        emit OnRechargeEvent(bm);\n    }\n\n    fallback() external payable {\n        require(false, \"No other calls supported\");\n    }\n\n    receive() external payable {\n        require(false, \"No other calls supported\");\n    }\n\n    function stake(\n        uint256 buyPrice,\n        CoinDirection buyDirection,\n        uint32 luckyNumber\n    ) external payable override mustRunning {\n        require(\n            buyDirection != CoinDirection.unknown,\n            \"Buying direction is unknown\"\n        );\n\n        uint256 odds = msg.value.div(bulletinBoard.oddunit.mul(buyPrice));\n        // require(odds >= 10, \"Minimum purchase of 10 odds\");\n        bulletinBoard.odds = bulletinBoard.odds.add(odds);\n        bulletinBoard.funds = bulletinBoard.funds.add(msg.value);\n\n        StakeBill memory bill = StakeBill(\n            bytes16(abi.encodePacked(\"sk-\", _numberGenerator())),\n            msg.sender,\n            odds,\n            msg.value,\n            buyPrice,\n            bulletinBoard.price,\n            buyDirection,\n            gasleft(),\n            luckyNumber\n        );\n        storeStakeBill(bill);\n        emit OnStakeBillEvent(bill);\n    }\n\n    function _numberGenerator() private returns (uint104) {\n        return ++numberGenerator;\n    }\n\n    function _getFirstSpaceBit() private view returns (uint32) {\n        uint32 index = 0xFFFFFFFF;\n        bool found;\n        for (uint32 i = 0; i < stakeBillsBitmap.length; i++) {\n            uint8 b = stakeBillsBitmap[i];\n            for (uint8 j = 0; j < 8; j++) {\n                uint v = b & (2 ** j);\n                if (v == 0) {\n                    index = i * 8 + j;\n                    found = true;\n                    break;\n                }\n            }\n            if (found) {\n                break;\n            }\n        }\n        return index;\n    }\n\n    function _lengthOfStakeBills(\n        bool all,\n        CoinDirection direction\n    ) private view returns (uint32) {\n        uint32 len = 0;\n        for (uint32 i = 0; i < stakeBillsBitmap.length; i++) {\n            uint8 b = stakeBillsBitmap[i];\n            for (uint8 j = 0; j < 8; j++) {\n                uint8 v = uint8(b & (2 ** j));\n                if (v == 2 ** j) {\n                    StakeBill memory bill = stakeBills[i * 8 + j];\n                    if (!all && bill.buyDirection != direction) {\n                        continue;\n                    }\n                    len++;\n                }\n            }\n        }\n        return len;\n    }\n\n    function _topFiveOfStakeBill(\n        CoinDirection direction\n    )\n        private\n        view\n        returns (\n            uint32 length,\n            uint32[5] memory bitIndexAts,\n            StakeBill[5] memory bills\n        )\n    {\n        for (uint32 i = 0; i < stakeBillsBitmap.length; i++) {\n            uint8 b = stakeBillsBitmap[i];\n            for (uint8 j = 0; j < 8; j++) {\n                uint8 v = uint8(b & (2 ** j));\n                if (v == 2 ** j) {\n                    StakeBill memory bill = stakeBills[i * 8 + j];\n                    if (bill.buyDirection != direction) {\n                        continue;\n                    }\n                    if (bill.buyPrice < bills[0].buyPrice) {\n                        continue;\n                    }\n                    uint pos = bills.length;\n                    for (int t = int(bills.length - 1); t > -1; t--) {\n                        if (bill.buyPrice > bills[uint(t)].buyPrice) {\n                            pos = uint(t);\n                            _moveFronts(bitIndexAts, bills, pos);\n                            bills[pos] = bill;\n                            bitIndexAts[pos] = i * 8 + j;\n                            length++;\n                            break;\n                        }\n                    }\n                }\n            }\n        }\n        if (length > bills.length) {\n            length = uint32(bills.length);\n        }\n        return (length, bitIndexAts, bills);\n    }\n\n    function _moveFronts(\n        uint32[5] memory bitIndexAts,\n        StakeBill[5] memory bills,\n        uint pos\n    ) private pure {\n        for (uint i = 1; i <= pos; i++) {\n            bills[i - 1] = bills[i];\n            bitIndexAts[i - 1] = bitIndexAts[i];\n        }\n    }\n\n    function _topFirstOfStakeBill(\n        CoinDirection direction\n    ) private view returns (uint32 bitIndexAt, StakeBill memory bill) {\n        StakeBill memory maxbill;\n        bitIndexAt = 0xFFFFFFFF;\n        for (uint32 i = 0; i < stakeBillsBitmap.length; i++) {\n            uint8 b = stakeBillsBitmap[i];\n            for (uint8 j = 0; j < 8; j++) {\n                uint8 v = uint8(b & (2 ** j));\n                if (v == 2 ** j) {\n                    bill = stakeBills[i * 8 + j];\n                    if (bill.buyDirection != direction) {\n                        continue;\n                    }\n                    if (bill.buyPrice > maxbill.buyPrice) {\n                        maxbill = bill;\n                        bitIndexAt = i * 8 + j;\n                    }\n                }\n            }\n        }\n        return (bitIndexAt, maxbill);\n    }\n\n    function _removeStakeBill(uint32 index) private {\n        uint32 i = index / 8;\n        uint32 j = index % 8;\n        uint8 v = stakeBillsBitmap[i];\n        v = uint8(v & (~(2 ** j)));\n        stakeBillsBitmap[i] = v;\n    }\n\n    function _setStakeBillAt(uint32 index) private {\n        uint32 i = index / 8;\n        uint32 j = index % 8;\n        uint8 v = stakeBillsBitmap[i];\n        v = uint8(v | (2 ** j));\n        stakeBillsBitmap[i] = v;\n    }\n\n    function storeStakeBill(StakeBill memory bill) private {\n        uint32 index = _getFirstSpaceBit();\n        require(index != 0xFFFFFFFF, \"Stake Bill Array space is full\");\n        stakeBills[index] = bill;\n        _setStakeBillAt(index);\n    }\n}\n",
  "sourcePath": "/Users/cj/games/game-oddsdex/contracts/OddsdexContract.sol",
  "compiler": {
    "name": "solc",
    "version": "0.8.19+commit.7dd6d404.Emscripten.clang"
  },
  "schemaVersion": "3.4.14",
  "updatedAt": "2023-09-01T02:37:18.708Z",
  "networkType": "ethereum",
  "devdoc": {
    "kind": "dev",
    "methods": {},
    "version": 1
  },
  "userdoc": {
    "kind": "user",
    "methods": {},
    "version": 1
  }
}