{
  "contractName": "OddsdexContract",
  "abi": [
    {
      "inputs": [
        {
          "internalType": "address",
          "name": "_root",
          "type": "address"
        },
        {
          "internalType": "address",
          "name": "_broker",
          "type": "address"
        }
      ],
      "stateMutability": "nonpayable",
      "type": "constructor"
    },
    {
      "anonymous": false,
      "inputs": [
        {
          "components": [
            {
              "internalType": "enum CoinDirection",
              "name": "winningDirection",
              "type": "uint8"
            },
            {
              "internalType": "uint256",
              "name": "luckyNumber",
              "type": "uint256"
            },
            {
              "internalType": "address",
              "name": "broker",
              "type": "address"
            },
            {
              "internalType": "uint256",
              "name": "coverHash",
              "type": "uint256"
            }
          ],
          "indexed": false,
          "internalType": "struct LotteryMessage",
          "name": "message",
          "type": "tuple"
        }
      ],
      "name": "OnLotteryEvent",
      "type": "event"
    },
    {
      "anonymous": false,
      "inputs": [
        {
          "components": [
            {
              "internalType": "bytes32",
              "name": "id",
              "type": "bytes32"
            },
            {
              "internalType": "bytes32",
              "name": "refFId",
              "type": "bytes32"
            },
            {
              "internalType": "bytes32",
              "name": "refBId",
              "type": "bytes32"
            },
            {
              "internalType": "bytes32",
              "name": "mtn",
              "type": "bytes32"
            },
            {
              "internalType": "address",
              "name": "broker",
              "type": "address"
            },
            {
              "internalType": "uint256",
              "name": "dealOdds",
              "type": "uint256"
            },
            {
              "internalType": "uint256",
              "name": "dealPrice",
              "type": "uint256"
            },
            {
              "internalType": "uint256",
              "name": "tailFOdds",
              "type": "uint256"
            },
            {
              "internalType": "uint256",
              "name": "tailBOdds",
              "type": "uint256"
            },
            {
              "internalType": "uint256",
              "name": "tailFCostOnBill",
              "type": "uint256"
            },
            {
              "internalType": "uint256",
              "name": "tailBCostOnBill",
              "type": "uint256"
            },
            {
              "internalType": "uint256",
              "name": "tailFRefundCosts",
              "type": "uint256"
            },
            {
              "internalType": "uint256",
              "name": "tailBRefundCosts",
              "type": "uint256"
            },
            {
              "internalType": "uint256",
              "name": "prize",
              "type": "uint256"
            }
          ],
          "indexed": false,
          "internalType": "struct MatchmakingBill",
          "name": "bill",
          "type": "tuple"
        }
      ],
      "name": "OnMatchMakingEvent",
      "type": "event"
    },
    {
      "anonymous": false,
      "inputs": [
        {
          "components": [
            {
              "internalType": "bytes32",
              "name": "id",
              "type": "bytes32"
            },
            {
              "internalType": "bytes32",
              "name": "refId",
              "type": "bytes32"
            },
            {
              "internalType": "bytes32",
              "name": "mtn",
              "type": "bytes32"
            },
            {
              "internalType": "address",
              "name": "owner",
              "type": "address"
            },
            {
              "internalType": "uint256",
              "name": "costs",
              "type": "uint256"
            }
          ],
          "indexed": false,
          "internalType": "struct RefundBill",
          "name": "bill",
          "type": "tuple"
        }
      ],
      "name": "OnRefundBillEvent",
      "type": "event"
    },
    {
      "anonymous": false,
      "inputs": [
        {
          "components": [
            {
              "internalType": "bytes32",
              "name": "id",
              "type": "bytes32"
            },
            {
              "internalType": "bytes32",
              "name": "refId",
              "type": "bytes32"
            },
            {
              "internalType": "bytes32",
              "name": "mtn",
              "type": "bytes32"
            },
            {
              "internalType": "address",
              "name": "owner",
              "type": "address"
            },
            {
              "internalType": "uint16",
              "name": "kickbackRate",
              "type": "uint16"
            },
            {
              "internalType": "uint16",
              "name": "brokerageRate",
              "type": "uint16"
            },
            {
              "internalType": "uint16",
              "name": "taxRate",
              "type": "uint16"
            },
            {
              "internalType": "uint256",
              "name": "prize",
              "type": "uint256"
            },
            {
              "internalType": "uint256",
              "name": "bonus",
              "type": "uint256"
            },
            {
              "internalType": "uint256",
              "name": "kickback",
              "type": "uint256"
            },
            {
              "internalType": "uint256",
              "name": "brokerage",
              "type": "uint256"
            },
            {
              "internalType": "uint256",
              "name": "tax",
              "type": "uint256"
            }
          ],
          "indexed": false,
          "internalType": "struct SplitBill",
          "name": "bill",
          "type": "tuple"
        }
      ],
      "name": "OnSplitBillEvent",
      "type": "event"
    },
    {
      "anonymous": false,
      "inputs": [
        {
          "components": [
            {
              "internalType": "bytes32",
              "name": "id",
              "type": "bytes32"
            },
            {
              "internalType": "address",
              "name": "owner",
              "type": "address"
            },
            {
              "internalType": "uint256",
              "name": "odds",
              "type": "uint256"
            },
            {
              "internalType": "uint256",
              "name": "costs",
              "type": "uint256"
            },
            {
              "internalType": "uint256",
              "name": "buyPrice",
              "type": "uint256"
            },
            {
              "internalType": "uint256",
              "name": "marketPrice",
              "type": "uint256"
            },
            {
              "internalType": "enum CoinDirection",
              "name": "buyDirection",
              "type": "uint8"
            },
            {
              "internalType": "uint256",
              "name": "gas",
              "type": "uint256"
            },
            {
              "internalType": "uint32",
              "name": "luckyNumber",
              "type": "uint32"
            }
          ],
          "indexed": false,
          "internalType": "struct StakeBill",
          "name": "bill",
          "type": "tuple"
        }
      ],
      "name": "OnStakeBillEvent",
      "type": "event"
    },
    {
      "stateMutability": "payable",
      "type": "fallback",
      "payable": true
    },
    {
      "stateMutability": "payable",
      "type": "receive",
      "payable": true
    },
    {
      "inputs": [
        {
          "internalType": "uint256",
          "name": "number",
          "type": "uint256"
        }
      ],
      "name": "genHash",
      "outputs": [
        {
          "internalType": "uint256",
          "name": "",
          "type": "uint256"
        }
      ],
      "stateMutability": "pure",
      "type": "function",
      "constant": true
    },
    {
      "inputs": [],
      "name": "getCoverHash",
      "outputs": [
        {
          "internalType": "uint256",
          "name": "",
          "type": "uint256"
        }
      ],
      "stateMutability": "view",
      "type": "function",
      "constant": true
    },
    {
      "inputs": [],
      "name": "getState",
      "outputs": [
        {
          "internalType": "enum OddsdexState",
          "name": "",
          "type": "uint8"
        }
      ],
      "stateMutability": "view",
      "type": "function",
      "constant": true
    },
    {
      "inputs": [],
      "name": "getWinningDirection",
      "outputs": [
        {
          "internalType": "enum CoinDirection",
          "name": "",
          "type": "uint8"
        }
      ],
      "stateMutability": "view",
      "type": "function",
      "constant": true
    },
    {
      "inputs": [],
      "name": "getWeiPrice",
      "outputs": [
        {
          "internalType": "uint256",
          "name": "",
          "type": "uint256"
        }
      ],
      "stateMutability": "view",
      "type": "function",
      "constant": true
    },
    {
      "inputs": [],
      "name": "getBulletinBoard",
      "outputs": [
        {
          "components": [
            {
              "internalType": "uint256",
              "name": "oddunit",
              "type": "uint256"
            },
            {
              "internalType": "uint256",
              "name": "price",
              "type": "uint256"
            },
            {
              "internalType": "uint256",
              "name": "odds",
              "type": "uint256"
            },
            {
              "internalType": "uint256",
              "name": "funds",
              "type": "uint256"
            },
            {
              "internalType": "uint16",
              "name": "kickbackRate",
              "type": "uint16"
            },
            {
              "internalType": "uint16",
              "name": "brokerageRate",
              "type": "uint16"
            },
            {
              "internalType": "uint16",
              "name": "taxRate",
              "type": "uint16"
            }
          ],
          "internalType": "struct BulletinBoard",
          "name": "",
          "type": "tuple"
        }
      ],
      "stateMutability": "view",
      "type": "function",
      "constant": true
    },
    {
      "inputs": [],
      "name": "isRunning",
      "outputs": [
        {
          "internalType": "bool",
          "name": "",
          "type": "bool"
        }
      ],
      "stateMutability": "view",
      "type": "function",
      "constant": true
    },
    {
      "inputs": [],
      "name": "stop",
      "outputs": [],
      "stateMutability": "nonpayable",
      "type": "function"
    },
    {
      "inputs": [],
      "name": "run",
      "outputs": [],
      "stateMutability": "nonpayable",
      "type": "function"
    },
    {
      "inputs": [],
      "name": "getRoot",
      "outputs": [
        {
          "internalType": "address",
          "name": "",
          "type": "address"
        }
      ],
      "stateMutability": "view",
      "type": "function",
      "constant": true
    },
    {
      "inputs": [],
      "name": "getBroker",
      "outputs": [
        {
          "internalType": "address",
          "name": "",
          "type": "address"
        }
      ],
      "stateMutability": "view",
      "type": "function",
      "constant": true
    },
    {
      "inputs": [],
      "name": "getQueueCount",
      "outputs": [
        {
          "internalType": "uint256",
          "name": "",
          "type": "uint256"
        }
      ],
      "stateMutability": "view",
      "type": "function",
      "constant": true
    },
    {
      "inputs": [],
      "name": "getFrontQueueCount",
      "outputs": [
        {
          "internalType": "uint256",
          "name": "",
          "type": "uint256"
        }
      ],
      "stateMutability": "view",
      "type": "function",
      "constant": true
    },
    {
      "inputs": [],
      "name": "getBackQueueCount",
      "outputs": [
        {
          "internalType": "uint256",
          "name": "",
          "type": "uint256"
        }
      ],
      "stateMutability": "view",
      "type": "function",
      "constant": true
    },
    {
      "inputs": [],
      "name": "getTopFiveBillFrontQueue",
      "outputs": [
        {
          "internalType": "uint32",
          "name": "length",
          "type": "uint32"
        },
        {
          "components": [
            {
              "internalType": "bytes32",
              "name": "id",
              "type": "bytes32"
            },
            {
              "internalType": "address",
              "name": "owner",
              "type": "address"
            },
            {
              "internalType": "uint256",
              "name": "odds",
              "type": "uint256"
            },
            {
              "internalType": "uint256",
              "name": "costs",
              "type": "uint256"
            },
            {
              "internalType": "uint256",
              "name": "buyPrice",
              "type": "uint256"
            },
            {
              "internalType": "uint256",
              "name": "marketPrice",
              "type": "uint256"
            },
            {
              "internalType": "enum CoinDirection",
              "name": "buyDirection",
              "type": "uint8"
            },
            {
              "internalType": "uint256",
              "name": "gas",
              "type": "uint256"
            },
            {
              "internalType": "uint32",
              "name": "luckyNumber",
              "type": "uint32"
            }
          ],
          "internalType": "struct StakeBill[5]",
          "name": "bills",
          "type": "tuple[5]"
        }
      ],
      "stateMutability": "view",
      "type": "function",
      "constant": true
    },
    {
      "inputs": [],
      "name": "getTopFiveBillBackQueue",
      "outputs": [
        {
          "internalType": "uint32",
          "name": "length",
          "type": "uint32"
        },
        {
          "components": [
            {
              "internalType": "bytes32",
              "name": "id",
              "type": "bytes32"
            },
            {
              "internalType": "address",
              "name": "owner",
              "type": "address"
            },
            {
              "internalType": "uint256",
              "name": "odds",
              "type": "uint256"
            },
            {
              "internalType": "uint256",
              "name": "costs",
              "type": "uint256"
            },
            {
              "internalType": "uint256",
              "name": "buyPrice",
              "type": "uint256"
            },
            {
              "internalType": "uint256",
              "name": "marketPrice",
              "type": "uint256"
            },
            {
              "internalType": "enum CoinDirection",
              "name": "buyDirection",
              "type": "uint8"
            },
            {
              "internalType": "uint256",
              "name": "gas",
              "type": "uint256"
            },
            {
              "internalType": "uint32",
              "name": "luckyNumber",
              "type": "uint32"
            }
          ],
          "internalType": "struct StakeBill[5]",
          "name": "bills",
          "type": "tuple[5]"
        }
      ],
      "stateMutability": "view",
      "type": "function",
      "constant": true
    },
    {
      "inputs": [],
      "name": "getFirstBillOfFrontQueue",
      "outputs": [
        {
          "internalType": "uint32",
          "name": "bitIndexAt",
          "type": "uint32"
        },
        {
          "components": [
            {
              "internalType": "bytes32",
              "name": "id",
              "type": "bytes32"
            },
            {
              "internalType": "address",
              "name": "owner",
              "type": "address"
            },
            {
              "internalType": "uint256",
              "name": "odds",
              "type": "uint256"
            },
            {
              "internalType": "uint256",
              "name": "costs",
              "type": "uint256"
            },
            {
              "internalType": "uint256",
              "name": "buyPrice",
              "type": "uint256"
            },
            {
              "internalType": "uint256",
              "name": "marketPrice",
              "type": "uint256"
            },
            {
              "internalType": "enum CoinDirection",
              "name": "buyDirection",
              "type": "uint8"
            },
            {
              "internalType": "uint256",
              "name": "gas",
              "type": "uint256"
            },
            {
              "internalType": "uint32",
              "name": "luckyNumber",
              "type": "uint32"
            }
          ],
          "internalType": "struct StakeBill",
          "name": "bill",
          "type": "tuple"
        }
      ],
      "stateMutability": "view",
      "type": "function",
      "constant": true
    },
    {
      "inputs": [],
      "name": "getFirstBillOfBackQueue",
      "outputs": [
        {
          "internalType": "uint32",
          "name": "bitIndexAt",
          "type": "uint32"
        },
        {
          "components": [
            {
              "internalType": "bytes32",
              "name": "id",
              "type": "bytes32"
            },
            {
              "internalType": "address",
              "name": "owner",
              "type": "address"
            },
            {
              "internalType": "uint256",
              "name": "odds",
              "type": "uint256"
            },
            {
              "internalType": "uint256",
              "name": "costs",
              "type": "uint256"
            },
            {
              "internalType": "uint256",
              "name": "buyPrice",
              "type": "uint256"
            },
            {
              "internalType": "uint256",
              "name": "marketPrice",
              "type": "uint256"
            },
            {
              "internalType": "enum CoinDirection",
              "name": "buyDirection",
              "type": "uint8"
            },
            {
              "internalType": "uint256",
              "name": "gas",
              "type": "uint256"
            },
            {
              "internalType": "uint32",
              "name": "luckyNumber",
              "type": "uint32"
            }
          ],
          "internalType": "struct StakeBill",
          "name": "bill",
          "type": "tuple"
        }
      ],
      "stateMutability": "view",
      "type": "function",
      "constant": true
    },
    {
      "inputs": [
        {
          "internalType": "uint32",
          "name": "index",
          "type": "uint32"
        }
      ],
      "name": "getStakeBill",
      "outputs": [
        {
          "internalType": "bool",
          "name": "exists",
          "type": "bool"
        },
        {
          "components": [
            {
              "internalType": "bytes32",
              "name": "id",
              "type": "bytes32"
            },
            {
              "internalType": "address",
              "name": "owner",
              "type": "address"
            },
            {
              "internalType": "uint256",
              "name": "odds",
              "type": "uint256"
            },
            {
              "internalType": "uint256",
              "name": "costs",
              "type": "uint256"
            },
            {
              "internalType": "uint256",
              "name": "buyPrice",
              "type": "uint256"
            },
            {
              "internalType": "uint256",
              "name": "marketPrice",
              "type": "uint256"
            },
            {
              "internalType": "enum CoinDirection",
              "name": "buyDirection",
              "type": "uint8"
            },
            {
              "internalType": "uint256",
              "name": "gas",
              "type": "uint256"
            },
            {
              "internalType": "uint32",
              "name": "luckyNumber",
              "type": "uint32"
            }
          ],
          "internalType": "struct StakeBill",
          "name": "bill",
          "type": "tuple"
        }
      ],
      "stateMutability": "view",
      "type": "function",
      "constant": true
    },
    {
      "inputs": [
        {
          "internalType": "uint256",
          "name": "_luckyNumber",
          "type": "uint256"
        }
      ],
      "name": "lotteryDraw",
      "outputs": [
        {
          "internalType": "enum CoinDirection",
          "name": "direction",
          "type": "uint8"
        }
      ],
      "stateMutability": "nonpayable",
      "type": "function"
    },
    {
      "inputs": [],
      "name": "canMatchmaking",
      "outputs": [
        {
          "internalType": "bool",
          "name": "matched",
          "type": "bool"
        }
      ],
      "stateMutability": "view",
      "type": "function",
      "constant": true
    },
    {
      "inputs": [],
      "name": "matchmake",
      "outputs": [],
      "stateMutability": "nonpayable",
      "type": "function"
    },
    {
      "inputs": [
        {
          "internalType": "uint256",
          "name": "_hash",
          "type": "uint256"
        }
      ],
      "name": "cover",
      "outputs": [],
      "stateMutability": "nonpayable",
      "type": "function"
    },
    {
      "inputs": [
        {
          "internalType": "uint256",
          "name": "buyPrice",
          "type": "uint256"
        },
        {
          "internalType": "enum CoinDirection",
          "name": "buyDirection",
          "type": "uint8"
        },
        {
          "internalType": "uint32",
          "name": "luckyNumber",
          "type": "uint32"
        }
      ],
      "name": "stake",
      "outputs": [],
      "stateMutability": "payable",
      "type": "function",
      "payable": true
    }
  ],
  "bytecode": "0x60806040523480156200001157600080fd5b50604051620030543803806200305483398101604081905262000034916200015c565b60028054600160a060020a0319908116331790915560008054600160a060020a0385811662010000026201000060b060020a0319909216919091178255600180549185169190931617909155606490655af3107a4000906014906046906200009d828662000194565b6040805160e0810182528681526020810188905260009181018290526060810182905261ffff9586166080820181905294861660a082018190529290951660c090950185905260039590955560049590955550600583905560068390556007805463ffffffff1916909117620100009094029390931765ffff00000000191664010000000090910217909155805461ffff191661010417905550620001de9050565b8051600160a060020a03811681146200015757600080fd5b919050565b600080604083850312156200017057600080fd5b6200017b836200013f565b91506200018b602084016200013f565b90509250929050565b61ffff828116828216039080821115620001d7577f4e487b7100000000000000000000000000000000000000000000000000000000600052601160045260246000fd5b5092915050565b612e6680620001ee6000396000f3fe60806040526004361061016c576000357c01000000000000000000000000000000000000000000000000000000009004806374843dae116100d3578063c86559261161008c578063c865592614610456578063d1314ee01461046b578063d63d12dc14610489578063ecb891e1146104a1578063f2b6c15614610518578063fe940e1f1461052d576101c3565b806374843dae146103a85780638d1d5b3f146103c857806393accf97146103dd578063b45407971461040b578063c040622614610420578063c53f267014610441576101c3565b8063259039331161012557806325903933146102d35780633471b337146102f657806343e616af146103195780635ca1e165146103465780636949c0b21461037e57806371f81e9d14610393576101c3565b806303cd5c591461020e57806307da68f514610221578063143025fd1461023e57806314a1362b1461026a5780631865c57d1461028a5780632014e5d1146102aa576101c3565b366101c35760405160e560020a62461bcd02815260206004820152601860248201527f4e6f206f746865722063616c6c7320737570706f72746564000000000000000060448201526064015b60405180910390fd5b005b60405160e560020a62461bcd02815260206004820152601860248201527f4e6f206f746865722063616c6c7320737570706f72746564000000000000000060448201526064016101b8565b6101c161021c366004612705565b610542565b34801561022d57600080fd5b506101c16000805461ff0019169055565b34801561024a57600080fd5b50610253610743565b6040516102619291906127e2565b60405180910390f35b34801561027657600080fd5b506101c16102853660046127fd565b61075f565b34801561029657600080fd5b5060005460ff166040516102619190612816565b3480156102b657600080fd5b50600054610100900460ff165b6040519015158152602001610261565b3480156102df57600080fd5b506102e8610884565b604051610261929190612830565b34801561030257600080fd5b5061030b6108a3565b604051908152602001610261565b34801561032557600080fd5b506103396103343660046127fd565b6108bc565b604051610261919061287a565b34801561035257600080fd5b50600054620100009004600160a060020a03165b604051600160a060020a039091168152602001610261565b34801561038a57600080fd5b5061030b610b1e565b34801561039f57600080fd5b5061030b610b2c565b3480156103b457600080fd5b5061030b6103c33660046127fd565b610b3a565b3480156103d457600080fd5b506101c1610b6f565b3480156103e957600080fd5b506103fd6103f8366004612888565b610c67565b6040516102619291906128a3565b34801561041757600080fd5b506102c3610e3b565b34801561042c57600080fd5b506101c16000805461ff001916610100179055565b34801561044d57600080fd5b5061030b610f2a565b34801561046257600080fd5b50610253610f41565b34801561047757600080fd5b50600154600160a060020a0316610366565b34801561049557600080fd5b5060095460ff16610339565b3480156104ad57600080fd5b506104b6610f55565b6040516102619190600060e08201905082518252602083015160208301526040830151604083015260608301516060830152608083015161ffff80821660808501528060a08601511660a08501528060c08601511660c0850152505092915050565b34801561052457600080fd5b506102e8610ff8565b34801561053957600080fd5b5060085461030b565b600082600281111561055657610556612747565b036105a65760405160e560020a62461bcd02815260206004820152601b60248201527f427579696e6720646972656374696f6e20697320756e6b6e6f776e000000000060448201526064016101b8565b600360005460ff1660048111156105bf576105bf612747565b036106355760405160e560020a62461bcd02815260206004820152602260248201527f446f206e6f7420616363657074206f7264657273207768656e206d617463686960448201527f6e6700000000000000000000000000000000000000000000000000000000000060648201526084016101b8565b60035460009061065090610649908661100c565b34906110b6565b60055490915061066090826110f8565b60055560065461067090346110f8565b600655604080514260208083019190915244828401528251808303840181526060830180855281519190920120610180830190935282815233608083015260a082018490523460c083015260e08201879052600454610100830152600091610120018660028111156106e4576106e4612747565b81526020015a81526020018563ffffffff1681525090506107048161115a565b7f67ff9f7ebf0786f0383127a22a0f947768f85d4ad4c7a4fe559ade9bab63eeb98160405161073391906128ba565b60405180910390a1505050505050565b600061074d612655565b61075760026112a9565b915091509091565b600154600160a060020a0316331461078c5760405160e560020a62461bcd0281526004016101b8906128c9565b600054610100900460ff166107e65760405160e560020a62461bcd02815260206004820152601360248201527f6f646473646578206861732073746f707065640000000000000000000000000060448201526064016101b8565b600460005460ff1660048111156107ff576107ff612747565b146108755760405160e560020a62461bcd02815260206004820152602360248201527f4d7573742068617665206d617463686d616b6564206265666f72652063616c6c60448201527f696e67000000000000000000000000000000000000000000000000000000000060648201526084016101b8565b6008556000805460ff19169055565b600061088e6126a1565b61089860026114b0565b919491935090915050565b60006108b16001600061177b565b63ffffffff16905090565b600154600090600160a060020a031633146108ec5760405160e560020a62461bcd0281526004016101b8906128c9565b600054610100900460ff166109465760405160e560020a62461bcd02815260206004820152601360248201527f6f646473646578206861732073746f707065640000000000000000000000000060448201526064016101b8565b81600061095282610b3a565b905060085481146109a85760405160e560020a62461bcd02815260206004820152601f60248201527f4c75636b794e756d62657220766572696669636174696f6e206661696c65640060448201526064016101b8565b6000805460ff1660048111156109c0576109c0612747565b14610a365760405160e560020a62461bcd02815260206004820152602160248201527f4d757374206861766520636f766572696e67206265666f72652063616c6c696e60448201527f670000000000000000000000000000000000000000000000000000000000000060648201526084016101b8565b6000805460ff19166001179055610a4c84611959565b6009805460ff19166001836002811115610a6857610a68612747565b02179055506000805460ff19166002908117825560408051608081019091526009549091829160ff1690811115610aa157610aa1612747565b8152602001868152602001600160009054906101000a9004600160a060020a0316600160a060020a0316815260200160085481525090507ff52997b2a7357d8df9a9045621c15ba053a5f94dbcc70b3a9be3ab989564c58881604051610b079190612900565b60405180910390a1505060095460ff169392505050565b60006108b16000600161177b565b60006108b16000600261177b565b60008082604051602001610b5091815260200190565b60408051601f1981840301815291905280516020909101209392505050565b600154600160a060020a03163314610b9c5760405160e560020a62461bcd0281526004016101b8906128c9565b600260005460ff166004811115610bb557610bb5612747565b14610c2b5760405160e560020a62461bcd02815260206004820152602160248201527f4d7573742068617665206c6f747465726564206265666f72652063616c6c696e60448201527f670000000000000000000000000000000000000000000000000000000000000060648201526084016101b8565b6000805460ff191660031790555b610c41610e3b565b15610c5357610c4e6119fe565b610c39565b60006008819055805460ff19166004179055565b6000610c71612655565b6000805b60208163ffffffff161015610e2657600061090a8263ffffffff1660208110610ca057610ca0612940565b602081049091015460ff601f9092166101000a900416905060005b60088160ff161015610e11576000610cd4826002612a59565b831660ff169050610ce6826002612a59565b8160ff1603610dfe578763ffffffff168563ffffffff1603610df0576001600a60ff8416610d15876008612a68565b610d1f9190612a90565b63ffffffff166101008110610d3657610d36612940565b604080516101208101825260099290920292909201805482526001810154600160a060020a03166020830152600280820154938301939093526003810154606083015260048101546080830152600581015460a083015260068101549092839160c084019160ff90911690811115610db057610db0612747565b6002811115610dc157610dc1612747565b81526007820154602082015260089091015463ffffffff16604090910152919a91995090975050505050505050565b84610dfa81612ab4565b9550505b5080610e0981612ad7565b915050610cbb565b50508080610e1e90612ab4565b915050610c75565b50610e2f612655565b60009590945092505050565b6000600260005460ff166004811115610e5657610e56612747565b14610e615750600090565b600080610e6e60016112a9565b915091508163ffffffff1663ffffffff03610e8c5760009250505090565b600080610e9960026112a9565b915091508163ffffffff1663ffffffff03610eb957600094505050505090565b600160095460ff166002811115610ed257610ed2612747565b03610eec5780608001518360800151111594505050505090565b600260095460ff166002811115610f0557610f05612747565b03610f1f5782608001518160800151111594505050505090565b600094505050505090565b600454600354600091610f3c91612af6565b905090565b6000610f4b612655565b61075760016112a9565b610fa16040518060e0016040528060008152602001600081526020016000815260200160008152602001600061ffff168152602001600061ffff168152602001600061ffff1681525090565b506040805160e0810182526003548152600454602082015260055491810191909152600654606082015260075461ffff8082166080840152620100008204811660a08401526401000000009091041660c082015290565b60006110026126a1565b61089860016114b0565b60008260000361101e575060006110b0565b600061102a8385612af6565b9050826110378583612b26565b146110ad5760405160e560020a62461bcd02815260206004820152602160248201527f536166654d6174683a206d756c7469706c69636174696f6e206f766572666c6f60448201527f770000000000000000000000000000000000000000000000000000000000000060648201526084016101b8565b90505b92915050565b60006110ad83836040518060400160405280601a81526020017f536166654d6174683a206469766973696f6e206279207a65726f000000000000815250611e56565b6000806111058385612b3a565b9050838110156110ad5760405160e560020a62461bcd02815260206004820152601b60248201527f536166654d6174683a206164646974696f6e206f766572666c6f77000000000060448201526064016101b8565b6000611164611e92565b90508063ffffffff1663ffffffff036111c25760405160e560020a62461bcd02815260206004820152601e60248201527f5374616b652042696c6c2041727261792073706163652069732066756c6c000060448201526064016101b8565b81600a8263ffffffff1661010081106111dd576111dd612940565b600902016000820151816000015560208201518160010160006101000a815481600160a060020a030219169083600160a060020a0316021790555060408201518160020155606082015181600301556080820151816004015560a0820151816005015560c08201518160060160006101000a81548160ff0219169083600281111561126a5761126a612747565b021790555060e08201516007820155610100909101516008909101805463ffffffff191663ffffffff9092169190911790556112a581611f6a565b5050565b60006112b3612655565b6112bb612655565b63ffffffff925060005b60208163ffffffff1610156114a757600061090a8263ffffffff16602081106112f0576112f0612940565b602081049091015460ff601f9092166101000a900416905060005b60088160ff161015611492576000611324826002612a59565b831660ff169050611336826002612a59565b8160ff160361147e57600a60ff8316611350866008612a68565b61135a9190612a90565b63ffffffff16610100811061137157611371612940565b604080516101208101825260099290920292909201805482526001810154600160a060020a03166020830152600280820154938301939093526003810154606083015260048101546080830152600581015460a083015260068101549192909160c084019160ff909116908111156113eb576113eb612747565b60028111156113fc576113fc612747565b81526007820154602082015260089091015463ffffffff16604090910152955087600281111561142e5761142e612747565b8660c00151600281111561144457611444612747565b1461144f5750611480565b84608001518660800151111561147e5785945060ff8216611471856008612a68565b61147b9190612a90565b96505b505b8061148a81612ad7565b91505061130b565b5050808061149f90612ab4565b9150506112c5565b50919391925050565b60006114ba6126ce565b6114c26126a1565b60005b60208163ffffffff16101561175f57600061090a8263ffffffff16602081106114f0576114f0612940565b602081049091015460ff601f9092166101000a900416905060005b60088160ff16101561174a576000611524826002612a59565b831660ff169050611536826002612a59565b8160ff1603611736576000600a60ff8416611552876008612a68565b61155c9190612a90565b63ffffffff16610100811061157357611573612940565b604080516101208101825260099290920292909201805482526001810154600160a060020a03166020830152600280820154938301939093526003810154606083015260048101546080830152600581015460a083015260068101549192909160c084019160ff909116908111156115ed576115ed612747565b60028111156115fe576115fe612747565b81526007820154602082015260089091015463ffffffff16604090910152905088600281111561163057611630612747565b8160c00151600281111561164657611646612747565b14611652575050611738565b855160809081015190820151101561166b575050611738565b6005600061167a600183612b4d565b90505b6000198113156117325787816005811061169957611699612940565b60200201516080015183608001511115611720578091506116bb89898461200e565b828883600581106116ce576116ce612940565b602002015260ff85166116e2886008612a68565b6116ec9190612a90565b8983600581106116fe576116fe612940565b63ffffffff90921660209290920201528961171881612ab4565b9a5050611732565b8061172a81612b60565b91505061167d565b5050505b505b8061174281612ad7565b91505061150b565b5050808061175790612ab4565b9150506114c5565b5060058363ffffffff16111561177457600592505b9193909250565b600080805b60208163ffffffff16101561195157600061090a8263ffffffff16602081106117ab576117ab612940565b602081049091015460ff601f9092166101000a900416905060005b60088160ff16101561193c5760006117df826002612a59565b831660ff1690506117f1826002612a59565b8160ff1603611928576000600a60ff841661180d876008612a68565b6118179190612a90565b63ffffffff16610100811061182e5761182e612940565b604080516101208101825260099290920292909201805482526001810154600160a060020a03166020830152600280820154938301939093526003810154606083015260048101546080830152600581015460a083015260068101549192909160c084019160ff909116908111156118a8576118a8612747565b60028111156118b9576118b9612747565b81526007820154602082015260089091015463ffffffff1660409091015290508815801561190d57508760028111156118f4576118f4612747565b8160c00151600281111561190a5761190a612747565b14155b1561191957505061192a565b8561192381612ab4565b965050505b505b8061193481612ad7565b9150506117c6565b5050808061194990612ab4565b915050611780565b509392505050565b6000818161196860018261177b565b905060005b8163ffffffff168163ffffffff1610156119d05760008061198d83610c67565b9150915060008261199f5760006119a6565b8161010001515b90506119b863ffffffff821687612b3a565b955050505080806119c890612ab4565b91505061196d565b5060006119de600284612b99565b9050806001036119f357506001949350505050565b506002949350505050565b600080611a0b60016112a9565b915091508163ffffffff1663ffffffff03611a24575050565b600080611a3160026112a9565b915091508163ffffffff1663ffffffff03611a4c5750505050565b611a55846120ab565b611a5e826120ab565b611ac160405180610160016040528060008152602001600081526020016000815260200160008152602001600081526020016000815260200160008019168152602001600081526020016000815260200160008152602001600080191681525090565b611ad384604001518360400151612128565b815260808083015190850151611af591600291611aef916110f8565b906110b6565b602082015280516040850151611b0a9161213f565b604080830191909152815190830151611b229161213f565b606082015260035460808501516040830151611b4e92606492611aef92611b489161100c565b9061100c565b608080830191909152600354908301516060830151611b7792606492611aef92611b489161100c565b60a0820152604081015115611ba3576080810151606085015260408082015190850152611ba38461115a565b606081015115611bcc5760a08101516060808401919091528101516040830152611bcc8261115a565b60035460208201518251611bea92606492611aef92611b489161100c565b60e0820152608080820151600354918601516040870151611c2193611c1b92606492611aef9291611b48919061100c565b9061213f565b61010082015260a081015160035460808401516040850151611c549392611c1b92606492611aef9291611b48919061100c565b61012082015260408051426020820152449181019190915260600160408051601f19818403018152919052805160209091012060c08201819052610100820151611c9f919086612181565b611cb38160c0015182610120015184612181565b600160095460ff166002811115611ccc57611ccc612747565b03611ce957611ce48160c001518260e001518661230f565b611d1a565b600260095460ff166002811115611d0257611d02612747565b03611d1a57611ce48160c001518260e001518461230f565b6020810151600455805160058054600090611d36908490612b4d565b909155505060408051426020820152449181019190915260600160405160208183030381529060405280519060200120816101400181815250506000604051806101c00160405280836101400151815260200186600001518152602001846000015181526020018360c001518152602001600160009054906101000a9004600160a060020a0316600160a060020a0316815260200183600001518152602001836020015181526020018360400151815260200183606001518152602001836080015181526020018360a001518152602001836101000151815260200183610120015181526020018360e0015181525090507fa529cbc4923912b6715f134df9069fee388c4bb00027952ccba1683d6dae2e12816040516107339190612bad565b60008183611e7a5760405160e560020a62461bcd0281526004016101b89190612c7e565b506000611e878486612b26565b9150505b9392505050565b600063ffffffff81805b60208163ffffffff161015611f6257600061090a8263ffffffff1660208110611ec757611ec7612940565b602081049091015460ff601f9092166101000a900416905060005b60088160ff161015611f42576000611efb826002612a59565b8360ff1616905080600003611f2f5760ff8216611f19856008612a68565b611f239190612a90565b95506001945050611f42565b5080611f3a81612ad7565b915050611ee2565b508215611f4f5750611f62565b5080611f5a81612ab4565b915050611e9c565b509092915050565b6000611f77600883612cb1565b90506000611f86600884612cd4565b9050600061090a8363ffffffff1660208110611fa457611fa4612940565b602081049091015460ff601f9092166101000a9004169050611fc7826002612cf7565b60ff909116178061090a63ffffffff851660208110611fe857611fe8612940565b602091828204019190066101000a81548160ff021916908360ff16021790555050505050565b60015b8181116120a55782816005811061202a5761202a612940565b60200201518361203b600184612b4d565b6005811061204b5761204b612940565b602002015283816005811061206257612062612940565b602002015184612073600184612b4d565b6005811061208357612083612940565b63ffffffff90921660209290920201528061209d81612d09565b915050612011565b50505050565b60006120b8600883612cb1565b905060006120c7600884612cd4565b9050600061090a8363ffffffff16602081106120e5576120e5612940565b602081049091015460ff601f9092166101000a9004169050612108826002612cf7565b191660ff168061090a63ffffffff851660208110611fe857611fe8612940565b60008183111561213857816110ad565b5090919050565b60006110ad83836040518060400160405280601e81526020017f536166654d6174683a207375627472616374696f6e206f766572666c6f770000815250612621565b8160000361218e57505050565b60208181015160408051600080825293810191829052919291600160a060020a0384169186916121bd91612d22565b60006040518083038185875af1925050503d80600081146121fa576040519150601f19603f3d011682016040523d82523d6000602084013e6121ff565b606091505b50509050806122235760405160e560020a62461bcd0281526004016101b890612d3e565b60004244604051602001612241929190918252602082015260400190565b60405160208183030381529060405280519060200120905060006040518060a001604052808381526020018660000151815260200188815260200185600160a060020a031681526020018781525090507f18fb24206513f6983861e5acad39384526cb897f511f911740263279449125bc816040516122fe9190600060a082019050825182526020830151602083015260408301516040830152600160a060020a0360608401511660608301526080830151608083015292915050565b60405180910390a150505050505050565b602081015160075460009061233090606490611aef90879061ffff1661100c565b9050600061233e858361213f565b60075490915060009061236390606490611aef90869062010000900461ffff1661100c565b90506000612371848361213f565b6040805160008082526020820192839052929350600160a060020a03881691869161239b91612d22565b60006040518083038185875af1925050503d80600081146123d8576040519150601f19603f3d011682016040523d82523d6000602084013e6123dd565b606091505b50509050806124015760405160e560020a62461bcd0281526004016101b890612d3e565b600154604080516000808252602082019283905292600160a060020a031691869161242b91612d22565b60006040518083038185875af1925050503d8060008114612468576040519150601f19603f3d011682016040523d82523d6000602084013e61246d565b606091505b50509050806124915760405160e560020a62461bcd0281526004016101b890612d3e565b60008054604080518381526020810190915262010000909104600160a060020a03169085906040516124c39190612d22565b60006040518083038185875af1925050503d8060008114612500576040519150601f19603f3d011682016040523d82523d6000602084013e612505565b606091505b50509050806125295760405160e560020a62461bcd0281526004016101b890612d3e565b60004244604051602001612547929190918252602082015260400190565b60408051601f198184030181528282528051602091820120610180840183528084528d51918401919091528282018f9052600160a060020a038c16606084015260075461ffff8082166080860152620100008204811660a08601526401000000009091041660c084015260e083018e905261010083018a905261012083018b90526101408301899052610160830188905290519092507f8c77d17dfdf762b972b90fefbcc2031d1494f3414de7f55a6b70d7c1b4c3a9d99061260a908390612d75565b60405180910390a150505050505050505050505050565b600081848411156126485760405160e560020a62461bcd0281526004016101b89190612c7e565b506000611e878486612b4d565b6040805161012081018252600080825260208201819052918101829052606081018290526080810182905260a081018290529060c0820190815260006020820181905260409091015290565b6040518060a001604052806005905b6126b8612655565b8152602001906001900390816126b05790505090565b6040518060a001604052806005906020820280368337509192915050565b803563ffffffff8116811461270057600080fd5b919050565b60008060006060848603121561271a57600080fd5b8335925060208401356003811061273057600080fd5b915061273e604085016126ec565b90509250925092565b60e060020a634e487b7102600052602160045260246000fd5b6003811061277057612770612747565b9052565b80518252600160a060020a03602082015116602083015260408101516040830152606081015160608301526080810151608083015260a081015160a083015260c08101516127c560c0840182612760565b5060e081810151908301526101009081015163ffffffff16910152565b63ffffffff831681526101408101611e8b6020830184612774565b60006020828403121561280f57600080fd5b5035919050565b602081016005831061282a5761282a612747565b91905290565b63ffffffff831681526105c0810160208083018460005b600581101561286f5761285b838351612774565b610120929092019190830190600101612847565b505050509392505050565b602081016110b08284612760565b60006020828403121561289a57600080fd5b6110ad826126ec565b82151581526101408101611e8b6020830184612774565b61012081016110b08284612774565b6020808252601a908201527f4f6e6c792062726f6b65722063616e2063616c6c20746869732e000000000000604082015260600190565b6000608082019050612913828451612760565b60208301516020830152600160a060020a0360408401511660408301526060830151606083015292915050565b60e060020a634e487b7102600052603260045260246000fd5b60e060020a634e487b7102600052601160045260246000fd5b600181815b808511156129af57816000190482111561299357612993612959565b808516156129a057918102915b60029094049390800290612977565b509250929050565b6000826129c6575060016110b0565b816129d3575060006110b0565b81600181146129e957600281146129f357612a10565b60019150506110b0565b60ff841115612a0457612a04612959565b8360020a9150506110b0565b5060208310610133831016604e8410600b8410161715612a33575081810a6110b0565b612a3d8383612972565b8060001904821115612a5157612a51612959565b029392505050565b60006110ad60ff8416836129b7565b63ffffffff818116838216028082169190828114612a8857612a88612959565b505092915050565b63ffffffff818116838216019080821115612aad57612aad612959565b5092915050565b600063ffffffff808316818103612acd57612acd612959565b6001019392505050565b600060ff821660ff8103612aed57612aed612959565b60010192915050565b80820281158282048414176110b0576110b0612959565b60e060020a634e487b7102600052601260045260246000fd5b600082612b3557612b35612b0d565b500490565b808201808211156110b0576110b0612959565b818103818111156110b0576110b0612959565b60007f80000000000000000000000000000000000000000000000000000000000000008203612b9157612b91612959565b506000190190565b600082612ba857612ba8612b0d565b500690565b60006101c082019050825182526020830151602083015260408301516040830152606083015160608301526080830151612bf26080840182600160a060020a03169052565b5060a0838101519083015260c0808401519083015260e08084015190830152610100808401519083015261012080840151908301526101408084015190830152610160808401519083015261018080840151908301526101a092830151929091019190915290565b60005b83811015612c75578181015183820152602001612c5d565b50506000910152565b6020815260008251806020840152612c9d816040850160208701612c5a565b601f01601f19169190910160400192915050565b600063ffffffff80841680612cc857612cc8612b0d565b92169190910492915050565b600063ffffffff80841680612ceb57612ceb612b0d565b92169190910692915050565b60006110ad63ffffffff8416836129b7565b600060018201612d1b57612d1b612959565b5060010190565b60008251612d34818460208701612c5a565b9190910192915050565b60208082526013908201527f4554485f5452414e534645525f4641494c454400000000000000000000000000604082015260600190565b6000610180820190508251825260208301516020830152604083015160408301526060830151612db06060840182600160a060020a03169052565b506080830151612dc6608084018261ffff169052565b5060a0830151612ddc60a084018261ffff169052565b5060c0830151612df260c084018261ffff169052565b5060e083810151908301526101008084015190830152610120808401519083015261014080840151908301526101609283015192909101919091529056fea2646970667358221220ca0dd74ebc0de3ed33a560039688f74180e6775f99fd89f46c1a652ff4be8efb64736f6c63430008130033",
  "immutableReferences": {},
  "source": "// SPDX-License-Identifier: MIT\npragma solidity >=0.4.22 <0.8.20;\nimport \"./IOddsdex.sol\";\nimport \"./SafeMath.sol\";\n\ncontract OddsdexContract is IOddsdexContract {\n    using SafeMath for *;\n\n    OddsdexState private state;\n    bool private running;\n    address private root;\n    address private broker;\n    address private parent;\n    BulletinBoard private bulletinBoard;\n    uint256 private coverHash;\n    CoinDirection private winningDirection;\n    StakeBill[8 * 32] private stakeBills;\n    uint8[32] private stakeBillsBitmap;\n\n    // StakeBill[10] private buyFrontBillQueue;\n    // StakeBill[10] private buyBackBillQueue;\n\n    constructor(address _root, address _broker) {\n        parent = msg.sender;\n        root = _root;\n        broker = _broker;\n        uint256 initialPrice = 100;\n        uint256 oddunit = 0.0001 * (10 ** 18);\n        uint16 kickbackRate = 20;\n        uint16 brokerageRate = 70;\n        uint16 taxRate = 100 - brokerageRate;\n        bulletinBoard = BulletinBoard(\n            oddunit,\n            initialPrice,\n            0,\n            0,\n            kickbackRate,\n            brokerageRate,\n            taxRate\n        );\n        state = OddsdexState.matchmaked;\n        running = true;\n    }\n\n    modifier onlyRoot() {\n        require(msg.sender == root, \"Only root can call this.\");\n        _;\n    }\n\n    modifier onlyBroker() {\n        require(msg.sender == broker, \"Only broker can call this.\");\n        _;\n    }\n    modifier mustRunning() {\n        require(running, \"oddsdex has stopped\");\n        _;\n    }\n    modifier checkLuckyNumberByBrokerHash(uint256 luckyNumber) {\n        uint256 _hash = genHash(luckyNumber);\n        require(_hash == coverHash, \"LuckyNumber verification failed\");\n        _;\n    }\n\n    function genHash(uint256 number) public pure override returns (uint256) {\n        bytes32 packed = keccak256(abi.encodePacked(number));\n        uint256 _hash = uint256(packed);\n        return _hash;\n    }\n\n    function getCoverHash() public view override returns (uint256) {\n        return coverHash;\n    }\n\n    function getState() public view override returns (OddsdexState) {\n        return state;\n    }\n\n    function getWinningDirection()\n        public\n        view\n        override\n        returns (CoinDirection)\n    {\n        return winningDirection;\n    }\n\n    function getWeiPrice() public view override returns (uint256) {\n        return bulletinBoard.oddunit * bulletinBoard.price;\n    }\n\n    function getBulletinBoard()\n        public\n        view\n        override\n        returns (BulletinBoard memory)\n    {\n        return bulletinBoard;\n    }\n\n    function isRunning() public view override returns (bool) {\n        return running;\n    }\n\n    function stop() public override {\n        running = false;\n    }\n\n    function run() public override {\n        running = true;\n    }\n\n    function getRoot() public view override returns (address) {\n        return root;\n    }\n\n    function getBroker() public view override returns (address) {\n        return broker;\n    }\n\n    function getQueueCount() public view override returns (uint256) {\n        return _lengthOfStakeBills(true, CoinDirection.unknown);\n    }\n\n    function getFrontQueueCount() public view override returns (uint256) {\n        return _lengthOfStakeBills(false, CoinDirection.front);\n    }\n\n    function getBackQueueCount() public view override returns (uint256) {\n        return _lengthOfStakeBills(false, CoinDirection.back);\n    }\n\n    function getTopFiveBillFrontQueue()\n        public\n        view\n        override\n        returns (uint32 length, StakeBill[5] memory bills)\n    {\n        (length, , bills) = _topFiveOfStakeBill(CoinDirection.front);\n        return (length, bills);\n    }\n\n    function getTopFiveBillBackQueue()\n        public\n        view\n        override\n        returns (uint32 length, StakeBill[5] memory bills)\n    {\n        (length, , bills) = _topFiveOfStakeBill(CoinDirection.back);\n        return (length, bills);\n    }\n\n    function getFirstBillOfFrontQueue()\n        public\n        view\n        override\n        returns (uint32 bitIndexAt, StakeBill memory bill)\n    {\n        return _topFirstOfStakeBill(CoinDirection.front);\n    }\n\n    function getFirstBillOfBackQueue()\n        public\n        view\n        override\n        returns (uint32 bitIndexAt, StakeBill memory bill)\n    {\n        return _topFirstOfStakeBill(CoinDirection.back);\n    }\n\n    function getStakeBill(\n        uint32 index\n    ) public view override returns (bool exists, StakeBill memory bill) {\n        uint32 count;\n        for (uint32 i = 0; i < stakeBillsBitmap.length; i++) {\n            uint8 b = stakeBillsBitmap[i];\n            for (uint8 j = 0; j < 8; j++) {\n                uint8 v = uint8(b & (2 ** j));\n                if (v == 2 ** j) {\n                    if (count == index) {\n                        return (true, stakeBills[i * 8 + j]);\n                    }\n                    count++;\n                }\n            }\n        }\n        StakeBill memory ret;\n        return (false, ret);\n    }\n\n    function lotteryDraw(\n        uint256 _luckyNumber\n    )\n        public\n        override\n        onlyBroker\n        mustRunning\n        checkLuckyNumberByBrokerHash(_luckyNumber)\n        returns (CoinDirection direction)\n    {\n        require(\n            state == OddsdexState.covering,\n            \"Must have covering before calling\"\n        );\n        state = OddsdexState.lottering;\n        winningDirection = _calculateWinningDirection(_luckyNumber);\n        state = OddsdexState.lottered;\n\n        LotteryMessage memory message = LotteryMessage(\n            winningDirection,\n            _luckyNumber,\n            broker,\n            coverHash\n        );\n\n        emit OnLotteryEvent(message);\n\n        return winningDirection;\n    }\n\n    function _calculateWinningDirection(\n        uint256 _luckyNumber\n    ) internal view returns (CoinDirection) {\n        uint total = _luckyNumber;\n        uint32 length = _lengthOfStakeBills(true, CoinDirection.unknown);\n        for (uint32 i = 0; i < length; i++) {\n            (bool exists, StakeBill memory bill) = getStakeBill(i);\n            uint32 luckyNumberOfPlayer = exists ? bill.luckyNumber : 0;\n            total += luckyNumberOfPlayer;\n        }\n        uint v = total % 2;\n        if (v == 1) {\n            return CoinDirection.front;\n        } else {\n            return CoinDirection.back;\n        }\n    }\n\n    function canMatchmaking() public view override returns (bool matched) {\n        if (state != OddsdexState.lottered) {\n            return false;\n        }\n        (uint32 bitIndexAtF, StakeBill memory tailF) = _topFirstOfStakeBill(\n            CoinDirection.front\n        );\n        if (bitIndexAtF == 0xFFFFFFFF) {\n            return false;\n        }\n        (uint32 bitIndexAtB, StakeBill memory tailB) = _topFirstOfStakeBill(\n            CoinDirection.back\n        );\n        if (bitIndexAtB == 0xFFFFFFFF) {\n            return false;\n        }\n        if (winningDirection == CoinDirection.front) {\n            return tailF.buyPrice <= tailB.buyPrice;\n        } else if (winningDirection == CoinDirection.back) {\n            return tailB.buyPrice <= tailF.buyPrice;\n        } else {\n            return false;\n        }\n    }\n\n    function matchmake() public override onlyBroker {\n        require(\n            state == OddsdexState.lottered,\n            \"Must have lottered before calling\"\n        );\n        state = OddsdexState.matchmaking;\n        while (canMatchmaking()) {\n            _matchmakePairBill();\n        }\n        coverHash = 0x0;\n        state = OddsdexState.matchmaked;\n    }\n\n    struct LocalVar {\n        uint256 dealOdds;\n        uint256 dealPrice;\n        uint256 tailFOdds;\n        uint256 tailBOdds;\n        uint256 tailFCostOnBill;\n        uint256 tailBCostOnBill;\n        bytes32 mtn;\n        uint256 prize;\n        uint256 tailFRefundCost;\n        uint256 tailBRefundCost;\n        bytes32 matchmakingBillId;\n    }\n\n    function _matchmakePairBill() internal {\n        //\n        (uint32 bitIndexAtF, StakeBill memory tailF) = _topFirstOfStakeBill(\n            CoinDirection.front\n        );\n        if (bitIndexAtF == 0xFFFFFFFF) {\n            return;\n        }\n        (uint32 bitIndexAtB, StakeBill memory tailB) = _topFirstOfStakeBill(\n            CoinDirection.back\n        );\n        if (bitIndexAtB == 0xFFFFFFFF) {\n            return;\n        }\n        //\n        _removeStakeBill(bitIndexAtF);\n        _removeStakeBill(bitIndexAtB);\n\n        LocalVar memory lvar;\n        //\n        lvar.dealOdds = _min(tailF.odds, tailB.odds);\n        lvar.dealPrice = (tailF.buyPrice.add(tailB.buyPrice)).div(2);\n        lvar.tailFOdds = tailF.odds.sub(lvar.dealOdds);\n        lvar.tailBOdds = tailB.odds.sub(lvar.dealOdds);\n        lvar.tailFCostOnBill = lvar\n            .tailFOdds\n            .mul(tailF.buyPrice)\n            .mul(bulletinBoard.oddunit)\n            .div(100);\n        lvar.tailBCostOnBill = lvar\n            .tailBOdds\n            .mul(tailB.buyPrice)\n            .mul(bulletinBoard.oddunit)\n            .div(100);\n\n        //\n        if (lvar.tailFOdds > 0) {\n            tailF.costs = lvar.tailFCostOnBill;\n            tailF.odds = lvar.tailFOdds;\n            storeStakeBill(tailF);\n        }\n        if (lvar.tailBOdds > 0) {\n            tailB.costs = lvar.tailBCostOnBill;\n            tailB.odds = lvar.tailBOdds;\n            storeStakeBill(tailB);\n        }\n\n        lvar.prize = lvar\n            .dealOdds\n            .mul(lvar.dealPrice)\n            .mul(bulletinBoard.oddunit)\n            .div(100);\n        lvar.tailFRefundCost = tailF\n            .odds\n            .mul(tailF.buyPrice)\n            .mul(bulletinBoard.oddunit)\n            .div(100)\n            .sub(lvar.tailFCostOnBill);\n        lvar.tailBRefundCost = tailB\n            .odds\n            .mul(tailB.buyPrice)\n            .mul(bulletinBoard.oddunit)\n            .div(100)\n            .sub(lvar.tailBCostOnBill);\n\n        //mtn is Matchmaking transaction number\n        lvar.mtn = bytes32(\n            keccak256(abi.encodePacked(block.timestamp, block.difficulty))\n        );\n\n        _refundCost(lvar.mtn, lvar.tailFRefundCost, tailF);\n        _refundCost(lvar.mtn, lvar.tailBRefundCost, tailB);\n\n        if (winningDirection == CoinDirection.front) {\n            _splitPrize(lvar.mtn, lvar.prize, tailF);\n        } else if (winningDirection == CoinDirection.back) {\n            _splitPrize(lvar.mtn, lvar.prize, tailB);\n        } else {}\n\n        bulletinBoard.price = lvar.dealPrice;\n        bulletinBoard.odds -= lvar.dealOdds;\n\n        lvar.matchmakingBillId = bytes32(\n            keccak256(abi.encodePacked(block.timestamp, block.difficulty))\n        );\n\n        MatchmakingBill memory _mbill = MatchmakingBill(\n            lvar.matchmakingBillId,\n            tailF.id,\n            tailB.id,\n            lvar.mtn,\n            broker,\n            lvar.dealOdds,\n            lvar.dealPrice,\n            lvar.tailFOdds,\n            lvar.tailBOdds,\n            lvar.tailFCostOnBill,\n            lvar.tailBCostOnBill,\n            lvar.tailFRefundCost,\n            lvar.tailBRefundCost,\n            lvar.prize\n        );\n        emit OnMatchMakingEvent(_mbill);\n    }\n\n    function _refundCost(\n        bytes32 mtn,\n        uint256 costs,\n        StakeBill memory bill\n    ) internal {\n        if (costs == 0) {\n            return;\n        }\n        address player = bill.owner;\n        (bool success, ) = payable(player).call{value: costs}(new bytes(0));\n        require(success, \"ETH_TRANSFER_FAILED\");\n\n        bytes32 idBytes = keccak256(\n            abi.encodePacked(block.timestamp, block.difficulty)\n        );\n        RefundBill memory _rbill = RefundBill(\n            idBytes,\n            bill.id,\n            mtn,\n            player,\n            costs\n        );\n        emit OnRefundBillEvent(_rbill);\n    }\n\n    function _splitPrize(\n        bytes32 mtn,\n        uint256 prize,\n        StakeBill memory bill\n    ) internal {\n        address player = bill.owner;\n        uint256 kickback = prize.mul(bulletinBoard.kickbackRate).div(100);\n        uint256 bonusOfPlayer = prize.sub(kickback);\n        uint256 brokerage = kickback.mul(bulletinBoard.brokerageRate).div(100);\n        uint256 tax = kickback.sub(brokerage);\n\n        (bool success, ) = payable(player).call{value: bonusOfPlayer}(\n            new bytes(0)\n        );\n        require(success, \"ETH_TRANSFER_FAILED\");\n        (bool success1, ) = payable(broker).call{value: brokerage}(\n            new bytes(0)\n        );\n        require(success1, \"ETH_TRANSFER_FAILED\");\n        (bool success2, ) = payable(root).call{value: tax}(new bytes(0));\n        require(success2, \"ETH_TRANSFER_FAILED\");\n\n        bytes32 idBytes = keccak256(\n            abi.encodePacked(block.timestamp, block.difficulty)\n        );\n        SplitBill memory _sbill = SplitBill(\n            idBytes,\n            bill.id,\n            mtn,\n            player,\n            bulletinBoard.kickbackRate,\n            bulletinBoard.brokerageRate,\n            bulletinBoard.taxRate,\n            prize,\n            bonusOfPlayer,\n            kickback,\n            brokerage,\n            tax\n        );\n        emit OnSplitBillEvent(_sbill);\n    }\n\n    function _min(uint256 a, uint256 b) internal pure returns (uint256) {\n        return a <= b ? a : b;\n    }\n\n    function cover(uint256 _hash) public override onlyBroker mustRunning {\n        require(\n            state == OddsdexState.matchmaked,\n            \"Must have matchmaked before calling\"\n        );\n        coverHash = _hash;\n        state = OddsdexState.covering;\n    }\n\n    fallback() external payable {\n        require(false, \"No other calls supported\");\n    }\n\n    receive() external payable {\n        require(false, \"No other calls supported\");\n    }\n\n    function stake(\n        uint256 buyPrice,\n        CoinDirection buyDirection,\n        uint32 luckyNumber\n    ) external payable override {\n        require(\n            buyDirection != CoinDirection.unknown,\n            \"Buying direction is unknown\"\n        );\n        require(\n            state != OddsdexState.matchmaking,\n            \"Do not accept orders when matching\"\n        );\n        uint256 odds = msg.value.div(bulletinBoard.oddunit.mul(buyPrice));\n        // require(odds >= 10, \"Minimum purchase of 10 odds\");\n        bulletinBoard.odds = bulletinBoard.odds.add(odds);\n        bulletinBoard.funds = bulletinBoard.funds.add(msg.value);\n        bytes32 idBytes = keccak256(\n            abi.encodePacked(block.timestamp, block.difficulty)\n        );\n        StakeBill memory bill = StakeBill(\n            idBytes,\n            msg.sender,\n            odds,\n            msg.value,\n            buyPrice,\n            bulletinBoard.price,\n            buyDirection,\n            gasleft(),\n            luckyNumber\n        );\n        storeStakeBill(bill);\n        emit OnStakeBillEvent(bill);\n    }\n\n    function _getFirstSpaceBit() private view returns (uint32) {\n        uint32 index = 0xFFFFFFFF;\n        bool found;\n        for (uint32 i = 0; i < stakeBillsBitmap.length; i++) {\n            uint8 b = stakeBillsBitmap[i];\n            for (uint8 j = 0; j < 8; j++) {\n                uint v = b & (2 ** j);\n                if (v == 0) {\n                    index = i * 8 + j;\n                    found = true;\n                    break;\n                }\n            }\n            if (found) {\n                break;\n            }\n        }\n        return index;\n    }\n\n    function _lengthOfStakeBills(\n        bool all,\n        CoinDirection direction\n    ) private view returns (uint32) {\n        uint32 len = 0;\n        for (uint32 i = 0; i < stakeBillsBitmap.length; i++) {\n            uint8 b = stakeBillsBitmap[i];\n            for (uint8 j = 0; j < 8; j++) {\n                uint8 v = uint8(b & (2 ** j));\n                if (v == 2 ** j) {\n                    StakeBill memory bill = stakeBills[i * 8 + j];\n                    if (!all && bill.buyDirection != direction) {\n                        continue;\n                    }\n                    len++;\n                }\n            }\n        }\n        return len;\n    }\n\n    function _topFiveOfStakeBill(\n        CoinDirection direction\n    )\n        private\n        view\n        returns (\n            uint32 length,\n            uint32[5] memory bitIndexAts,\n            StakeBill[5] memory bills\n        )\n    {\n        for (uint32 i = 0; i < stakeBillsBitmap.length; i++) {\n            uint8 b = stakeBillsBitmap[i];\n            for (uint8 j = 0; j < 8; j++) {\n                uint8 v = uint8(b & (2 ** j));\n                if (v == 2 ** j) {\n                    StakeBill memory bill = stakeBills[i * 8 + j];\n                    if (bill.buyDirection != direction) {\n                        continue;\n                    }\n                    if (bill.buyPrice < bills[0].buyPrice) {\n                        continue;\n                    }\n                    uint pos = bills.length;\n                    for (int t = int(bills.length - 1); t > -1; t--) {\n                        if (bill.buyPrice > bills[uint(t)].buyPrice) {\n                            pos = uint(t);\n                            _moveFronts(bitIndexAts, bills, pos);\n                            bills[pos] = bill;\n                            bitIndexAts[pos] = i * 8 + j;\n                            length++;\n                            break;\n                        }\n                    }\n                }\n            }\n        }\n        if (length > bills.length) {\n            length = uint32(bills.length);\n        }\n        return (length, bitIndexAts, bills);\n    }\n\n    function _moveFronts(\n        uint32[5] memory bitIndexAts,\n        StakeBill[5] memory bills,\n        uint pos\n    ) private pure {\n        for (uint i = 1; i <= pos; i++) {\n            bills[i - 1] = bills[i];\n            bitIndexAts[i - 1] = bitIndexAts[i];\n        }\n    }\n\n    function _topFirstOfStakeBill(\n        CoinDirection direction\n    ) private view returns (uint32 bitIndexAt, StakeBill memory bill) {\n        StakeBill memory maxbill;\n        bitIndexAt = 0xFFFFFFFF;\n        for (uint32 i = 0; i < stakeBillsBitmap.length; i++) {\n            uint8 b = stakeBillsBitmap[i];\n            for (uint8 j = 0; j < 8; j++) {\n                uint8 v = uint8(b & (2 ** j));\n                if (v == 2 ** j) {\n                    bill = stakeBills[i * 8 + j];\n                    if (bill.buyDirection != direction) {\n                        continue;\n                    }\n                    if (bill.buyPrice > maxbill.buyPrice) {\n                        maxbill = bill;\n                        bitIndexAt = i * 8 + j;\n                    }\n                }\n            }\n        }\n        return (bitIndexAt, maxbill);\n    }\n\n    function _removeStakeBill(uint32 index) private {\n        uint32 i = index / 8;\n        uint32 j = index % 8;\n        uint8 v = stakeBillsBitmap[i];\n        v = uint8(v & (~(2 ** j)));\n        stakeBillsBitmap[i] = v;\n    }\n\n    function _setStakeBillAt(uint32 index) private {\n        uint32 i = index / 8;\n        uint32 j = index % 8;\n        uint8 v = stakeBillsBitmap[i];\n        v = uint8(v | (2 ** j));\n        stakeBillsBitmap[i] = v;\n    }\n\n    function storeStakeBill(StakeBill memory bill) private {\n        uint32 index = _getFirstSpaceBit();\n        require(index != 0xFFFFFFFF, \"Stake Bill Array space is full\");\n        stakeBills[index] = bill;\n        _setStakeBillAt(index);\n    }\n}\n",
  "sourcePath": "/Users/cj/games/game-oddsdex/contracts/OddsdexContract.sol",
  "compiler": {
    "name": "solc",
    "version": "0.8.19+commit.7dd6d404.Emscripten.clang"
  },
  "schemaVersion": "3.4.14",
  "updatedAt": "2023-08-27T15:32:13.155Z",
  "networkType": "ethereum",
  "devdoc": {
    "kind": "dev",
    "methods": {},
    "version": 1
  },
  "userdoc": {
    "kind": "user",
    "methods": {},
    "version": 1
  }
}