{
  "contractName": "OddsdexContract",
  "abi": [
    {
      "inputs": [
        {
          "internalType": "address",
          "name": "_root",
          "type": "address"
        },
        {
          "internalType": "address",
          "name": "_broker",
          "type": "address"
        }
      ],
      "stateMutability": "nonpayable",
      "type": "constructor"
    },
    {
      "anonymous": false,
      "inputs": [
        {
          "components": [
            {
              "internalType": "bytes32",
              "name": "id",
              "type": "bytes32"
            },
            {
              "internalType": "bytes32",
              "name": "refFId",
              "type": "bytes32"
            },
            {
              "internalType": "bytes32",
              "name": "refBId",
              "type": "bytes32"
            },
            {
              "internalType": "bytes32",
              "name": "mtn",
              "type": "bytes32"
            },
            {
              "internalType": "address",
              "name": "broker",
              "type": "address"
            },
            {
              "internalType": "uint256",
              "name": "dealOdds",
              "type": "uint256"
            },
            {
              "internalType": "uint256",
              "name": "dealPrice",
              "type": "uint256"
            },
            {
              "internalType": "uint256",
              "name": "tailFOdds",
              "type": "uint256"
            },
            {
              "internalType": "uint256",
              "name": "tailBOdds",
              "type": "uint256"
            },
            {
              "internalType": "uint256",
              "name": "tailFCostOnBill",
              "type": "uint256"
            },
            {
              "internalType": "uint256",
              "name": "tailBCostOnBill",
              "type": "uint256"
            },
            {
              "internalType": "uint256",
              "name": "tailFRefundCosts",
              "type": "uint256"
            },
            {
              "internalType": "uint256",
              "name": "tailBRefundCosts",
              "type": "uint256"
            },
            {
              "internalType": "uint256",
              "name": "prize",
              "type": "uint256"
            },
            {
              "internalType": "enum CoinDirection",
              "name": "winningDirection",
              "type": "uint8"
            }
          ],
          "indexed": false,
          "internalType": "struct MatchmakingBill",
          "name": "bill",
          "type": "tuple"
        }
      ],
      "name": "OnMatchMakingEvent",
      "type": "event"
    },
    {
      "anonymous": false,
      "inputs": [
        {
          "components": [
            {
              "internalType": "bytes32",
              "name": "id",
              "type": "bytes32"
            },
            {
              "internalType": "bytes32",
              "name": "refId",
              "type": "bytes32"
            },
            {
              "internalType": "bytes32",
              "name": "mtn",
              "type": "bytes32"
            },
            {
              "internalType": "address",
              "name": "owner",
              "type": "address"
            },
            {
              "internalType": "uint256",
              "name": "costs",
              "type": "uint256"
            }
          ],
          "indexed": false,
          "internalType": "struct RefundBill",
          "name": "bill",
          "type": "tuple"
        }
      ],
      "name": "OnRefundBillEvent",
      "type": "event"
    },
    {
      "anonymous": false,
      "inputs": [
        {
          "components": [
            {
              "internalType": "bytes32",
              "name": "id",
              "type": "bytes32"
            },
            {
              "internalType": "bytes32",
              "name": "refId",
              "type": "bytes32"
            },
            {
              "internalType": "bytes32",
              "name": "mtn",
              "type": "bytes32"
            },
            {
              "internalType": "address",
              "name": "owner",
              "type": "address"
            },
            {
              "internalType": "uint16",
              "name": "kickbackRate",
              "type": "uint16"
            },
            {
              "internalType": "uint16",
              "name": "brokerageRate",
              "type": "uint16"
            },
            {
              "internalType": "uint16",
              "name": "taxRate",
              "type": "uint16"
            },
            {
              "internalType": "uint256",
              "name": "prize",
              "type": "uint256"
            },
            {
              "internalType": "uint256",
              "name": "bonus",
              "type": "uint256"
            },
            {
              "internalType": "uint256",
              "name": "kickback",
              "type": "uint256"
            },
            {
              "internalType": "uint256",
              "name": "brokerage",
              "type": "uint256"
            },
            {
              "internalType": "uint256",
              "name": "tax",
              "type": "uint256"
            }
          ],
          "indexed": false,
          "internalType": "struct SplitBill",
          "name": "bill",
          "type": "tuple"
        }
      ],
      "name": "OnSplitBillEvent",
      "type": "event"
    },
    {
      "anonymous": false,
      "inputs": [
        {
          "components": [
            {
              "internalType": "bytes32",
              "name": "id",
              "type": "bytes32"
            },
            {
              "internalType": "address",
              "name": "owner",
              "type": "address"
            },
            {
              "internalType": "uint256",
              "name": "odds",
              "type": "uint256"
            },
            {
              "internalType": "uint256",
              "name": "costs",
              "type": "uint256"
            },
            {
              "internalType": "uint256",
              "name": "buyPrice",
              "type": "uint256"
            },
            {
              "internalType": "uint256",
              "name": "marketPrice",
              "type": "uint256"
            },
            {
              "internalType": "enum CoinDirection",
              "name": "buyDirection",
              "type": "uint8"
            },
            {
              "internalType": "uint256",
              "name": "gas",
              "type": "uint256"
            },
            {
              "internalType": "uint32",
              "name": "luckyNumber",
              "type": "uint32"
            }
          ],
          "indexed": false,
          "internalType": "struct StakeBill",
          "name": "bill",
          "type": "tuple"
        }
      ],
      "name": "OnStakeBillEvent",
      "type": "event"
    },
    {
      "stateMutability": "payable",
      "type": "fallback",
      "payable": true
    },
    {
      "stateMutability": "payable",
      "type": "receive",
      "payable": true
    },
    {
      "inputs": [],
      "name": "getWeiPrice",
      "outputs": [
        {
          "internalType": "uint256",
          "name": "",
          "type": "uint256"
        }
      ],
      "stateMutability": "view",
      "type": "function",
      "constant": true
    },
    {
      "inputs": [],
      "name": "getBulletinBoard",
      "outputs": [
        {
          "components": [
            {
              "internalType": "uint256",
              "name": "oddunit",
              "type": "uint256"
            },
            {
              "internalType": "uint256",
              "name": "price",
              "type": "uint256"
            },
            {
              "internalType": "uint256",
              "name": "odds",
              "type": "uint256"
            },
            {
              "internalType": "uint256",
              "name": "funds",
              "type": "uint256"
            },
            {
              "internalType": "uint16",
              "name": "kickbackRate",
              "type": "uint16"
            },
            {
              "internalType": "uint16",
              "name": "brokerageRate",
              "type": "uint16"
            },
            {
              "internalType": "uint16",
              "name": "taxRate",
              "type": "uint16"
            }
          ],
          "internalType": "struct BulletinBoard",
          "name": "",
          "type": "tuple"
        }
      ],
      "stateMutability": "view",
      "type": "function",
      "constant": true
    },
    {
      "inputs": [],
      "name": "isRunning",
      "outputs": [
        {
          "internalType": "bool",
          "name": "",
          "type": "bool"
        }
      ],
      "stateMutability": "view",
      "type": "function",
      "constant": true
    },
    {
      "inputs": [],
      "name": "stop",
      "outputs": [],
      "stateMutability": "nonpayable",
      "type": "function"
    },
    {
      "inputs": [],
      "name": "run",
      "outputs": [],
      "stateMutability": "nonpayable",
      "type": "function"
    },
    {
      "inputs": [],
      "name": "getRoot",
      "outputs": [
        {
          "internalType": "address",
          "name": "",
          "type": "address"
        }
      ],
      "stateMutability": "view",
      "type": "function",
      "constant": true
    },
    {
      "inputs": [],
      "name": "getBroker",
      "outputs": [
        {
          "internalType": "address",
          "name": "",
          "type": "address"
        }
      ],
      "stateMutability": "view",
      "type": "function",
      "constant": true
    },
    {
      "inputs": [],
      "name": "getQueueCount",
      "outputs": [
        {
          "internalType": "uint256",
          "name": "",
          "type": "uint256"
        }
      ],
      "stateMutability": "view",
      "type": "function",
      "constant": true
    },
    {
      "inputs": [],
      "name": "getFrontQueueCount",
      "outputs": [
        {
          "internalType": "uint256",
          "name": "",
          "type": "uint256"
        }
      ],
      "stateMutability": "view",
      "type": "function",
      "constant": true
    },
    {
      "inputs": [],
      "name": "getBackQueueCount",
      "outputs": [
        {
          "internalType": "uint256",
          "name": "",
          "type": "uint256"
        }
      ],
      "stateMutability": "view",
      "type": "function",
      "constant": true
    },
    {
      "inputs": [],
      "name": "getTopFiveBillFrontQueue",
      "outputs": [
        {
          "internalType": "uint32",
          "name": "length",
          "type": "uint32"
        },
        {
          "components": [
            {
              "internalType": "bytes32",
              "name": "id",
              "type": "bytes32"
            },
            {
              "internalType": "address",
              "name": "owner",
              "type": "address"
            },
            {
              "internalType": "uint256",
              "name": "odds",
              "type": "uint256"
            },
            {
              "internalType": "uint256",
              "name": "costs",
              "type": "uint256"
            },
            {
              "internalType": "uint256",
              "name": "buyPrice",
              "type": "uint256"
            },
            {
              "internalType": "uint256",
              "name": "marketPrice",
              "type": "uint256"
            },
            {
              "internalType": "enum CoinDirection",
              "name": "buyDirection",
              "type": "uint8"
            },
            {
              "internalType": "uint256",
              "name": "gas",
              "type": "uint256"
            },
            {
              "internalType": "uint32",
              "name": "luckyNumber",
              "type": "uint32"
            }
          ],
          "internalType": "struct StakeBill[5]",
          "name": "bills",
          "type": "tuple[5]"
        }
      ],
      "stateMutability": "view",
      "type": "function",
      "constant": true
    },
    {
      "inputs": [],
      "name": "getTopFiveBillBackQueue",
      "outputs": [
        {
          "internalType": "uint32",
          "name": "length",
          "type": "uint32"
        },
        {
          "components": [
            {
              "internalType": "bytes32",
              "name": "id",
              "type": "bytes32"
            },
            {
              "internalType": "address",
              "name": "owner",
              "type": "address"
            },
            {
              "internalType": "uint256",
              "name": "odds",
              "type": "uint256"
            },
            {
              "internalType": "uint256",
              "name": "costs",
              "type": "uint256"
            },
            {
              "internalType": "uint256",
              "name": "buyPrice",
              "type": "uint256"
            },
            {
              "internalType": "uint256",
              "name": "marketPrice",
              "type": "uint256"
            },
            {
              "internalType": "enum CoinDirection",
              "name": "buyDirection",
              "type": "uint8"
            },
            {
              "internalType": "uint256",
              "name": "gas",
              "type": "uint256"
            },
            {
              "internalType": "uint32",
              "name": "luckyNumber",
              "type": "uint32"
            }
          ],
          "internalType": "struct StakeBill[5]",
          "name": "bills",
          "type": "tuple[5]"
        }
      ],
      "stateMutability": "view",
      "type": "function",
      "constant": true
    },
    {
      "inputs": [],
      "name": "getFirstBillOfFrontQueue",
      "outputs": [
        {
          "internalType": "uint32",
          "name": "bitIndexAt",
          "type": "uint32"
        },
        {
          "components": [
            {
              "internalType": "bytes32",
              "name": "id",
              "type": "bytes32"
            },
            {
              "internalType": "address",
              "name": "owner",
              "type": "address"
            },
            {
              "internalType": "uint256",
              "name": "odds",
              "type": "uint256"
            },
            {
              "internalType": "uint256",
              "name": "costs",
              "type": "uint256"
            },
            {
              "internalType": "uint256",
              "name": "buyPrice",
              "type": "uint256"
            },
            {
              "internalType": "uint256",
              "name": "marketPrice",
              "type": "uint256"
            },
            {
              "internalType": "enum CoinDirection",
              "name": "buyDirection",
              "type": "uint8"
            },
            {
              "internalType": "uint256",
              "name": "gas",
              "type": "uint256"
            },
            {
              "internalType": "uint32",
              "name": "luckyNumber",
              "type": "uint32"
            }
          ],
          "internalType": "struct StakeBill",
          "name": "bill",
          "type": "tuple"
        }
      ],
      "stateMutability": "view",
      "type": "function",
      "constant": true
    },
    {
      "inputs": [],
      "name": "getFirstBillOfBackQueue",
      "outputs": [
        {
          "internalType": "uint32",
          "name": "bitIndexAt",
          "type": "uint32"
        },
        {
          "components": [
            {
              "internalType": "bytes32",
              "name": "id",
              "type": "bytes32"
            },
            {
              "internalType": "address",
              "name": "owner",
              "type": "address"
            },
            {
              "internalType": "uint256",
              "name": "odds",
              "type": "uint256"
            },
            {
              "internalType": "uint256",
              "name": "costs",
              "type": "uint256"
            },
            {
              "internalType": "uint256",
              "name": "buyPrice",
              "type": "uint256"
            },
            {
              "internalType": "uint256",
              "name": "marketPrice",
              "type": "uint256"
            },
            {
              "internalType": "enum CoinDirection",
              "name": "buyDirection",
              "type": "uint8"
            },
            {
              "internalType": "uint256",
              "name": "gas",
              "type": "uint256"
            },
            {
              "internalType": "uint32",
              "name": "luckyNumber",
              "type": "uint32"
            }
          ],
          "internalType": "struct StakeBill",
          "name": "bill",
          "type": "tuple"
        }
      ],
      "stateMutability": "view",
      "type": "function",
      "constant": true
    },
    {
      "inputs": [
        {
          "internalType": "uint32",
          "name": "index",
          "type": "uint32"
        }
      ],
      "name": "getStakeBill",
      "outputs": [
        {
          "internalType": "bool",
          "name": "exists",
          "type": "bool"
        },
        {
          "components": [
            {
              "internalType": "bytes32",
              "name": "id",
              "type": "bytes32"
            },
            {
              "internalType": "address",
              "name": "owner",
              "type": "address"
            },
            {
              "internalType": "uint256",
              "name": "odds",
              "type": "uint256"
            },
            {
              "internalType": "uint256",
              "name": "costs",
              "type": "uint256"
            },
            {
              "internalType": "uint256",
              "name": "buyPrice",
              "type": "uint256"
            },
            {
              "internalType": "uint256",
              "name": "marketPrice",
              "type": "uint256"
            },
            {
              "internalType": "enum CoinDirection",
              "name": "buyDirection",
              "type": "uint8"
            },
            {
              "internalType": "uint256",
              "name": "gas",
              "type": "uint256"
            },
            {
              "internalType": "uint32",
              "name": "luckyNumber",
              "type": "uint32"
            }
          ],
          "internalType": "struct StakeBill",
          "name": "bill",
          "type": "tuple"
        }
      ],
      "stateMutability": "view",
      "type": "function",
      "constant": true
    },
    {
      "inputs": [
        {
          "internalType": "enum CoinDirection",
          "name": "winningDirection",
          "type": "uint8"
        }
      ],
      "name": "canMatchmaking",
      "outputs": [
        {
          "internalType": "bool",
          "name": "matched",
          "type": "bool"
        }
      ],
      "stateMutability": "view",
      "type": "function",
      "constant": true
    },
    {
      "inputs": [],
      "name": "matchmake",
      "outputs": [],
      "stateMutability": "nonpayable",
      "type": "function"
    },
    {
      "inputs": [
        {
          "internalType": "uint256",
          "name": "buyPrice",
          "type": "uint256"
        },
        {
          "internalType": "enum CoinDirection",
          "name": "buyDirection",
          "type": "uint8"
        },
        {
          "internalType": "uint32",
          "name": "luckyNumber",
          "type": "uint32"
        }
      ],
      "name": "stake",
      "outputs": [],
      "stateMutability": "payable",
      "type": "function",
      "payable": true
    }
  ],
  "bytecode": "0x60806040523480156200001157600080fd5b506040516200316c3803806200316c833981016040819052620000349162000158565b60028054600160a060020a0319908116331790915560008054600160a060020a038581166101000261010060a860020a0319909216919091178255600180549185169190931617909155606490655af3107a4000906014906046906200009b828662000190565b6040805160e0810182528681526020810188905260009181018290526060810182905261ffff9586166080820181905294861660a082018190529290951660c090950185905260039590955560049590955550600583905560068390556007805463ffffffff1916909117620100009094029390931765ffff00000000191664010000000090910217909155805460ff1916600117905550620001da9050565b8051600160a060020a03811681146200015357600080fd5b919050565b600080604083850312156200016c57600080fd5b62000177836200013b565b915062000187602084016200013b565b90509250929050565b61ffff828116828216039080821115620001d3577f4e487b7100000000000000000000000000000000000000000000000000000000600052601160045260246000fd5b5092915050565b612f8280620001ea6000396000f3fe60806040526004361061012a576000357c01000000000000000000000000000000000000000000000000000000009004806371f81e9d116100b2578063c53f267011610081578063c53f267014610374578063c865592614610389578063d1314ee01461039e578063ecb891e1146103bc578063f2b6c1561461043357610181565b806371f81e9d146102fd5780638d1d5b3f1461031257806393accf9714610327578063c04062261461035557610181565b806325903933116100f9578063259039331461024b5780633471b3371461026e5780635c3917d4146102915780635ca1e165146102b15780636949c0b2146102e857610181565b806303cd5c59146101cc57806307da68f5146101df578063143025fd146101fb5780632014e5d11461022757610181565b366101815760405160e560020a62461bcd02815260206004820152601860248201527f4e6f206f746865722063616c6c7320737570706f72746564000000000000000060448201526064015b60405180910390fd5b005b60405160e560020a62461bcd02815260206004820152601860248201527f4e6f206f746865722063616c6c7320737570706f7274656400000000000000006044820152606401610176565b61017f6101da3660046128de565b610448565b3480156101eb57600080fd5b5061017f6000805460ff19169055565b34801561020757600080fd5b5061021061060f565b60405161021e9291906129c6565b60405180910390f35b34801561023357600080fd5b5060005460ff165b604051901515815260200161021e565b34801561025757600080fd5b5061026061062b565b60405161021e9291906129e1565b34801561027a57600080fd5b5061028361064a565b60405190815260200161021e565b34801561029d57600080fd5b5061023b6102ac366004612a2b565b610663565b3480156102bd57600080fd5b506000546101009004600160a060020a03165b604051600160a060020a03909116815260200161021e565b3480156102f457600080fd5b5061028361072b565b34801561030957600080fd5b50610283610739565b34801561031e57600080fd5b5061017f610747565b34801561033357600080fd5b50610347610342366004612a46565b610826565b60405161021e929190612a61565b34801561036157600080fd5b5061017f6000805460ff19166001179055565b34801561038057600080fd5b506102836109f9565b34801561039557600080fd5b50610210610a10565b3480156103aa57600080fd5b50600154600160a060020a03166102d0565b3480156103c857600080fd5b506103d1610a24565b60405161021e9190600060e08201905082518252602083015160208301526040830151604083015260608301516060830152608083015161ffff80821660808501528060a08601511660a08501528060c08601511660c0850152505092915050565b34801561043f57600080fd5b50610260610ac7565b60005460ff1661049d5760405160e560020a62461bcd02815260206004820152601360248201527f6f646473646578206861732073746f70706564000000000000000000000000006044820152606401610176565b60008260028111156104b1576104b161291a565b036105015760405160e560020a62461bcd02815260206004820152601b60248201527f427579696e6720646972656374696f6e20697320756e6b6e6f776e00000000006044820152606401610176565b60035460009061051c906105159086610adb565b3490610b85565b60055490915061052c9082610bc7565b60055560065461053c9034610bc7565b600655604080514260208083019190915244828401528251808303840181526060830180855281519190920120610180830190935282815233608083015260a082018490523460c083015260e08201879052600454610100830152600091610120018660028111156105b0576105b061291a565b81526020015a81526020018563ffffffff1681525090506105d081610c29565b7f67ff9f7ebf0786f0383127a22a0f947768f85d4ad4c7a4fe559ade9bab63eeb9816040516105ff9190612a78565b60405180910390a1505050505050565b600061061961281f565b6106236002610d78565b915091509091565b600061063561286b565b61063f6002610f7e565b919491935090915050565b600061065860016000611248565b63ffffffff16905090565b60008060006106726001610d78565b915091508163ffffffff1663ffffffff03610691575060009392505050565b60008061069e6002610d78565b915091508163ffffffff1663ffffffff036106bf5750600095945050505050565b60018660028111156106d3576106d361291a565b036106ef57806080015183608001511115945050505050919050565b60028660028111156107035761070361291a565b0361071f57826080015181608001511115945050505050919050565b50600095945050505050565b600061065860006001611248565b600061065860006002611248565b600154600160a060020a031633146107a45760405160e560020a62461bcd02815260206004820152601a60248201527f4f6e6c792062726f6b65722063616e2063616c6c20746869732e0000000000006044820152606401610176565b60005460ff166107f95760405160e560020a62461bcd02815260206004820152601360248201527f6f646473646578206861732073746f70706564000000000000000000000000006044820152606401610176565b6000610803611425565b9150505b61081081610663565b156108235761081e816117a0565b610807565b50565b600061083061281f565b6000805b60208163ffffffff1610156109e45760006109088263ffffffff166020811061085f5761085f612a87565b602081049091015460ff601f9092166101000a900416905060005b60088160ff1610156109cf576000610893826002612ba0565b831660ff1690506108a5826002612ba0565b8160ff16036109bc578763ffffffff168563ffffffff16036109ae576001600860ff84166108d38783612baf565b6108dd9190612bd7565b63ffffffff1661010081106108f4576108f4612a87565b604080516101208101825260099290920292909201805482526001810154600160a060020a03166020830152600280820154938301939093526003810154606083015260048101546080830152600581015460a083015260068101549092839160c084019160ff9091169081111561096e5761096e61291a565b600281111561097f5761097f61291a565b81526007820154602082015260089091015463ffffffff16604090910152919a91995090975050505050505050565b846109b881612bfb565b9550505b50806109c781612c1e565b91505061087a565b505080806109dc90612bfb565b915050610834565b506109ed61281f565b60009590945092505050565b600454600354600091610a0b91612c3d565b905090565b6000610a1a61281f565b6106236001610d78565b610a706040518060e0016040528060008152602001600081526020016000815260200160008152602001600061ffff168152602001600061ffff168152602001600061ffff1681525090565b506040805160e0810182526003548152600454602082015260055491810191909152600654606082015260075461ffff8082166080840152620100008204811660a08401526401000000009091041660c082015290565b6000610ad161286b565b61063f6001610f7e565b600082600003610aed57506000610b7f565b6000610af98385612c3d565b905082610b068583612c6d565b14610b7c5760405160e560020a62461bcd02815260206004820152602160248201527f536166654d6174683a206d756c7469706c69636174696f6e206f766572666c6f60448201527f77000000000000000000000000000000000000000000000000000000000000006064820152608401610176565b90505b92915050565b6000610b7c83836040518060400160405280601a81526020017f536166654d6174683a206469766973696f6e206279207a65726f000000000000815250611bfb565b600080610bd48385612c81565b905083811015610b7c5760405160e560020a62461bcd02815260206004820152601b60248201527f536166654d6174683a206164646974696f6e206f766572666c6f7700000000006044820152606401610176565b6000610c33611c37565b90508063ffffffff1663ffffffff03610c915760405160e560020a62461bcd02815260206004820152601e60248201527f5374616b652042696c6c2041727261792073706163652069732066756c6c00006044820152606401610176565b8160088263ffffffff166101008110610cac57610cac612a87565b600902016000820151816000015560208201518160010160006101000a815481600160a060020a030219169083600160a060020a0316021790555060408201518160020155606082015181600301556080820151816004015560a0820151816005015560c08201518160060160006101000a81548160ff02191690836002811115610d3957610d3961291a565b021790555060e08201516007820155610100909101516008909101805463ffffffff191663ffffffff909216919091179055610d7481611d0f565b5050565b6000610d8261281f565b610d8a61281f565b63ffffffff925060005b60208163ffffffff161015610f755760006109088263ffffffff1660208110610dbf57610dbf612a87565b602081049091015460ff601f9092166101000a900416905060005b60088160ff161015610f60576000610df3826002612ba0565b831660ff169050610e05826002612ba0565b8160ff1603610f4c57600860ff8316610e1e8683612baf565b610e289190612bd7565b63ffffffff166101008110610e3f57610e3f612a87565b604080516101208101825260099290920292909201805482526001810154600160a060020a03166020830152600280820154938301939093526003810154606083015260048101546080830152600581015460a083015260068101549192909160c084019160ff90911690811115610eb957610eb961291a565b6002811115610eca57610eca61291a565b81526007820154602082015260089091015463ffffffff166040909101529550876002811115610efc57610efc61291a565b8660c001516002811115610f1257610f1261291a565b14610f1d5750610f4e565b846080015186608001511115610f4c5785945060ff8216610f3f856008612baf565b610f499190612bd7565b96505b505b80610f5881612c1e565b915050610dda565b50508080610f6d90612bfb565b915050610d94565b50919391925050565b6000610f88612898565b610f9061286b565b60005b60208163ffffffff16101561122c5760006109088263ffffffff1660208110610fbe57610fbe612a87565b602081049091015460ff601f9092166101000a900416905060005b60088160ff161015611217576000610ff2826002612ba0565b831660ff169050611004826002612ba0565b8160ff1603611203576000600860ff841661101f8783612baf565b6110299190612bd7565b63ffffffff16610100811061104057611040612a87565b604080516101208101825260099290920292909201805482526001810154600160a060020a03166020830152600280820154938301939093526003810154606083015260048101546080830152600581015460a083015260068101549192909160c084019160ff909116908111156110ba576110ba61291a565b60028111156110cb576110cb61291a565b81526007820154602082015260089091015463ffffffff1660409091015290508860028111156110fd576110fd61291a565b8160c0015160028111156111135761111361291a565b1461111f575050611205565b8551608090810151908201511015611138575050611205565b60056000611147600183612c94565b90505b6000198113156111ff5787816005811061116657611166612a87565b602002015160800151836080015111156111ed57809150611188898984611db3565b8288836005811061119b5761119b612a87565b602002015260ff85166111af886008612baf565b6111b99190612bd7565b8983600581106111cb576111cb612a87565b63ffffffff9092166020929092020152896111e581612bfb565b9a50506111ff565b806111f781612ca7565b91505061114a565b5050505b505b8061120f81612c1e565b915050610fd9565b5050808061122490612bfb565b915050610f93565b5060058363ffffffff16111561124157600592505b9193909250565b600080805b60208163ffffffff16101561141d5760006109088263ffffffff166020811061127857611278612a87565b602081049091015460ff601f9092166101000a900416905060005b60088160ff1610156114085760006112ac826002612ba0565b831660ff1690506112be826002612ba0565b8160ff16036113f4576000600860ff84166112d98783612baf565b6112e39190612bd7565b63ffffffff1661010081106112fa576112fa612a87565b604080516101208101825260099290920292909201805482526001810154600160a060020a03166020830152600280820154938301939093526003810154606083015260048101546080830152600581015460a083015260068101549192909160c084019160ff909116908111156113745761137461291a565b60028111156113855761138561291a565b81526007820154602082015260089091015463ffffffff166040909101529050881580156113d957508760028111156113c0576113c061291a565b8160c0015160028111156113d6576113d661291a565b14155b156113e55750506113f6565b856113ef81612bfb565b965050505b505b8061140081612c1e565b915050611293565b5050808061141590612bfb565b91505061124d565b509392505050565b6040805161010081018252600080825260208201819052918101829052606081018290526080810182905260a0810182905260c0810182905260e08101919091526000600a4244604051602001611486929190918252602082015260400190565b60408051601f1981840301815291905280516020909101206114a89190612ce0565b60ff168083526040805142602080830191909152448284015260f860020a909302606082015281516041818303018152606190910190915280519101206114f190600a90612ce0565b60ff90811660208481018290528451604080514281850152448183015260f860020a929095168202606086015292026061840152815180840360420181526062909301909152815191012061154890600a90612ce0565b60ff9081166040848101829052845160208087015183514281840152448186015260f860020a9387168402606082015295168202606186015292026062840152805180840360430181526063909301905281519101206115aa90600a90612ce0565b60ff9081166060848101829052845160208087015160408089015181514281860152448184015260f860020a9589168602968101969096529187168402606186015295168202606284015292026063820152825160448183030181526064909101909252815191012061161f90600a90612ce0565b60ff16608083015260006116336001611e50565b905060006116416002611e50565b60408051426020820152449181019190915260608101849052909150600a9060800160408051601f1981840301815291905280516020909101206116859190612ce0565b60ff1660a085015260408051426020820152449181019190915260608101829052600a9060800160408051601f1981840301815291905280516020909101206116ce9190612ce0565b60ff90811660c0860181905285516020808801516040808a01516060808c015160808d015160a08e0151855142818a01524481880152988b1660f860020a908102948a0194909452958a1683026061890152928916820260628801528816810260638701529087168102606486015291909516810260658401529092026066820152825160478183030181526067909101909252815191012060009061177690600290612ce0565b60e08601819052905060018190036117945750929360019350915050565b50929360029350915050565b6000806117ad6001610d78565b915091508163ffffffff1663ffffffff036117c757505050565b6000806117d46002610d78565b915091508163ffffffff1663ffffffff036117f0575050505050565b6117f984612029565b61180282612029565b61186560405180610160016040528060008152602001600081526020016000815260200160008152602001600081526020016000815260200160008019168152602001600081526020016000815260200160008152602001600080191681525090565b611877846040015183604001516120a6565b8152608080830151908501516118999160029161189391610bc7565b90610b85565b6020820152805160408501516118ae916120bd565b6040808301919091528151908301516118c6916120bd565b6060820152600354608085015160408301516118ed92916118e79190610adb565b90610adb565b60808083019190915260035490830151606083015161191192916118e79190610adb565b60a082015260408101511561193d57608081015160608501526040808201519085015261193d84610c29565b6060810151156119665760a0810151606080840191909152810151604083015261196682610c29565b6003546020820151825161197f92916118e79190610adb565b60e08201526080808201516003549186015160408701516119af936119a99290916118e791610adb565b906120bd565b61010082015260a0810151600354608084015160408501516119db93926119a99290916118e791610adb565b61012082015260408051426020820152449181019190915260600160408051601f19818403018152919052805160209091012060c08201819052610100820151611a269190866120ff565b611a3a8160c00151826101200151846120ff565b6001866002811115611a4e57611a4e61291a565b03611a6b57611a668160c001518260e0015186612336565b611a97565b6002866002811115611a7f57611a7f61291a565b03611a9757611a668160c001518260e0015184612336565b6020810151600455805160058054600090611ab3908490612c94565b909155505060408051426020820152449181019190915260600160405160208183030381529060405280519060200120816101400181815250506000604051806101e00160405280836101400151815260200186600001518152602001846000015181526020018360c001518152602001600160009054906101000a9004600160a060020a0316600160a060020a0316815260200183600001518152602001836020015181526020018360400151815260200183606001518152602001836080015181526020018360a001518152602001836101000151815260200183610120015181526020018360e001518152602001886002811115611bb657611bb661291a565b81525090507f1ea5d61fc6547651d1da2473a4367de75ba86fa242234a737008287f52d7913c81604051611bea9190612cf4565b60405180910390a150505050505050565b60008183611c1f5760405160e560020a62461bcd0281526004016101769190612dd1565b506000611c2c8486612c6d565b9150505b9392505050565b600063ffffffff81805b60208163ffffffff161015611d075760006109088263ffffffff1660208110611c6c57611c6c612a87565b602081049091015460ff601f9092166101000a900416905060005b60088160ff161015611ce7576000611ca0826002612ba0565b8360ff1616905080600003611cd45760ff8216611cbe856008612baf565b611cc89190612bd7565b95506001945050611ce7565b5080611cdf81612c1e565b915050611c87565b508215611cf45750611d07565b5080611cff81612bfb565b915050611c41565b509092915050565b6000611d1c600883612e04565b90506000611d2b600884612e27565b905060006109088363ffffffff1660208110611d4957611d49612a87565b602081049091015460ff601f9092166101000a9004169050611d6c826002612e4a565b60ff909116178061090863ffffffff851660208110611d8d57611d8d612a87565b602091828204019190066101000a81548160ff021916908360ff16021790555050505050565b60015b818111611e4a57828160058110611dcf57611dcf612a87565b602002015183611de0600184612c94565b60058110611df057611df0612a87565b6020020152838160058110611e0757611e07612a87565b602002015184611e18600184612c94565b60058110611e2857611e28612a87565b63ffffffff909216602092909202015280611e4281612e5c565b915050611db6565b50505050565b6000805b60208163ffffffff1610156120235760006109088263ffffffff1660208110611e7f57611e7f612a87565b602081049091015460ff601f9092166101000a900416905060005b60088160ff16101561200e576000611eb3826002612ba0565b831660ff169050611ec5826002612ba0565b8160ff1603611ffa576000600860ff8416611ee08783612baf565b611eea9190612bd7565b63ffffffff166101008110611f0157611f01612a87565b604080516101208101825260099290920292909201805482526001810154600160a060020a03166020830152600280820154938301939093526003810154606083015260048101546080830152600581015460a083015260068101549192909160c084019160ff90911690811115611f7b57611f7b61291a565b6002811115611f8c57611f8c61291a565b81526007820154602082015260089091015463ffffffff166040909101529050866002811115611fbe57611fbe61291a565b8160c001516002811115611fd457611fd461291a565b14611fe0575050611ffc565b610100810151611ff69063ffffffff1687612c81565b9550505b505b8061200681612c1e565b915050611e9a565b5050808061201b90612bfb565b915050611e54565b50919050565b6000612036600883612e04565b90506000612045600884612e27565b905060006109088363ffffffff166020811061206357612063612a87565b602081049091015460ff601f9092166101000a9004169050612086826002612e4a565b191660ff168061090863ffffffff851660208110611d8d57611d8d612a87565b6000818311156120b65781610b7c565b5090919050565b6000610b7c83836040518060400160405280601e81526020017f536166654d6174683a207375627472616374696f6e206f766572666c6f7700008152506127eb565b8160000361210c57505050565b60208181015160408051600080825293810191829052919291600160a060020a03841691869161213b91612e75565b60006040518083038185875af1925050503d8060008114612178576040519150601f19603f3d011682016040523d82523d6000602084013e61217d565b606091505b5050905080848360405160200161222a9291907f4554485f5452414e534645525f4641494c45443a20526566756e6420746f207081527f616c7965722e20526566756e6420636f7374733a200000000000000000000000602082015260358101929092527f2c20706c617965723a20000000000000000000000000000000000000000000006055830152600160a060020a03166c0100000000000000000000000002605f82015260730190565b6040516020818303038152906040529061225a5760405160e560020a62461bcd0281526004016101769190612dd1565b5060004244604051602001612279929190918252602082015260400190565b60405160208183030381529060405280519060200120905060006040518060a001604052808381526020018660000151815260200188815260200185600160a060020a031681526020018781525090507f18fb24206513f6983861e5acad39384526cb897f511f911740263279449125bc81604051611bea9190600060a082019050825182526020830151602083015260408301516040830152600160a060020a0360608401511660608301526080830151608083015292915050565b60208101516007546000906123579060649061189390879061ffff16610adb565b9050600061236585836120bd565b60075490915060009061238a9060649061189390869062010000900461ffff16610adb565b9050600061239884836120bd565b6040805160008082526020820192839052929350600160a060020a0388169186916123c291612e75565b60006040518083038185875af1925050503d80600081146123ff576040519150601f19603f3d011682016040523d82523d6000602084013e612404565b606091505b505090508084876040516020016124b19291907f4554485f5452414e534645525f4641494c45443a2073706c6974207072697a6581527f20746f2070616c7965722e20626f6e75733a2000000000000000000000000000602082015260338101929092527f2c20706c617965723a20000000000000000000000000000000000000000000006053830152600160a060020a03166c0100000000000000000000000002605d82015260710190565b604051602081830303815290604052906124e15760405160e560020a62461bcd0281526004016101769190612dd1565b50600154604080516000808252602082019283905292600160a060020a031691869161250c91612e75565b60006040518083038185875af1925050503d8060008114612549576040519150601f19603f3d011682016040523d82523d6000602084013e61254e565b606091505b5050905080856040516020016125b691907f4554485f5452414e534645525f4641494c45443a2073706c6974207072697a6581527f20746f2062726f6b65722e2062726f6b65726167653a200000000000000000006020820152603781019190915260570190565b604051602081830303815290604052906125e65760405160e560020a62461bcd0281526004016101769190612dd1565b50600080546040805183815260208101909152610100909104600160a060020a03169085906040516126189190612e75565b60006040518083038185875af1925050503d8060008114612655576040519150601f19603f3d011682016040523d82523d6000602084013e61265a565b606091505b5050905080866040516020016126c291907f4554485f5452414e534645525f4641494c45443a2073706c6974207072697a6581527f20746f20726f6f742e207461783a2000000000000000000000000000000000006020820152602f810191909152604f0190565b604051602081830303815290604052906126f25760405160e560020a62461bcd0281526004016101769190612dd1565b5060004244604051602001612711929190918252602082015260400190565b60408051601f198184030181528282528051602091820120610180840183528084528d51918401919091528282018f9052600160a060020a038c16606084015260075461ffff8082166080860152620100008204811660a08601526401000000009091041660c084015260e083018e905261010083018a905261012083018b90526101408301899052610160830188905290519092507f8c77d17dfdf762b972b90fefbcc2031d1494f3414de7f55a6b70d7c1b4c3a9d9906127d4908390612e91565b60405180910390a150505050505050505050505050565b600081848411156128125760405160e560020a62461bcd0281526004016101769190612dd1565b506000611c2c8486612c94565b6040805161012081018252600080825260208201819052918101829052606081018290526080810182905260a081018290529060c0820190815260006020820181905260409091015290565b6040518060a001604052806005905b61288261281f565b81526020019060019003908161287a5790505090565b6040518060a001604052806005906020820280368337509192915050565b8035600381106128c557600080fd5b919050565b803563ffffffff811681146128c557600080fd5b6000806000606084860312156128f357600080fd5b83359250612903602085016128b6565b9150612911604085016128ca565b90509250925092565b60e060020a634e487b7102600052602160045260246000fd5b600381106129545760e060020a634e487b7102600052602160045260246000fd5b9052565b80518252600160a060020a03602082015116602083015260408101516040830152606081015160608301526080810151608083015260a081015160a083015260c08101516129a960c0840182612933565b5060e081810151908301526101009081015163ffffffff16910152565b63ffffffff831681526101408101611c306020830184612958565b63ffffffff831681526105c0810160208083018460005b6005811015612a2057612a0c838351612958565b6101209290920191908301906001016129f8565b505050509392505050565b600060208284031215612a3d57600080fd5b610b7c826128b6565b600060208284031215612a5857600080fd5b610b7c826128ca565b82151581526101408101611c306020830184612958565b6101208101610b7f8284612958565b60e060020a634e487b7102600052603260045260246000fd5b60e060020a634e487b7102600052601160045260246000fd5b600181815b80851115612af6578160001904821115612ada57612ada612aa0565b80851615612ae757918102915b60029094049390800290612abe565b509250929050565b600082612b0d57506001610b7f565b81612b1a57506000610b7f565b8160018114612b305760028114612b3a57612b57565b6001915050610b7f565b60ff841115612b4b57612b4b612aa0565b8360020a915050610b7f565b5060208310610133831016604e8410600b8410161715612b7a575081810a610b7f565b612b848383612ab9565b8060001904821115612b9857612b98612aa0565b029392505050565b6000610b7c60ff841683612afe565b63ffffffff818116838216028082169190828114612bcf57612bcf612aa0565b505092915050565b63ffffffff818116838216019080821115612bf457612bf4612aa0565b5092915050565b600063ffffffff808316818103612c1457612c14612aa0565b6001019392505050565b600060ff821660ff8103612c3457612c34612aa0565b60010192915050565b8082028115828204841417610b7f57610b7f612aa0565b60e060020a634e487b7102600052601260045260246000fd5b600082612c7c57612c7c612c54565b500490565b80820180821115610b7f57610b7f612aa0565b81810381811115610b7f57610b7f612aa0565b60007f80000000000000000000000000000000000000000000000000000000000000008203612cd857612cd8612aa0565b506000190190565b600082612cef57612cef612c54565b500690565b60006101e082019050825182526020830151602083015260408301516040830152606083015160608301526080830151612d396080840182600160a060020a03169052565b5060a0838101519083015260c0808401519083015260e08084015190830152610100808401519083015261012080840151908301526101408084015190830152610160808401519083015261018080840151908301526101a080840151908301526101c080840151612bcf82850182612933565b60005b83811015612dc8578181015183820152602001612db0565b50506000910152565b6020815260008251806020840152612df0816040850160208701612dad565b601f01601f19169190910160400192915050565b600063ffffffff80841680612e1b57612e1b612c54565b92169190910492915050565b600063ffffffff80841680612e3e57612e3e612c54565b92169190910692915050565b6000610b7c63ffffffff841683612afe565b600060018201612e6e57612e6e612aa0565b5060010190565b60008251612e87818460208701612dad565b9190910192915050565b6000610180820190508251825260208301516020830152604083015160408301526060830151612ecc6060840182600160a060020a03169052565b506080830151612ee2608084018261ffff169052565b5060a0830151612ef860a084018261ffff169052565b5060c0830151612f0e60c084018261ffff169052565b5060e083810151908301526101008084015190830152610120808401519083015261014080840151908301526101609283015192909101919091529056fea264697066735822122073183e6481f981982f875ffc8796f2010e82b31bf71d07da5b222637a2a79ad564736f6c63430008130033",
  "immutableReferences": {},
  "source": "// SPDX-License-Identifier: MIT\npragma solidity >=0.4.22 <0.8.20;\nimport \"./IOddsdex.sol\";\nimport \"./SafeMath.sol\";\n\ncontract OddsdexContract is IOddsdexContract {\n    using SafeMath for *;\n\n    bool private running;\n    address private root;\n    address private broker;\n    address private parent;\n    BulletinBoard private bulletinBoard;\n    StakeBill[8 * 32] private stakeBills;\n    uint8[32] private stakeBillsBitmap;\n\n    constructor(address _root, address _broker) {\n        parent = msg.sender;\n        root = _root;\n        broker = _broker;\n        uint256 initialPrice = 100;\n        uint256 oddunit = 0.0001 * (10 ** 18);\n        uint16 kickbackRate = 20;\n        uint16 brokerageRate = 70;\n        uint16 taxRate = 100 - brokerageRate;\n        bulletinBoard = BulletinBoard(\n            oddunit,\n            initialPrice,\n            0,\n            0,\n            kickbackRate,\n            brokerageRate,\n            taxRate\n        );\n        running = true;\n    }\n\n    modifier onlyRoot() {\n        require(msg.sender == root, \"Only root can call this.\");\n        _;\n    }\n\n    modifier onlyBroker() {\n        require(msg.sender == broker, \"Only broker can call this.\");\n        _;\n    }\n    modifier mustRunning() {\n        require(running, \"oddsdex has stopped\");\n        _;\n    }\n\n    function getWeiPrice() public view override returns (uint256) {\n        return bulletinBoard.oddunit * bulletinBoard.price;\n    }\n\n    function getBulletinBoard()\n        public\n        view\n        override\n        returns (BulletinBoard memory)\n    {\n        return bulletinBoard;\n    }\n\n    function isRunning() public view override returns (bool) {\n        return running;\n    }\n\n    function stop() public override {\n        running = false;\n    }\n\n    function run() public override {\n        running = true;\n    }\n\n    function getRoot() public view override returns (address) {\n        return root;\n    }\n\n    function getBroker() public view override returns (address) {\n        return broker;\n    }\n\n    function getQueueCount() public view override returns (uint256) {\n        return _lengthOfStakeBills(true, CoinDirection.unknown);\n    }\n\n    function getFrontQueueCount() public view override returns (uint256) {\n        return _lengthOfStakeBills(false, CoinDirection.front);\n    }\n\n    function getBackQueueCount() public view override returns (uint256) {\n        return _lengthOfStakeBills(false, CoinDirection.back);\n    }\n\n    function getTopFiveBillFrontQueue()\n        public\n        view\n        override\n        returns (uint32 length, StakeBill[5] memory bills)\n    {\n        (length, , bills) = _topFiveOfStakeBill(CoinDirection.front);\n        return (length, bills);\n    }\n\n    function getTopFiveBillBackQueue()\n        public\n        view\n        override\n        returns (uint32 length, StakeBill[5] memory bills)\n    {\n        (length, , bills) = _topFiveOfStakeBill(CoinDirection.back);\n        return (length, bills);\n    }\n\n    function getFirstBillOfFrontQueue()\n        public\n        view\n        override\n        returns (uint32 bitIndexAt, StakeBill memory bill)\n    {\n        return _topFirstOfStakeBill(CoinDirection.front);\n    }\n\n    function getFirstBillOfBackQueue()\n        public\n        view\n        override\n        returns (uint32 bitIndexAt, StakeBill memory bill)\n    {\n        return _topFirstOfStakeBill(CoinDirection.back);\n    }\n\n    function getStakeBill(\n        uint32 index\n    ) public view override returns (bool exists, StakeBill memory bill) {\n        uint32 count;\n        for (uint32 i = 0; i < stakeBillsBitmap.length; i++) {\n            uint8 b = stakeBillsBitmap[i];\n            for (uint8 j = 0; j < 8; j++) {\n                uint8 v = uint8(b & (2 ** j));\n                if (v == 2 ** j) {\n                    if (count == index) {\n                        return (true, stakeBills[i * 8 + j]);\n                    }\n                    count++;\n                }\n            }\n        }\n        StakeBill memory ret;\n        return (false, ret);\n    }\n\n    function _calculateWinningDirection()\n        internal\n        view\n        returns (LuckyNumber memory lvar, CoinDirection winningDirection)\n    {\n        lvar.r1 = uint8(\n            uint256(\n                keccak256(abi.encodePacked(block.timestamp, block.difficulty))\n            ) % 10\n        );\n        lvar.r2 = uint8(\n            uint256(\n                keccak256(\n                    abi.encodePacked(block.timestamp, block.difficulty, lvar.r1)\n                )\n            ) % 10\n        );\n\n        lvar.r3 = uint8(\n            uint256(\n                keccak256(\n                    abi.encodePacked(\n                        block.timestamp,\n                        block.difficulty,\n                        lvar.r1,\n                        lvar.r2\n                    )\n                )\n            ) % 10\n        );\n        lvar.r4 = uint8(\n            uint256(\n                keccak256(\n                    abi.encodePacked(\n                        block.timestamp,\n                        block.difficulty,\n                        lvar.r1,\n                        lvar.r2,\n                        lvar.r3\n                    )\n                )\n            ) % 10\n        );\n        lvar.r5 = uint8(\n            uint256(\n                keccak256(\n                    abi.encodePacked(\n                        block.timestamp,\n                        block.difficulty,\n                        lvar.r1,\n                        lvar.r2,\n                        lvar.r3,\n                        lvar.r4\n                    )\n                )\n            ) % 10\n        );\n\n        uint256 totalF = _totalLuckyNumber(CoinDirection.front);\n        uint256 totalB = _totalLuckyNumber(CoinDirection.back);\n\n        lvar.f = uint8(\n            uint256(\n                keccak256(\n                    abi.encodePacked(block.timestamp, block.difficulty, totalF)\n                )\n            ) % 10\n        );\n        lvar.b = uint8(\n            uint256(\n                keccak256(\n                    abi.encodePacked(block.timestamp, block.difficulty, totalB)\n                )\n            ) % 10\n        );\n\n        uint256 v = uint256(\n            keccak256(\n                abi.encodePacked(\n                    block.timestamp,\n                    block.difficulty,\n                    lvar.r1,\n                    lvar.r2,\n                    lvar.r3,\n                    lvar.r4,\n                    lvar.r5,\n                    lvar.f,\n                    lvar.b\n                )\n            )\n        ) % 2;\n        lvar.sign = v;\n        if (v == 1) {\n            return (lvar, CoinDirection.front);\n        } else {\n            return (lvar, CoinDirection.back);\n        }\n    }\n\n    function _totalLuckyNumber(\n        CoinDirection direction\n    ) private view returns (uint256 total) {\n        for (uint32 i = 0; i < stakeBillsBitmap.length; i++) {\n            uint8 b = stakeBillsBitmap[i];\n            for (uint8 j = 0; j < 8; j++) {\n                uint8 v = uint8(b & (2 ** j));\n                if (v == 2 ** j) {\n                    StakeBill memory bill = stakeBills[i * 8 + j];\n                    if (bill.buyDirection != direction) {\n                        continue;\n                    }\n                    total += bill.luckyNumber;\n                }\n            }\n        }\n        return total;\n    }\n\n    function canMatchmaking(\n        CoinDirection winningDirection\n    ) public view override returns (bool matched) {\n        (uint32 bitIndexAtF, StakeBill memory tailF) = _topFirstOfStakeBill(\n            CoinDirection.front\n        );\n        if (bitIndexAtF == 0xFFFFFFFF) {\n            return false;\n        }\n        (uint32 bitIndexAtB, StakeBill memory tailB) = _topFirstOfStakeBill(\n            CoinDirection.back\n        );\n        if (bitIndexAtB == 0xFFFFFFFF) {\n            return false;\n        }\n\n        if (winningDirection == CoinDirection.front) {\n            return tailF.buyPrice <= tailB.buyPrice;\n        } else if (winningDirection == CoinDirection.back) {\n            return tailB.buyPrice <= tailF.buyPrice;\n        } else {\n            return false;\n        }\n    }\n\n    function matchmake() public override onlyBroker mustRunning {\n        (, CoinDirection winningDirection) = _calculateWinningDirection();\n        while (canMatchmaking(winningDirection)) {\n            _matchmakePairBill(winningDirection);\n        }\n    }\n\n    struct LocalVar {\n        uint256 dealOdds;\n        uint256 dealPrice;\n        uint256 tailFOdds;\n        uint256 tailBOdds;\n        uint256 tailFCostOnBill;\n        uint256 tailBCostOnBill;\n        bytes32 mtn;\n        uint256 prize;\n        uint256 tailFRefundCost;\n        uint256 tailBRefundCost;\n        bytes32 matchmakingBillId;\n    }\n\n    function _matchmakePairBill(CoinDirection winningDirection) internal {\n        //\n        (uint32 bitIndexAtF, StakeBill memory tailF) = _topFirstOfStakeBill(\n            CoinDirection.front\n        );\n        if (bitIndexAtF == 0xFFFFFFFF) {\n            return;\n        }\n        (uint32 bitIndexAtB, StakeBill memory tailB) = _topFirstOfStakeBill(\n            CoinDirection.back\n        );\n        if (bitIndexAtB == 0xFFFFFFFF) {\n            return;\n        }\n        //\n        _removeStakeBill(bitIndexAtF);\n        _removeStakeBill(bitIndexAtB);\n\n        LocalVar memory lvar;\n        //\n        lvar.dealOdds = _min(tailF.odds, tailB.odds);\n        lvar.dealPrice = (tailF.buyPrice.add(tailB.buyPrice)).div(2);\n        lvar.tailFOdds = tailF.odds.sub(lvar.dealOdds);\n        lvar.tailBOdds = tailB.odds.sub(lvar.dealOdds);\n        lvar.tailFCostOnBill = lvar.tailFOdds.mul(tailF.buyPrice).mul(\n            bulletinBoard.oddunit\n        );\n        lvar.tailBCostOnBill = lvar.tailBOdds.mul(tailB.buyPrice).mul(\n            bulletinBoard.oddunit\n        );\n\n        //\n        if (lvar.tailFOdds > 0) {\n            tailF.costs = lvar.tailFCostOnBill;\n            tailF.odds = lvar.tailFOdds;\n            storeStakeBill(tailF);\n        }\n        if (lvar.tailBOdds > 0) {\n            tailB.costs = lvar.tailBCostOnBill;\n            tailB.odds = lvar.tailBOdds;\n            storeStakeBill(tailB);\n        }\n\n        lvar.prize = lvar.dealOdds.mul(lvar.dealPrice).mul(\n            bulletinBoard.oddunit\n        );\n        lvar.tailFRefundCost = tailF\n            .odds\n            .mul(tailF.buyPrice)\n            .mul(bulletinBoard.oddunit)\n            .sub(lvar.tailFCostOnBill);\n        lvar.tailBRefundCost = tailB\n            .odds\n            .mul(tailB.buyPrice)\n            .mul(bulletinBoard.oddunit)\n            .sub(lvar.tailBCostOnBill);\n\n        //mtn is Matchmaking transaction number\n        lvar.mtn = bytes32(\n            keccak256(abi.encodePacked(block.timestamp, block.difficulty))\n        );\n\n        _refundCost(lvar.mtn, lvar.tailFRefundCost, tailF);\n        _refundCost(lvar.mtn, lvar.tailBRefundCost, tailB);\n\n        if (winningDirection == CoinDirection.front) {\n            _splitPrize(lvar.mtn, lvar.prize, tailF);\n        } else if (winningDirection == CoinDirection.back) {\n            _splitPrize(lvar.mtn, lvar.prize, tailB);\n        } else {}\n\n        bulletinBoard.price = lvar.dealPrice;\n        bulletinBoard.odds -= lvar.dealOdds;\n\n        lvar.matchmakingBillId = bytes32(\n            keccak256(abi.encodePacked(block.timestamp, block.difficulty))\n        );\n\n        MatchmakingBill memory _mbill = MatchmakingBill(\n            lvar.matchmakingBillId,\n            tailF.id,\n            tailB.id,\n            lvar.mtn,\n            broker,\n            lvar.dealOdds,\n            lvar.dealPrice,\n            lvar.tailFOdds,\n            lvar.tailBOdds,\n            lvar.tailFCostOnBill,\n            lvar.tailBCostOnBill,\n            lvar.tailFRefundCost,\n            lvar.tailBRefundCost,\n            lvar.prize,\n            winningDirection\n        );\n        emit OnMatchMakingEvent(_mbill);\n    }\n\n    function _refundCost(\n        bytes32 mtn,\n        uint256 costs,\n        StakeBill memory bill\n    ) internal {\n        if (costs == 0) {\n            return;\n        }\n        address player = bill.owner;\n        (bool success, ) = payable(player).call{value: costs}(new bytes(0));\n        require(\n            success,\n            string(\n                abi.encodePacked(\n                    \"ETH_TRANSFER_FAILED: Refund to palyer. Refund costs: \",\n                    costs,\n                    \", player: \",\n                    player\n                )\n            )\n        );\n\n        bytes32 idBytes = keccak256(\n            abi.encodePacked(block.timestamp, block.difficulty)\n        );\n        RefundBill memory _rbill = RefundBill(\n            idBytes,\n            bill.id,\n            mtn,\n            player,\n            costs\n        );\n        emit OnRefundBillEvent(_rbill);\n    }\n\n    function _splitPrize(\n        bytes32 mtn,\n        uint256 prize,\n        StakeBill memory bill\n    ) internal {\n        address player = bill.owner;\n        uint256 kickback = prize.mul(bulletinBoard.kickbackRate).div(100);\n        uint256 bonusOfPlayer = prize.sub(kickback);\n        uint256 brokerage = kickback.mul(bulletinBoard.brokerageRate).div(100);\n        uint256 tax = kickback.sub(brokerage);\n\n        (bool success, ) = payable(player).call{value: bonusOfPlayer}(\n            new bytes(0)\n        );\n        require(\n            success,\n            string(\n                abi.encodePacked(\n                    \"ETH_TRANSFER_FAILED: split prize to palyer. bonus: \",\n                    bonusOfPlayer,\n                    \", player: \",\n                    player\n                )\n            )\n        );\n        (bool success1, ) = payable(broker).call{value: brokerage}(\n            new bytes(0)\n        );\n        require(\n            success1,\n            string(\n                abi.encodePacked(\n                    \"ETH_TRANSFER_FAILED: split prize to broker. brokerage: \",\n                    bonusOfPlayer\n                )\n            )\n        );\n        (bool success2, ) = payable(root).call{value: tax}(new bytes(0));\n        require(\n            success2,\n            string(\n                abi.encodePacked(\n                    \"ETH_TRANSFER_FAILED: split prize to root. tax: \",\n                    bonusOfPlayer\n                )\n            )\n        );\n\n        bytes32 idBytes = keccak256(\n            abi.encodePacked(block.timestamp, block.difficulty)\n        );\n        SplitBill memory _sbill = SplitBill(\n            idBytes,\n            bill.id,\n            mtn,\n            player,\n            bulletinBoard.kickbackRate,\n            bulletinBoard.brokerageRate,\n            bulletinBoard.taxRate,\n            prize,\n            bonusOfPlayer,\n            kickback,\n            brokerage,\n            tax\n        );\n        emit OnSplitBillEvent(_sbill);\n    }\n\n    function _min(uint256 a, uint256 b) internal pure returns (uint256) {\n        return a <= b ? a : b;\n    }\n\n    fallback() external payable {\n        require(false, \"No other calls supported\");\n    }\n\n    receive() external payable {\n        require(false, \"No other calls supported\");\n    }\n\n    function stake(\n        uint256 buyPrice,\n        CoinDirection buyDirection,\n        uint32 luckyNumber\n    ) external payable override mustRunning {\n        require(\n            buyDirection != CoinDirection.unknown,\n            \"Buying direction is unknown\"\n        );\n\n        uint256 odds = msg.value.div(bulletinBoard.oddunit.mul(buyPrice));\n        // require(odds >= 10, \"Minimum purchase of 10 odds\");\n        bulletinBoard.odds = bulletinBoard.odds.add(odds);\n        bulletinBoard.funds = bulletinBoard.funds.add(msg.value);\n        bytes32 idBytes = keccak256(\n            abi.encodePacked(block.timestamp, block.difficulty)\n        );\n        StakeBill memory bill = StakeBill(\n            idBytes,\n            msg.sender,\n            odds,\n            msg.value,\n            buyPrice,\n            bulletinBoard.price,\n            buyDirection,\n            gasleft(),\n            luckyNumber\n        );\n        storeStakeBill(bill);\n        emit OnStakeBillEvent(bill);\n    }\n\n    function _getFirstSpaceBit() private view returns (uint32) {\n        uint32 index = 0xFFFFFFFF;\n        bool found;\n        for (uint32 i = 0; i < stakeBillsBitmap.length; i++) {\n            uint8 b = stakeBillsBitmap[i];\n            for (uint8 j = 0; j < 8; j++) {\n                uint v = b & (2 ** j);\n                if (v == 0) {\n                    index = i * 8 + j;\n                    found = true;\n                    break;\n                }\n            }\n            if (found) {\n                break;\n            }\n        }\n        return index;\n    }\n\n    function _lengthOfStakeBills(\n        bool all,\n        CoinDirection direction\n    ) private view returns (uint32) {\n        uint32 len = 0;\n        for (uint32 i = 0; i < stakeBillsBitmap.length; i++) {\n            uint8 b = stakeBillsBitmap[i];\n            for (uint8 j = 0; j < 8; j++) {\n                uint8 v = uint8(b & (2 ** j));\n                if (v == 2 ** j) {\n                    StakeBill memory bill = stakeBills[i * 8 + j];\n                    if (!all && bill.buyDirection != direction) {\n                        continue;\n                    }\n                    len++;\n                }\n            }\n        }\n        return len;\n    }\n\n    function _topFiveOfStakeBill(\n        CoinDirection direction\n    )\n        private\n        view\n        returns (\n            uint32 length,\n            uint32[5] memory bitIndexAts,\n            StakeBill[5] memory bills\n        )\n    {\n        for (uint32 i = 0; i < stakeBillsBitmap.length; i++) {\n            uint8 b = stakeBillsBitmap[i];\n            for (uint8 j = 0; j < 8; j++) {\n                uint8 v = uint8(b & (2 ** j));\n                if (v == 2 ** j) {\n                    StakeBill memory bill = stakeBills[i * 8 + j];\n                    if (bill.buyDirection != direction) {\n                        continue;\n                    }\n                    if (bill.buyPrice < bills[0].buyPrice) {\n                        continue;\n                    }\n                    uint pos = bills.length;\n                    for (int t = int(bills.length - 1); t > -1; t--) {\n                        if (bill.buyPrice > bills[uint(t)].buyPrice) {\n                            pos = uint(t);\n                            _moveFronts(bitIndexAts, bills, pos);\n                            bills[pos] = bill;\n                            bitIndexAts[pos] = i * 8 + j;\n                            length++;\n                            break;\n                        }\n                    }\n                }\n            }\n        }\n        if (length > bills.length) {\n            length = uint32(bills.length);\n        }\n        return (length, bitIndexAts, bills);\n    }\n\n    function _moveFronts(\n        uint32[5] memory bitIndexAts,\n        StakeBill[5] memory bills,\n        uint pos\n    ) private pure {\n        for (uint i = 1; i <= pos; i++) {\n            bills[i - 1] = bills[i];\n            bitIndexAts[i - 1] = bitIndexAts[i];\n        }\n    }\n\n    function _topFirstOfStakeBill(\n        CoinDirection direction\n    ) private view returns (uint32 bitIndexAt, StakeBill memory bill) {\n        StakeBill memory maxbill;\n        bitIndexAt = 0xFFFFFFFF;\n        for (uint32 i = 0; i < stakeBillsBitmap.length; i++) {\n            uint8 b = stakeBillsBitmap[i];\n            for (uint8 j = 0; j < 8; j++) {\n                uint8 v = uint8(b & (2 ** j));\n                if (v == 2 ** j) {\n                    bill = stakeBills[i * 8 + j];\n                    if (bill.buyDirection != direction) {\n                        continue;\n                    }\n                    if (bill.buyPrice > maxbill.buyPrice) {\n                        maxbill = bill;\n                        bitIndexAt = i * 8 + j;\n                    }\n                }\n            }\n        }\n        return (bitIndexAt, maxbill);\n    }\n\n    function _removeStakeBill(uint32 index) private {\n        uint32 i = index / 8;\n        uint32 j = index % 8;\n        uint8 v = stakeBillsBitmap[i];\n        v = uint8(v & (~(2 ** j)));\n        stakeBillsBitmap[i] = v;\n    }\n\n    function _setStakeBillAt(uint32 index) private {\n        uint32 i = index / 8;\n        uint32 j = index % 8;\n        uint8 v = stakeBillsBitmap[i];\n        v = uint8(v | (2 ** j));\n        stakeBillsBitmap[i] = v;\n    }\n\n    function storeStakeBill(StakeBill memory bill) private {\n        uint32 index = _getFirstSpaceBit();\n        require(index != 0xFFFFFFFF, \"Stake Bill Array space is full\");\n        stakeBills[index] = bill;\n        _setStakeBillAt(index);\n    }\n}\n",
  "sourcePath": "/Users/cj/games/game-oddsdex/contracts/OddsdexContract.sol",
  "compiler": {
    "name": "solc",
    "version": "0.8.19+commit.7dd6d404.Emscripten.clang"
  },
  "schemaVersion": "3.4.14",
  "updatedAt": "2023-08-28T04:42:49.159Z",
  "networkType": "ethereum",
  "devdoc": {
    "kind": "dev",
    "methods": {},
    "version": 1
  },
  "userdoc": {
    "kind": "user",
    "methods": {},
    "version": 1
  }
}