{
  "contractName": "OddsdexContract",
  "abi": [
    {
      "inputs": [
        {
          "internalType": "address",
          "name": "_root",
          "type": "address"
        },
        {
          "internalType": "address",
          "name": "_broker",
          "type": "address"
        }
      ],
      "stateMutability": "nonpayable",
      "type": "constructor"
    },
    {
      "anonymous": false,
      "inputs": [
        {
          "components": [
            {
              "internalType": "bytes32",
              "name": "id",
              "type": "bytes32"
            },
            {
              "internalType": "bytes32",
              "name": "refFId",
              "type": "bytes32"
            },
            {
              "internalType": "bytes32",
              "name": "refBId",
              "type": "bytes32"
            },
            {
              "internalType": "bytes32",
              "name": "mtn",
              "type": "bytes32"
            },
            {
              "internalType": "address",
              "name": "broker",
              "type": "address"
            },
            {
              "internalType": "uint256",
              "name": "dealOdds",
              "type": "uint256"
            },
            {
              "internalType": "uint256",
              "name": "dealPrice",
              "type": "uint256"
            },
            {
              "internalType": "uint256",
              "name": "tailFOdds",
              "type": "uint256"
            },
            {
              "internalType": "uint256",
              "name": "tailBOdds",
              "type": "uint256"
            },
            {
              "internalType": "uint256",
              "name": "tailFCostOnBill",
              "type": "uint256"
            },
            {
              "internalType": "uint256",
              "name": "tailBCostOnBill",
              "type": "uint256"
            },
            {
              "internalType": "uint256",
              "name": "tailFRefundCosts",
              "type": "uint256"
            },
            {
              "internalType": "uint256",
              "name": "tailBRefundCosts",
              "type": "uint256"
            },
            {
              "internalType": "uint256",
              "name": "prize",
              "type": "uint256"
            },
            {
              "internalType": "enum CoinDirection",
              "name": "winningDirection",
              "type": "uint8"
            }
          ],
          "indexed": false,
          "internalType": "struct MatchmakingBill",
          "name": "bill",
          "type": "tuple"
        }
      ],
      "name": "OnMatchMakingEvent",
      "type": "event"
    },
    {
      "anonymous": false,
      "inputs": [
        {
          "indexed": false,
          "internalType": "uint32",
          "name": "matchmakeTimes",
          "type": "uint32"
        },
        {
          "indexed": false,
          "internalType": "enum CoinDirection",
          "name": "winningDirection",
          "type": "uint8"
        }
      ],
      "name": "OnMatchmakeReturn",
      "type": "event"
    },
    {
      "anonymous": false,
      "inputs": [
        {
          "components": [
            {
              "internalType": "address",
              "name": "broker",
              "type": "address"
            },
            {
              "internalType": "uint256",
              "name": "amount",
              "type": "uint256"
            },
            {
              "internalType": "uint256",
              "name": "balance",
              "type": "uint256"
            },
            {
              "internalType": "uint256",
              "name": "gas",
              "type": "uint256"
            }
          ],
          "indexed": false,
          "internalType": "struct RechargeBill",
          "name": "bill",
          "type": "tuple"
        }
      ],
      "name": "OnRechargeEvent",
      "type": "event"
    },
    {
      "anonymous": false,
      "inputs": [
        {
          "components": [
            {
              "internalType": "bytes32",
              "name": "id",
              "type": "bytes32"
            },
            {
              "internalType": "bytes32",
              "name": "refId",
              "type": "bytes32"
            },
            {
              "internalType": "bytes32",
              "name": "mtn",
              "type": "bytes32"
            },
            {
              "internalType": "address",
              "name": "owner",
              "type": "address"
            },
            {
              "internalType": "uint256",
              "name": "costs",
              "type": "uint256"
            }
          ],
          "indexed": false,
          "internalType": "struct RefundBill",
          "name": "bill",
          "type": "tuple"
        }
      ],
      "name": "OnRefundBillEvent",
      "type": "event"
    },
    {
      "anonymous": false,
      "inputs": [
        {
          "components": [
            {
              "internalType": "bytes32",
              "name": "id",
              "type": "bytes32"
            },
            {
              "internalType": "bytes32",
              "name": "refId",
              "type": "bytes32"
            },
            {
              "internalType": "bytes32",
              "name": "mtn",
              "type": "bytes32"
            },
            {
              "internalType": "address",
              "name": "owner",
              "type": "address"
            },
            {
              "internalType": "uint16",
              "name": "kickbackRate",
              "type": "uint16"
            },
            {
              "internalType": "uint16",
              "name": "brokerageRate",
              "type": "uint16"
            },
            {
              "internalType": "uint16",
              "name": "taxRate",
              "type": "uint16"
            },
            {
              "internalType": "uint256",
              "name": "prize",
              "type": "uint256"
            },
            {
              "internalType": "uint256",
              "name": "bonus",
              "type": "uint256"
            },
            {
              "internalType": "uint256",
              "name": "kickback",
              "type": "uint256"
            },
            {
              "internalType": "uint256",
              "name": "brokerage",
              "type": "uint256"
            },
            {
              "internalType": "uint256",
              "name": "tax",
              "type": "uint256"
            }
          ],
          "indexed": false,
          "internalType": "struct SplitBill",
          "name": "bill",
          "type": "tuple"
        }
      ],
      "name": "OnSplitBillEvent",
      "type": "event"
    },
    {
      "anonymous": false,
      "inputs": [
        {
          "components": [
            {
              "internalType": "bytes32",
              "name": "id",
              "type": "bytes32"
            },
            {
              "internalType": "address",
              "name": "owner",
              "type": "address"
            },
            {
              "internalType": "uint256",
              "name": "odds",
              "type": "uint256"
            },
            {
              "internalType": "uint256",
              "name": "costs",
              "type": "uint256"
            },
            {
              "internalType": "uint256",
              "name": "buyPrice",
              "type": "uint256"
            },
            {
              "internalType": "uint256",
              "name": "marketPrice",
              "type": "uint256"
            },
            {
              "internalType": "enum CoinDirection",
              "name": "buyDirection",
              "type": "uint8"
            },
            {
              "internalType": "uint256",
              "name": "gas",
              "type": "uint256"
            },
            {
              "internalType": "uint32",
              "name": "luckyNumber",
              "type": "uint32"
            }
          ],
          "indexed": false,
          "internalType": "struct StakeBill",
          "name": "bill",
          "type": "tuple"
        }
      ],
      "name": "OnStakeBillEvent",
      "type": "event"
    },
    {
      "stateMutability": "payable",
      "type": "fallback",
      "payable": true
    },
    {
      "stateMutability": "payable",
      "type": "receive",
      "payable": true
    },
    {
      "inputs": [],
      "name": "getWeiPrice",
      "outputs": [
        {
          "internalType": "uint256",
          "name": "",
          "type": "uint256"
        }
      ],
      "stateMutability": "view",
      "type": "function",
      "constant": true
    },
    {
      "inputs": [],
      "name": "getBulletinBoard",
      "outputs": [
        {
          "components": [
            {
              "internalType": "uint256",
              "name": "oddunit",
              "type": "uint256"
            },
            {
              "internalType": "uint256",
              "name": "price",
              "type": "uint256"
            },
            {
              "internalType": "uint256",
              "name": "odds",
              "type": "uint256"
            },
            {
              "internalType": "uint256",
              "name": "funds",
              "type": "uint256"
            },
            {
              "internalType": "uint16",
              "name": "kickbackRate",
              "type": "uint16"
            },
            {
              "internalType": "uint16",
              "name": "brokerageRate",
              "type": "uint16"
            },
            {
              "internalType": "uint16",
              "name": "taxRate",
              "type": "uint16"
            }
          ],
          "internalType": "struct BulletinBoard",
          "name": "",
          "type": "tuple"
        }
      ],
      "stateMutability": "view",
      "type": "function",
      "constant": true
    },
    {
      "inputs": [],
      "name": "isRunning",
      "outputs": [
        {
          "internalType": "bool",
          "name": "",
          "type": "bool"
        }
      ],
      "stateMutability": "view",
      "type": "function",
      "constant": true
    },
    {
      "inputs": [],
      "name": "stop",
      "outputs": [],
      "stateMutability": "nonpayable",
      "type": "function"
    },
    {
      "inputs": [],
      "name": "run",
      "outputs": [],
      "stateMutability": "nonpayable",
      "type": "function"
    },
    {
      "inputs": [],
      "name": "getRoot",
      "outputs": [
        {
          "internalType": "address",
          "name": "",
          "type": "address"
        }
      ],
      "stateMutability": "view",
      "type": "function",
      "constant": true
    },
    {
      "inputs": [],
      "name": "getBroker",
      "outputs": [
        {
          "internalType": "address",
          "name": "",
          "type": "address"
        }
      ],
      "stateMutability": "view",
      "type": "function",
      "constant": true
    },
    {
      "inputs": [],
      "name": "getBalance",
      "outputs": [
        {
          "internalType": "uint256",
          "name": "",
          "type": "uint256"
        }
      ],
      "stateMutability": "view",
      "type": "function",
      "constant": true
    },
    {
      "inputs": [],
      "name": "getQueueCount",
      "outputs": [
        {
          "internalType": "uint256",
          "name": "",
          "type": "uint256"
        }
      ],
      "stateMutability": "view",
      "type": "function",
      "constant": true
    },
    {
      "inputs": [],
      "name": "getFrontQueueCount",
      "outputs": [
        {
          "internalType": "uint256",
          "name": "",
          "type": "uint256"
        }
      ],
      "stateMutability": "view",
      "type": "function",
      "constant": true
    },
    {
      "inputs": [],
      "name": "getBackQueueCount",
      "outputs": [
        {
          "internalType": "uint256",
          "name": "",
          "type": "uint256"
        }
      ],
      "stateMutability": "view",
      "type": "function",
      "constant": true
    },
    {
      "inputs": [],
      "name": "getTopFiveBillFrontQueue",
      "outputs": [
        {
          "internalType": "uint32",
          "name": "length",
          "type": "uint32"
        },
        {
          "components": [
            {
              "internalType": "bytes32",
              "name": "id",
              "type": "bytes32"
            },
            {
              "internalType": "address",
              "name": "owner",
              "type": "address"
            },
            {
              "internalType": "uint256",
              "name": "odds",
              "type": "uint256"
            },
            {
              "internalType": "uint256",
              "name": "costs",
              "type": "uint256"
            },
            {
              "internalType": "uint256",
              "name": "buyPrice",
              "type": "uint256"
            },
            {
              "internalType": "uint256",
              "name": "marketPrice",
              "type": "uint256"
            },
            {
              "internalType": "enum CoinDirection",
              "name": "buyDirection",
              "type": "uint8"
            },
            {
              "internalType": "uint256",
              "name": "gas",
              "type": "uint256"
            },
            {
              "internalType": "uint32",
              "name": "luckyNumber",
              "type": "uint32"
            }
          ],
          "internalType": "struct StakeBill[5]",
          "name": "bills",
          "type": "tuple[5]"
        }
      ],
      "stateMutability": "view",
      "type": "function",
      "constant": true
    },
    {
      "inputs": [],
      "name": "getTopFiveBillBackQueue",
      "outputs": [
        {
          "internalType": "uint32",
          "name": "length",
          "type": "uint32"
        },
        {
          "components": [
            {
              "internalType": "bytes32",
              "name": "id",
              "type": "bytes32"
            },
            {
              "internalType": "address",
              "name": "owner",
              "type": "address"
            },
            {
              "internalType": "uint256",
              "name": "odds",
              "type": "uint256"
            },
            {
              "internalType": "uint256",
              "name": "costs",
              "type": "uint256"
            },
            {
              "internalType": "uint256",
              "name": "buyPrice",
              "type": "uint256"
            },
            {
              "internalType": "uint256",
              "name": "marketPrice",
              "type": "uint256"
            },
            {
              "internalType": "enum CoinDirection",
              "name": "buyDirection",
              "type": "uint8"
            },
            {
              "internalType": "uint256",
              "name": "gas",
              "type": "uint256"
            },
            {
              "internalType": "uint32",
              "name": "luckyNumber",
              "type": "uint32"
            }
          ],
          "internalType": "struct StakeBill[5]",
          "name": "bills",
          "type": "tuple[5]"
        }
      ],
      "stateMutability": "view",
      "type": "function",
      "constant": true
    },
    {
      "inputs": [],
      "name": "getFirstBillOfFrontQueue",
      "outputs": [
        {
          "internalType": "uint32",
          "name": "bitIndexAt",
          "type": "uint32"
        },
        {
          "components": [
            {
              "internalType": "bytes32",
              "name": "id",
              "type": "bytes32"
            },
            {
              "internalType": "address",
              "name": "owner",
              "type": "address"
            },
            {
              "internalType": "uint256",
              "name": "odds",
              "type": "uint256"
            },
            {
              "internalType": "uint256",
              "name": "costs",
              "type": "uint256"
            },
            {
              "internalType": "uint256",
              "name": "buyPrice",
              "type": "uint256"
            },
            {
              "internalType": "uint256",
              "name": "marketPrice",
              "type": "uint256"
            },
            {
              "internalType": "enum CoinDirection",
              "name": "buyDirection",
              "type": "uint8"
            },
            {
              "internalType": "uint256",
              "name": "gas",
              "type": "uint256"
            },
            {
              "internalType": "uint32",
              "name": "luckyNumber",
              "type": "uint32"
            }
          ],
          "internalType": "struct StakeBill",
          "name": "bill",
          "type": "tuple"
        }
      ],
      "stateMutability": "view",
      "type": "function",
      "constant": true
    },
    {
      "inputs": [],
      "name": "getFirstBillOfBackQueue",
      "outputs": [
        {
          "internalType": "uint32",
          "name": "bitIndexAt",
          "type": "uint32"
        },
        {
          "components": [
            {
              "internalType": "bytes32",
              "name": "id",
              "type": "bytes32"
            },
            {
              "internalType": "address",
              "name": "owner",
              "type": "address"
            },
            {
              "internalType": "uint256",
              "name": "odds",
              "type": "uint256"
            },
            {
              "internalType": "uint256",
              "name": "costs",
              "type": "uint256"
            },
            {
              "internalType": "uint256",
              "name": "buyPrice",
              "type": "uint256"
            },
            {
              "internalType": "uint256",
              "name": "marketPrice",
              "type": "uint256"
            },
            {
              "internalType": "enum CoinDirection",
              "name": "buyDirection",
              "type": "uint8"
            },
            {
              "internalType": "uint256",
              "name": "gas",
              "type": "uint256"
            },
            {
              "internalType": "uint32",
              "name": "luckyNumber",
              "type": "uint32"
            }
          ],
          "internalType": "struct StakeBill",
          "name": "bill",
          "type": "tuple"
        }
      ],
      "stateMutability": "view",
      "type": "function",
      "constant": true
    },
    {
      "inputs": [
        {
          "internalType": "uint32",
          "name": "index",
          "type": "uint32"
        }
      ],
      "name": "getStakeBill",
      "outputs": [
        {
          "internalType": "bool",
          "name": "exists",
          "type": "bool"
        },
        {
          "components": [
            {
              "internalType": "bytes32",
              "name": "id",
              "type": "bytes32"
            },
            {
              "internalType": "address",
              "name": "owner",
              "type": "address"
            },
            {
              "internalType": "uint256",
              "name": "odds",
              "type": "uint256"
            },
            {
              "internalType": "uint256",
              "name": "costs",
              "type": "uint256"
            },
            {
              "internalType": "uint256",
              "name": "buyPrice",
              "type": "uint256"
            },
            {
              "internalType": "uint256",
              "name": "marketPrice",
              "type": "uint256"
            },
            {
              "internalType": "enum CoinDirection",
              "name": "buyDirection",
              "type": "uint8"
            },
            {
              "internalType": "uint256",
              "name": "gas",
              "type": "uint256"
            },
            {
              "internalType": "uint32",
              "name": "luckyNumber",
              "type": "uint32"
            }
          ],
          "internalType": "struct StakeBill",
          "name": "bill",
          "type": "tuple"
        }
      ],
      "stateMutability": "view",
      "type": "function",
      "constant": true
    },
    {
      "inputs": [
        {
          "internalType": "enum CoinDirection",
          "name": "winningDirection",
          "type": "uint8"
        }
      ],
      "name": "canMatchmaking",
      "outputs": [
        {
          "internalType": "bool",
          "name": "matched",
          "type": "bool"
        }
      ],
      "stateMutability": "view",
      "type": "function",
      "constant": true
    },
    {
      "inputs": [],
      "name": "matchmake",
      "outputs": [],
      "stateMutability": "nonpayable",
      "type": "function"
    },
    {
      "inputs": [],
      "name": "recharge",
      "outputs": [],
      "stateMutability": "payable",
      "type": "function",
      "payable": true
    },
    {
      "inputs": [
        {
          "internalType": "uint256",
          "name": "buyPrice",
          "type": "uint256"
        },
        {
          "internalType": "enum CoinDirection",
          "name": "buyDirection",
          "type": "uint8"
        },
        {
          "internalType": "uint32",
          "name": "luckyNumber",
          "type": "uint32"
        }
      ],
      "name": "stake",
      "outputs": [],
      "stateMutability": "payable",
      "type": "function",
      "payable": true
    }
  ],
  "bytecode": "0x60806040523480156200001157600080fd5b50604051620036ec380380620036ec833981016040819052620000349162000158565b60028054600160a060020a0319908116331790915560008054600160a060020a038581166101000261010060a860020a0319909216919091178255600180549185169190931617909155606490655af3107a4000906014906046906200009b828662000190565b6040805160e0810182528681526020810188905260009181018290526060810182905261ffff9586166080820181905294861660a082018190529290951660c090950185905260039590955560049590955550600583905560068390556007805463ffffffff1916909117620100009094029390931765ffff00000000191664010000000090910217909155805460ff1916600117905550620001da9050565b8051600160a060020a03811681146200015357600080fd5b919050565b600080604083850312156200016c57600080fd5b62000177836200013b565b915062000187602084016200013b565b90509250929050565b61ffff828116828216039080821115620001d3577f4e487b7100000000000000000000000000000000000000000000000000000000600052601160045260246000fd5b5092915050565b61350280620001ea6000396000f3fe608060405260043610610140576000357c0100000000000000000000000000000000000000000000000000000000900480636949c0b2116100bd578063c53f267011610081578063c53f26701461039e578063c8655926146103b3578063d1314ee0146103c8578063ecb891e1146103e6578063f2b6c1561461045d57610197565b80636949c0b21461031257806371f81e9d146103275780638d1d5b3f1461033c57806393accf9714610351578063c04062261461037f57610197565b80632590393311610104578063259039331461027b5780633471b3371461029e5780634cddae28146102b35780635c3917d4146102bb5780635ca1e165146102db57610197565b806303cd5c59146101e257806307da68f5146101f557806312065fe014610211578063143025fd146102345780632014e5d11461025757610197565b366101975760405160e560020a62461bcd02815260206004820152601860248201527f4e6f206f746865722063616c6c7320737570706f72746564000000000000000060448201526064015b60405180910390fd5b005b60405160e560020a62461bcd02815260206004820152601860248201527f4e6f206f746865722063616c6c7320737570706f727465640000000000000000604482015260640161018c565b6101956101f0366004612ace565b610472565b34801561020157600080fd5b506101956000805460ff19169055565b34801561021d57600080fd5b5030315b6040519081526020015b60405180910390f35b34801561024057600080fd5b50610249610609565b60405161022b929190612bb6565b34801561026357600080fd5b5060005460ff165b604051901515815260200161022b565b34801561028757600080fd5b50610290610625565b60405161022b929190612bd1565b3480156102aa57600080fd5b50610221610644565b61019561065d565b3480156102c757600080fd5b5061026b6102d6366004612c1b565b6107c7565b3480156102e757600080fd5b506000546101009004600160a060020a03165b604051600160a060020a03909116815260200161022b565b34801561031e57600080fd5b5061022161088f565b34801561033357600080fd5b5061022161089d565b34801561034857600080fd5b506101956108ab565b34801561035d57600080fd5b5061037161036c366004612c36565b6109a2565b60405161022b929190612c51565b34801561038b57600080fd5b506101956000805460ff19166001179055565b3480156103aa57600080fd5b50610221610b75565b3480156103bf57600080fd5b50610249610b8c565b3480156103d457600080fd5b50600154600160a060020a03166102fa565b3480156103f257600080fd5b506103fb610ba0565b60405161022b9190600060e08201905082518252602083015160208301526040830151604083015260608301516060830152608083015161ffff80821660808501528060a08601511660a08501528060c08601511660c0850152505092915050565b34801561046957600080fd5b50610290610c43565b60005460ff166104975760405160e560020a62461bcd02815260040161018c90612c68565b60008260028111156104ab576104ab612b0a565b036104fb5760405160e560020a62461bcd02815260206004820152601b60248201527f427579696e6720646972656374696f6e20697320756e6b6e6f776e0000000000604482015260640161018c565b6003546000906105169061050f9086610c57565b3490610d01565b6005549091506105269082610d43565b6005556006546105369034610d43565b600655604080514260208083019190915244828401528251808303840181526060830180855281519190920120610180830190935282815233608083015260a082018490523460c083015260e08201879052600454610100830152600091610120018660028111156105aa576105aa612b0a565b81526020015a81526020018563ffffffff1681525090506105ca81610da5565b7f67ff9f7ebf0786f0383127a22a0f947768f85d4ad4c7a4fe559ade9bab63eeb9816040516105f99190612c9f565b60405180910390a1505050505050565b6000610613612a0f565b61061d6002610ef4565b915091509091565b600061062f612a5b565b61063960026110fa565b919491935090915050565b6000610652600160006113c4565b63ffffffff16905090565b600154600160a060020a031633146106ba5760405160e560020a62461bcd02815260206004820152601a60248201527f4f6e6c792062726f6b65722063616e2063616c6c20746869732e000000000000604482015260640161018c565b60005460ff166106df5760405160e560020a62461bcd02815260040161018c90612c68565b600034116107325760405160e560020a62461bcd02815260206004820152601660248201527f46656564696e672063616e6e6f74206265207a65726f00000000000000000000604482015260640161018c565b6000604051806080016040528033600160a060020a0316815260200134815260200130600160a060020a03163181526020015a9052604080518251600160a060020a031681526020808401519082015282820151818301526060808401519082015290519192507ffd85f5d970e84cef5e784a586b095b39007ce8402837a87f1abd64bf1906f21a919081900360800190a150565b60008060006107d66001610ef4565b915091508163ffffffff1663ffffffff036107f5575060009392505050565b6000806108026002610ef4565b915091508163ffffffff1663ffffffff036108235750600095945050505050565b600186600281111561083757610837612b0a565b0361085357806080015183608001511115945050505050919050565b600286600281111561086757610867612b0a565b0361088357826080015181608001511115945050505050919050565b50600095945050505050565b6000610652600060016113c4565b6000610652600060026113c4565b600154600160a060020a031633146109085760405160e560020a62461bcd02815260206004820152601a60248201527f4f6e6c792062726f6b65722063616e2063616c6c20746869732e000000000000604482015260640161018c565b60005460ff1661092d5760405160e560020a62461bcd02815260040161018c90612c68565b6000806109386115a1565b9150505b610945816107c7565b156109655761095381611930565b8161095d81612cc7565b92505061093c565b7fb6068b8d005cf7e41803100218e6564afe38177de768c54039f9bae376e1ba848282604051610996929190612cea565b60405180910390a15050565b60006109ac612a0f565b6000805b60208163ffffffff161015610b605760006109088263ffffffff16602081106109db576109db612d04565b602081049091015460ff601f9092166101000a900416905060005b60088160ff161015610b4b576000610a0f826002612e04565b831660ff169050610a21826002612e04565b8160ff1603610b38578763ffffffff168563ffffffff1603610b2a576001600860ff8416610a4f8783612e13565b610a599190612e3b565b63ffffffff166101008110610a7057610a70612d04565b604080516101208101825260099290920292909201805482526001810154600160a060020a03166020830152600280820154938301939093526003810154606083015260048101546080830152600581015460a083015260068101549092839160c084019160ff90911690811115610aea57610aea612b0a565b6002811115610afb57610afb612b0a565b81526007820154602082015260089091015463ffffffff16604090910152919a91995090975050505050505050565b84610b3481612cc7565b9550505b5080610b4381612e5f565b9150506109f6565b50508080610b5890612cc7565b9150506109b0565b50610b69612a0f565b60009590945092505050565b600454600354600091610b8791612e7e565b905090565b6000610b96612a0f565b61061d6001610ef4565b610bec6040518060e0016040528060008152602001600081526020016000815260200160008152602001600061ffff168152602001600061ffff168152602001600061ffff1681525090565b506040805160e0810182526003548152600454602082015260055491810191909152600654606082015260075461ffff8082166080840152620100008204811660a08401526401000000009091041660c082015290565b6000610c4d612a5b565b61063960016110fa565b600082600003610c6957506000610cfb565b6000610c758385612e7e565b905082610c828583612eae565b14610cf85760405160e560020a62461bcd02815260206004820152602160248201527f536166654d6174683a206d756c7469706c69636174696f6e206f766572666c6f60448201527f7700000000000000000000000000000000000000000000000000000000000000606482015260840161018c565b90505b92915050565b6000610cf883836040518060400160405280601a81526020017f536166654d6174683a206469766973696f6e206279207a65726f000000000000815250611e02565b600080610d508385612ec2565b905083811015610cf85760405160e560020a62461bcd02815260206004820152601b60248201527f536166654d6174683a206164646974696f6e206f766572666c6f770000000000604482015260640161018c565b6000610daf611e3e565b90508063ffffffff1663ffffffff03610e0d5760405160e560020a62461bcd02815260206004820152601e60248201527f5374616b652042696c6c2041727261792073706163652069732066756c6c0000604482015260640161018c565b8160088263ffffffff166101008110610e2857610e28612d04565b600902016000820151816000015560208201518160010160006101000a815481600160a060020a030219169083600160a060020a0316021790555060408201518160020155606082015181600301556080820151816004015560a0820151816005015560c08201518160060160006101000a81548160ff02191690836002811115610eb557610eb5612b0a565b021790555060e08201516007820155610100909101516008909101805463ffffffff191663ffffffff909216919091179055610ef081611f16565b5050565b6000610efe612a0f565b610f06612a0f565b63ffffffff925060005b60208163ffffffff1610156110f15760006109088263ffffffff1660208110610f3b57610f3b612d04565b602081049091015460ff601f9092166101000a900416905060005b60088160ff1610156110dc576000610f6f826002612e04565b831660ff169050610f81826002612e04565b8160ff16036110c857600860ff8316610f9a8683612e13565b610fa49190612e3b565b63ffffffff166101008110610fbb57610fbb612d04565b604080516101208101825260099290920292909201805482526001810154600160a060020a03166020830152600280820154938301939093526003810154606083015260048101546080830152600581015460a083015260068101549192909160c084019160ff9091169081111561103557611035612b0a565b600281111561104657611046612b0a565b81526007820154602082015260089091015463ffffffff16604090910152955087600281111561107857611078612b0a565b8660c00151600281111561108e5761108e612b0a565b1461109957506110ca565b8460800151866080015111156110c85785945060ff82166110bb856008612e13565b6110c59190612e3b565b96505b505b806110d481612e5f565b915050610f56565b505080806110e990612cc7565b915050610f10565b50919391925050565b6000611104612a88565b61110c612a5b565b60005b60208163ffffffff1610156113a85760006109088263ffffffff166020811061113a5761113a612d04565b602081049091015460ff601f9092166101000a900416905060005b60088160ff16101561139357600061116e826002612e04565b831660ff169050611180826002612e04565b8160ff160361137f576000600860ff841661119b8783612e13565b6111a59190612e3b565b63ffffffff1661010081106111bc576111bc612d04565b604080516101208101825260099290920292909201805482526001810154600160a060020a03166020830152600280820154938301939093526003810154606083015260048101546080830152600581015460a083015260068101549192909160c084019160ff9091169081111561123657611236612b0a565b600281111561124757611247612b0a565b81526007820154602082015260089091015463ffffffff16604090910152905088600281111561127957611279612b0a565b8160c00151600281111561128f5761128f612b0a565b1461129b575050611381565b85516080908101519082015110156112b4575050611381565b600560006112c3600183612ed5565b90505b60001981131561137b578781600581106112e2576112e2612d04565b6020020151608001518360800151111561136957809150611304898984611fba565b8288836005811061131757611317612d04565b602002015260ff851661132b886008612e13565b6113359190612e3b565b89836005811061134757611347612d04565b63ffffffff90921660209290920201528961136181612cc7565b9a505061137b565b8061137381612ee8565b9150506112c6565b5050505b505b8061138b81612e5f565b915050611155565b505080806113a090612cc7565b91505061110f565b5060058363ffffffff1611156113bd57600592505b9193909250565b600080805b60208163ffffffff1610156115995760006109088263ffffffff16602081106113f4576113f4612d04565b602081049091015460ff601f9092166101000a900416905060005b60088160ff161015611584576000611428826002612e04565b831660ff16905061143a826002612e04565b8160ff1603611570576000600860ff84166114558783612e13565b61145f9190612e3b565b63ffffffff16610100811061147657611476612d04565b604080516101208101825260099290920292909201805482526001810154600160a060020a03166020830152600280820154938301939093526003810154606083015260048101546080830152600581015460a083015260068101549192909160c084019160ff909116908111156114f0576114f0612b0a565b600281111561150157611501612b0a565b81526007820154602082015260089091015463ffffffff16604090910152905088158015611555575087600281111561153c5761153c612b0a565b8160c00151600281111561155257611552612b0a565b14155b15611561575050611572565b8561156b81612cc7565b965050505b505b8061157c81612e5f565b91505061140f565b5050808061159190612cc7565b9150506113c9565b509392505050565b6040805161010081018252600080825260208201819052918101829052606081018290526080810182905260a0810182905260c0810182905260e0810191909152604080514260208201524491810191909152606060020a33026060820152600090600a9060740160408051601f19818403018152919052805160209091012061162b9190612f21565b60ff168083526040805142602080830191909152448284015233606060020a02606083015260f860020a9093026074820152815160558183030181526075909101909152805191012061168090600a90612f21565b60ff908116602084810182905284516040805142818501524481830152606060020a3302606082015260f860020a92909516820260748601529202607584015281518084036056018152607690930190915281519101206116e390600a90612f21565b60ff90811660408481018290528451602080870151835142818401524481860152606060020a3302606082015260f860020a93871684026074820152951682026075860152920260768401528051808403605701815260779093019052815191012061175190600a90612f21565b60ff90811660608481018290528451602080870151604080890151815142818601524481840152606060020a33029681019690965260f860020a94881685026074870152918716840260758601529516820260768401529202607782015282518082036058018152607890910190925281519101206117d290600a90612f21565b60ff16608083015260006117e66001612057565b905060006117f46002612057565b604080514260208201524491810191909152606060020a3302606082015260748101849052909150600a9060940160408051601f1981840301815291905280516020909101206118449190612f21565b60ff1660a0850152604080514260208201524491810191909152606060020a3302606082015260748101829052600a9060940160408051601f1981840301815291905280516020909101206118999190612f21565b60ff1660c08501819052845160208087015160408089015160608a015160808b015160a08c015193516000986002986118e49842984498339893979196939591949092909101612f35565b60408051601f1981840301815291905280516020909101206119069190612f21565b60e08601819052905060018190036119245750929360019350915050565b50929360029350915050565b60008061193d6001610ef4565b915091508163ffffffff1663ffffffff0361195757505050565b6000806119646002610ef4565b915091508163ffffffff1663ffffffff03611980575050505050565b61198984612230565b61199282612230565b6119f560405180610160016040528060008152602001600081526020016000815260200160008152602001600081526020016000815260200160008019168152602001600081526020016000815260200160008152602001600080191681525090565b611a07846040015183604001516122ad565b815260808083015190850151611a2991600291611a2391610d43565b90610d01565b602082015280516040850151611a3e916122c4565b604080830191909152815190830151611a56916122c4565b606082015260035460808501516040830151611a7d9291611a779190610c57565b90610c57565b608080830191909152600354908301516060830151611aa19291611a779190610c57565b60a0820152604081015115611acd576080810151606085015260408082015190850152611acd84610da5565b606081015115611af65760a08101516060808401919091528101516040830152611af682610da5565b60035460208201518251611b0f9291611a779190610c57565b60e0820152608080820151600354918601516040870151611b3f93611b39929091611a7791610c57565b906122c4565b61010082015260a081015160035460808401516040850151611b6b9392611b39929091611a7791610c57565b610120820181905261010082015160e0830151600092611b96929091611b9091610d43565b90610d43565b90503031811115611ba682612306565b604051602001611bb69190612fec565b60405160208183030381529060405290611be65760405160e560020a62461bcd02815260040161018c9190613057565b5060408051426020820152449181019190915260600160408051601f19818403018152919052805160209091012060c08301819052610100830151611c2c9190876123a6565b611c408260c00151836101200151856123a6565b6001876002811115611c5457611c54612b0a565b03611c7157611c6c8260c001518360e0015187612561565b611c9d565b6002876002811115611c8557611c85612b0a565b03611c9d57611c6c8260c001518360e0015185612561565b6020820151600455815160058054600090611cb9908490612ed5565b909155505060408051426020820152449181019190915260600160405160208183030381529060405280519060200120826101400181815250506000604051806101e00160405280846101400151815260200187600001518152602001856000015181526020018460c001518152602001600160009054906101000a9004600160a060020a0316600160a060020a0316815260200184600001518152602001846020015181526020018460400151815260200184606001518152602001846080015181526020018460a001518152602001846101000151815260200184610120015181526020018460e001518152602001896002811115611dbc57611dbc612b0a565b81525090507f1ea5d61fc6547651d1da2473a4367de75ba86fa242234a737008287f52d7913c81604051611df0919061308a565b60405180910390a15050505050505050565b60008183611e265760405160e560020a62461bcd02815260040161018c9190613057565b506000611e338486612eae565b9150505b9392505050565b600063ffffffff81805b60208163ffffffff161015611f0e5760006109088263ffffffff1660208110611e7357611e73612d04565b602081049091015460ff601f9092166101000a900416905060005b60088160ff161015611eee576000611ea7826002612e04565b8360ff1616905080600003611edb5760ff8216611ec5856008612e13565b611ecf9190612e3b565b95506001945050611eee565b5080611ee681612e5f565b915050611e8e565b508215611efb5750611f0e565b5080611f0681612cc7565b915050611e48565b509092915050565b6000611f23600883613143565b90506000611f32600884613166565b905060006109088363ffffffff1660208110611f5057611f50612d04565b602081049091015460ff601f9092166101000a9004169050611f73826002613189565b60ff909116178061090863ffffffff851660208110611f9457611f94612d04565b602091828204019190066101000a81548160ff021916908360ff16021790555050505050565b60015b81811161205157828160058110611fd657611fd6612d04565b602002015183611fe7600184612ed5565b60058110611ff757611ff7612d04565b602002015283816005811061200e5761200e612d04565b60200201518461201f600184612ed5565b6005811061202f5761202f612d04565b63ffffffff9092166020929092020152806120498161319b565b915050611fbd565b50505050565b6000805b60208163ffffffff16101561222a5760006109088263ffffffff166020811061208657612086612d04565b602081049091015460ff601f9092166101000a900416905060005b60088160ff1610156122155760006120ba826002612e04565b831660ff1690506120cc826002612e04565b8160ff1603612201576000600860ff84166120e78783612e13565b6120f19190612e3b565b63ffffffff16610100811061210857612108612d04565b604080516101208101825260099290920292909201805482526001810154600160a060020a03166020830152600280820154938301939093526003810154606083015260048101546080830152600581015460a083015260068101549192909160c084019160ff9091169081111561218257612182612b0a565b600281111561219357612193612b0a565b81526007820154602082015260089091015463ffffffff1660409091015290508660028111156121c5576121c5612b0a565b8160c0015160028111156121db576121db612b0a565b146121e7575050612203565b6101008101516121fd9063ffffffff1687612ec2565b9550505b505b8061220d81612e5f565b9150506120a1565b5050808061222290612cc7565b91505061205b565b50919050565b600061223d600883613143565b9050600061224c600884613166565b905060006109088363ffffffff166020811061226a5761226a612d04565b602081049091015460ff601f9092166101000a900416905061228d826002613189565b191660ff168061090863ffffffff851660208110611f9457611f94612d04565b6000818311156122bd5781610cf8565b5090919050565b6000610cf883836040518060400160405280601e81526020017f536166654d6174683a207375627472616374696f6e206f766572666c6f7700008152506128f9565b606060006123138361292d565b600101905060008167ffffffffffffffff811115612333576123336131b4565b6040519080825280601f01601f19166020018201604052801561235d576020820181803683370190505b5090508181016020015b600019017f3031323334353637383961626364656600000000000000000000000000000000600a86061a8153600a850494508461236757509392505050565b816000036123b357505050565b60208181015160408051600080825293810191829052919291600160a060020a0384169186916123e2916131cd565b60006040518083038185875af1925050503d806000811461241f576040519150601f19603f3d011682016040523d82523d6000602084013e612424565b606091505b505090508061243285612306565b836040516020016124449291906131e9565b604051602081830303815290604052906124745760405160e560020a62461bcd02815260040161018c9190613057565b5060004244604051602001612493929190918252602082015260400190565b60405160208183030381529060405280519060200120905060006040518060a001604052808381526020018660000151815260200188815260200185600160a060020a031681526020018781525090507f18fb24206513f6983861e5acad39384526cb897f511f911740263279449125bc816040516125509190600060a082019050825182526020830151602083015260408301516040830152600160a060020a0360608401511660608301526080830151608083015292915050565b60405180910390a150505050505050565b602081015160075460009061258290606490611a2390879061ffff16610c57565b9050600061259085836122c4565b6007549091506000906125b590606490611a2390869062010000900461ffff16610c57565b905060006125c384836122c4565b6040805160008082526020820192839052929350600160a060020a0388169186916125ed916131cd565b60006040518083038185875af1925050503d806000811461262a576040519150601f19603f3d011682016040523d82523d6000602084013e61262f565b606091505b505090508061263d85612306565b8760405160200161264f929190613292565b6040516020818303038152906040529061267f5760405160e560020a62461bcd02815260040161018c9190613057565b50600154604080516000808252602082019283905292600160a060020a03169186916126aa916131cd565b60006040518083038185875af1925050503d80600081146126e7576040519150601f19603f3d011682016040523d82523d6000602084013e6126ec565b606091505b50509050806126fa86612306565b60405160200161270a919061333b565b6040516020818303038152906040529061273a5760405160e560020a62461bcd02815260040161018c9190613057565b50600080546040805183815260208101909152610100909104600160a060020a031690859060405161276c91906131cd565b60006040518083038185875af1925050503d80600081146127a9576040519150601f19603f3d011682016040523d82523d6000602084013e6127ae565b606091505b50509050806127bc87612306565b6040516020016127cc91906133a6565b604051602081830303815290604052906127fc5760405160e560020a62461bcd02815260040161018c9190613057565b506040805142602080830191909152448284015233606060020a0260608301528251605481840301815260748301808552815191909201206101f4830184528082528c51609484015260b483018f9052600160a060020a038c1660d484015260075461ffff80821660f486015262010000820481166101148601526401000000009091041661013484015261015483018e905261017483018a905261019483018b90526101b483018990526101d490920187905291519091907f8c77d17dfdf762b972b90fefbcc2031d1494f3414de7f55a6b70d7c1b4c3a9d9906128e2908390613411565b60405180910390a150505050505050505050505050565b600081848411156129205760405160e560020a62461bcd02815260040161018c9190613057565b506000611e338486612ed5565b6000807a184f03e93ff9f4daa797ed6e38ed64bf6a1f0100000000000000008310612976577a184f03e93ff9f4daa797ed6e38ed64bf6a1f010000000000000000830492506040015b6d04ee2d6d415b85acef810000000083106129a2576d04ee2d6d415b85acef8100000000830492506020015b662386f26fc1000083106129c057662386f26fc10000830492506010015b6305f5e10083106129d8576305f5e100830492506008015b61271083106129ec57612710830492506004015b606483106129fe576064830492506002015b600a8310610cfb5760010192915050565b6040805161012081018252600080825260208201819052918101829052606081018290526080810182905260a081018290529060c0820190815260006020820181905260409091015290565b6040518060a001604052806005905b612a72612a0f565b815260200190600190039081612a6a5790505090565b6040518060a001604052806005906020820280368337509192915050565b803560038110612ab557600080fd5b919050565b803563ffffffff81168114612ab557600080fd5b600080600060608486031215612ae357600080fd5b83359250612af360208501612aa6565b9150612b0160408501612aba565b90509250925092565b60e060020a634e487b7102600052602160045260246000fd5b60038110612b445760e060020a634e487b7102600052602160045260246000fd5b9052565b80518252600160a060020a03602082015116602083015260408101516040830152606081015160608301526080810151608083015260a081015160a083015260c0810151612b9960c0840182612b23565b5060e081810151908301526101009081015163ffffffff16910152565b63ffffffff831681526101408101611e376020830184612b48565b63ffffffff831681526105c0810160208083018460005b6005811015612c1057612bfc838351612b48565b610120929092019190830190600101612be8565b505050509392505050565b600060208284031215612c2d57600080fd5b610cf882612aa6565b600060208284031215612c4857600080fd5b610cf882612aba565b82151581526101408101611e376020830184612b48565b60208082526013908201527f6f646473646578206861732073746f7070656400000000000000000000000000604082015260600190565b6101208101610cfb8284612b48565b60e060020a634e487b7102600052601160045260246000fd5b600063ffffffff808316818103612ce057612ce0612cae565b6001019392505050565b63ffffffff8316815260408101611e376020830184612b23565b60e060020a634e487b7102600052603260045260246000fd5b600181815b80851115612d5a578160001904821115612d3e57612d3e612cae565b80851615612d4b57918102915b60029094049390800290612d22565b509250929050565b600082612d7157506001610cfb565b81612d7e57506000610cfb565b8160018114612d945760028114612d9e57612dbb565b6001915050610cfb565b60ff841115612daf57612daf612cae565b8360020a915050610cfb565b5060208310610133831016604e8410600b8410161715612dde575081810a610cfb565b612de88383612d1d565b8060001904821115612dfc57612dfc612cae565b029392505050565b6000610cf860ff841683612d62565b63ffffffff818116838216028082169190828114612e3357612e33612cae565b505092915050565b63ffffffff818116838216019080821115612e5857612e58612cae565b5092915050565b600060ff821660ff8103612e7557612e75612cae565b60010192915050565b8082028115828204841417610cfb57610cfb612cae565b60e060020a634e487b7102600052601260045260246000fd5b600082612ebd57612ebd612e95565b500490565b80820180821115610cfb57610cfb612cae565b81810381811115610cfb57610cfb612cae565b60007f80000000000000000000000000000000000000000000000000000000000000008203612f1957612f19612cae565b506000190190565b600082612f3057612f30612e95565b500690565b8a8152896020820152606060020a600160a060020a038a16026040820152600060f860020a8060ff8b160260548401528060ff8a160260558401528060ff89160260568401528060ff88160260578401528060ff871602605884015250612fa7605983018560ff1660f860020a029052565b60f860020a60ff841602605a83015250605b019a9950505050505050505050565b60005b83811015612fe3578181015183820152602001612fcb565b50506000910152565b7f496e73756666696369656e7420636f6e74726163742062616c616e63652e206d81527f696e696d756d2062616c616e63653a200000000000000000000000000000000060208201526000825161304a816030850160208701612fc8565b9190910160300192915050565b6020815260008251806020840152613076816040850160208701612fc8565b601f01601f19169190910160400192915050565b60006101e0820190508251825260208301516020830152604083015160408301526060830151606083015260808301516130cf6080840182600160a060020a03169052565b5060a0838101519083015260c0808401519083015260e08084015190830152610100808401519083015261012080840151908301526101408084015190830152610160808401519083015261018080840151908301526101a080840151908301526101c080840151612e3382850182612b23565b600063ffffffff8084168061315a5761315a612e95565b92169190910492915050565b600063ffffffff8084168061317d5761317d612e95565b92169190910692915050565b6000610cf863ffffffff841683612d62565b6000600182016131ad576131ad612cae565b5060010190565b60e060020a634e487b7102600052604160045260246000fd5b600082516131df818460208701612fc8565b9190910192915050565b7f4554485f5452414e534645525f4641494c45443a20526566756e6420746f207081527f616c7965722e20526566756e6420636f7374733a200000000000000000000000602082015260008351613247816035850160208801612fc8565b7f2c20706c617965723a20000000000000000000000000000000000000000000006035939091019283015250600160a060020a0391909116606060020a02603f820152605301919050565b7f4554485f5452414e534645525f4641494c45443a2073706c6974207072697a6581527f20746f2070616c7965722e20626f6e75733a20000000000000000000000000006020820152600083516132f0816033850160208801612fc8565b7f2c20706c617965723a20000000000000000000000000000000000000000000006033939091019283015250600160a060020a0391909116606060020a02603d820152605101919050565b7f4554485f5452414e534645525f4641494c45443a2073706c6974207072697a6581527f20746f2062726f6b65722e2062726f6b65726167653a20000000000000000000602082015260008251613399816037850160208701612fc8565b9190910160370192915050565b7f4554485f5452414e534645525f4641494c45443a2073706c6974207072697a6581527f20746f20726f6f742e207461783a20000000000000000000000000000000000060208201526000825161340481602f850160208701612fc8565b91909101602f0192915050565b600061018082019050825182526020830151602083015260408301516040830152606083015161344c6060840182600160a060020a03169052565b506080830151613462608084018261ffff169052565b5060a083015161347860a084018261ffff169052565b5060c083015161348e60c084018261ffff169052565b5060e083810151908301526101008084015190830152610120808401519083015261014080840151908301526101609283015192909101919091529056fea2646970667358221220a364f28f71d1eb8609d5c9d51dd61b81f9ca5b0f7c065dbe77e23db70bc7f9f264736f6c63430008130033",
  "immutableReferences": {},
  "source": "// SPDX-License-Identifier: MIT\npragma solidity >=0.4.22 <0.8.20;\nimport \"./IOddsdex.sol\";\nimport \"./SafeMath.sol\";\nimport \"./Strings.sol\";\n\ncontract OddsdexContract is IOddsdexContract {\n    using SafeMath for *;\n\n    bool private running;\n    address private root;\n    address private broker;\n    address private parent;\n    BulletinBoard private bulletinBoard;\n    StakeBill[8 * 32] private stakeBills;\n    uint8[32] private stakeBillsBitmap;\n\n    constructor(address _root, address _broker) {\n        parent = msg.sender;\n        root = _root;\n        broker = _broker;\n        uint256 initialPrice = 100;\n        uint256 oddunit = 0.0001 * (10 ** 18);\n        uint16 kickbackRate = 20;\n        uint16 brokerageRate = 70;\n        uint16 taxRate = 100 - brokerageRate;\n        bulletinBoard = BulletinBoard(\n            oddunit,\n            initialPrice,\n            0,\n            0,\n            kickbackRate,\n            brokerageRate,\n            taxRate\n        );\n        running = true;\n    }\n\n    modifier onlyRoot() {\n        require(msg.sender == root, \"Only root can call this.\");\n        _;\n    }\n\n    modifier onlyBroker() {\n        require(msg.sender == broker, \"Only broker can call this.\");\n        _;\n    }\n    modifier mustRunning() {\n        require(running, \"oddsdex has stopped\");\n        _;\n    }\n\n    function getWeiPrice() public view override returns (uint256) {\n        return bulletinBoard.oddunit * bulletinBoard.price;\n    }\n\n    function getBulletinBoard()\n        public\n        view\n        override\n        returns (BulletinBoard memory)\n    {\n        return bulletinBoard;\n    }\n\n    function isRunning() public view override returns (bool) {\n        return running;\n    }\n\n    function stop() public override {\n        running = false;\n    }\n\n    function run() public override {\n        running = true;\n    }\n\n    function getRoot() public view override returns (address) {\n        return root;\n    }\n\n    function getBroker() public view override returns (address) {\n        return broker;\n    }\n\n    function getBalance() public view override returns (uint256) {\n        return address(this).balance;\n    }\n\n    function getQueueCount() public view override returns (uint256) {\n        return _lengthOfStakeBills(true, CoinDirection.unknown);\n    }\n\n    function getFrontQueueCount() public view override returns (uint256) {\n        return _lengthOfStakeBills(false, CoinDirection.front);\n    }\n\n    function getBackQueueCount() public view override returns (uint256) {\n        return _lengthOfStakeBills(false, CoinDirection.back);\n    }\n\n    function getTopFiveBillFrontQueue()\n        public\n        view\n        override\n        returns (uint32 length, StakeBill[5] memory bills)\n    {\n        (length, , bills) = _topFiveOfStakeBill(CoinDirection.front);\n        return (length, bills);\n    }\n\n    function getTopFiveBillBackQueue()\n        public\n        view\n        override\n        returns (uint32 length, StakeBill[5] memory bills)\n    {\n        (length, , bills) = _topFiveOfStakeBill(CoinDirection.back);\n        return (length, bills);\n    }\n\n    function getFirstBillOfFrontQueue()\n        public\n        view\n        override\n        returns (uint32 bitIndexAt, StakeBill memory bill)\n    {\n        return _topFirstOfStakeBill(CoinDirection.front);\n    }\n\n    function getFirstBillOfBackQueue()\n        public\n        view\n        override\n        returns (uint32 bitIndexAt, StakeBill memory bill)\n    {\n        return _topFirstOfStakeBill(CoinDirection.back);\n    }\n\n    function getStakeBill(\n        uint32 index\n    ) public view override returns (bool exists, StakeBill memory bill) {\n        uint32 count;\n        for (uint32 i = 0; i < stakeBillsBitmap.length; i++) {\n            uint8 b = stakeBillsBitmap[i];\n            for (uint8 j = 0; j < 8; j++) {\n                uint8 v = uint8(b & (2 ** j));\n                if (v == 2 ** j) {\n                    if (count == index) {\n                        return (true, stakeBills[i * 8 + j]);\n                    }\n                    count++;\n                }\n            }\n        }\n        StakeBill memory ret;\n        return (false, ret);\n    }\n\n    function _calculateWinningDirection()\n        internal\n        view\n        returns (LuckyNumber memory lvar, CoinDirection winningDirection)\n    {\n        lvar.r1 = uint8(\n            uint256(\n                keccak256(\n                    abi.encodePacked(\n                        block.timestamp,\n                        block.difficulty,\n                        msg.sender\n                    )\n                )\n            ) % 10\n        );\n        lvar.r2 = uint8(\n            uint256(\n                keccak256(\n                    abi.encodePacked(\n                        block.timestamp,\n                        block.difficulty,\n                        msg.sender,\n                        lvar.r1\n                    )\n                )\n            ) % 10\n        );\n\n        lvar.r3 = uint8(\n            uint256(\n                keccak256(\n                    abi.encodePacked(\n                        block.timestamp,\n                        block.difficulty,\n                        msg.sender,\n                        lvar.r1,\n                        lvar.r2\n                    )\n                )\n            ) % 10\n        );\n        lvar.r4 = uint8(\n            uint256(\n                keccak256(\n                    abi.encodePacked(\n                        block.timestamp,\n                        block.difficulty,\n                        msg.sender,\n                        lvar.r1,\n                        lvar.r2,\n                        lvar.r3\n                    )\n                )\n            ) % 10\n        );\n        lvar.r5 = uint8(\n            uint256(\n                keccak256(\n                    abi.encodePacked(\n                        block.timestamp,\n                        block.difficulty,\n                        msg.sender,\n                        lvar.r1,\n                        lvar.r2,\n                        lvar.r3,\n                        lvar.r4\n                    )\n                )\n            ) % 10\n        );\n\n        uint256 totalF = _totalLuckyNumber(CoinDirection.front);\n        uint256 totalB = _totalLuckyNumber(CoinDirection.back);\n\n        lvar.f = uint8(\n            uint256(\n                keccak256(\n                    abi.encodePacked(\n                        block.timestamp,\n                        block.difficulty,\n                        msg.sender,\n                        totalF\n                    )\n                )\n            ) % 10\n        );\n        lvar.b = uint8(\n            uint256(\n                keccak256(\n                    abi.encodePacked(\n                        block.timestamp,\n                        block.difficulty,\n                        msg.sender,\n                        totalB\n                    )\n                )\n            ) % 10\n        );\n\n        uint256 v = uint256(\n            keccak256(\n                abi.encodePacked(\n                    block.timestamp,\n                    block.difficulty,\n                    msg.sender,\n                    lvar.r1,\n                    lvar.r2,\n                    lvar.r3,\n                    lvar.r4,\n                    lvar.r5,\n                    lvar.f,\n                    lvar.b\n                )\n            )\n        ) % 2;\n        lvar.sign = v;\n        if (v == 1) {\n            return (lvar, CoinDirection.front);\n        } else {\n            return (lvar, CoinDirection.back);\n        }\n    }\n\n    function _totalLuckyNumber(\n        CoinDirection direction\n    ) private view returns (uint256 total) {\n        for (uint32 i = 0; i < stakeBillsBitmap.length; i++) {\n            uint8 b = stakeBillsBitmap[i];\n            for (uint8 j = 0; j < 8; j++) {\n                uint8 v = uint8(b & (2 ** j));\n                if (v == 2 ** j) {\n                    StakeBill memory bill = stakeBills[i * 8 + j];\n                    if (bill.buyDirection != direction) {\n                        continue;\n                    }\n                    total += bill.luckyNumber;\n                }\n            }\n        }\n        return total;\n    }\n\n    function canMatchmaking(\n        CoinDirection winningDirection\n    ) public view override returns (bool matched) {\n        (uint32 bitIndexAtF, StakeBill memory tailF) = _topFirstOfStakeBill(\n            CoinDirection.front\n        );\n        if (bitIndexAtF == 0xFFFFFFFF) {\n            return false;\n        }\n        (uint32 bitIndexAtB, StakeBill memory tailB) = _topFirstOfStakeBill(\n            CoinDirection.back\n        );\n        if (bitIndexAtB == 0xFFFFFFFF) {\n            return false;\n        }\n\n        if (winningDirection == CoinDirection.front) {\n            return tailF.buyPrice <= tailB.buyPrice;\n        } else if (winningDirection == CoinDirection.back) {\n            return tailB.buyPrice <= tailF.buyPrice;\n        } else {\n            return false;\n        }\n    }\n\n    function matchmake() public override onlyBroker mustRunning {\n        uint32 matchmakeTimes;\n        (, CoinDirection _winningDirection) = _calculateWinningDirection();\n        while (canMatchmaking(_winningDirection)) {\n            _matchmakePairBill(_winningDirection);\n            matchmakeTimes++;\n        }\n        emit OnMatchmakeReturn(matchmakeTimes, _winningDirection);\n    }\n\n    struct LocalVar {\n        uint256 dealOdds;\n        uint256 dealPrice;\n        uint256 tailFOdds;\n        uint256 tailBOdds;\n        uint256 tailFCostOnBill;\n        uint256 tailBCostOnBill;\n        bytes32 mtn;\n        uint256 prize;\n        uint256 tailFRefundCost;\n        uint256 tailBRefundCost;\n        bytes32 matchmakingBillId;\n    }\n\n    function _matchmakePairBill(CoinDirection winningDirection) private {\n        //\n        (uint32 bitIndexAtF, StakeBill memory tailF) = _topFirstOfStakeBill(\n            CoinDirection.front\n        );\n        if (bitIndexAtF == 0xFFFFFFFF) {\n            return;\n        }\n        (uint32 bitIndexAtB, StakeBill memory tailB) = _topFirstOfStakeBill(\n            CoinDirection.back\n        );\n        if (bitIndexAtB == 0xFFFFFFFF) {\n            return;\n        }\n        //\n        _removeStakeBill(bitIndexAtF);\n        _removeStakeBill(bitIndexAtB);\n\n        LocalVar memory lvar;\n        //\n        lvar.dealOdds = _min(tailF.odds, tailB.odds);\n        lvar.dealPrice = (tailF.buyPrice.add(tailB.buyPrice)).div(2);\n        lvar.tailFOdds = tailF.odds.sub(lvar.dealOdds);\n        lvar.tailBOdds = tailB.odds.sub(lvar.dealOdds);\n        lvar.tailFCostOnBill = lvar.tailFOdds.mul(tailF.buyPrice).mul(\n            bulletinBoard.oddunit\n        );\n        lvar.tailBCostOnBill = lvar.tailBOdds.mul(tailB.buyPrice).mul(\n            bulletinBoard.oddunit\n        );\n\n        //\n        if (lvar.tailFOdds > 0) {\n            tailF.costs = lvar.tailFCostOnBill;\n            tailF.odds = lvar.tailFOdds;\n            storeStakeBill(tailF);\n        }\n        if (lvar.tailBOdds > 0) {\n            tailB.costs = lvar.tailBCostOnBill;\n            tailB.odds = lvar.tailBOdds;\n            storeStakeBill(tailB);\n        }\n\n        lvar.prize = lvar.dealOdds.mul(lvar.dealPrice).mul(\n            bulletinBoard.oddunit\n        );\n        lvar.tailFRefundCost = tailF\n            .odds\n            .mul(tailF.buyPrice)\n            .mul(bulletinBoard.oddunit)\n            .sub(lvar.tailFCostOnBill);\n        lvar.tailBRefundCost = tailB\n            .odds\n            .mul(tailB.buyPrice)\n            .mul(bulletinBoard.oddunit)\n            .sub(lvar.tailBCostOnBill);\n\n        //Verify Balance\n        uint256 minimumBalance = lvar\n            .prize\n            .add(lvar.tailFRefundCost)\n            .add(lvar.tailBRefundCost);\n            // .add(0.1*(10**18));//Estimating gas fee, Set to 1 because dynamic estimation is also inaccurate\n        require(\n            address(this).balance >= minimumBalance,\n            string.concat(\n                \"Insufficient contract balance. minimum balance: \",\n                Strings.toString(minimumBalance)\n            )\n        );\n\n        //mtn is Matchmaking transaction number\n        lvar.mtn = bytes32(\n            keccak256(abi.encodePacked(block.timestamp, block.difficulty))\n        );\n\n        _refundCost(lvar.mtn, lvar.tailFRefundCost, tailF);\n        _refundCost(lvar.mtn, lvar.tailBRefundCost, tailB);\n\n        if (winningDirection == CoinDirection.front) {\n            _splitPrize(lvar.mtn, lvar.prize, tailF);\n        } else if (winningDirection == CoinDirection.back) {\n            _splitPrize(lvar.mtn, lvar.prize, tailB);\n        } else {}\n\n        bulletinBoard.price = lvar.dealPrice;\n        bulletinBoard.odds -= lvar.dealOdds;\n\n        lvar.matchmakingBillId = bytes32(\n            keccak256(abi.encodePacked(block.timestamp, block.difficulty))\n        );\n\n        MatchmakingBill memory _mbill = MatchmakingBill(\n            lvar.matchmakingBillId,\n            tailF.id,\n            tailB.id,\n            lvar.mtn,\n            broker,\n            lvar.dealOdds,\n            lvar.dealPrice,\n            lvar.tailFOdds,\n            lvar.tailBOdds,\n            lvar.tailFCostOnBill,\n            lvar.tailBCostOnBill,\n            lvar.tailFRefundCost,\n            lvar.tailBRefundCost,\n            lvar.prize,\n            winningDirection\n        );\n        emit OnMatchMakingEvent(_mbill);\n    }\n\n    function _refundCost(\n        bytes32 mtn,\n        uint256 costs,\n        StakeBill memory bill\n    ) private {\n        if (costs == 0) {\n            return;\n        }\n        address player = bill.owner;\n        (bool success, ) = payable(player).call{value: costs}(new bytes(0));\n        require(\n            success,\n            string(\n                abi.encodePacked(\n                    \"ETH_TRANSFER_FAILED: Refund to palyer. Refund costs: \",\n                    Strings.toString(costs),\n                    \", player: \",\n                    player\n                )\n            )\n        );\n\n        bytes32 idBytes = keccak256(\n            abi.encodePacked(block.timestamp, block.difficulty)\n        );\n        RefundBill memory _rbill = RefundBill(\n            idBytes,\n            bill.id,\n            mtn,\n            player,\n            costs\n        );\n        emit OnRefundBillEvent(_rbill);\n    }\n\n    function _splitPrize(\n        bytes32 mtn,\n        uint256 prize,\n        StakeBill memory bill\n    ) private {\n        address player = bill.owner;\n        uint256 kickback = prize.mul(bulletinBoard.kickbackRate).div(100);\n        uint256 bonusOfPlayer = prize.sub(kickback);\n        uint256 brokerage = kickback.mul(bulletinBoard.brokerageRate).div(100);\n        uint256 tax = kickback.sub(brokerage);\n\n        (bool success, ) = payable(player).call{value: bonusOfPlayer}(\n            new bytes(0)\n        );\n        require(\n            success,\n            string(\n                abi.encodePacked(\n                    \"ETH_TRANSFER_FAILED: split prize to palyer. bonus: \",\n                    Strings.toString(bonusOfPlayer),\n                    \", player: \",\n                    player\n                )\n            )\n        );\n        (bool success1, ) = payable(broker).call{value: brokerage}(\n            new bytes(0)\n        );\n        require(\n            success1,\n            string(\n                abi.encodePacked(\n                    \"ETH_TRANSFER_FAILED: split prize to broker. brokerage: \",\n                    Strings.toString(bonusOfPlayer)\n                )\n            )\n        );\n        (bool success2, ) = payable(root).call{value: tax}(new bytes(0));\n        require(\n            success2,\n            string(\n                abi.encodePacked(\n                    \"ETH_TRANSFER_FAILED: split prize to root. tax: \",\n                    Strings.toString(bonusOfPlayer)\n                )\n            )\n        );\n\n        bytes32 idBytes = keccak256(\n            abi.encodePacked(block.timestamp, block.difficulty, msg.sender)\n        );\n        SplitBill memory _sbill = SplitBill(\n            idBytes,\n            bill.id,\n            mtn,\n            player,\n            bulletinBoard.kickbackRate,\n            bulletinBoard.brokerageRate,\n            bulletinBoard.taxRate,\n            prize,\n            bonusOfPlayer,\n            kickback,\n            brokerage,\n            tax\n        );\n        emit OnSplitBillEvent(_sbill);\n    }\n\n    function _min(uint256 a, uint256 b) internal pure returns (uint256) {\n        return a <= b ? a : b;\n    }\n\n    function recharge() external payable onlyBroker mustRunning {\n        require(msg.value > 0, \"Feeding cannot be zero\");\n        RechargeBill memory bm = RechargeBill(\n            msg.sender,\n            msg.value,\n            address(this).balance,\n            gasleft()\n        );\n        emit OnRechargeEvent(bm);\n    }\n\n    fallback() external payable {\n        require(false, \"No other calls supported\");\n    }\n\n    receive() external payable {\n        require(false, \"No other calls supported\");\n    }\n\n    function stake(\n        uint256 buyPrice,\n        CoinDirection buyDirection,\n        uint32 luckyNumber\n    ) external payable override mustRunning {\n        require(\n            buyDirection != CoinDirection.unknown,\n            \"Buying direction is unknown\"\n        );\n\n        uint256 odds = msg.value.div(bulletinBoard.oddunit.mul(buyPrice));\n        // require(odds >= 10, \"Minimum purchase of 10 odds\");\n        bulletinBoard.odds = bulletinBoard.odds.add(odds);\n        bulletinBoard.funds = bulletinBoard.funds.add(msg.value);\n        bytes32 idBytes = keccak256(\n            abi.encodePacked(block.timestamp, block.difficulty)\n        );\n        StakeBill memory bill = StakeBill(\n            idBytes,\n            msg.sender,\n            odds,\n            msg.value,\n            buyPrice,\n            bulletinBoard.price,\n            buyDirection,\n            gasleft(),\n            luckyNumber\n        );\n        storeStakeBill(bill);\n        emit OnStakeBillEvent(bill);\n    }\n\n    function _getFirstSpaceBit() private view returns (uint32) {\n        uint32 index = 0xFFFFFFFF;\n        bool found;\n        for (uint32 i = 0; i < stakeBillsBitmap.length; i++) {\n            uint8 b = stakeBillsBitmap[i];\n            for (uint8 j = 0; j < 8; j++) {\n                uint v = b & (2 ** j);\n                if (v == 0) {\n                    index = i * 8 + j;\n                    found = true;\n                    break;\n                }\n            }\n            if (found) {\n                break;\n            }\n        }\n        return index;\n    }\n\n    function _lengthOfStakeBills(\n        bool all,\n        CoinDirection direction\n    ) private view returns (uint32) {\n        uint32 len = 0;\n        for (uint32 i = 0; i < stakeBillsBitmap.length; i++) {\n            uint8 b = stakeBillsBitmap[i];\n            for (uint8 j = 0; j < 8; j++) {\n                uint8 v = uint8(b & (2 ** j));\n                if (v == 2 ** j) {\n                    StakeBill memory bill = stakeBills[i * 8 + j];\n                    if (!all && bill.buyDirection != direction) {\n                        continue;\n                    }\n                    len++;\n                }\n            }\n        }\n        return len;\n    }\n\n    function _topFiveOfStakeBill(\n        CoinDirection direction\n    )\n        private\n        view\n        returns (\n            uint32 length,\n            uint32[5] memory bitIndexAts,\n            StakeBill[5] memory bills\n        )\n    {\n        for (uint32 i = 0; i < stakeBillsBitmap.length; i++) {\n            uint8 b = stakeBillsBitmap[i];\n            for (uint8 j = 0; j < 8; j++) {\n                uint8 v = uint8(b & (2 ** j));\n                if (v == 2 ** j) {\n                    StakeBill memory bill = stakeBills[i * 8 + j];\n                    if (bill.buyDirection != direction) {\n                        continue;\n                    }\n                    if (bill.buyPrice < bills[0].buyPrice) {\n                        continue;\n                    }\n                    uint pos = bills.length;\n                    for (int t = int(bills.length - 1); t > -1; t--) {\n                        if (bill.buyPrice > bills[uint(t)].buyPrice) {\n                            pos = uint(t);\n                            _moveFronts(bitIndexAts, bills, pos);\n                            bills[pos] = bill;\n                            bitIndexAts[pos] = i * 8 + j;\n                            length++;\n                            break;\n                        }\n                    }\n                }\n            }\n        }\n        if (length > bills.length) {\n            length = uint32(bills.length);\n        }\n        return (length, bitIndexAts, bills);\n    }\n\n    function _moveFronts(\n        uint32[5] memory bitIndexAts,\n        StakeBill[5] memory bills,\n        uint pos\n    ) private pure {\n        for (uint i = 1; i <= pos; i++) {\n            bills[i - 1] = bills[i];\n            bitIndexAts[i - 1] = bitIndexAts[i];\n        }\n    }\n\n    function _topFirstOfStakeBill(\n        CoinDirection direction\n    ) private view returns (uint32 bitIndexAt, StakeBill memory bill) {\n        StakeBill memory maxbill;\n        bitIndexAt = 0xFFFFFFFF;\n        for (uint32 i = 0; i < stakeBillsBitmap.length; i++) {\n            uint8 b = stakeBillsBitmap[i];\n            for (uint8 j = 0; j < 8; j++) {\n                uint8 v = uint8(b & (2 ** j));\n                if (v == 2 ** j) {\n                    bill = stakeBills[i * 8 + j];\n                    if (bill.buyDirection != direction) {\n                        continue;\n                    }\n                    if (bill.buyPrice > maxbill.buyPrice) {\n                        maxbill = bill;\n                        bitIndexAt = i * 8 + j;\n                    }\n                }\n            }\n        }\n        return (bitIndexAt, maxbill);\n    }\n\n    function _removeStakeBill(uint32 index) private {\n        uint32 i = index / 8;\n        uint32 j = index % 8;\n        uint8 v = stakeBillsBitmap[i];\n        v = uint8(v & (~(2 ** j)));\n        stakeBillsBitmap[i] = v;\n    }\n\n    function _setStakeBillAt(uint32 index) private {\n        uint32 i = index / 8;\n        uint32 j = index % 8;\n        uint8 v = stakeBillsBitmap[i];\n        v = uint8(v | (2 ** j));\n        stakeBillsBitmap[i] = v;\n    }\n\n    function storeStakeBill(StakeBill memory bill) private {\n        uint32 index = _getFirstSpaceBit();\n        require(index != 0xFFFFFFFF, \"Stake Bill Array space is full\");\n        stakeBills[index] = bill;\n        _setStakeBillAt(index);\n    }\n}\n",
  "sourcePath": "/Users/cj/games/game-oddsdex/contracts/OddsdexContract.sol",
  "compiler": {
    "name": "solc",
    "version": "0.8.19+commit.7dd6d404.Emscripten.clang"
  },
  "schemaVersion": "3.4.14",
  "updatedAt": "2023-08-28T17:04:20.659Z",
  "networkType": "ethereum",
  "devdoc": {
    "kind": "dev",
    "methods": {},
    "version": 1
  },
  "userdoc": {
    "kind": "user",
    "methods": {},
    "version": 1
  }
}